{
  "_format": "hh-sol-artifact-1",
  "contractName": "CircuitVersionManager",
  "sourceName": "contracts/CircuitVersionManager.sol",
  "abi": [
    {
      "inputs": [
        {
          "internalType": "address",
          "name": "_registry",
          "type": "address"
        },
        {
          "internalType": "address[]",
          "name": "_governors",
          "type": "address[]"
        },
        {
          "internalType": "uint256",
          "name": "_requiredApprovals",
          "type": "uint256"
        }
      ],
      "stateMutability": "nonpayable",
      "type": "constructor"
    },
    {
      "inputs": [],
      "name": "AlreadyApproved",
      "type": "error"
    },
    {
      "inputs": [],
      "name": "InsufficientApprovals",
      "type": "error"
    },
    {
      "inputs": [],
      "name": "InvalidGovernor",
      "type": "error"
    },
    {
      "inputs": [],
      "name": "InvalidVerifier",
      "type": "error"
    },
    {
      "inputs": [],
      "name": "InvalidVersion",
      "type": "error"
    },
    {
      "inputs": [],
      "name": "ProposalAlreadyExecuted",
      "type": "error"
    },
    {
      "inputs": [],
      "name": "ProposalNotReady",
      "type": "error"
    },
    {
      "inputs": [],
      "name": "SystemPaused",
      "type": "error"
    },
    {
      "inputs": [],
      "name": "Unauthorized",
      "type": "error"
    },
    {
      "anonymous": false,
      "inputs": [
        {
          "indexed": true,
          "internalType": "address",
          "name": "governor",
          "type": "address"
        }
      ],
      "name": "GovernorAdded",
      "type": "event"
    },
    {
      "anonymous": false,
      "inputs": [
        {
          "indexed": true,
          "internalType": "address",
          "name": "governor",
          "type": "address"
        }
      ],
      "name": "GovernorRemoved",
      "type": "event"
    },
    {
      "anonymous": false,
      "inputs": [
        {
          "indexed": false,
          "internalType": "bool",
          "name": "paused",
          "type": "bool"
        }
      ],
      "name": "PauseToggled",
      "type": "event"
    },
    {
      "anonymous": false,
      "inputs": [
        {
          "indexed": true,
          "internalType": "uint256",
          "name": "proposalId",
          "type": "uint256"
        },
        {
          "indexed": true,
          "internalType": "address",
          "name": "governor",
          "type": "address"
        },
        {
          "indexed": false,
          "internalType": "uint256",
          "name": "approvalCount",
          "type": "uint256"
        }
      ],
      "name": "ProposalApproved",
      "type": "event"
    },
    {
      "anonymous": false,
      "inputs": [
        {
          "indexed": true,
          "internalType": "uint256",
          "name": "proposalId",
          "type": "uint256"
        },
        {
          "indexed": true,
          "internalType": "uint256",
          "name": "newVersion",
          "type": "uint256"
        },
        {
          "indexed": true,
          "internalType": "address",
          "name": "newVerifier",
          "type": "address"
        },
        {
          "indexed": false,
          "internalType": "address",
          "name": "proposer",
          "type": "address"
        }
      ],
      "name": "ProposalCreated",
      "type": "event"
    },
    {
      "anonymous": false,
      "inputs": [
        {
          "indexed": true,
          "internalType": "uint256",
          "name": "proposalId",
          "type": "uint256"
        },
        {
          "indexed": true,
          "internalType": "uint256",
          "name": "newVersion",
          "type": "uint256"
        },
        {
          "indexed": true,
          "internalType": "address",
          "name": "newVerifier",
          "type": "address"
        }
      ],
      "name": "ProposalExecuted",
      "type": "event"
    },
    {
      "anonymous": false,
      "inputs": [
        {
          "indexed": true,
          "internalType": "uint256",
          "name": "versionId",
          "type": "uint256"
        },
        {
          "indexed": true,
          "internalType": "address",
          "name": "verifier",
          "type": "address"
        }
      ],
      "name": "VersionActivated",
      "type": "event"
    },
    {
      "anonymous": false,
      "inputs": [
        {
          "indexed": true,
          "internalType": "uint256",
          "name": "versionId",
          "type": "uint256"
        },
        {
          "indexed": false,
          "internalType": "uint256",
          "name": "deprecationTime",
          "type": "uint256"
        }
      ],
      "name": "VersionDeprecated",
      "type": "event"
    },
    {
      "inputs": [],
      "name": "DEPRECATION_GRACE_PERIOD",
      "outputs": [
        {
          "internalType": "uint256",
          "name": "",
          "type": "uint256"
        }
      ],
      "stateMutability": "view",
      "type": "function"
    },
    {
      "inputs": [],
      "name": "TIMELOCK_DURATION",
      "outputs": [
        {
          "internalType": "uint256",
          "name": "",
          "type": "uint256"
        }
      ],
      "stateMutability": "view",
      "type": "function"
    },
    {
      "inputs": [
        {
          "internalType": "address",
          "name": "_governor",
          "type": "address"
        }
      ],
      "name": "addGovernor",
      "outputs": [],
      "stateMutability": "nonpayable",
      "type": "function"
    },
    {
      "inputs": [
        {
          "internalType": "uint256",
          "name": "_proposalId",
          "type": "uint256"
        }
      ],
      "name": "approveProposal",
      "outputs": [],
      "stateMutability": "nonpayable",
      "type": "function"
    },
    {
      "inputs": [
        {
          "internalType": "uint256",
          "name": "_versionId",
          "type": "uint256"
        }
      ],
      "name": "deprecateVersion",
      "outputs": [],
      "stateMutability": "nonpayable",
      "type": "function"
    },
    {
      "inputs": [
        {
          "internalType": "uint256",
          "name": "_proposalId",
          "type": "uint256"
        }
      ],
      "name": "executeProposal",
      "outputs": [],
      "stateMutability": "nonpayable",
      "type": "function"
    },
    {
      "inputs": [],
      "name": "getAllVersions",
      "outputs": [
        {
          "internalType": "uint256[]",
          "name": "",
          "type": "uint256[]"
        }
      ],
      "stateMutability": "view",
      "type": "function"
    },
    {
      "inputs": [],
      "name": "getGovernors",
      "outputs": [
        {
          "internalType": "address[]",
          "name": "",
          "type": "address[]"
        }
      ],
      "stateMutability": "view",
      "type": "function"
    },
    {
      "inputs": [
        {
          "internalType": "uint256",
          "name": "_proposalId",
          "type": "uint256"
        }
      ],
      "name": "getProposal",
      "outputs": [
        {
          "internalType": "uint256",
          "name": "newVersion",
          "type": "uint256"
        },
        {
          "internalType": "address",
          "name": "newVerifier",
          "type": "address"
        },
        {
          "internalType": "string",
          "name": "metadata",
          "type": "string"
        },
        {
          "internalType": "uint256",
          "name": "proposedAt",
          "type": "uint256"
        },
        {
          "internalType": "uint256",
          "name": "activationTime",
          "type": "uint256"
        },
        {
          "internalType": "uint256",
          "name": "approvalCount",
          "type": "uint256"
        },
        {
          "internalType": "bool",
          "name": "executed",
          "type": "bool"
        }
      ],
      "stateMutability": "view",
      "type": "function"
    },
    {
      "inputs": [
        {
          "internalType": "uint256",
          "name": "_versionId",
          "type": "uint256"
        }
      ],
      "name": "getVersionInfo",
      "outputs": [
        {
          "components": [
            {
              "internalType": "uint256",
              "name": "versionId",
              "type": "uint256"
            },
            {
              "internalType": "address",
              "name": "verifier",
              "type": "address"
            },
            {
              "internalType": "uint256",
              "name": "activationTime",
              "type": "uint256"
            },
            {
              "internalType": "uint256",
              "name": "deprecationTime",
              "type": "uint256"
            },
            {
              "internalType": "bool",
              "name": "isActive",
              "type": "bool"
            },
            {
              "internalType": "bool",
              "name": "isDeprecated",
              "type": "bool"
            },
            {
              "internalType": "string",
              "name": "metadata",
              "type": "string"
            }
          ],
          "internalType": "struct CircuitVersionManager.VersionInfo",
          "name": "",
          "type": "tuple"
        }
      ],
      "stateMutability": "view",
      "type": "function"
    },
    {
      "inputs": [
        {
          "internalType": "uint256",
          "name": "",
          "type": "uint256"
        }
      ],
      "name": "governors",
      "outputs": [
        {
          "internalType": "address",
          "name": "",
          "type": "address"
        }
      ],
      "stateMutability": "view",
      "type": "function"
    },
    {
      "inputs": [
        {
          "internalType": "address",
          "name": "_address",
          "type": "address"
        }
      ],
      "name": "isGovernor",
      "outputs": [
        {
          "internalType": "bool",
          "name": "",
          "type": "bool"
        }
      ],
      "stateMutability": "view",
      "type": "function"
    },
    {
      "inputs": [
        {
          "internalType": "uint256",
          "name": "_versionId",
          "type": "uint256"
        }
      ],
      "name": "isVersionValid",
      "outputs": [
        {
          "internalType": "bool",
          "name": "",
          "type": "bool"
        }
      ],
      "stateMutability": "view",
      "type": "function"
    },
    {
      "inputs": [],
      "name": "nextProposalId",
      "outputs": [
        {
          "internalType": "uint256",
          "name": "",
          "type": "uint256"
        }
      ],
      "stateMutability": "view",
      "type": "function"
    },
    {
      "inputs": [],
      "name": "paused",
      "outputs": [
        {
          "internalType": "bool",
          "name": "",
          "type": "bool"
        }
      ],
      "stateMutability": "view",
      "type": "function"
    },
    {
      "inputs": [
        {
          "internalType": "uint256",
          "name": "",
          "type": "uint256"
        }
      ],
      "name": "proposals",
      "outputs": [
        {
          "internalType": "uint256",
          "name": "proposalId",
          "type": "uint256"
        },
        {
          "internalType": "uint256",
          "name": "newVersion",
          "type": "uint256"
        },
        {
          "internalType": "address",
          "name": "newVerifier",
          "type": "address"
        },
        {
          "internalType": "string",
          "name": "metadata",
          "type": "string"
        },
        {
          "internalType": "uint256",
          "name": "proposedAt",
          "type": "uint256"
        },
        {
          "internalType": "uint256",
          "name": "activationTime",
          "type": "uint256"
        },
        {
          "internalType": "uint256",
          "name": "approvalCount",
          "type": "uint256"
        },
        {
          "internalType": "bool",
          "name": "executed",
          "type": "bool"
        }
      ],
      "stateMutability": "view",
      "type": "function"
    },
    {
      "inputs": [
        {
          "internalType": "uint256",
          "name": "_newVersion",
          "type": "uint256"
        },
        {
          "internalType": "address",
          "name": "_newVerifier",
          "type": "address"
        },
        {
          "internalType": "string",
          "name": "_metadata",
          "type": "string"
        }
      ],
      "name": "proposeUpgrade",
      "outputs": [
        {
          "internalType": "uint256",
          "name": "",
          "type": "uint256"
        }
      ],
      "stateMutability": "nonpayable",
      "type": "function"
    },
    {
      "inputs": [],
      "name": "registry",
      "outputs": [
        {
          "internalType": "contract DeFiScoreRegistry",
          "name": "",
          "type": "address"
        }
      ],
      "stateMutability": "view",
      "type": "function"
    },
    {
      "inputs": [
        {
          "internalType": "address",
          "name": "_governor",
          "type": "address"
        }
      ],
      "name": "removeGovernor",
      "outputs": [],
      "stateMutability": "nonpayable",
      "type": "function"
    },
    {
      "inputs": [],
      "name": "requiredApprovals",
      "outputs": [
        {
          "internalType": "uint256",
          "name": "",
          "type": "uint256"
        }
      ],
      "stateMutability": "view",
      "type": "function"
    },
    {
      "inputs": [],
      "name": "togglePause",
      "outputs": [],
      "stateMutability": "nonpayable",
      "type": "function"
    },
    {
      "inputs": [
        {
          "internalType": "uint256",
          "name": "",
          "type": "uint256"
        }
      ],
      "name": "versionList",
      "outputs": [
        {
          "internalType": "uint256",
          "name": "",
          "type": "uint256"
        }
      ],
      "stateMutability": "view",
      "type": "function"
    },
    {
      "inputs": [
        {
          "internalType": "uint256",
          "name": "",
          "type": "uint256"
        }
      ],
      "name": "versions",
      "outputs": [
        {
          "internalType": "uint256",
          "name": "versionId",
          "type": "uint256"
        },
        {
          "internalType": "address",
          "name": "verifier",
          "type": "address"
        },
        {
          "internalType": "uint256",
          "name": "activationTime",
          "type": "uint256"
        },
        {
          "internalType": "uint256",
          "name": "deprecationTime",
          "type": "uint256"
        },
        {
          "internalType": "bool",
          "name": "isActive",
          "type": "bool"
        },
        {
          "internalType": "bool",
          "name": "isDeprecated",
          "type": "bool"
        },
        {
          "internalType": "string",
          "name": "metadata",
          "type": "string"
        }
      ],
      "stateMutability": "view",
      "type": "function"
    }
  ],
  "bytecode": "0x60a06040523480156200001157600080fd5b50604051620025ac380380620025ac833981016040819052620000349162000426565b6001600160a01b038316620000835760405162461bcd60e51b815260206004820152601060248201526f496e76616c696420726567697374727960801b60448201526064015b60405180910390fd5b8082511015620000d65760405162461bcd60e51b815260206004820152601660248201527f496e76616c696420617070726f76616c20636f756e740000000000000000000060448201526064016200007a565b60008111620001285760405162461bcd60e51b815260206004820181905260248201527f4d7573742072657175697265206174206c65617374203120617070726f76616c60448201526064016200007a565b6001600160a01b03831660805281516200014a90600090602085019062000372565b508060018190555060006080516001600160a01b0316639d888e866040518163ffffffff1660e01b8152600401602060405180830381865afa15801562000195573d6000803e3d6000fd5b505050506040513d601f19601f82011682018060405250810190620001bb919062000518565b905060006080516001600160a01b0316633561bc27836040518263ffffffff1660e01b8152600401620001f091815260200190565b602060405180830381865afa1580156200020e573d6000803e3d6000fd5b505050506040513d601f19601f8201168201806040525081019062000234919062000532565b90506001600160a01b0381161562000367576040805160e0810182528381526001600160a01b0380841660208084019182524284860190815260006060860181815260016080880181815260a089018481528a51808c018c52600f81526e24b734ba34b0b6103b32b939b4b7b760891b8189015260c08b019081528d86526003978890529a9094208951815596519187018054929098166001600160a01b031990921691909117909655915160028501559051918301919091559151600482018054935115156101000261ff00199215159290921661ffff199094169390931717909155915190919060058201906200032e9082620005e6565b5050600680546001810182556000919091527ff652222313e28459528d920b65115c16c04f3efc82aaedc97be59f3f377c0d3f01839055505b5050505050620006b2565b828054828255906000526020600020908101928215620003ca579160200282015b82811115620003ca57825182546001600160a01b0319166001600160a01b0390911617825560209092019160019091019062000393565b50620003d8929150620003dc565b5090565b5b80821115620003d85760008155600101620003dd565b80516001600160a01b03811681146200040b57600080fd5b919050565b634e487b7160e01b600052604160045260246000fd5b6000806000606084860312156200043c57600080fd5b6200044784620003f3565b602085810151919450906001600160401b03808211156200046757600080fd5b818701915087601f8301126200047c57600080fd5b81518181111562000491576200049162000410565b8060051b604051601f19603f83011681018181108582111715620004b957620004b962000410565b60405291825284820192508381018501918a831115620004d857600080fd5b938501935b828510156200050157620004f185620003f3565b84529385019392850192620004dd565b809750505050505050604084015190509250925092565b6000602082840312156200052b57600080fd5b5051919050565b6000602082840312156200054557600080fd5b6200055082620003f3565b9392505050565b600181811c908216806200056c57607f821691505b6020821081036200058d57634e487b7160e01b600052602260045260246000fd5b50919050565b601f821115620005e157600081815260208120601f850160051c81016020861015620005bc5750805b601f850160051c820191505b81811015620005dd57828155600101620005c8565b5050505b505050565b81516001600160401b0381111562000602576200060262000410565b6200061a8162000613845462000557565b8462000593565b602080601f831160018114620006525760008415620006395750858301515b600019600386901b1c1916600185901b178555620005dd565b600085815260208120601f198616915b82811015620006835788860151825594840194600190910190840162000662565b5085821015620006a25787850151600019600388901b60f8161c191681555b5050505050600190811b01905550565b608051611ec9620006e36000396000818161023b015281816105ac015281816107e101526111880152611ec96000f3fe608060405234801561001057600080fd5b506004361061014d5760003560e01c806387aee00e116100c3578063c4ae31681161007c578063c4ae3168146102e7578063c7f758a8146102ef578063cb4b9e2c14610315578063e43581b814610335578063eecdac8814610348578063f80b53521461035b57600080fd5b806387aee00e1461027557806398951b561461029b57806399c1aadc146102ae5780639e520c36146102b75780639e86e882146102c1578063a7277b00146102d457600080fd5b80633ae1dcc7116101155780633ae1dcc7146101e45780633c4a25d0146101f757806343c2a4d71461020a5780634623c81e1461021f5780635c975abb146102295780637b1039991461023657600080fd5b8063013cf08b146101525780630d61b519146101825780631d8f5f1814610197578063220be9dd146101b85780632ab09d14146101db575b600080fd5b6101656101603660046118c0565b610370565b60405161017998979695949392919061191f565b60405180910390f35b6101956101903660046118c0565b610449565b005b6101aa6101a53660046118c0565b6108ca565b604051908152602001610179565b6101cb6101c63660046118c0565b6108eb565b6040519015158152602001610179565b6101aa60055481565b6101aa6101f2366004611997565b610a29565b610195610205366004611a1e565b610c5e565b610212610dea565b6040516101799190611a40565b6101aa6202a30081565b6002546101cb9060ff1681565b61025d7f000000000000000000000000000000000000000000000000000000000000000081565b6040516001600160a01b039091168152602001610179565b6102886102833660046118c0565b610e42565b6040516101799796959493929190611a84565b6101956102a93660046118c0565b610f1d565b6101aa60015481565b6101aa62278d0081565b6101956102cf3660046118c0565b6110a4565b61025d6102e23660046118c0565b611286565b6101956112b0565b6103026102fd3660046118c0565b61137c565b6040516101799796959493929190611ad4565b6103286103233660046118c0565b611486565b6040516101799190611b26565b6101cb610343366004611a1e565b6115db565b610195610356366004611a1e565b611644565b61036361185f565b6040516101799190611b92565b6004602052600090815260409020805460018201546002830154600384018054939492936001600160a01b0390921692916103aa90611bd3565b80601f01602080910402602001604051908101604052809291908181526020018280546103d690611bd3565b80156104235780601f106103f857610100808354040283529160200191610423565b820191906000526020600020905b81548152906001019060200180831161040657829003601f168201915b505050506004830154600584015460068501546007909501549394919390925060ff1688565b6000805b6000548110156104a957336001600160a01b03166000828154811061047457610474611c0d565b6000918252602090912001546001600160a01b03160361049757600191506104a9565b806104a181611c39565b91505061044d565b50806104c7576040516282b42960e81b815260040160405180910390fd5b60025460ff16156104eb576040516301ca793160e61b815260040160405180910390fd5b6000828152600460205260409020600781015460ff161561051f576040516351618d5360e01b815260040160405180910390fd5b6001548160060154101561054657604051638af69cf160e01b815260040160405180910390fd5b806005015442101561056b5760405163766b0c5b60e11b815260040160405180910390fd5b60078101805460ff191660019081179091558101546002820154604051635941904b60e11b815260048101929092526001600160a01b0390811660248301527f0000000000000000000000000000000000000000000000000000000000000000169063b283209690604401600060405180830381600087803b1580156105f057600080fd5b505af1158015610604573d6000803e3d6000fd5b505050506040518060e00160405280826001015481526020018260020160009054906101000a90046001600160a01b03166001600160a01b031681526020014281526020016000815260200160011515815260200160001515815260200182600301805461067190611bd3565b80601f016020809104026020016040519081016040528092919081815260200182805461069d90611bd3565b80156106ea5780601f106106bf576101008083540402835291602001916106ea565b820191906000526020600020905b8154815290600101906020018083116106cd57829003601f168201915b505050919092525050600180830154600090815260036020818152604092839020855181559085015193810180546001600160a01b039095166001600160a01b031990951694909417909355908301516002830155606083015190820155608082015160048201805460a085015115156101000261ff00199315159390931661ffff199091161791909117905560c0820151600582019061078b9082611cb7565b505050600181810180546006805493840181556000527ff652222313e28459528d920b65115c16c04f3efc82aaedc97be59f3f377c0d3f909201919091555460405163f3a0ce4160e01b815260048101919091527f00000000000000000000000000000000000000000000000000000000000000006001600160a01b03169063f3a0ce4190602401600060405180830381600087803b15801561082d57600080fd5b505af1158015610841573d6000803e3d6000fd5b50505050600281015460018201546040516001600160a01b039092169185907fe285e47f4804f679760aa4e907da874045af16436d55df64b64ffd9ca2539dfa90600090a4600281015460018201546040516001600160a01b03909216917f53c20a88ea8da6af49a97541989e5ba3b9c87113a594b2c65fa157e84ba02d8b90600090a3505050565b600681815481106108da57600080fd5b600091825260209091200154905081565b6000818152600360208181526040808420815160e0810183528154815260018201546001600160a01b031693810193909352600281015491830191909152918201546060820152600482015460ff8082161515608084015261010090910416151560a082015260058201805484939160c084019161096890611bd3565b80601f016020809104026020016040519081016040528092919081815260200182805461099490611bd3565b80156109e15780601f106109b6576101008083540402835291602001916109e1565b820191906000526020600020905b8154815290600101906020018083116109c457829003601f168201915b505050505081525050905080608001516109fe5750600092915050565b8060a001518015610a125750806060015142115b15610a205750600092915050565b50600192915050565b600080805b600054811015610a8a57336001600160a01b031660008281548110610a5557610a55611c0d565b6000918252602090912001546001600160a01b031603610a785760019150610a8a565b80610a8281611c39565b915050610a2e565b5080610aa8576040516282b42960e81b815260040160405180910390fd5b60025460ff1615610acc576040516301ca793160e61b815260040160405180910390fd5b6001600160a01b038516610af35760405163baa3de5f60e01b815260040160405180910390fd5b6000868152600360205260409020600101546001600160a01b031615610b2c5760405163a9146eeb60e01b815260040160405180910390fd5b6005805460009182610b3d83611c39565b909155506000818152600460205260409020818155600181018990556002810180546001600160a01b0319166001600160a01b038a1617905590915060038101610b88868883611d77565b504260048201819055610b9f906202a30090611e38565b600582015560016006820181905560078201805460ff19908116909155336000818152600885016020908152604091829020805490941690941790925590519081526001600160a01b038916918a9185917f336735bcae5ee955b87e8b30bee52920223fa30a865b207ac6d9eee9f19589fb910160405180910390a460405160018152339083907f2f0f51d2f12c71357e60d575d47e93e081dbaf32072245ab1e01540f0aadbf1a9060200160405180910390a3509695505050505050565b6000805b600054811015610cbe57336001600160a01b031660008281548110610c8957610c89611c0d565b6000918252602090912001546001600160a01b031603610cac5760019150610cbe565b80610cb681611c39565b915050610c62565b5080610cdc576040516282b42960e81b815260040160405180910390fd5b6001600160a01b038216610d0357604051636630f75560e11b815260040160405180910390fd5b60005b600054811015610d7257826001600160a01b031660008281548110610d2d57610d2d611c0d565b6000918252602090912001546001600160a01b031603610d6057604051636630f75560e11b815260040160405180910390fd5b80610d6a81611c39565b915050610d06565b50600080546001810182558180527f290decd9548b62a8d60345a988386fc84ba6bc95484008f6362f93160ef3e5630180546001600160a01b0319166001600160a01b03851690811790915560405190917fdc5a48d79e2e147530ff63ecdbed5a5a66adb9d5cf339384d5d076da197c40b591a25050565b60606006805480602002602001604051908101604052809291908181526020018280548015610e3857602002820191906000526020600020905b815481526020019060010190808311610e24575b5050505050905090565b600360208190526000918252604090912080546001820154600283015493830154600484015460058501805494966001600160a01b03909416959394929360ff808416946101009094041692909190610e9a90611bd3565b80601f0160208091040260200160405190810160405280929190818152602001828054610ec690611bd3565b8015610f135780601f10610ee857610100808354040283529160200191610f13565b820191906000526020600020905b815481529060010190602001808311610ef657829003601f168201915b5050505050905087565b6000805b600054811015610f7d57336001600160a01b031660008281548110610f4857610f48611c0d565b6000918252602090912001546001600160a01b031603610f6b5760019150610f7d565b80610f7581611c39565b915050610f21565b5080610f9b576040516282b42960e81b815260040160405180910390fd5b60025460ff1615610fbf576040516301ca793160e61b815260040160405180910390fd5b6000828152600460205260409020600781015460ff1615610ff3576040516351618d5360e01b815260040160405180910390fd5b33600090815260088201602052604090205460ff16156110265760405163080fc0bd60e11b815260040160405180910390fd5b3360009081526008820160205260408120805460ff191660011790556006820180549161105283611c39565b9190505550336001600160a01b0316837f2f0f51d2f12c71357e60d575d47e93e081dbaf32072245ab1e01540f0aadbf1a836006015460405161109791815260200190565b60405180910390a3505050565b6000805b60005481101561110457336001600160a01b0316600082815481106110cf576110cf611c0d565b6000918252602090912001546001600160a01b0316036110f25760019150611104565b806110fc81611c39565b9150506110a8565b5080611122576040516282b42960e81b815260040160405180910390fd5b600082815260036020526040902060018101546001600160a01b031661115b5760405163a9146eeb60e01b815260040160405180910390fd5b6004810154610100900460ff16156111865760405163a9146eeb60e01b815260040160405180910390fd5b7f00000000000000000000000000000000000000000000000000000000000000006001600160a01b0316639d888e866040518163ffffffff1660e01b8152600401602060405180830381865afa1580156111e4573d6000803e3d6000fd5b505050506040513d601f19601f820116820180604052508101906112089190611e51565b83036112275760405163a9146eeb60e01b815260040160405180910390fd5b60048101805461ff00191661010017905561124562278d0042611e38565b6003820181905560405190815283907f863b2d3c8300b32f4f2437f58a41b5fa102dd75210c1c4486efb11f1e14eeb3e9060200160405180910390a2505050565b6000818154811061129657600080fd5b6000918252602090912001546001600160a01b0316905081565b6000805b60005481101561131057336001600160a01b0316600082815481106112db576112db611c0d565b6000918252602090912001546001600160a01b0316036112fe5760019150611310565b8061130881611c39565b9150506112b4565b508061132e576040516282b42960e81b815260040160405180910390fd5b6002805460ff8082161560ff1990921682179092556040519116151581527f9077d36bc00859b5c3f320310707208543dd35092cb0a0fe117d0c6a558b148b9060200160405180910390a150565b60008060606000806000806000600460008a8152602001908152602001600020905080600101548160020160009054906101000a90046001600160a01b0316826003018360040154846005015485600601548660070160009054906101000a900460ff168480546113ec90611bd3565b80601f016020809104026020016040519081016040528092919081815260200182805461141890611bd3565b80156114655780601f1061143a57610100808354040283529160200191611465565b820191906000526020600020905b81548152906001019060200180831161144857829003601f168201915b50505050509450975097509750975097509750975050919395979092949650565b6114d36040518060e001604052806000815260200160006001600160a01b031681526020016000815260200160008152602001600015158152602001600015158152602001606081525090565b600082815260036020818152604092839020835160e0810185528154815260018201546001600160a01b031692810192909252600281015493820193909352908201546060820152600482015460ff8082161515608084015261010090910416151560a082015260058201805491929160c08401919061155290611bd3565b80601f016020809104026020016040519081016040528092919081815260200182805461157e90611bd3565b80156115cb5780601f106115a0576101008083540402835291602001916115cb565b820191906000526020600020905b8154815290600101906020018083116115ae57829003601f168201915b5050505050815250509050919050565b6000805b60005481101561163b57826001600160a01b03166000828154811061160657611606611c0d565b6000918252602090912001546001600160a01b0316036116295750600192915050565b8061163381611c39565b9150506115df565b50600092915050565b6000805b6000548110156116a457336001600160a01b03166000828154811061166f5761166f611c0d565b6000918252602090912001546001600160a01b03160361169257600191506116a4565b8061169c81611c39565b915050611648565b50806116c2576040516282b42960e81b815260040160405180910390fd5b600154600054116117125760405162461bcd60e51b815260206004820152601660248201527521b0b73737ba103932b6b7bb329033b7bb32b93737b960511b604482015260640160405180910390fd5b60005b60005481101561184557826001600160a01b03166000828154811061173c5761173c611c0d565b6000918252602090912001546001600160a01b031603611833576000805461176690600190611e6a565b8154811061177657611776611c0d565b600091825260208220015481546001600160a01b039091169190839081106117a0576117a0611c0d565b6000918252602082200180546001600160a01b0319166001600160a01b0393909316929092179091558054806117d8576117d8611e7d565b600082815260208120820160001990810180546001600160a01b03191690559091019091556040516001600160a01b038516917f1ebe834e73d60a5fec822c1e1727d34bc79f2ad977ed504581cc1822fe20fb5b91a2505050565b8061183d81611c39565b915050611715565b50604051636630f75560e11b815260040160405180910390fd5b60606000805480602002602001604051908101604052809291908181526020018280548015610e3857602002820191906000526020600020905b81546001600160a01b03168152600190910190602001808311611899575050505050905090565b6000602082840312156118d257600080fd5b5035919050565b6000815180845260005b818110156118ff576020818501810151868301820152016118e3565b506000602082860101526020601f19601f83011685010191505092915050565b888152602081018890526001600160a01b038716604082015261010060608201819052600090611951838201896118d9565b9150508560808301528460a08301528360c083015282151560e08301529998505050505050505050565b80356001600160a01b038116811461199257600080fd5b919050565b600080600080606085870312156119ad57600080fd5b843593506119bd6020860161197b565b9250604085013567ffffffffffffffff808211156119da57600080fd5b818701915087601f8301126119ee57600080fd5b8135818111156119fd57600080fd5b886020828501011115611a0f57600080fd5b95989497505060200194505050565b600060208284031215611a3057600080fd5b611a398261197b565b9392505050565b6020808252825182820181905260009190848201906040850190845b81811015611a7857835183529284019291840191600101611a5c565b50909695505050505050565b87815260018060a01b0387166020820152856040820152846060820152831515608082015282151560a082015260e060c08201526000611ac760e08301846118d9565b9998505050505050505050565b8781526001600160a01b038716602082015260e060408201819052600090611afe908301886118d9565b90508560608301528460808301528360a083015282151560c083015298975050505050505050565b602081528151602082015260018060a01b03602083015116604082015260408201516060820152606082015160808201526080820151151560a082015260a0820151151560c0820152600060c083015160e080840152611b8a6101008401826118d9565b949350505050565b6020808252825182820181905260009190848201906040850190845b81811015611a785783516001600160a01b031683529284019291840191600101611bae565b600181811c90821680611be757607f821691505b602082108103611c0757634e487b7160e01b600052602260045260246000fd5b50919050565b634e487b7160e01b600052603260045260246000fd5b634e487b7160e01b600052601160045260246000fd5b600060018201611c4b57611c4b611c23565b5060010190565b634e487b7160e01b600052604160045260246000fd5b601f821115611cb257600081815260208120601f850160051c81016020861015611c8f5750805b601f850160051c820191505b81811015611cae57828155600101611c9b565b5050505b505050565b815167ffffffffffffffff811115611cd157611cd1611c52565b611ce581611cdf8454611bd3565b84611c68565b602080601f831160018114611d1a5760008415611d025750858301515b600019600386901b1c1916600185901b178555611cae565b600085815260208120601f198616915b82811015611d4957888601518255948401946001909101908401611d2a565b5085821015611d675787850151600019600388901b60f8161c191681555b5050505050600190811b01905550565b67ffffffffffffffff831115611d8f57611d8f611c52565b611da383611d9d8354611bd3565b83611c68565b6000601f841160018114611dd75760008515611dbf5750838201355b600019600387901b1c1916600186901b178355611e31565b600083815260209020601f19861690835b82811015611e085786850135825560209485019460019092019101611de8565b5086821015611e255760001960f88860031b161c19848701351681555b505060018560011b0183555b5050505050565b80820180821115611e4b57611e4b611c23565b92915050565b600060208284031215611e6357600080fd5b5051919050565b81810381811115611e4b57611e4b611c23565b634e487b7160e01b600052603160045260246000fdfea2646970667358221220f6b00b6fb62f89067e2128eba89649784ab95d8256941485bb2c6302d0505dcb64736f6c63430008140033",
  "linkReferences": {},
  "deployedLinkReferences": {}
}