{"contracts/DeployVerifier.sol":{"DeployVerifier":{"abi":[{"inputs":[],"stateMutability":"nonpayable","type":"constructor"},{"anonymous":false,"inputs":[{"indexed":true,"internalType":"address","name":"verifier","type":"address"},{"indexed":false,"internalType":"uint256","name":"timestamp","type":"uint256"}],"name":"VerifierDeployed","type":"event"},{"inputs":[],"name":"getVerifierAddress","outputs":[{"internalType":"address","name":"","type":"address"}],"stateMutability":"view","type":"function"},{"inputs":[],"name":"verifier","outputs":[{"internalType":"contract Groth16Verifier","name":"","type":"address"}],"stateMutability":"view","type":"function"}],"evm":{"bytecode":{"linkReferences":{},"object":"608060405234801561001057600080fd5b5060405161001d90610091565b604051809103906000f080158015610039573d6000803e3d6000fd5b50600080546001600160a01b0319166001600160a01b039290921691821790556040514281527f369bc5621381dcd405fff64e8e314d758807d949292a6287a05c20dfe12cffbd9060200160405180910390a261009e565b6109268061015783390190565b60ab806100ac6000396000f3fe6080604052348015600f57600080fd5b506004361060325760003560e01c80632b7ac3f314603757806353ae8717146065575b600080fd5b6000546049906001600160a01b031681565b6040516001600160a01b03909116815260200160405180910390f35b6000546001600160a01b0316604956fea26469706673582212202aafb4f6a9e562b0a7394fb6773fcfe673d7bc73393b96b26f3e9b4f424bbe3b64736f6c63430008140033608060405234801561001057600080fd5b50610906806100206000396000f3fe608060405234801561001057600080fd5b506004361061002b5760003560e01c8063b9c6ea8714610030575b600080fd5b61004361003e36600461086a565b610057565b604051901515815260200160405180910390f35b600061079d565b7f30644e72e131a029b85045b68181585d2833e84879b9709143e1f593f0000001811061008f576000805260206000f35b50565b600060405183815284602082015285604082015260408160608360076107d05a03fa9150816100c5576000805260206000f35b825160408201526020830151606082015260408360808360066107d05a03fa915050806100f6576000805260206000f35b5050505050565b7f0a70d73e97383003a028169d2984e7a83628eae01d8194c251d0adcd230008c285527f0d8e7a9a9f0050ffeef18f85572ce3365b84c129a2c4fb3f96e0e9aff6dbc55960208601526000608086018661019a87357f06da095e5bdb6e09383129ba1efb1e6734ce61d890604c94feb91e08b0be356d7f082b2af1b25809e958b11ac9a2efa7da434ffd7121692bf76068afa25a36af9d84610092565b6101ea60208801357f272d748eab2bb0ae06f14858e5628cf9fe73e3f3b827cdab5582735da137975e7f07a1d67efc470319d57ae74e0c0db7a38d959615b95fce578f9b0e80f22d632484610092565b61023a60408801357f2b8241f3091880fa2e83456ec86295c267ad2a883f08e80bf571a5959f5eda887f03a2e5c71d78dab1d70c68a20a110cfcbb64226dee870d79718f8b474403961b84610092565b61028a60608801357f24d19ffbee91331c2102271fd5343b36f30f11c07c6c4ef1c32d3b19f36dae777f292fc4a67dd6855d5dd65b1d46e803cabb48dc1a18cbb912194bad586c5cb54584610092565b6102da60808801357f110b0f032e0399f9b4614f50ff7e2786cbc8424796c1d105a447359046169b7b7f01cbb2fd778448a29229c4ec5fb5941fa7e69a6e8b40def5151582956f2fc91884610092565b61032a60a08801357f08cdc7acbbb8ad188a561a296b7c11b77d4e19ed280c66d0e42347a02fcbdd557f2776baba4b8ce98f053624d314e67a49267ab2eb4b020252862f8781afbc911f84610092565b61037a60c08801357f0923028516a11f393fb410c5366ab6de9e19e1e697b2489459b78f77bc8205a77f2a625c43d639c5d5040c4202a9768feafaedf106ca0caa90e4fc481c802117ea84610092565b6103ca60e08801357f04d20abcb32350dd9faa1a72e6daeeface22be01f32c0f1c40604a9f127b3b5e7f0592a7265c74dea0c550cb6de571e635c426660445dc36bf0795f40ae34e633884610092565b61041b6101008801357f2e326b51125ab7b5333b98cc964b0cf0484ac7b2fc87ed1d536c7afab95e56df7f04a6648c69ff8090850ed56a3062bdc2fddef3fb52f314368d40adb90dd6f3df84610092565b61046c6101208801357f2e25dba601f0c1a5d5ab9be256bfba77e2b9e0e1adb88e103dd5af3aae92f2fa7f01cf9f4859363757653469947fc95717cd8834523b30b099079f70d19b17f05b84610092565b6104bd6101408801357f251dcbe667db4c123f9a9c786b3fc0bc75e2c23edf1e259d2179846ac20c40637f225a7ce2e04d2cc877bea9a73842d46b18ad142d4823a07620eb4d538ba9433b84610092565b50823581527f30644e72e131a029b85045b68181585d97816a916871ca8d3c208c16d87cfd4760208401357f30644e72e131a029b85045b68181585d97816a916871ca8d3c208c16d87cfd4703066020820152833560408201526020840135606082015260408401356080820152606084013560a08201527f2d4d9aa7e302d9df41749d5507949d05dbea33fbb16c643b22f599a2be6df2e260c08201527f14bedd503c37ceb061d8ec60209fe345ce89830a19230301f076caff004d192660e08201527f0967032fcbf776d1afc985f88877f182d38480a653f2decaa9794cbc3bf3060c6101008201527f0e187847ad4c798374d0d6732bf501847dd68bc0e071241e0213bc7fc13db7ab6101208201527f304cfbd1e08a704a99f5e847d93f8c3caafddec46b7a0d379da69a4d112346a76101408201527f1739c1b1a457a8c7313123d24d2f9192f896b7c63eea05a9d57f06547ad0cec8610160820152600087015161018082015260206000018701516101a08201527f198e9393920d483a7260bfb731fb5d25f1aa493335a9e71297e485b7aef312c26101c08201527f1800deef121f1e76426a00665e5c4479674322d4f75edadd46debd5cd992f6ed6101e08201527f090689d0585ff075ec9e99ad690c3395bc4b313370b38ef355acdadcd122975b6102008201527f12c85ea5db8c6deb4aab71808dcb408fe3d1e7690c43d37b4ce6cc0166fa7daa610220820152843561024082015260208501356102608201527f1aa74b45ca45cc021034ac1a78dd7c7b08664409d86ad6d03e7d3b5d87b176d46102808201527f16c274acbd1f85bdc9ffcd4a28947d6c7bff185418c3c7f1a366ecb4dbcec1056102a08201527f11986592aec53506d7856c565fb336266d5dcb91c9e8a10cf960648c26f7fa6c6102c08201527f057d03f16ce7d8b8551d5652aee2b69ec0a785a027d813963ab2daa57099fa9e6102e08201526020816103008360086107d05a03fa9051169695505050505050565b60405161038081016040526107b5600084013561005e565b6107c2602084013561005e565b6107cf604084013561005e565b6107dc606084013561005e565b6107e9608084013561005e565b6107f660a084013561005e565b61080360c084013561005e565b61081060e084013561005e565b61081e61010084013561005e565b61082c61012084013561005e565b61083a61014084013561005e565b610847818486888a6100fd565b90508060005260206000f35b806040810183101561086457600080fd5b92915050565b60008060008061026080868803121561088257600080fd5b61088c8787610853565b945060c086018781111561089f57600080fd5b6040870194506108af8882610853565b9350508681870111156108c157600080fd5b5092959194509261010001915056fea264697066735822122043960b6e7cfe795f7d58c0e76685f32aad74c8938fcb56e20ecd1308a8d4740664736f6c63430008140033","opcodes":"PUSH1 0x80 PUSH1 0x40 MSTORE CALLVALUE DUP1 ISZERO PUSH2 0x10 JUMPI PUSH1 0x0 DUP1 REVERT JUMPDEST POP PUSH1 0x40 MLOAD PUSH2 0x1D SWAP1 PUSH2 0x91 JUMP JUMPDEST PUSH1 0x40 MLOAD DUP1 SWAP2 SUB SWAP1 PUSH1 0x0 CREATE DUP1 ISZERO DUP1 ISZERO PUSH2 0x39 JUMPI RETURNDATASIZE PUSH1 0x0 DUP1 RETURNDATACOPY RETURNDATASIZE PUSH1 0x0 REVERT JUMPDEST POP PUSH1 0x0 DUP1 SLOAD PUSH1 0x1 PUSH1 0x1 PUSH1 0xA0 SHL SUB NOT AND PUSH1 0x1 PUSH1 0x1 PUSH1 0xA0 SHL SUB SWAP3 SWAP1 SWAP3 AND SWAP2 DUP3 OR SWAP1 SSTORE PUSH1 0x40 MLOAD TIMESTAMP DUP2 MSTORE PUSH32 0x369BC5621381DCD405FFF64E8E314D758807D949292A6287A05C20DFE12CFFBD SWAP1 PUSH1 0x20 ADD PUSH1 0x40 MLOAD DUP1 SWAP2 SUB SWAP1 LOG2 PUSH2 0x9E JUMP JUMPDEST PUSH2 0x926 DUP1 PUSH2 0x157 DUP4 CODECOPY ADD SWAP1 JUMP JUMPDEST PUSH1 0xAB DUP1 PUSH2 0xAC PUSH1 0x0 CODECOPY PUSH1 0x0 RETURN INVALID PUSH1 0x80 PUSH1 0x40 MSTORE CALLVALUE DUP1 ISZERO PUSH1 0xF JUMPI PUSH1 0x0 DUP1 REVERT JUMPDEST POP PUSH1 0x4 CALLDATASIZE LT PUSH1 0x32 JUMPI PUSH1 0x0 CALLDATALOAD PUSH1 0xE0 SHR DUP1 PUSH4 0x2B7AC3F3 EQ PUSH1 0x37 JUMPI DUP1 PUSH4 0x53AE8717 EQ PUSH1 0x65 JUMPI JUMPDEST PUSH1 0x0 DUP1 REVERT JUMPDEST PUSH1 0x0 SLOAD PUSH1 0x49 SWAP1 PUSH1 0x1 PUSH1 0x1 PUSH1 0xA0 SHL SUB AND DUP2 JUMP JUMPDEST PUSH1 0x40 MLOAD PUSH1 0x1 PUSH1 0x1 PUSH1 0xA0 SHL SUB SWAP1 SWAP2 AND DUP2 MSTORE PUSH1 0x20 ADD PUSH1 0x40 MLOAD DUP1 SWAP2 SUB SWAP1 RETURN JUMPDEST PUSH1 0x0 SLOAD PUSH1 0x1 PUSH1 0x1 PUSH1 0xA0 SHL SUB AND PUSH1 0x49 JUMP INVALID LOG2 PUSH5 0x6970667358 0x22 SLT KECCAK256 0x2A 0xAF 0xB4 0xF6 0xA9 0xE5 PUSH3 0xB0A739 0x4F 0xB6 PUSH24 0x3FCFE673D7BC73393B96B26F3E9B4F424BBE3B64736F6C63 NUMBER STOP ADDMOD EQ STOP CALLER PUSH1 0x80 PUSH1 0x40 MSTORE CALLVALUE DUP1 ISZERO PUSH2 0x10 JUMPI PUSH1 0x0 DUP1 REVERT JUMPDEST POP PUSH2 0x906 DUP1 PUSH2 0x20 PUSH1 0x0 CODECOPY PUSH1 0x0 RETURN INVALID PUSH1 0x80 PUSH1 0x40 MSTORE CALLVALUE DUP1 ISZERO PUSH2 0x10 JUMPI PUSH1 0x0 DUP1 REVERT JUMPDEST POP PUSH1 0x4 CALLDATASIZE LT PUSH2 0x2B JUMPI PUSH1 0x0 CALLDATALOAD PUSH1 0xE0 SHR DUP1 PUSH4 0xB9C6EA87 EQ PUSH2 0x30 JUMPI JUMPDEST PUSH1 0x0 DUP1 REVERT JUMPDEST PUSH2 0x43 PUSH2 0x3E CALLDATASIZE PUSH1 0x4 PUSH2 0x86A JUMP JUMPDEST PUSH2 0x57 JUMP JUMPDEST PUSH1 0x40 MLOAD SWAP1 ISZERO ISZERO DUP2 MSTORE PUSH1 0x20 ADD PUSH1 0x40 MLOAD DUP1 SWAP2 SUB SWAP1 RETURN JUMPDEST PUSH1 0x0 PUSH2 0x79D JUMP JUMPDEST PUSH32 0x30644E72E131A029B85045B68181585D2833E84879B9709143E1F593F0000001 DUP2 LT PUSH2 0x8F JUMPI PUSH1 0x0 DUP1 MSTORE PUSH1 0x20 PUSH1 0x0 RETURN JUMPDEST POP JUMP JUMPDEST PUSH1 0x0 PUSH1 0x40 MLOAD DUP4 DUP2 MSTORE DUP5 PUSH1 0x20 DUP3 ADD MSTORE DUP6 PUSH1 0x40 DUP3 ADD MSTORE PUSH1 0x40 DUP2 PUSH1 0x60 DUP4 PUSH1 0x7 PUSH2 0x7D0 GAS SUB STATICCALL SWAP2 POP DUP2 PUSH2 0xC5 JUMPI PUSH1 0x0 DUP1 MSTORE PUSH1 0x20 PUSH1 0x0 RETURN JUMPDEST DUP3 MLOAD PUSH1 0x40 DUP3 ADD MSTORE PUSH1 0x20 DUP4 ADD MLOAD PUSH1 0x60 DUP3 ADD MSTORE PUSH1 0x40 DUP4 PUSH1 0x80 DUP4 PUSH1 0x6 PUSH2 0x7D0 GAS SUB STATICCALL SWAP2 POP POP DUP1 PUSH2 0xF6 JUMPI PUSH1 0x0 DUP1 MSTORE PUSH1 0x20 PUSH1 0x0 RETURN JUMPDEST POP POP POP POP POP JUMP JUMPDEST PUSH32 0xA70D73E97383003A028169D2984E7A83628EAE01D8194C251D0ADCD230008C2 DUP6 MSTORE PUSH32 0xD8E7A9A9F0050FFEEF18F85572CE3365B84C129A2C4FB3F96E0E9AFF6DBC559 PUSH1 0x20 DUP7 ADD MSTORE PUSH1 0x0 PUSH1 0x80 DUP7 ADD DUP7 PUSH2 0x19A DUP8 CALLDATALOAD PUSH32 0x6DA095E5BDB6E09383129BA1EFB1E6734CE61D890604C94FEB91E08B0BE356D PUSH32 0x82B2AF1B25809E958B11AC9A2EFA7DA434FFD7121692BF76068AFA25A36AF9D DUP5 PUSH2 0x92 JUMP JUMPDEST PUSH2 0x1EA PUSH1 0x20 DUP9 ADD CALLDATALOAD PUSH32 0x272D748EAB2BB0AE06F14858E5628CF9FE73E3F3B827CDAB5582735DA137975E PUSH32 0x7A1D67EFC470319D57AE74E0C0DB7A38D959615B95FCE578F9B0E80F22D6324 DUP5 PUSH2 0x92 JUMP JUMPDEST PUSH2 0x23A PUSH1 0x40 DUP9 ADD CALLDATALOAD PUSH32 0x2B8241F3091880FA2E83456EC86295C267AD2A883F08E80BF571A5959F5EDA88 PUSH32 0x3A2E5C71D78DAB1D70C68A20A110CFCBB64226DEE870D79718F8B474403961B DUP5 PUSH2 0x92 JUMP JUMPDEST PUSH2 0x28A PUSH1 0x60 DUP9 ADD CALLDATALOAD PUSH32 0x24D19FFBEE91331C2102271FD5343B36F30F11C07C6C4EF1C32D3B19F36DAE77 PUSH32 0x292FC4A67DD6855D5DD65B1D46E803CABB48DC1A18CBB912194BAD586C5CB545 DUP5 PUSH2 0x92 JUMP JUMPDEST PUSH2 0x2DA PUSH1 0x80 DUP9 ADD CALLDATALOAD PUSH32 0x110B0F032E0399F9B4614F50FF7E2786CBC8424796C1D105A447359046169B7B PUSH32 0x1CBB2FD778448A29229C4EC5FB5941FA7E69A6E8B40DEF5151582956F2FC918 DUP5 PUSH2 0x92 JUMP JUMPDEST PUSH2 0x32A PUSH1 0xA0 DUP9 ADD CALLDATALOAD PUSH32 0x8CDC7ACBBB8AD188A561A296B7C11B77D4E19ED280C66D0E42347A02FCBDD55 PUSH32 0x2776BABA4B8CE98F053624D314E67A49267AB2EB4B020252862F8781AFBC911F DUP5 PUSH2 0x92 JUMP JUMPDEST PUSH2 0x37A PUSH1 0xC0 DUP9 ADD CALLDATALOAD PUSH32 0x923028516A11F393FB410C5366AB6DE9E19E1E697B2489459B78F77BC8205A7 PUSH32 0x2A625C43D639C5D5040C4202A9768FEAFAEDF106CA0CAA90E4FC481C802117EA DUP5 PUSH2 0x92 JUMP JUMPDEST PUSH2 0x3CA PUSH1 0xE0 DUP9 ADD CALLDATALOAD PUSH32 0x4D20ABCB32350DD9FAA1A72E6DAEEFACE22BE01F32C0F1C40604A9F127B3B5E PUSH32 0x592A7265C74DEA0C550CB6DE571E635C426660445DC36BF0795F40AE34E6338 DUP5 PUSH2 0x92 JUMP JUMPDEST PUSH2 0x41B PUSH2 0x100 DUP9 ADD CALLDATALOAD PUSH32 0x2E326B51125AB7B5333B98CC964B0CF0484AC7B2FC87ED1D536C7AFAB95E56DF PUSH32 0x4A6648C69FF8090850ED56A3062BDC2FDDEF3FB52F314368D40ADB90DD6F3DF DUP5 PUSH2 0x92 JUMP JUMPDEST PUSH2 0x46C PUSH2 0x120 DUP9 ADD CALLDATALOAD PUSH32 0x2E25DBA601F0C1A5D5AB9BE256BFBA77E2B9E0E1ADB88E103DD5AF3AAE92F2FA PUSH32 0x1CF9F4859363757653469947FC95717CD8834523B30B099079F70D19B17F05B DUP5 PUSH2 0x92 JUMP JUMPDEST PUSH2 0x4BD PUSH2 0x140 DUP9 ADD CALLDATALOAD PUSH32 0x251DCBE667DB4C123F9A9C786B3FC0BC75E2C23EDF1E259D2179846AC20C4063 PUSH32 0x225A7CE2E04D2CC877BEA9A73842D46B18AD142D4823A07620EB4D538BA9433B DUP5 PUSH2 0x92 JUMP JUMPDEST POP DUP3 CALLDATALOAD DUP2 MSTORE PUSH32 0x30644E72E131A029B85045B68181585D97816A916871CA8D3C208C16D87CFD47 PUSH1 0x20 DUP5 ADD CALLDATALOAD PUSH32 0x30644E72E131A029B85045B68181585D97816A916871CA8D3C208C16D87CFD47 SUB MOD PUSH1 0x20 DUP3 ADD MSTORE DUP4 CALLDATALOAD PUSH1 0x40 DUP3 ADD MSTORE PUSH1 0x20 DUP5 ADD CALLDATALOAD PUSH1 0x60 DUP3 ADD MSTORE PUSH1 0x40 DUP5 ADD CALLDATALOAD PUSH1 0x80 DUP3 ADD MSTORE PUSH1 0x60 DUP5 ADD CALLDATALOAD PUSH1 0xA0 DUP3 ADD MSTORE PUSH32 0x2D4D9AA7E302D9DF41749D5507949D05DBEA33FBB16C643B22F599A2BE6DF2E2 PUSH1 0xC0 DUP3 ADD MSTORE PUSH32 0x14BEDD503C37CEB061D8EC60209FE345CE89830A19230301F076CAFF004D1926 PUSH1 0xE0 DUP3 ADD MSTORE PUSH32 0x967032FCBF776D1AFC985F88877F182D38480A653F2DECAA9794CBC3BF3060C PUSH2 0x100 DUP3 ADD MSTORE PUSH32 0xE187847AD4C798374D0D6732BF501847DD68BC0E071241E0213BC7FC13DB7AB PUSH2 0x120 DUP3 ADD MSTORE PUSH32 0x304CFBD1E08A704A99F5E847D93F8C3CAAFDDEC46B7A0D379DA69A4D112346A7 PUSH2 0x140 DUP3 ADD MSTORE PUSH32 0x1739C1B1A457A8C7313123D24D2F9192F896B7C63EEA05A9D57F06547AD0CEC8 PUSH2 0x160 DUP3 ADD MSTORE PUSH1 0x0 DUP8 ADD MLOAD PUSH2 0x180 DUP3 ADD MSTORE PUSH1 0x20 PUSH1 0x0 ADD DUP8 ADD MLOAD PUSH2 0x1A0 DUP3 ADD MSTORE PUSH32 0x198E9393920D483A7260BFB731FB5D25F1AA493335A9E71297E485B7AEF312C2 PUSH2 0x1C0 DUP3 ADD MSTORE PUSH32 0x1800DEEF121F1E76426A00665E5C4479674322D4F75EDADD46DEBD5CD992F6ED PUSH2 0x1E0 DUP3 ADD MSTORE PUSH32 0x90689D0585FF075EC9E99AD690C3395BC4B313370B38EF355ACDADCD122975B PUSH2 0x200 DUP3 ADD MSTORE PUSH32 0x12C85EA5DB8C6DEB4AAB71808DCB408FE3D1E7690C43D37B4CE6CC0166FA7DAA PUSH2 0x220 DUP3 ADD MSTORE DUP5 CALLDATALOAD PUSH2 0x240 DUP3 ADD MSTORE PUSH1 0x20 DUP6 ADD CALLDATALOAD PUSH2 0x260 DUP3 ADD MSTORE PUSH32 0x1AA74B45CA45CC021034AC1A78DD7C7B08664409D86AD6D03E7D3B5D87B176D4 PUSH2 0x280 DUP3 ADD MSTORE PUSH32 0x16C274ACBD1F85BDC9FFCD4A28947D6C7BFF185418C3C7F1A366ECB4DBCEC105 PUSH2 0x2A0 DUP3 ADD MSTORE PUSH32 0x11986592AEC53506D7856C565FB336266D5DCB91C9E8A10CF960648C26F7FA6C PUSH2 0x2C0 DUP3 ADD MSTORE PUSH32 0x57D03F16CE7D8B8551D5652AEE2B69EC0A785A027D813963AB2DAA57099FA9E PUSH2 0x2E0 DUP3 ADD MSTORE PUSH1 0x20 DUP2 PUSH2 0x300 DUP4 PUSH1 0x8 PUSH2 0x7D0 GAS SUB STATICCALL SWAP1 MLOAD AND SWAP7 SWAP6 POP POP POP POP POP POP JUMP JUMPDEST PUSH1 0x40 MLOAD PUSH2 0x380 DUP2 ADD PUSH1 0x40 MSTORE PUSH2 0x7B5 PUSH1 0x0 DUP5 ADD CALLDATALOAD PUSH2 0x5E JUMP JUMPDEST PUSH2 0x7C2 PUSH1 0x20 DUP5 ADD CALLDATALOAD PUSH2 0x5E JUMP JUMPDEST PUSH2 0x7CF PUSH1 0x40 DUP5 ADD CALLDATALOAD PUSH2 0x5E JUMP JUMPDEST PUSH2 0x7DC PUSH1 0x60 DUP5 ADD CALLDATALOAD PUSH2 0x5E JUMP JUMPDEST PUSH2 0x7E9 PUSH1 0x80 DUP5 ADD CALLDATALOAD PUSH2 0x5E JUMP JUMPDEST PUSH2 0x7F6 PUSH1 0xA0 DUP5 ADD CALLDATALOAD PUSH2 0x5E JUMP JUMPDEST PUSH2 0x803 PUSH1 0xC0 DUP5 ADD CALLDATALOAD PUSH2 0x5E JUMP JUMPDEST PUSH2 0x810 PUSH1 0xE0 DUP5 ADD CALLDATALOAD PUSH2 0x5E JUMP JUMPDEST PUSH2 0x81E PUSH2 0x100 DUP5 ADD CALLDATALOAD PUSH2 0x5E JUMP JUMPDEST PUSH2 0x82C PUSH2 0x120 DUP5 ADD CALLDATALOAD PUSH2 0x5E JUMP JUMPDEST PUSH2 0x83A PUSH2 0x140 DUP5 ADD CALLDATALOAD PUSH2 0x5E JUMP JUMPDEST PUSH2 0x847 DUP2 DUP5 DUP7 DUP9 DUP11 PUSH2 0xFD JUMP JUMPDEST SWAP1 POP DUP1 PUSH1 0x0 MSTORE PUSH1 0x20 PUSH1 0x0 RETURN JUMPDEST DUP1 PUSH1 0x40 DUP2 ADD DUP4 LT ISZERO PUSH2 0x864 JUMPI PUSH1 0x0 DUP1 REVERT JUMPDEST SWAP3 SWAP2 POP POP JUMP JUMPDEST PUSH1 0x0 DUP1 PUSH1 0x0 DUP1 PUSH2 0x260 DUP1 DUP7 DUP9 SUB SLT ISZERO PUSH2 0x882 JUMPI PUSH1 0x0 DUP1 REVERT JUMPDEST PUSH2 0x88C DUP8 DUP8 PUSH2 0x853 JUMP JUMPDEST SWAP5 POP PUSH1 0xC0 DUP7 ADD DUP8 DUP2 GT ISZERO PUSH2 0x89F JUMPI PUSH1 0x0 DUP1 REVERT JUMPDEST PUSH1 0x40 DUP8 ADD SWAP5 POP PUSH2 0x8AF DUP9 DUP3 PUSH2 0x853 JUMP JUMPDEST SWAP4 POP POP DUP7 DUP2 DUP8 ADD GT ISZERO PUSH2 0x8C1 JUMPI PUSH1 0x0 DUP1 REVERT JUMPDEST POP SWAP3 SWAP6 SWAP2 SWAP5 POP SWAP3 PUSH2 0x100 ADD SWAP2 POP JUMP INVALID LOG2 PUSH5 0x6970667358 0x22 SLT KECCAK256 NUMBER SWAP7 SIGNEXTEND PUSH15 0x7CFE795F7D58C0E76685F32AAD74C8 SWAP4 DUP16 0xCB JUMP 0xE2 0xE 0xCD SGT ADDMOD 0xA8 0xD4 PUSH21 0x664736F6C63430008140033000000000000000000 "},"methodIdentifiers":{"getVerifierAddress()":"53ae8717","verifier()":"2b7ac3f3"}}}}}