{"contracts/LendingEscrow.sol":{"LendingEscrow":{"abi":[{"inputs":[],"stateMutability":"nonpayable","type":"constructor"},{"inputs":[],"name":"CreditScoreExpired","type":"error"},{"inputs":[],"name":"InsufficientCreditScore","type":"error"},{"inputs":[],"name":"NoCreditScoreProof","type":"error"},{"inputs":[],"name":"ScoreRegistryNotSet","type":"error"},{"anonymous":false,"inputs":[{"indexed":true,"internalType":"bytes32","name":"loanId","type":"bytes32"},{"indexed":true,"internalType":"address","name":"borrower","type":"address"},{"indexed":false,"internalType":"uint256","name":"collateralAmount","type":"uint256"}],"name":"CollateralDeposited","type":"event"},{"anonymous":false,"inputs":[{"indexed":true,"internalType":"bytes32","name":"loanId","type":"bytes32"},{"indexed":true,"internalType":"address","name":"lender","type":"address"},{"indexed":false,"internalType":"uint256","name":"collateralAmount","type":"uint256"}],"name":"CollateralLiquidated","type":"event"},{"anonymous":false,"inputs":[{"indexed":true,"internalType":"bytes32","name":"loanId","type":"bytes32"},{"indexed":true,"internalType":"address","name":"borrower","type":"address"},{"indexed":false,"internalType":"uint256","name":"collateralAmount","type":"uint256"}],"name":"CollateralReturned","type":"event"},{"anonymous":false,"inputs":[{"indexed":false,"internalType":"uint256","name":"newThreshold","type":"uint256"}],"name":"DefaultThresholdUpdated","type":"event"},{"anonymous":false,"inputs":[{"indexed":true,"internalType":"bytes32","name":"loanId","type":"bytes32"},{"indexed":true,"internalType":"address","name":"borrower","type":"address"},{"indexed":true,"internalType":"address","name":"lender","type":"address"},{"indexed":false,"internalType":"uint256","name":"loanAmount","type":"uint256"}],"name":"LoanCreated","type":"event"},{"anonymous":false,"inputs":[{"indexed":true,"internalType":"bytes32","name":"loanId","type":"bytes32"},{"indexed":true,"internalType":"address","name":"borrower","type":"address"}],"name":"LoanDefaulted","type":"event"},{"anonymous":false,"inputs":[{"indexed":true,"internalType":"bytes32","name":"loanId","type":"bytes32"},{"indexed":true,"internalType":"address","name":"lender","type":"address"},{"indexed":false,"internalType":"uint256","name":"loanAmount","type":"uint256"}],"name":"LoanFunded","type":"event"},{"anonymous":false,"inputs":[{"indexed":true,"internalType":"bytes32","name":"loanId","type":"bytes32"},{"indexed":true,"internalType":"address","name":"borrower","type":"address"}],"name":"LoanRepaid","type":"event"},{"anonymous":false,"inputs":[{"indexed":true,"internalType":"bytes32","name":"loanId","type":"bytes32"},{"indexed":true,"internalType":"address","name":"borrower","type":"address"},{"indexed":false,"internalType":"uint256","name":"amount","type":"uint256"},{"indexed":false,"internalType":"uint256","name":"remaining","type":"uint256"}],"name":"RepaymentMade","type":"event"},{"anonymous":false,"inputs":[{"indexed":true,"internalType":"address","name":"newRegistry","type":"address"}],"name":"ScoreRegistryUpdated","type":"event"},{"inputs":[{"internalType":"address","name":"","type":"address"},{"internalType":"uint256","name":"","type":"uint256"}],"name":"borrowerLoans","outputs":[{"internalType":"bytes32","name":"","type":"bytes32"}],"stateMutability":"view","type":"function"},{"inputs":[{"internalType":"bytes32","name":"_loanId","type":"bytes32"},{"internalType":"address","name":"_borrower","type":"address"},{"internalType":"address","name":"_lender","type":"address"},{"internalType":"address","name":"_loanToken","type":"address"},{"internalType":"address","name":"_collateralToken","type":"address"},{"internalType":"uint256","name":"_loanAmount","type":"uint256"},{"internalType":"uint256","name":"_collateralAmount","type":"uint256"},{"internalType":"uint256","name":"_interestRate","type":"uint256"},{"internalType":"uint256","name":"_durationDays","type":"uint256"}],"name":"createLoan","outputs":[],"stateMutability":"nonpayable","type":"function"},{"inputs":[],"name":"defaultThreshold","outputs":[{"internalType":"uint256","name":"","type":"uint256"}],"stateMutability":"view","type":"function"},{"inputs":[{"internalType":"bytes32","name":"_loanId","type":"bytes32"}],"name":"depositCollateral","outputs":[],"stateMutability":"nonpayable","type":"function"},{"inputs":[{"internalType":"bytes32","name":"_loanId","type":"bytes32"}],"name":"fundLoan","outputs":[],"stateMutability":"nonpayable","type":"function"},{"inputs":[{"internalType":"address","name":"_borrower","type":"address"}],"name":"getBorrowerLoans","outputs":[{"internalType":"bytes32[]","name":"","type":"bytes32[]"}],"stateMutability":"view","type":"function"},{"inputs":[{"internalType":"address","name":"_lender","type":"address"}],"name":"getLenderLoans","outputs":[{"internalType":"bytes32[]","name":"","type":"bytes32[]"}],"stateMutability":"view","type":"function"},{"inputs":[{"internalType":"bytes32","name":"_loanId","type":"bytes32"}],"name":"getLoan","outputs":[{"components":[{"internalType":"bytes32","name":"loanId","type":"bytes32"},{"internalType":"address","name":"borrower","type":"address"},{"internalType":"address","name":"lender","type":"address"},{"internalType":"address","name":"loanToken","type":"address"},{"internalType":"address","name":"collateralToken","type":"address"},{"internalType":"uint256","name":"loanAmount","type":"uint256"},{"internalType":"uint256","name":"collateralAmount","type":"uint256"},{"internalType":"uint256","name":"interestRate","type":"uint256"},{"internalType":"uint256","name":"durationDays","type":"uint256"},{"internalType":"uint256","name":"startTime","type":"uint256"},{"internalType":"uint256","name":"dueDate","type":"uint256"},{"internalType":"uint256","name":"totalRepayment","type":"uint256"},{"internalType":"uint256","name":"amountRepaid","type":"uint256"},{"internalType":"enum LendingEscrow.LoanStatus","name":"status","type":"uint8"}],"internalType":"struct LendingEscrow.Loan","name":"","type":"tuple"}],"stateMutability":"view","type":"function"},{"inputs":[{"internalType":"address","name":"_borrower","type":"address"}],"name":"isBorrowerEligible","outputs":[{"internalType":"bool","name":"","type":"bool"}],"stateMutability":"view","type":"function"},{"inputs":[{"internalType":"bytes32","name":"_loanId","type":"bytes32"}],"name":"isLoanOverdue","outputs":[{"internalType":"bool","name":"","type":"bool"}],"stateMutability":"view","type":"function"},{"inputs":[{"internalType":"address","name":"","type":"address"},{"internalType":"uint256","name":"","type":"uint256"}],"name":"lenderLoans","outputs":[{"internalType":"bytes32","name":"","type":"bytes32"}],"stateMutability":"view","type":"function"},{"inputs":[{"internalType":"bytes32","name":"_loanId","type":"bytes32"}],"name":"liquidateCollateral","outputs":[],"stateMutability":"nonpayable","type":"function"},{"inputs":[{"internalType":"bytes32","name":"","type":"bytes32"}],"name":"loans","outputs":[{"internalType":"bytes32","name":"loanId","type":"bytes32"},{"internalType":"address","name":"borrower","type":"address"},{"internalType":"address","name":"lender","type":"address"},{"internalType":"address","name":"loanToken","type":"address"},{"internalType":"address","name":"collateralToken","type":"address"},{"internalType":"uint256","name":"loanAmount","type":"uint256"},{"internalType":"uint256","name":"collateralAmount","type":"uint256"},{"internalType":"uint256","name":"interestRate","type":"uint256"},{"internalType":"uint256","name":"durationDays","type":"uint256"},{"internalType":"uint256","name":"startTime","type":"uint256"},{"internalType":"uint256","name":"dueDate","type":"uint256"},{"internalType":"uint256","name":"totalRepayment","type":"uint256"},{"internalType":"uint256","name":"amountRepaid","type":"uint256"},{"internalType":"enum LendingEscrow.LoanStatus","name":"status","type":"uint8"}],"stateMutability":"view","type":"function"},{"inputs":[{"internalType":"bytes32","name":"_loanId","type":"bytes32"},{"internalType":"uint256","name":"_amount","type":"uint256"}],"name":"makeRepayment","outputs":[],"stateMutability":"nonpayable","type":"function"},{"inputs":[{"internalType":"bytes32","name":"_loanId","type":"bytes32"}],"name":"markAsDefaulted","outputs":[],"stateMutability":"nonpayable","type":"function"},{"inputs":[],"name":"owner","outputs":[{"internalType":"address","name":"","type":"address"}],"stateMutability":"view","type":"function"},{"inputs":[],"name":"scoreRegistry","outputs":[{"internalType":"contract IDeFiScoreRegistry","name":"","type":"address"}],"stateMutability":"view","type":"function"},{"inputs":[{"internalType":"uint256","name":"_threshold","type":"uint256"}],"name":"setDefaultThreshold","outputs":[],"stateMutability":"nonpayable","type":"function"},{"inputs":[{"internalType":"address","name":"_registry","type":"address"}],"name":"setScoreRegistry","outputs":[],"stateMutability":"nonpayable","type":"function"}],"evm":{"bytecode":{"linkReferences":{},"object":"60806040526207a120600255600160035534801561001c57600080fd5b50600080546001600160a01b03191633179055611f908061003e6000396000f3fe608060405234801561001057600080fd5b50600436106101205760003560e01c80638fd78cd4116100ad578063d38754cd11610071578063d38754cd14610306578063e3ed190214610319578063eee8b7ff1461032c578063eeeb0c171461034c578063f9bccab11461035f57600080fd5b80638fd78cd41461021057806392e4c55214610223578063c4a9081514610236578063c5246bf5146102e0578063d017fa94146102f357600080fd5b806353f10a4b116100f457806353f10a4b146101ae5780635eb6ee8e146101b757806363783af9146101ca5780638932f5f7146101dd5780638da5cb5b146101fd57600080fd5b80629cb25d1461012557806334dab3901461013a5780633cdb72f1146101625780633eb8104a14610183575b600080fd5b610138610133366004611b45565b610372565b005b61014d610148366004611b45565b61056a565b60405190151581526020015b60405180910390f35b610175610170366004611b7a565b610698565b604051908152602001610159565b600154610196906001600160a01b031681565b6040516001600160a01b039091168152602001610159565b61017560025481565b6101386101c5366004611ba4565b6106c9565b6101386101d8366004611b45565b610793565b6101f06101eb366004611b45565b610976565b6040516101599190611bf7565b600054610196906001600160a01b031681565b61014d61021e366004611ba4565b610a68565b610138610231366004611cdd565b610bea565b6102c6610244366004611b45565b600460208190526000918252604090912080546001820154600283015460038401549484015460058501546006860154600787015460088801546009890154600a8a0154600b8b0154600c8c0154600d909c01549a9c6001600160a01b039a8b169c998b169b908b169a90981698969795969495939492939192909160ff168e565b6040516101599e9d9c9b9a99989796959493929190611cff565b6101386102ee366004611b45565b610fb1565b610138610301366004611b45565b61105d565b610138610314366004611d84565b61126d565b610175610327366004611b7a565b61166e565b61033f61033a366004611ba4565b61168a565b6040516101599190611e07565b61033f61035a366004611ba4565b6116f6565b61013861036d366004611b45565b611760565b60035460011461039d5760405162461bcd60e51b815260040161039490611e4b565b60405180910390fd5b6002600355600081815260046020526040902080546103ce5760405162461bcd60e51b815260040161039490611e73565b60028101546001600160a01b0316331461042a5760405162461bcd60e51b815260206004820152601960248201527f4f6e6c79206c656e6465722063616e206c6971756964617465000000000000006044820152606401610394565b6004600d82015460ff16600581111561044557610445611bbf565b146104875760405162461bcd60e51b8152602060048201526012602482015271131bd85b881b9bdd08191959985d5b1d195960721b6044820152606401610394565b600d8101805460ff191660051790556004808201546002830154600684015460405163a9059cbb60e01b81526001600160a01b03928316948101949094526024840152169063a9059cbb906044016020604051808303816000875af11580156104f4573d6000803e3d6000fd5b505050506040513d601f19601f820116820180604052508101906105189190611ea0565b50336001600160a01b0316827f79a79f29d7efed5c9a590b6ed4b7b94ec1b2fb232427a3f416eb15dace2f6ca5836006015460405161055991815260200190565b60405180910390a350506001600355565b600081815260046020818152604080842081516101c0810183528154815260018201546001600160a01b0390811694820194909452600282015484169281019290925260038101548316606083015292830154909116608082015260058083015460a0830152600683015460c0830152600783015460e083015260088301546101008301526009830154610120830152600a830154610140830152600b830154610160830152600c830154610180830152600d8301548493916101a084019160ff169081111561063c5761063c611bbf565b600581111561064d5761064d611bbf565b90525090506002816101a00151600581111561066b5761066b611bbf565b14801561067c575080610140015142115b80156106915750806101600151816101800151105b9392505050565b600660205281600052604060002081815481106106b457600080fd5b90600052602060002001600091509150505481565b6000546001600160a01b031633146106f35760405162461bcd60e51b815260040161039490611ec2565b6001600160a01b0381166107495760405162461bcd60e51b815260206004820152601860248201527f496e76616c6964207265676973747279206164647265737300000000000000006044820152606401610394565b600180546001600160a01b0319166001600160a01b0383169081179091556040517f2b50883ee31518c38d6d92a16b179b66bc27eaea32c0245b96e829408a8c265290600090a250565b6003546001146107b55760405162461bcd60e51b815260040161039490611e4b565b6002600355600081815260046020526040902080546107e65760405162461bcd60e51b815260040161039490611e73565b60018101546001600160a01b0316331461084e5760405162461bcd60e51b8152602060048201526024808201527f4f6e6c7920626f72726f7765722063616e206465706f73697420636f6c6c6174604482015263195c985b60e21b6064820152608401610394565b6000600d82015460ff16600581111561086957610869611bbf565b146108ac5760405162461bcd60e51b8152602060048201526013602482015272496e76616c6964206c6f616e2073746174757360681b6044820152606401610394565b60048181015460068301546040516323b872dd60e01b8152339381019390935230602484015260448301526001600160a01b0316906323b872dd906064016020604051808303816000875af1158015610909573d6000803e3d6000fd5b505050506040513d601f19601f8201168201806040525081019061092d9190611ea0565b50600d8101805460ff191660011790556006810154604051908152339083907f1eaa3c7e4504a558b82af8aad514e144b09bc2eca413ceef6d6ba6260f772f1690602001610559565b61097e611a9f565b60008281526004602081815260409283902083516101c0810185528154815260018201546001600160a01b039081169382019390935260028201548316948101949094526003810154821660608501529182015416608083015260058082015460a0840152600682015460c0840152600782015460e084015260088201546101008401526009820154610120840152600a820154610140840152600b820154610160840152600c820154610180840152600d8201546101a084019160ff90911690811115610a4e57610a4e611bbf565b6005811115610a5f57610a5f611bbf565b90525092915050565b6001546000906001600160a01b0316610a8357506000919050565b6001546040516366e305fd60e01b81526001600160a01b038481166004830152909116906366e305fd90602401602060405180830381865afa158015610acd573d6000803e3d6000fd5b505050506040513d601f19601f82011682018060405250810190610af19190611ea0565b8015610b665750600154604051635bfc8dfd60e01b81526001600160a01b03848116600483015290911690635bfc8dfd90602401602060405180830381865afa158015610b42573d6000803e3d6000fd5b505050506040513d601f19601f82011682018060405250810190610b669190611ea0565b8015610be4575060015460025460405162fa198b60e71b81526001600160a01b0385811660048301526024820192909252911690637d0cc58090604401602060405180830381865afa158015610bc0573d6000803e3d6000fd5b505050506040513d601f19601f82011682018060405250810190610be49190611ea0565b92915050565b600354600114610c0c5760405162461bcd60e51b815260040161039490611e4b565b600260035560008281526004602052604090208054610c3d5760405162461bcd60e51b815260040161039490611e73565b60018101546001600160a01b03163314610c995760405162461bcd60e51b815260206004820152601760248201527f4f6e6c7920626f72726f7765722063616e2072657061790000000000000000006044820152606401610394565b6002600d82015460ff166005811115610cb457610cb4611bbf565b14610cf35760405162461bcd60e51b815260206004820152600f60248201526e4c6f616e206e6f742061637469766560881b6044820152606401610394565b60008211610d435760405162461bcd60e51b815260206004820152601d60248201527f416d6f756e74206d7573742062652067726561746572207468616e20300000006044820152606401610394565b600081600c015482600b0154610d599190611efb565b905080831115610dab5760405162461bcd60e51b815260206004820181905260248201527f416d6f756e7420657863656564732072656d61696e696e672062616c616e63656044820152606401610394565b600382015460028301546040516323b872dd60e01b81523360048201526001600160a01b039182166024820152604481018690529116906323b872dd906064016020604051808303816000875af1158015610e0a573d6000803e3d6000fd5b505050506040513d601f19601f82011682018060405250810190610e2e9190611ea0565b508282600c016000828254610e439190611f0e565b90915550339050847f06d28b1f9b589fc95c0277785794893a75cdc6eaf29ee49fa91cd3be9d31115e85610e778186611efb565b6040805192835260208301919091520160405180910390a381600b015482600c015410610fa657600d8201805460ff191660031790556004808301546001840154600685015460405163a9059cbb60e01b81526001600160a01b03928316948101949094526024840152169063a9059cbb906044016020604051808303816000875af1158015610f0b573d6000803e3d6000fd5b505050506040513d601f19601f82011682018060405250810190610f2f9190611ea0565b50604051339085907f8daf861cd83df9ee5bdd1881cc2e0ac722103d7b2a952fc76573658ca88c450390600090a3336001600160a01b0316847f8606a781efe7af9d45a62d3d0079e36c36c437261504883e026cc407d73cfd178460060154604051610f9d91815260200190565b60405180910390a35b505060016003555050565b6000546001600160a01b03163314610fdb5760405162461bcd60e51b815260040161039490611ec2565b620dbba08111156110225760405162461bcd60e51b8152602060048201526011602482015270125b9d985b1a59081d1a1c995cda1bdb19607a1b6044820152606401610394565b60028190556040518181527f74e220540b8f832845e1e89b5dfdb8b632923018ac953836880d68efcf2160f59060200160405180910390a150565b60035460011461107f5760405162461bcd60e51b815260040161039490611e4b565b6002600355600081815260046020526040902080546110b05760405162461bcd60e51b815260040161039490611e73565b60028101546001600160a01b0316331461110c5760405162461bcd60e51b815260206004820152601960248201527f4f6e6c79206c656e6465722063616e2066756e64206c6f616e000000000000006044820152606401610394565b6001600d82015460ff16600581111561112757611127611bbf565b146111745760405162461bcd60e51b815260206004820152601860248201527f436f6c6c61746572616c206e6f74206465706f736974656400000000000000006044820152606401610394565b6003810154600182015460058301546040516323b872dd60e01b81523360048201526001600160a01b03928316602482015260448101919091529116906323b872dd906064016020604051808303816000875af11580156111d9573d6000803e3d6000fd5b505050506040513d601f19601f820116820180604052508101906111fd9190611ea0565b50600d8101805460ff1916600217905542600982015560088101546112259062015180611f21565b61122f9042611f0e565b600a8201556005810154604051908152339083907fc9ec7789962b9f329b37b7c2abcaa16a718d7203dc72064e1fde1b34a552b05a90602001610559565b6000546001600160a01b031633146112975760405162461bcd60e51b815260040161039490611ec2565b600089815260046020526040902054156112e95760405162461bcd60e51b81526020600482015260136024820152724c6f616e20616c72656164792065786973747360681b6044820152606401610394565b6001600160a01b0388161580159061130957506001600160a01b03871615155b6113495760405162461bcd60e51b8152602060048201526011602482015270496e76616c69642061646472657373657360781b6044820152606401610394565b6000841180156113595750600083115b6113975760405162461bcd60e51b815260206004820152600f60248201526e496e76616c696420616d6f756e747360881b6044820152606401610394565b6113a0886118c9565b60006237b1d0826113b18588611f21565b6113bb9190611f21565b6113c59190611f38565b905060006113d38287611f0e565b90506000604051806101c001604052808d81526020018c6001600160a01b031681526020018b6001600160a01b031681526020018a6001600160a01b03168152602001896001600160a01b031681526020018881526020018781526020018681526020018581526020016000815260200160008152602001838152602001600081526020016000600581111561146b5761146b611bbf565b905260008d8152600460208181526040928390208451815590840151600180830180546001600160a01b03199081166001600160a01b03948516179091559486015160028401805487169184169190911790556060860151600384018054871691841691909117905560808601519383018054909516939091169290921790925560a083015160058084019190915560c0840151600684015560e0840151600784015561010084015160088401556101208401516009840155610140840151600a840155610160840151600b840155610180840151600c8401556101a0840151600d8401805495965086959193909260ff1990921691849081111561157257611572611bbf565b0217905550905050600560008c6001600160a01b03166001600160a01b031681526020019081526020016000208c9080600181540180825580915050600190039060005260206000200160009091909190915055600660008b6001600160a01b03166001600160a01b031681526020019081526020016000208c9080600181540180825580915050600190039060005260206000200160009091909190915055896001600160a01b03168b6001600160a01b03168d7fa0755887a25eb0a7fadc1b4e3982db5663d49089fc2de7b2f2ab1f9168ad71c68a60405161165891815260200190565b60405180910390a4505050505050505050505050565b600560205281600052604060002081815481106106b457600080fd5b6001600160a01b0381166000908152600560209081526040918290208054835181840281018401909452808452606093928301828280156116ea57602002820191906000526020600020905b8154815260200190600101908083116116d6575b50505050509050919050565b6001600160a01b0381166000908152600660209081526040918290208054835181840281018401909452808452606093928301828280156116ea57602002820191906000526020600020908154815260200190600101908083116116d65750505050509050919050565b6000818152600460205260409020805461178c5760405162461bcd60e51b815260040161039490611e73565b6002600d82015460ff1660058111156117a7576117a7611bbf565b146117e65760405162461bcd60e51b815260206004820152600f60248201526e4c6f616e206e6f742061637469766560881b6044820152606401610394565b80600a0154421161182d5760405162461bcd60e51b81526020600482015260116024820152704c6f616e206e6f7420706173742064756560781b6044820152606401610394565b80600b015481600c01541061187a5760405162461bcd60e51b8152602060048201526013602482015272131bd85b88185b1c9958591e481c995c185a59606a1b6044820152606401610394565b600d8101805460ff1916600417905560018101546040516001600160a01b039091169083907f36cb5ae03feffae0ec99449f0264e31b98f44c687c34916193267f2073ed23c590600090a35050565b6001546001600160a01b03166118f25760405163769e5f3160e11b815260040160405180910390fd5b6001546040516366e305fd60e01b81526001600160a01b038381166004830152909116906366e305fd90602401602060405180830381865afa15801561193c573d6000803e3d6000fd5b505050506040513d601f19601f820116820180604052508101906119609190611ea0565b61197d57604051638cedfd5b60e01b815260040160405180910390fd5b600154604051635bfc8dfd60e01b81526001600160a01b03838116600483015290911690635bfc8dfd90602401602060405180830381865afa1580156119c7573d6000803e3d6000fd5b505050506040513d601f19601f820116820180604052508101906119eb9190611ea0565b611a085760405163284bfa7160e21b815260040160405180910390fd5b60015460025460405162fa198b60e71b81526001600160a01b0384811660048301526024820192909252911690637d0cc58090604401602060405180830381865afa158015611a5b573d6000803e3d6000fd5b505050506040513d601f19601f82011682018060405250810190611a7f9190611ea0565b611a9c5760405163a3d61d5d60e01b815260040160405180910390fd5b50565b604051806101c001604052806000801916815260200160006001600160a01b0316815260200160006001600160a01b0316815260200160006001600160a01b0316815260200160006001600160a01b03168152602001600081526020016000815260200160008152602001600081526020016000815260200160008152602001600081526020016000815260200160006005811115611b4057611b40611bbf565b905290565b600060208284031215611b5757600080fd5b5035919050565b80356001600160a01b0381168114611b7557600080fd5b919050565b60008060408385031215611b8d57600080fd5b611b9683611b5e565b946020939093013593505050565b600060208284031215611bb657600080fd5b61069182611b5e565b634e487b7160e01b600052602160045260246000fd5b60068110611bf357634e487b7160e01b600052602160045260246000fd5b9052565b815181526020808301516101c0830191611c1b908401826001600160a01b03169052565b506040830151611c3660408401826001600160a01b03169052565b506060830151611c5160608401826001600160a01b03169052565b506080830151611c6c60808401826001600160a01b03169052565b5060a0838101519083015260c0808401519083015260e08084015190830152610100808401519083015261012080840151908301526101408084015190830152610160808401519083015261018080840151908301526101a080840151611cd582850182611bd5565b505092915050565b60008060408385031215611cf057600080fd5b50508035926020909101359150565b8e81526001600160a01b038e811660208301528d811660408301528c811660608301528b1660808201526101c081018a60a08301528960c08301528860e08301528761010083015286610120830152856101408301528461016083015283610180830152611d716101a0830184611bd5565b9f9e505050505050505050505050505050565b60008060008060008060008060006101208a8c031215611da357600080fd5b89359850611db360208b01611b5e565b9750611dc160408b01611b5e565b9650611dcf60608b01611b5e565b9550611ddd60808b01611b5e565b989b979a50959894979660a0860135965060c08601359560e0810135955061010001359350915050565b6020808252825182820181905260009190848201906040850190845b81811015611e3f57835183529284019291840191600101611e23565b50909695505050505050565b6020808252600e908201526d1499595b9d1c985b9d0818d85b1b60921b604082015260600190565b602080825260139082015272131bd85b88191bd95cc81b9bdd08195e1a5cdd606a1b604082015260600190565b600060208284031215611eb257600080fd5b8151801515811461069157600080fd5b6020808252600990820152682737ba1037bbb732b960b91b604082015260600190565b634e487b7160e01b600052601160045260246000fd5b81810381811115610be457610be4611ee5565b80820180821115610be457610be4611ee5565b8082028115828204841417610be457610be4611ee5565b600082611f5557634e487b7160e01b600052601260045260246000fd5b50049056fea2646970667358221220af905e074f5c2b9a632a2c116c55f8f1bb09ef0addeb62ffae3d86095dd952e764736f6c63430008140033","opcodes":"PUSH1 0x80 PUSH1 0x40 MSTORE PUSH3 0x7A120 PUSH1 0x2 SSTORE PUSH1 0x1 PUSH1 0x3 SSTORE CALLVALUE DUP1 ISZERO PUSH2 0x1C JUMPI PUSH1 0x0 DUP1 REVERT JUMPDEST POP PUSH1 0x0 DUP1 SLOAD PUSH1 0x1 PUSH1 0x1 PUSH1 0xA0 SHL SUB NOT AND CALLER OR SWAP1 SSTORE PUSH2 0x1F90 DUP1 PUSH2 0x3E PUSH1 0x0 CODECOPY PUSH1 0x0 RETURN INVALID PUSH1 0x80 PUSH1 0x40 MSTORE CALLVALUE DUP1 ISZERO PUSH2 0x10 JUMPI PUSH1 0x0 DUP1 REVERT JUMPDEST POP PUSH1 0x4 CALLDATASIZE LT PUSH2 0x120 JUMPI PUSH1 0x0 CALLDATALOAD PUSH1 0xE0 SHR DUP1 PUSH4 0x8FD78CD4 GT PUSH2 0xAD JUMPI DUP1 PUSH4 0xD38754CD GT PUSH2 0x71 JUMPI DUP1 PUSH4 0xD38754CD EQ PUSH2 0x306 JUMPI DUP1 PUSH4 0xE3ED1902 EQ PUSH2 0x319 JUMPI DUP1 PUSH4 0xEEE8B7FF EQ PUSH2 0x32C JUMPI DUP1 PUSH4 0xEEEB0C17 EQ PUSH2 0x34C JUMPI DUP1 PUSH4 0xF9BCCAB1 EQ PUSH2 0x35F JUMPI PUSH1 0x0 DUP1 REVERT JUMPDEST DUP1 PUSH4 0x8FD78CD4 EQ PUSH2 0x210 JUMPI DUP1 PUSH4 0x92E4C552 EQ PUSH2 0x223 JUMPI DUP1 PUSH4 0xC4A90815 EQ PUSH2 0x236 JUMPI DUP1 PUSH4 0xC5246BF5 EQ PUSH2 0x2E0 JUMPI DUP1 PUSH4 0xD017FA94 EQ PUSH2 0x2F3 JUMPI PUSH1 0x0 DUP1 REVERT JUMPDEST DUP1 PUSH4 0x53F10A4B GT PUSH2 0xF4 JUMPI DUP1 PUSH4 0x53F10A4B EQ PUSH2 0x1AE JUMPI DUP1 PUSH4 0x5EB6EE8E EQ PUSH2 0x1B7 JUMPI DUP1 PUSH4 0x63783AF9 EQ PUSH2 0x1CA JUMPI DUP1 PUSH4 0x8932F5F7 EQ PUSH2 0x1DD JUMPI DUP1 PUSH4 0x8DA5CB5B EQ PUSH2 0x1FD JUMPI PUSH1 0x0 DUP1 REVERT JUMPDEST DUP1 PUSH3 0x9CB25D EQ PUSH2 0x125 JUMPI DUP1 PUSH4 0x34DAB390 EQ PUSH2 0x13A JUMPI DUP1 PUSH4 0x3CDB72F1 EQ PUSH2 0x162 JUMPI DUP1 PUSH4 0x3EB8104A EQ PUSH2 0x183 JUMPI JUMPDEST PUSH1 0x0 DUP1 REVERT JUMPDEST PUSH2 0x138 PUSH2 0x133 CALLDATASIZE PUSH1 0x4 PUSH2 0x1B45 JUMP JUMPDEST PUSH2 0x372 JUMP JUMPDEST STOP JUMPDEST PUSH2 0x14D PUSH2 0x148 CALLDATASIZE PUSH1 0x4 PUSH2 0x1B45 JUMP JUMPDEST PUSH2 0x56A JUMP JUMPDEST PUSH1 0x40 MLOAD SWAP1 ISZERO ISZERO DUP2 MSTORE PUSH1 0x20 ADD JUMPDEST PUSH1 0x40 MLOAD DUP1 SWAP2 SUB SWAP1 RETURN JUMPDEST PUSH2 0x175 PUSH2 0x170 CALLDATASIZE PUSH1 0x4 PUSH2 0x1B7A JUMP JUMPDEST PUSH2 0x698 JUMP JUMPDEST PUSH1 0x40 MLOAD SWAP1 DUP2 MSTORE PUSH1 0x20 ADD PUSH2 0x159 JUMP JUMPDEST PUSH1 0x1 SLOAD PUSH2 0x196 SWAP1 PUSH1 0x1 PUSH1 0x1 PUSH1 0xA0 SHL SUB AND DUP2 JUMP JUMPDEST PUSH1 0x40 MLOAD PUSH1 0x1 PUSH1 0x1 PUSH1 0xA0 SHL SUB SWAP1 SWAP2 AND DUP2 MSTORE PUSH1 0x20 ADD PUSH2 0x159 JUMP JUMPDEST PUSH2 0x175 PUSH1 0x2 SLOAD DUP2 JUMP JUMPDEST PUSH2 0x138 PUSH2 0x1C5 CALLDATASIZE PUSH1 0x4 PUSH2 0x1BA4 JUMP JUMPDEST PUSH2 0x6C9 JUMP JUMPDEST PUSH2 0x138 PUSH2 0x1D8 CALLDATASIZE PUSH1 0x4 PUSH2 0x1B45 JUMP JUMPDEST PUSH2 0x793 JUMP JUMPDEST PUSH2 0x1F0 PUSH2 0x1EB CALLDATASIZE PUSH1 0x4 PUSH2 0x1B45 JUMP JUMPDEST PUSH2 0x976 JUMP JUMPDEST PUSH1 0x40 MLOAD PUSH2 0x159 SWAP2 SWAP1 PUSH2 0x1BF7 JUMP JUMPDEST PUSH1 0x0 SLOAD PUSH2 0x196 SWAP1 PUSH1 0x1 PUSH1 0x1 PUSH1 0xA0 SHL SUB AND DUP2 JUMP JUMPDEST PUSH2 0x14D PUSH2 0x21E CALLDATASIZE PUSH1 0x4 PUSH2 0x1BA4 JUMP JUMPDEST PUSH2 0xA68 JUMP JUMPDEST PUSH2 0x138 PUSH2 0x231 CALLDATASIZE PUSH1 0x4 PUSH2 0x1CDD JUMP JUMPDEST PUSH2 0xBEA JUMP JUMPDEST PUSH2 0x2C6 PUSH2 0x244 CALLDATASIZE PUSH1 0x4 PUSH2 0x1B45 JUMP JUMPDEST PUSH1 0x4 PUSH1 0x20 DUP2 SWAP1 MSTORE PUSH1 0x0 SWAP2 DUP3 MSTORE PUSH1 0x40 SWAP1 SWAP2 KECCAK256 DUP1 SLOAD PUSH1 0x1 DUP3 ADD SLOAD PUSH1 0x2 DUP4 ADD SLOAD PUSH1 0x3 DUP5 ADD SLOAD SWAP5 DUP5 ADD SLOAD PUSH1 0x5 DUP6 ADD SLOAD PUSH1 0x6 DUP7 ADD SLOAD PUSH1 0x7 DUP8 ADD SLOAD PUSH1 0x8 DUP9 ADD SLOAD PUSH1 0x9 DUP10 ADD SLOAD PUSH1 0xA DUP11 ADD SLOAD PUSH1 0xB DUP12 ADD SLOAD PUSH1 0xC DUP13 ADD SLOAD PUSH1 0xD SWAP1 SWAP13 ADD SLOAD SWAP11 SWAP13 PUSH1 0x1 PUSH1 0x1 PUSH1 0xA0 SHL SUB SWAP11 DUP12 AND SWAP13 SWAP10 DUP12 AND SWAP12 SWAP1 DUP12 AND SWAP11 SWAP1 SWAP9 AND SWAP9 SWAP7 SWAP8 SWAP6 SWAP7 SWAP5 SWAP6 SWAP4 SWAP5 SWAP3 SWAP4 SWAP2 SWAP3 SWAP1 SWAP2 PUSH1 0xFF AND DUP15 JUMP JUMPDEST PUSH1 0x40 MLOAD PUSH2 0x159 SWAP15 SWAP14 SWAP13 SWAP12 SWAP11 SWAP10 SWAP9 SWAP8 SWAP7 SWAP6 SWAP5 SWAP4 SWAP3 SWAP2 SWAP1 PUSH2 0x1CFF JUMP JUMPDEST PUSH2 0x138 PUSH2 0x2EE CALLDATASIZE PUSH1 0x4 PUSH2 0x1B45 JUMP JUMPDEST PUSH2 0xFB1 JUMP JUMPDEST PUSH2 0x138 PUSH2 0x301 CALLDATASIZE PUSH1 0x4 PUSH2 0x1B45 JUMP JUMPDEST PUSH2 0x105D JUMP JUMPDEST PUSH2 0x138 PUSH2 0x314 CALLDATASIZE PUSH1 0x4 PUSH2 0x1D84 JUMP JUMPDEST PUSH2 0x126D JUMP JUMPDEST PUSH2 0x175 PUSH2 0x327 CALLDATASIZE PUSH1 0x4 PUSH2 0x1B7A JUMP JUMPDEST PUSH2 0x166E JUMP JUMPDEST PUSH2 0x33F PUSH2 0x33A CALLDATASIZE PUSH1 0x4 PUSH2 0x1BA4 JUMP JUMPDEST PUSH2 0x168A JUMP JUMPDEST PUSH1 0x40 MLOAD PUSH2 0x159 SWAP2 SWAP1 PUSH2 0x1E07 JUMP JUMPDEST PUSH2 0x33F PUSH2 0x35A CALLDATASIZE PUSH1 0x4 PUSH2 0x1BA4 JUMP JUMPDEST PUSH2 0x16F6 JUMP JUMPDEST PUSH2 0x138 PUSH2 0x36D CALLDATASIZE PUSH1 0x4 PUSH2 0x1B45 JUMP JUMPDEST PUSH2 0x1760 JUMP JUMPDEST PUSH1 0x3 SLOAD PUSH1 0x1 EQ PUSH2 0x39D JUMPI PUSH1 0x40 MLOAD PUSH3 0x461BCD PUSH1 0xE5 SHL DUP2 MSTORE PUSH1 0x4 ADD PUSH2 0x394 SWAP1 PUSH2 0x1E4B JUMP JUMPDEST PUSH1 0x40 MLOAD DUP1 SWAP2 SUB SWAP1 REVERT JUMPDEST PUSH1 0x2 PUSH1 0x3 SSTORE PUSH1 0x0 DUP2 DUP2 MSTORE PUSH1 0x4 PUSH1 0x20 MSTORE PUSH1 0x40 SWAP1 KECCAK256 DUP1 SLOAD PUSH2 0x3CE JUMPI PUSH1 0x40 MLOAD PUSH3 0x461BCD PUSH1 0xE5 SHL DUP2 MSTORE PUSH1 0x4 ADD PUSH2 0x394 SWAP1 PUSH2 0x1E73 JUMP JUMPDEST PUSH1 0x2 DUP2 ADD SLOAD PUSH1 0x1 PUSH1 0x1 PUSH1 0xA0 SHL SUB AND CALLER EQ PUSH2 0x42A JUMPI PUSH1 0x40 MLOAD PUSH3 0x461BCD PUSH1 0xE5 SHL DUP2 MSTORE PUSH1 0x20 PUSH1 0x4 DUP3 ADD MSTORE PUSH1 0x19 PUSH1 0x24 DUP3 ADD MSTORE PUSH32 0x4F6E6C79206C656E6465722063616E206C697175696461746500000000000000 PUSH1 0x44 DUP3 ADD MSTORE PUSH1 0x64 ADD PUSH2 0x394 JUMP JUMPDEST PUSH1 0x4 PUSH1 0xD DUP3 ADD SLOAD PUSH1 0xFF AND PUSH1 0x5 DUP2 GT ISZERO PUSH2 0x445 JUMPI PUSH2 0x445 PUSH2 0x1BBF JUMP JUMPDEST EQ PUSH2 0x487 JUMPI PUSH1 0x40 MLOAD PUSH3 0x461BCD PUSH1 0xE5 SHL DUP2 MSTORE PUSH1 0x20 PUSH1 0x4 DUP3 ADD MSTORE PUSH1 0x12 PUSH1 0x24 DUP3 ADD MSTORE PUSH18 0x131BD85B881B9BDD08191959985D5B1D1959 PUSH1 0x72 SHL PUSH1 0x44 DUP3 ADD MSTORE PUSH1 0x64 ADD PUSH2 0x394 JUMP JUMPDEST PUSH1 0xD DUP2 ADD DUP1 SLOAD PUSH1 0xFF NOT AND PUSH1 0x5 OR SWAP1 SSTORE PUSH1 0x4 DUP1 DUP3 ADD SLOAD PUSH1 0x2 DUP4 ADD SLOAD PUSH1 0x6 DUP5 ADD SLOAD PUSH1 0x40 MLOAD PUSH4 0xA9059CBB PUSH1 0xE0 SHL DUP2 MSTORE PUSH1 0x1 PUSH1 0x1 PUSH1 0xA0 SHL SUB SWAP3 DUP4 AND SWAP5 DUP2 ADD SWAP5 SWAP1 SWAP5 MSTORE PUSH1 0x24 DUP5 ADD MSTORE AND SWAP1 PUSH4 0xA9059CBB SWAP1 PUSH1 0x44 ADD PUSH1 0x20 PUSH1 0x40 MLOAD DUP1 DUP4 SUB DUP2 PUSH1 0x0 DUP8 GAS CALL ISZERO DUP1 ISZERO PUSH2 0x4F4 JUMPI RETURNDATASIZE PUSH1 0x0 DUP1 RETURNDATACOPY RETURNDATASIZE PUSH1 0x0 REVERT JUMPDEST POP POP POP POP PUSH1 0x40 MLOAD RETURNDATASIZE PUSH1 0x1F NOT PUSH1 0x1F DUP3 ADD AND DUP3 ADD DUP1 PUSH1 0x40 MSTORE POP DUP2 ADD SWAP1 PUSH2 0x518 SWAP2 SWAP1 PUSH2 0x1EA0 JUMP JUMPDEST POP CALLER PUSH1 0x1 PUSH1 0x1 PUSH1 0xA0 SHL SUB AND DUP3 PUSH32 0x79A79F29D7EFED5C9A590B6ED4B7B94EC1B2FB232427A3F416EB15DACE2F6CA5 DUP4 PUSH1 0x6 ADD SLOAD PUSH1 0x40 MLOAD PUSH2 0x559 SWAP2 DUP2 MSTORE PUSH1 0x20 ADD SWAP1 JUMP JUMPDEST PUSH1 0x40 MLOAD DUP1 SWAP2 SUB SWAP1 LOG3 POP POP PUSH1 0x1 PUSH1 0x3 SSTORE JUMP JUMPDEST PUSH1 0x0 DUP2 DUP2 MSTORE PUSH1 0x4 PUSH1 0x20 DUP2 DUP2 MSTORE PUSH1 0x40 DUP1 DUP5 KECCAK256 DUP2 MLOAD PUSH2 0x1C0 DUP2 ADD DUP4 MSTORE DUP2 SLOAD DUP2 MSTORE PUSH1 0x1 DUP3 ADD SLOAD PUSH1 0x1 PUSH1 0x1 PUSH1 0xA0 SHL SUB SWAP1 DUP2 AND SWAP5 DUP3 ADD SWAP5 SWAP1 SWAP5 MSTORE PUSH1 0x2 DUP3 ADD SLOAD DUP5 AND SWAP3 DUP2 ADD SWAP3 SWAP1 SWAP3 MSTORE PUSH1 0x3 DUP2 ADD SLOAD DUP4 AND PUSH1 0x60 DUP4 ADD MSTORE SWAP3 DUP4 ADD SLOAD SWAP1 SWAP2 AND PUSH1 0x80 DUP3 ADD MSTORE PUSH1 0x5 DUP1 DUP4 ADD SLOAD PUSH1 0xA0 DUP4 ADD MSTORE PUSH1 0x6 DUP4 ADD SLOAD PUSH1 0xC0 DUP4 ADD MSTORE PUSH1 0x7 DUP4 ADD SLOAD PUSH1 0xE0 DUP4 ADD MSTORE PUSH1 0x8 DUP4 ADD SLOAD PUSH2 0x100 DUP4 ADD MSTORE PUSH1 0x9 DUP4 ADD SLOAD PUSH2 0x120 DUP4 ADD MSTORE PUSH1 0xA DUP4 ADD SLOAD PUSH2 0x140 DUP4 ADD MSTORE PUSH1 0xB DUP4 ADD SLOAD PUSH2 0x160 DUP4 ADD MSTORE PUSH1 0xC DUP4 ADD SLOAD PUSH2 0x180 DUP4 ADD MSTORE PUSH1 0xD DUP4 ADD SLOAD DUP5 SWAP4 SWAP2 PUSH2 0x1A0 DUP5 ADD SWAP2 PUSH1 0xFF AND SWAP1 DUP2 GT ISZERO PUSH2 0x63C JUMPI PUSH2 0x63C PUSH2 0x1BBF JUMP JUMPDEST PUSH1 0x5 DUP2 GT ISZERO PUSH2 0x64D JUMPI PUSH2 0x64D PUSH2 0x1BBF JUMP JUMPDEST SWAP1 MSTORE POP SWAP1 POP PUSH1 0x2 DUP2 PUSH2 0x1A0 ADD MLOAD PUSH1 0x5 DUP2 GT ISZERO PUSH2 0x66B JUMPI PUSH2 0x66B PUSH2 0x1BBF JUMP JUMPDEST EQ DUP1 ISZERO PUSH2 0x67C JUMPI POP DUP1 PUSH2 0x140 ADD MLOAD TIMESTAMP GT JUMPDEST DUP1 ISZERO PUSH2 0x691 JUMPI POP DUP1 PUSH2 0x160 ADD MLOAD DUP2 PUSH2 0x180 ADD MLOAD LT JUMPDEST SWAP4 SWAP3 POP POP POP JUMP JUMPDEST PUSH1 0x6 PUSH1 0x20 MSTORE DUP2 PUSH1 0x0 MSTORE PUSH1 0x40 PUSH1 0x0 KECCAK256 DUP2 DUP2 SLOAD DUP2 LT PUSH2 0x6B4 JUMPI PUSH1 0x0 DUP1 REVERT JUMPDEST SWAP1 PUSH1 0x0 MSTORE PUSH1 0x20 PUSH1 0x0 KECCAK256 ADD PUSH1 0x0 SWAP2 POP SWAP2 POP POP SLOAD DUP2 JUMP JUMPDEST PUSH1 0x0 SLOAD PUSH1 0x1 PUSH1 0x1 PUSH1 0xA0 SHL SUB AND CALLER EQ PUSH2 0x6F3 JUMPI PUSH1 0x40 MLOAD PUSH3 0x461BCD PUSH1 0xE5 SHL DUP2 MSTORE PUSH1 0x4 ADD PUSH2 0x394 SWAP1 PUSH2 0x1EC2 JUMP JUMPDEST PUSH1 0x1 PUSH1 0x1 PUSH1 0xA0 SHL SUB DUP2 AND PUSH2 0x749 JUMPI PUSH1 0x40 MLOAD PUSH3 0x461BCD PUSH1 0xE5 SHL DUP2 MSTORE PUSH1 0x20 PUSH1 0x4 DUP3 ADD MSTORE PUSH1 0x18 PUSH1 0x24 DUP3 ADD MSTORE PUSH32 0x496E76616C696420726567697374727920616464726573730000000000000000 PUSH1 0x44 DUP3 ADD MSTORE PUSH1 0x64 ADD PUSH2 0x394 JUMP JUMPDEST PUSH1 0x1 DUP1 SLOAD PUSH1 0x1 PUSH1 0x1 PUSH1 0xA0 SHL SUB NOT AND PUSH1 0x1 PUSH1 0x1 PUSH1 0xA0 SHL SUB DUP4 AND SWAP1 DUP2 OR SWAP1 SWAP2 SSTORE PUSH1 0x40 MLOAD PUSH32 0x2B50883EE31518C38D6D92A16B179B66BC27EAEA32C0245B96E829408A8C2652 SWAP1 PUSH1 0x0 SWAP1 LOG2 POP JUMP JUMPDEST PUSH1 0x3 SLOAD PUSH1 0x1 EQ PUSH2 0x7B5 JUMPI PUSH1 0x40 MLOAD PUSH3 0x461BCD PUSH1 0xE5 SHL DUP2 MSTORE PUSH1 0x4 ADD PUSH2 0x394 SWAP1 PUSH2 0x1E4B JUMP JUMPDEST PUSH1 0x2 PUSH1 0x3 SSTORE PUSH1 0x0 DUP2 DUP2 MSTORE PUSH1 0x4 PUSH1 0x20 MSTORE PUSH1 0x40 SWAP1 KECCAK256 DUP1 SLOAD PUSH2 0x7E6 JUMPI PUSH1 0x40 MLOAD PUSH3 0x461BCD PUSH1 0xE5 SHL DUP2 MSTORE PUSH1 0x4 ADD PUSH2 0x394 SWAP1 PUSH2 0x1E73 JUMP JUMPDEST PUSH1 0x1 DUP2 ADD SLOAD PUSH1 0x1 PUSH1 0x1 PUSH1 0xA0 SHL SUB AND CALLER EQ PUSH2 0x84E JUMPI PUSH1 0x40 MLOAD PUSH3 0x461BCD PUSH1 0xE5 SHL DUP2 MSTORE PUSH1 0x20 PUSH1 0x4 DUP3 ADD MSTORE PUSH1 0x24 DUP1 DUP3 ADD MSTORE PUSH32 0x4F6E6C7920626F72726F7765722063616E206465706F73697420636F6C6C6174 PUSH1 0x44 DUP3 ADD MSTORE PUSH4 0x195C985B PUSH1 0xE2 SHL PUSH1 0x64 DUP3 ADD MSTORE PUSH1 0x84 ADD PUSH2 0x394 JUMP JUMPDEST PUSH1 0x0 PUSH1 0xD DUP3 ADD SLOAD PUSH1 0xFF AND PUSH1 0x5 DUP2 GT ISZERO PUSH2 0x869 JUMPI PUSH2 0x869 PUSH2 0x1BBF JUMP JUMPDEST EQ PUSH2 0x8AC JUMPI PUSH1 0x40 MLOAD PUSH3 0x461BCD PUSH1 0xE5 SHL DUP2 MSTORE PUSH1 0x20 PUSH1 0x4 DUP3 ADD MSTORE PUSH1 0x13 PUSH1 0x24 DUP3 ADD MSTORE PUSH19 0x496E76616C6964206C6F616E20737461747573 PUSH1 0x68 SHL PUSH1 0x44 DUP3 ADD MSTORE PUSH1 0x64 ADD PUSH2 0x394 JUMP JUMPDEST PUSH1 0x4 DUP2 DUP2 ADD SLOAD PUSH1 0x6 DUP4 ADD SLOAD PUSH1 0x40 MLOAD PUSH4 0x23B872DD PUSH1 0xE0 SHL DUP2 MSTORE CALLER SWAP4 DUP2 ADD SWAP4 SWAP1 SWAP4 MSTORE ADDRESS PUSH1 0x24 DUP5 ADD MSTORE PUSH1 0x44 DUP4 ADD MSTORE PUSH1 0x1 PUSH1 0x1 PUSH1 0xA0 SHL SUB AND SWAP1 PUSH4 0x23B872DD SWAP1 PUSH1 0x64 ADD PUSH1 0x20 PUSH1 0x40 MLOAD DUP1 DUP4 SUB DUP2 PUSH1 0x0 DUP8 GAS CALL ISZERO DUP1 ISZERO PUSH2 0x909 JUMPI RETURNDATASIZE PUSH1 0x0 DUP1 RETURNDATACOPY RETURNDATASIZE PUSH1 0x0 REVERT JUMPDEST POP POP POP POP PUSH1 0x40 MLOAD RETURNDATASIZE PUSH1 0x1F NOT PUSH1 0x1F DUP3 ADD AND DUP3 ADD DUP1 PUSH1 0x40 MSTORE POP DUP2 ADD SWAP1 PUSH2 0x92D SWAP2 SWAP1 PUSH2 0x1EA0 JUMP JUMPDEST POP PUSH1 0xD DUP2 ADD DUP1 SLOAD PUSH1 0xFF NOT AND PUSH1 0x1 OR SWAP1 SSTORE PUSH1 0x6 DUP2 ADD SLOAD PUSH1 0x40 MLOAD SWAP1 DUP2 MSTORE CALLER SWAP1 DUP4 SWAP1 PUSH32 0x1EAA3C7E4504A558B82AF8AAD514E144B09BC2ECA413CEEF6D6BA6260F772F16 SWAP1 PUSH1 0x20 ADD PUSH2 0x559 JUMP JUMPDEST PUSH2 0x97E PUSH2 0x1A9F JUMP JUMPDEST PUSH1 0x0 DUP3 DUP2 MSTORE PUSH1 0x4 PUSH1 0x20 DUP2 DUP2 MSTORE PUSH1 0x40 SWAP3 DUP4 SWAP1 KECCAK256 DUP4 MLOAD PUSH2 0x1C0 DUP2 ADD DUP6 MSTORE DUP2 SLOAD DUP2 MSTORE PUSH1 0x1 DUP3 ADD SLOAD PUSH1 0x1 PUSH1 0x1 PUSH1 0xA0 SHL SUB SWAP1 DUP2 AND SWAP4 DUP3 ADD SWAP4 SWAP1 SWAP4 MSTORE PUSH1 0x2 DUP3 ADD SLOAD DUP4 AND SWAP5 DUP2 ADD SWAP5 SWAP1 SWAP5 MSTORE PUSH1 0x3 DUP2 ADD SLOAD DUP3 AND PUSH1 0x60 DUP6 ADD MSTORE SWAP2 DUP3 ADD SLOAD AND PUSH1 0x80 DUP4 ADD MSTORE PUSH1 0x5 DUP1 DUP3 ADD SLOAD PUSH1 0xA0 DUP5 ADD MSTORE PUSH1 0x6 DUP3 ADD SLOAD PUSH1 0xC0 DUP5 ADD MSTORE PUSH1 0x7 DUP3 ADD SLOAD PUSH1 0xE0 DUP5 ADD MSTORE PUSH1 0x8 DUP3 ADD SLOAD PUSH2 0x100 DUP5 ADD MSTORE PUSH1 0x9 DUP3 ADD SLOAD PUSH2 0x120 DUP5 ADD MSTORE PUSH1 0xA DUP3 ADD SLOAD PUSH2 0x140 DUP5 ADD MSTORE PUSH1 0xB DUP3 ADD SLOAD PUSH2 0x160 DUP5 ADD MSTORE PUSH1 0xC DUP3 ADD SLOAD PUSH2 0x180 DUP5 ADD MSTORE PUSH1 0xD DUP3 ADD SLOAD PUSH2 0x1A0 DUP5 ADD SWAP2 PUSH1 0xFF SWAP1 SWAP2 AND SWAP1 DUP2 GT ISZERO PUSH2 0xA4E JUMPI PUSH2 0xA4E PUSH2 0x1BBF JUMP JUMPDEST PUSH1 0x5 DUP2 GT ISZERO PUSH2 0xA5F JUMPI PUSH2 0xA5F PUSH2 0x1BBF JUMP JUMPDEST SWAP1 MSTORE POP SWAP3 SWAP2 POP POP JUMP JUMPDEST PUSH1 0x1 SLOAD PUSH1 0x0 SWAP1 PUSH1 0x1 PUSH1 0x1 PUSH1 0xA0 SHL SUB AND PUSH2 0xA83 JUMPI POP PUSH1 0x0 SWAP2 SWAP1 POP JUMP JUMPDEST PUSH1 0x1 SLOAD PUSH1 0x40 MLOAD PUSH4 0x66E305FD PUSH1 0xE0 SHL DUP2 MSTORE PUSH1 0x1 PUSH1 0x1 PUSH1 0xA0 SHL SUB DUP5 DUP2 AND PUSH1 0x4 DUP4 ADD MSTORE SWAP1 SWAP2 AND SWAP1 PUSH4 0x66E305FD SWAP1 PUSH1 0x24 ADD PUSH1 0x20 PUSH1 0x40 MLOAD DUP1 DUP4 SUB DUP2 DUP7 GAS STATICCALL ISZERO DUP1 ISZERO PUSH2 0xACD JUMPI RETURNDATASIZE PUSH1 0x0 DUP1 RETURNDATACOPY RETURNDATASIZE PUSH1 0x0 REVERT JUMPDEST POP POP POP POP PUSH1 0x40 MLOAD RETURNDATASIZE PUSH1 0x1F NOT PUSH1 0x1F DUP3 ADD AND DUP3 ADD DUP1 PUSH1 0x40 MSTORE POP DUP2 ADD SWAP1 PUSH2 0xAF1 SWAP2 SWAP1 PUSH2 0x1EA0 JUMP JUMPDEST DUP1 ISZERO PUSH2 0xB66 JUMPI POP PUSH1 0x1 SLOAD PUSH1 0x40 MLOAD PUSH4 0x5BFC8DFD PUSH1 0xE0 SHL DUP2 MSTORE PUSH1 0x1 PUSH1 0x1 PUSH1 0xA0 SHL SUB DUP5 DUP2 AND PUSH1 0x4 DUP4 ADD MSTORE SWAP1 SWAP2 AND SWAP1 PUSH4 0x5BFC8DFD SWAP1 PUSH1 0x24 ADD PUSH1 0x20 PUSH1 0x40 MLOAD DUP1 DUP4 SUB DUP2 DUP7 GAS STATICCALL ISZERO DUP1 ISZERO PUSH2 0xB42 JUMPI RETURNDATASIZE PUSH1 0x0 DUP1 RETURNDATACOPY RETURNDATASIZE PUSH1 0x0 REVERT JUMPDEST POP POP POP POP PUSH1 0x40 MLOAD RETURNDATASIZE PUSH1 0x1F NOT PUSH1 0x1F DUP3 ADD AND DUP3 ADD DUP1 PUSH1 0x40 MSTORE POP DUP2 ADD SWAP1 PUSH2 0xB66 SWAP2 SWAP1 PUSH2 0x1EA0 JUMP JUMPDEST DUP1 ISZERO PUSH2 0xBE4 JUMPI POP PUSH1 0x1 SLOAD PUSH1 0x2 SLOAD PUSH1 0x40 MLOAD PUSH3 0xFA198B PUSH1 0xE7 SHL DUP2 MSTORE PUSH1 0x1 PUSH1 0x1 PUSH1 0xA0 SHL SUB DUP6 DUP2 AND PUSH1 0x4 DUP4 ADD MSTORE PUSH1 0x24 DUP3 ADD SWAP3 SWAP1 SWAP3 MSTORE SWAP2 AND SWAP1 PUSH4 0x7D0CC580 SWAP1 PUSH1 0x44 ADD PUSH1 0x20 PUSH1 0x40 MLOAD DUP1 DUP4 SUB DUP2 DUP7 GAS STATICCALL ISZERO DUP1 ISZERO PUSH2 0xBC0 JUMPI RETURNDATASIZE PUSH1 0x0 DUP1 RETURNDATACOPY RETURNDATASIZE PUSH1 0x0 REVERT JUMPDEST POP POP POP POP PUSH1 0x40 MLOAD RETURNDATASIZE PUSH1 0x1F NOT PUSH1 0x1F DUP3 ADD AND DUP3 ADD DUP1 PUSH1 0x40 MSTORE POP DUP2 ADD SWAP1 PUSH2 0xBE4 SWAP2 SWAP1 PUSH2 0x1EA0 JUMP JUMPDEST SWAP3 SWAP2 POP POP JUMP JUMPDEST PUSH1 0x3 SLOAD PUSH1 0x1 EQ PUSH2 0xC0C JUMPI PUSH1 0x40 MLOAD PUSH3 0x461BCD PUSH1 0xE5 SHL DUP2 MSTORE PUSH1 0x4 ADD PUSH2 0x394 SWAP1 PUSH2 0x1E4B JUMP JUMPDEST PUSH1 0x2 PUSH1 0x3 SSTORE PUSH1 0x0 DUP3 DUP2 MSTORE PUSH1 0x4 PUSH1 0x20 MSTORE PUSH1 0x40 SWAP1 KECCAK256 DUP1 SLOAD PUSH2 0xC3D JUMPI PUSH1 0x40 MLOAD PUSH3 0x461BCD PUSH1 0xE5 SHL DUP2 MSTORE PUSH1 0x4 ADD PUSH2 0x394 SWAP1 PUSH2 0x1E73 JUMP JUMPDEST PUSH1 0x1 DUP2 ADD SLOAD PUSH1 0x1 PUSH1 0x1 PUSH1 0xA0 SHL SUB AND CALLER EQ PUSH2 0xC99 JUMPI PUSH1 0x40 MLOAD PUSH3 0x461BCD PUSH1 0xE5 SHL DUP2 MSTORE PUSH1 0x20 PUSH1 0x4 DUP3 ADD MSTORE PUSH1 0x17 PUSH1 0x24 DUP3 ADD MSTORE PUSH32 0x4F6E6C7920626F72726F7765722063616E207265706179000000000000000000 PUSH1 0x44 DUP3 ADD MSTORE PUSH1 0x64 ADD PUSH2 0x394 JUMP JUMPDEST PUSH1 0x2 PUSH1 0xD DUP3 ADD SLOAD PUSH1 0xFF AND PUSH1 0x5 DUP2 GT ISZERO PUSH2 0xCB4 JUMPI PUSH2 0xCB4 PUSH2 0x1BBF JUMP JUMPDEST EQ PUSH2 0xCF3 JUMPI PUSH1 0x40 MLOAD PUSH3 0x461BCD PUSH1 0xE5 SHL DUP2 MSTORE PUSH1 0x20 PUSH1 0x4 DUP3 ADD MSTORE PUSH1 0xF PUSH1 0x24 DUP3 ADD MSTORE PUSH15 0x4C6F616E206E6F7420616374697665 PUSH1 0x88 SHL PUSH1 0x44 DUP3 ADD MSTORE PUSH1 0x64 ADD PUSH2 0x394 JUMP JUMPDEST PUSH1 0x0 DUP3 GT PUSH2 0xD43 JUMPI PUSH1 0x40 MLOAD PUSH3 0x461BCD PUSH1 0xE5 SHL DUP2 MSTORE PUSH1 0x20 PUSH1 0x4 DUP3 ADD MSTORE PUSH1 0x1D PUSH1 0x24 DUP3 ADD MSTORE PUSH32 0x416D6F756E74206D7573742062652067726561746572207468616E2030000000 PUSH1 0x44 DUP3 ADD MSTORE PUSH1 0x64 ADD PUSH2 0x394 JUMP JUMPDEST PUSH1 0x0 DUP2 PUSH1 0xC ADD SLOAD DUP3 PUSH1 0xB ADD SLOAD PUSH2 0xD59 SWAP2 SWAP1 PUSH2 0x1EFB JUMP JUMPDEST SWAP1 POP DUP1 DUP4 GT ISZERO PUSH2 0xDAB JUMPI PUSH1 0x40 MLOAD PUSH3 0x461BCD PUSH1 0xE5 SHL DUP2 MSTORE PUSH1 0x20 PUSH1 0x4 DUP3 ADD DUP2 SWAP1 MSTORE PUSH1 0x24 DUP3 ADD MSTORE PUSH32 0x416D6F756E7420657863656564732072656D61696E696E672062616C616E6365 PUSH1 0x44 DUP3 ADD MSTORE PUSH1 0x64 ADD PUSH2 0x394 JUMP JUMPDEST PUSH1 0x3 DUP3 ADD SLOAD PUSH1 0x2 DUP4 ADD SLOAD PUSH1 0x40 MLOAD PUSH4 0x23B872DD PUSH1 0xE0 SHL DUP2 MSTORE CALLER PUSH1 0x4 DUP3 ADD MSTORE PUSH1 0x1 PUSH1 0x1 PUSH1 0xA0 SHL SUB SWAP2 DUP3 AND PUSH1 0x24 DUP3 ADD MSTORE PUSH1 0x44 DUP2 ADD DUP7 SWAP1 MSTORE SWAP2 AND SWAP1 PUSH4 0x23B872DD SWAP1 PUSH1 0x64 ADD PUSH1 0x20 PUSH1 0x40 MLOAD DUP1 DUP4 SUB DUP2 PUSH1 0x0 DUP8 GAS CALL ISZERO DUP1 ISZERO PUSH2 0xE0A JUMPI RETURNDATASIZE PUSH1 0x0 DUP1 RETURNDATACOPY RETURNDATASIZE PUSH1 0x0 REVERT JUMPDEST POP POP POP POP PUSH1 0x40 MLOAD RETURNDATASIZE PUSH1 0x1F NOT PUSH1 0x1F DUP3 ADD AND DUP3 ADD DUP1 PUSH1 0x40 MSTORE POP DUP2 ADD SWAP1 PUSH2 0xE2E SWAP2 SWAP1 PUSH2 0x1EA0 JUMP JUMPDEST POP DUP3 DUP3 PUSH1 0xC ADD PUSH1 0x0 DUP3 DUP3 SLOAD PUSH2 0xE43 SWAP2 SWAP1 PUSH2 0x1F0E JUMP JUMPDEST SWAP1 SWAP2 SSTORE POP CALLER SWAP1 POP DUP5 PUSH32 0x6D28B1F9B589FC95C0277785794893A75CDC6EAF29EE49FA91CD3BE9D31115E DUP6 PUSH2 0xE77 DUP2 DUP7 PUSH2 0x1EFB JUMP JUMPDEST PUSH1 0x40 DUP1 MLOAD SWAP3 DUP4 MSTORE PUSH1 0x20 DUP4 ADD SWAP2 SWAP1 SWAP2 MSTORE ADD PUSH1 0x40 MLOAD DUP1 SWAP2 SUB SWAP1 LOG3 DUP2 PUSH1 0xB ADD SLOAD DUP3 PUSH1 0xC ADD SLOAD LT PUSH2 0xFA6 JUMPI PUSH1 0xD DUP3 ADD DUP1 SLOAD PUSH1 0xFF NOT AND PUSH1 0x3 OR SWAP1 SSTORE PUSH1 0x4 DUP1 DUP4 ADD SLOAD PUSH1 0x1 DUP5 ADD SLOAD PUSH1 0x6 DUP6 ADD SLOAD PUSH1 0x40 MLOAD PUSH4 0xA9059CBB PUSH1 0xE0 SHL DUP2 MSTORE PUSH1 0x1 PUSH1 0x1 PUSH1 0xA0 SHL SUB SWAP3 DUP4 AND SWAP5 DUP2 ADD SWAP5 SWAP1 SWAP5 MSTORE PUSH1 0x24 DUP5 ADD MSTORE AND SWAP1 PUSH4 0xA9059CBB SWAP1 PUSH1 0x44 ADD PUSH1 0x20 PUSH1 0x40 MLOAD DUP1 DUP4 SUB DUP2 PUSH1 0x0 DUP8 GAS CALL ISZERO DUP1 ISZERO PUSH2 0xF0B JUMPI RETURNDATASIZE PUSH1 0x0 DUP1 RETURNDATACOPY RETURNDATASIZE PUSH1 0x0 REVERT JUMPDEST POP POP POP POP PUSH1 0x40 MLOAD RETURNDATASIZE PUSH1 0x1F NOT PUSH1 0x1F DUP3 ADD AND DUP3 ADD DUP1 PUSH1 0x40 MSTORE POP DUP2 ADD SWAP1 PUSH2 0xF2F SWAP2 SWAP1 PUSH2 0x1EA0 JUMP JUMPDEST POP PUSH1 0x40 MLOAD CALLER SWAP1 DUP6 SWAP1 PUSH32 0x8DAF861CD83DF9EE5BDD1881CC2E0AC722103D7B2A952FC76573658CA88C4503 SWAP1 PUSH1 0x0 SWAP1 LOG3 CALLER PUSH1 0x1 PUSH1 0x1 PUSH1 0xA0 SHL SUB AND DUP5 PUSH32 0x8606A781EFE7AF9D45A62D3D0079E36C36C437261504883E026CC407D73CFD17 DUP5 PUSH1 0x6 ADD SLOAD PUSH1 0x40 MLOAD PUSH2 0xF9D SWAP2 DUP2 MSTORE PUSH1 0x20 ADD SWAP1 JUMP JUMPDEST PUSH1 0x40 MLOAD DUP1 SWAP2 SUB SWAP1 LOG3 JUMPDEST POP POP PUSH1 0x1 PUSH1 0x3 SSTORE POP POP JUMP JUMPDEST PUSH1 0x0 SLOAD PUSH1 0x1 PUSH1 0x1 PUSH1 0xA0 SHL SUB AND CALLER EQ PUSH2 0xFDB JUMPI PUSH1 0x40 MLOAD PUSH3 0x461BCD PUSH1 0xE5 SHL DUP2 MSTORE PUSH1 0x4 ADD PUSH2 0x394 SWAP1 PUSH2 0x1EC2 JUMP JUMPDEST PUSH3 0xDBBA0 DUP2 GT ISZERO PUSH2 0x1022 JUMPI PUSH1 0x40 MLOAD PUSH3 0x461BCD PUSH1 0xE5 SHL DUP2 MSTORE PUSH1 0x20 PUSH1 0x4 DUP3 ADD MSTORE PUSH1 0x11 PUSH1 0x24 DUP3 ADD MSTORE PUSH17 0x125B9D985B1A59081D1A1C995CDA1BDB19 PUSH1 0x7A SHL PUSH1 0x44 DUP3 ADD MSTORE PUSH1 0x64 ADD PUSH2 0x394 JUMP JUMPDEST PUSH1 0x2 DUP2 SWAP1 SSTORE PUSH1 0x40 MLOAD DUP2 DUP2 MSTORE PUSH32 0x74E220540B8F832845E1E89B5DFDB8B632923018AC953836880D68EFCF2160F5 SWAP1 PUSH1 0x20 ADD PUSH1 0x40 MLOAD DUP1 SWAP2 SUB SWAP1 LOG1 POP JUMP JUMPDEST PUSH1 0x3 SLOAD PUSH1 0x1 EQ PUSH2 0x107F JUMPI PUSH1 0x40 MLOAD PUSH3 0x461BCD PUSH1 0xE5 SHL DUP2 MSTORE PUSH1 0x4 ADD PUSH2 0x394 SWAP1 PUSH2 0x1E4B JUMP JUMPDEST PUSH1 0x2 PUSH1 0x3 SSTORE PUSH1 0x0 DUP2 DUP2 MSTORE PUSH1 0x4 PUSH1 0x20 MSTORE PUSH1 0x40 SWAP1 KECCAK256 DUP1 SLOAD PUSH2 0x10B0 JUMPI PUSH1 0x40 MLOAD PUSH3 0x461BCD PUSH1 0xE5 SHL DUP2 MSTORE PUSH1 0x4 ADD PUSH2 0x394 SWAP1 PUSH2 0x1E73 JUMP JUMPDEST PUSH1 0x2 DUP2 ADD SLOAD PUSH1 0x1 PUSH1 0x1 PUSH1 0xA0 SHL SUB AND CALLER EQ PUSH2 0x110C JUMPI PUSH1 0x40 MLOAD PUSH3 0x461BCD PUSH1 0xE5 SHL DUP2 MSTORE PUSH1 0x20 PUSH1 0x4 DUP3 ADD MSTORE PUSH1 0x19 PUSH1 0x24 DUP3 ADD MSTORE PUSH32 0x4F6E6C79206C656E6465722063616E2066756E64206C6F616E00000000000000 PUSH1 0x44 DUP3 ADD MSTORE PUSH1 0x64 ADD PUSH2 0x394 JUMP JUMPDEST PUSH1 0x1 PUSH1 0xD DUP3 ADD SLOAD PUSH1 0xFF AND PUSH1 0x5 DUP2 GT ISZERO PUSH2 0x1127 JUMPI PUSH2 0x1127 PUSH2 0x1BBF JUMP JUMPDEST EQ PUSH2 0x1174 JUMPI PUSH1 0x40 MLOAD PUSH3 0x461BCD PUSH1 0xE5 SHL DUP2 MSTORE PUSH1 0x20 PUSH1 0x4 DUP3 ADD MSTORE PUSH1 0x18 PUSH1 0x24 DUP3 ADD MSTORE PUSH32 0x436F6C6C61746572616C206E6F74206465706F73697465640000000000000000 PUSH1 0x44 DUP3 ADD MSTORE PUSH1 0x64 ADD PUSH2 0x394 JUMP JUMPDEST PUSH1 0x3 DUP2 ADD SLOAD PUSH1 0x1 DUP3 ADD SLOAD PUSH1 0x5 DUP4 ADD SLOAD PUSH1 0x40 MLOAD PUSH4 0x23B872DD PUSH1 0xE0 SHL DUP2 MSTORE CALLER PUSH1 0x4 DUP3 ADD MSTORE PUSH1 0x1 PUSH1 0x1 PUSH1 0xA0 SHL SUB SWAP3 DUP4 AND PUSH1 0x24 DUP3 ADD MSTORE PUSH1 0x44 DUP2 ADD SWAP2 SWAP1 SWAP2 MSTORE SWAP2 AND SWAP1 PUSH4 0x23B872DD SWAP1 PUSH1 0x64 ADD PUSH1 0x20 PUSH1 0x40 MLOAD DUP1 DUP4 SUB DUP2 PUSH1 0x0 DUP8 GAS CALL ISZERO DUP1 ISZERO PUSH2 0x11D9 JUMPI RETURNDATASIZE PUSH1 0x0 DUP1 RETURNDATACOPY RETURNDATASIZE PUSH1 0x0 REVERT JUMPDEST POP POP POP POP PUSH1 0x40 MLOAD RETURNDATASIZE PUSH1 0x1F NOT PUSH1 0x1F DUP3 ADD AND DUP3 ADD DUP1 PUSH1 0x40 MSTORE POP DUP2 ADD SWAP1 PUSH2 0x11FD SWAP2 SWAP1 PUSH2 0x1EA0 JUMP JUMPDEST POP PUSH1 0xD DUP2 ADD DUP1 SLOAD PUSH1 0xFF NOT AND PUSH1 0x2 OR SWAP1 SSTORE TIMESTAMP PUSH1 0x9 DUP3 ADD SSTORE PUSH1 0x8 DUP2 ADD SLOAD PUSH2 0x1225 SWAP1 PUSH3 0x15180 PUSH2 0x1F21 JUMP JUMPDEST PUSH2 0x122F SWAP1 TIMESTAMP PUSH2 0x1F0E JUMP JUMPDEST PUSH1 0xA DUP3 ADD SSTORE PUSH1 0x5 DUP2 ADD SLOAD PUSH1 0x40 MLOAD SWAP1 DUP2 MSTORE CALLER SWAP1 DUP4 SWAP1 PUSH32 0xC9EC7789962B9F329B37B7C2ABCAA16A718D7203DC72064E1FDE1B34A552B05A SWAP1 PUSH1 0x20 ADD PUSH2 0x559 JUMP JUMPDEST PUSH1 0x0 SLOAD PUSH1 0x1 PUSH1 0x1 PUSH1 0xA0 SHL SUB AND CALLER EQ PUSH2 0x1297 JUMPI PUSH1 0x40 MLOAD PUSH3 0x461BCD PUSH1 0xE5 SHL DUP2 MSTORE PUSH1 0x4 ADD PUSH2 0x394 SWAP1 PUSH2 0x1EC2 JUMP JUMPDEST PUSH1 0x0 DUP10 DUP2 MSTORE PUSH1 0x4 PUSH1 0x20 MSTORE PUSH1 0x40 SWAP1 KECCAK256 SLOAD ISZERO PUSH2 0x12E9 JUMPI PUSH1 0x40 MLOAD PUSH3 0x461BCD PUSH1 0xE5 SHL DUP2 MSTORE PUSH1 0x20 PUSH1 0x4 DUP3 ADD MSTORE PUSH1 0x13 PUSH1 0x24 DUP3 ADD MSTORE PUSH19 0x4C6F616E20616C726561647920657869737473 PUSH1 0x68 SHL PUSH1 0x44 DUP3 ADD MSTORE PUSH1 0x64 ADD PUSH2 0x394 JUMP JUMPDEST PUSH1 0x1 PUSH1 0x1 PUSH1 0xA0 SHL SUB DUP9 AND ISZERO DUP1 ISZERO SWAP1 PUSH2 0x1309 JUMPI POP PUSH1 0x1 PUSH1 0x1 PUSH1 0xA0 SHL SUB DUP8 AND ISZERO ISZERO JUMPDEST PUSH2 0x1349 JUMPI PUSH1 0x40 MLOAD PUSH3 0x461BCD PUSH1 0xE5 SHL DUP2 MSTORE PUSH1 0x20 PUSH1 0x4 DUP3 ADD MSTORE PUSH1 0x11 PUSH1 0x24 DUP3 ADD MSTORE PUSH17 0x496E76616C696420616464726573736573 PUSH1 0x78 SHL PUSH1 0x44 DUP3 ADD MSTORE PUSH1 0x64 ADD PUSH2 0x394 JUMP JUMPDEST PUSH1 0x0 DUP5 GT DUP1 ISZERO PUSH2 0x1359 JUMPI POP PUSH1 0x0 DUP4 GT JUMPDEST PUSH2 0x1397 JUMPI PUSH1 0x40 MLOAD PUSH3 0x461BCD PUSH1 0xE5 SHL DUP2 MSTORE PUSH1 0x20 PUSH1 0x4 DUP3 ADD MSTORE PUSH1 0xF PUSH1 0x24 DUP3 ADD MSTORE PUSH15 0x496E76616C696420616D6F756E7473 PUSH1 0x88 SHL PUSH1 0x44 DUP3 ADD MSTORE PUSH1 0x64 ADD PUSH2 0x394 JUMP JUMPDEST PUSH2 0x13A0 DUP9 PUSH2 0x18C9 JUMP JUMPDEST PUSH1 0x0 PUSH3 0x37B1D0 DUP3 PUSH2 0x13B1 DUP6 DUP9 PUSH2 0x1F21 JUMP JUMPDEST PUSH2 0x13BB SWAP2 SWAP1 PUSH2 0x1F21 JUMP JUMPDEST PUSH2 0x13C5 SWAP2 SWAP1 PUSH2 0x1F38 JUMP JUMPDEST SWAP1 POP PUSH1 0x0 PUSH2 0x13D3 DUP3 DUP8 PUSH2 0x1F0E JUMP JUMPDEST SWAP1 POP PUSH1 0x0 PUSH1 0x40 MLOAD DUP1 PUSH2 0x1C0 ADD PUSH1 0x40 MSTORE DUP1 DUP14 DUP2 MSTORE PUSH1 0x20 ADD DUP13 PUSH1 0x1 PUSH1 0x1 PUSH1 0xA0 SHL SUB AND DUP2 MSTORE PUSH1 0x20 ADD DUP12 PUSH1 0x1 PUSH1 0x1 PUSH1 0xA0 SHL SUB AND DUP2 MSTORE PUSH1 0x20 ADD DUP11 PUSH1 0x1 PUSH1 0x1 PUSH1 0xA0 SHL SUB AND DUP2 MSTORE PUSH1 0x20 ADD DUP10 PUSH1 0x1 PUSH1 0x1 PUSH1 0xA0 SHL SUB AND DUP2 MSTORE PUSH1 0x20 ADD DUP9 DUP2 MSTORE PUSH1 0x20 ADD DUP8 DUP2 MSTORE PUSH1 0x20 ADD DUP7 DUP2 MSTORE PUSH1 0x20 ADD DUP6 DUP2 MSTORE PUSH1 0x20 ADD PUSH1 0x0 DUP2 MSTORE PUSH1 0x20 ADD PUSH1 0x0 DUP2 MSTORE PUSH1 0x20 ADD DUP4 DUP2 MSTORE PUSH1 0x20 ADD PUSH1 0x0 DUP2 MSTORE PUSH1 0x20 ADD PUSH1 0x0 PUSH1 0x5 DUP2 GT ISZERO PUSH2 0x146B JUMPI PUSH2 0x146B PUSH2 0x1BBF JUMP JUMPDEST SWAP1 MSTORE PUSH1 0x0 DUP14 DUP2 MSTORE PUSH1 0x4 PUSH1 0x20 DUP2 DUP2 MSTORE PUSH1 0x40 SWAP3 DUP4 SWAP1 KECCAK256 DUP5 MLOAD DUP2 SSTORE SWAP1 DUP5 ADD MLOAD PUSH1 0x1 DUP1 DUP4 ADD DUP1 SLOAD PUSH1 0x1 PUSH1 0x1 PUSH1 0xA0 SHL SUB NOT SWAP1 DUP2 AND PUSH1 0x1 PUSH1 0x1 PUSH1 0xA0 SHL SUB SWAP5 DUP6 AND OR SWAP1 SWAP2 SSTORE SWAP5 DUP7 ADD MLOAD PUSH1 0x2 DUP5 ADD DUP1 SLOAD DUP8 AND SWAP2 DUP5 AND SWAP2 SWAP1 SWAP2 OR SWAP1 SSTORE PUSH1 0x60 DUP7 ADD MLOAD PUSH1 0x3 DUP5 ADD DUP1 SLOAD DUP8 AND SWAP2 DUP5 AND SWAP2 SWAP1 SWAP2 OR SWAP1 SSTORE PUSH1 0x80 DUP7 ADD MLOAD SWAP4 DUP4 ADD DUP1 SLOAD SWAP1 SWAP6 AND SWAP4 SWAP1 SWAP2 AND SWAP3 SWAP1 SWAP3 OR SWAP1 SWAP3 SSTORE PUSH1 0xA0 DUP4 ADD MLOAD PUSH1 0x5 DUP1 DUP5 ADD SWAP2 SWAP1 SWAP2 SSTORE PUSH1 0xC0 DUP5 ADD MLOAD PUSH1 0x6 DUP5 ADD SSTORE PUSH1 0xE0 DUP5 ADD MLOAD PUSH1 0x7 DUP5 ADD SSTORE PUSH2 0x100 DUP5 ADD MLOAD PUSH1 0x8 DUP5 ADD SSTORE PUSH2 0x120 DUP5 ADD MLOAD PUSH1 0x9 DUP5 ADD SSTORE PUSH2 0x140 DUP5 ADD MLOAD PUSH1 0xA DUP5 ADD SSTORE PUSH2 0x160 DUP5 ADD MLOAD PUSH1 0xB DUP5 ADD SSTORE PUSH2 0x180 DUP5 ADD MLOAD PUSH1 0xC DUP5 ADD SSTORE PUSH2 0x1A0 DUP5 ADD MLOAD PUSH1 0xD DUP5 ADD DUP1 SLOAD SWAP6 SWAP7 POP DUP7 SWAP6 SWAP2 SWAP4 SWAP1 SWAP3 PUSH1 0xFF NOT SWAP1 SWAP3 AND SWAP2 DUP5 SWAP1 DUP2 GT ISZERO PUSH2 0x1572 JUMPI PUSH2 0x1572 PUSH2 0x1BBF JUMP JUMPDEST MUL OR SWAP1 SSTORE POP SWAP1 POP POP PUSH1 0x5 PUSH1 0x0 DUP13 PUSH1 0x1 PUSH1 0x1 PUSH1 0xA0 SHL SUB AND PUSH1 0x1 PUSH1 0x1 PUSH1 0xA0 SHL SUB AND DUP2 MSTORE PUSH1 0x20 ADD SWAP1 DUP2 MSTORE PUSH1 0x20 ADD PUSH1 0x0 KECCAK256 DUP13 SWAP1 DUP1 PUSH1 0x1 DUP2 SLOAD ADD DUP1 DUP3 SSTORE DUP1 SWAP2 POP POP PUSH1 0x1 SWAP1 SUB SWAP1 PUSH1 0x0 MSTORE PUSH1 0x20 PUSH1 0x0 KECCAK256 ADD PUSH1 0x0 SWAP1 SWAP2 SWAP1 SWAP2 SWAP1 SWAP2 POP SSTORE PUSH1 0x6 PUSH1 0x0 DUP12 PUSH1 0x1 PUSH1 0x1 PUSH1 0xA0 SHL SUB AND PUSH1 0x1 PUSH1 0x1 PUSH1 0xA0 SHL SUB AND DUP2 MSTORE PUSH1 0x20 ADD SWAP1 DUP2 MSTORE PUSH1 0x20 ADD PUSH1 0x0 KECCAK256 DUP13 SWAP1 DUP1 PUSH1 0x1 DUP2 SLOAD ADD DUP1 DUP3 SSTORE DUP1 SWAP2 POP POP PUSH1 0x1 SWAP1 SUB SWAP1 PUSH1 0x0 MSTORE PUSH1 0x20 PUSH1 0x0 KECCAK256 ADD PUSH1 0x0 SWAP1 SWAP2 SWAP1 SWAP2 SWAP1 SWAP2 POP SSTORE DUP10 PUSH1 0x1 PUSH1 0x1 PUSH1 0xA0 SHL SUB AND DUP12 PUSH1 0x1 PUSH1 0x1 PUSH1 0xA0 SHL SUB AND DUP14 PUSH32 0xA0755887A25EB0A7FADC1B4E3982DB5663D49089FC2DE7B2F2AB1F9168AD71C6 DUP11 PUSH1 0x40 MLOAD PUSH2 0x1658 SWAP2 DUP2 MSTORE PUSH1 0x20 ADD SWAP1 JUMP JUMPDEST PUSH1 0x40 MLOAD DUP1 SWAP2 SUB SWAP1 LOG4 POP POP POP POP POP POP POP POP POP POP POP POP JUMP JUMPDEST PUSH1 0x5 PUSH1 0x20 MSTORE DUP2 PUSH1 0x0 MSTORE PUSH1 0x40 PUSH1 0x0 KECCAK256 DUP2 DUP2 SLOAD DUP2 LT PUSH2 0x6B4 JUMPI PUSH1 0x0 DUP1 REVERT JUMPDEST PUSH1 0x1 PUSH1 0x1 PUSH1 0xA0 SHL SUB DUP2 AND PUSH1 0x0 SWAP1 DUP2 MSTORE PUSH1 0x5 PUSH1 0x20 SWAP1 DUP2 MSTORE PUSH1 0x40 SWAP2 DUP3 SWAP1 KECCAK256 DUP1 SLOAD DUP4 MLOAD DUP2 DUP5 MUL DUP2 ADD DUP5 ADD SWAP1 SWAP5 MSTORE DUP1 DUP5 MSTORE PUSH1 0x60 SWAP4 SWAP3 DUP4 ADD DUP3 DUP3 DUP1 ISZERO PUSH2 0x16EA JUMPI PUSH1 0x20 MUL DUP3 ADD SWAP2 SWAP1 PUSH1 0x0 MSTORE PUSH1 0x20 PUSH1 0x0 KECCAK256 SWAP1 JUMPDEST DUP2 SLOAD DUP2 MSTORE PUSH1 0x20 ADD SWAP1 PUSH1 0x1 ADD SWAP1 DUP1 DUP4 GT PUSH2 0x16D6 JUMPI JUMPDEST POP POP POP POP POP SWAP1 POP SWAP2 SWAP1 POP JUMP JUMPDEST PUSH1 0x1 PUSH1 0x1 PUSH1 0xA0 SHL SUB DUP2 AND PUSH1 0x0 SWAP1 DUP2 MSTORE PUSH1 0x6 PUSH1 0x20 SWAP1 DUP2 MSTORE PUSH1 0x40 SWAP2 DUP3 SWAP1 KECCAK256 DUP1 SLOAD DUP4 MLOAD DUP2 DUP5 MUL DUP2 ADD DUP5 ADD SWAP1 SWAP5 MSTORE DUP1 DUP5 MSTORE PUSH1 0x60 SWAP4 SWAP3 DUP4 ADD DUP3 DUP3 DUP1 ISZERO PUSH2 0x16EA JUMPI PUSH1 0x20 MUL DUP3 ADD SWAP2 SWAP1 PUSH1 0x0 MSTORE PUSH1 0x20 PUSH1 0x0 KECCAK256 SWAP1 DUP2 SLOAD DUP2 MSTORE PUSH1 0x20 ADD SWAP1 PUSH1 0x1 ADD SWAP1 DUP1 DUP4 GT PUSH2 0x16D6 JUMPI POP POP POP POP POP SWAP1 POP SWAP2 SWAP1 POP JUMP JUMPDEST PUSH1 0x0 DUP2 DUP2 MSTORE PUSH1 0x4 PUSH1 0x20 MSTORE PUSH1 0x40 SWAP1 KECCAK256 DUP1 SLOAD PUSH2 0x178C JUMPI PUSH1 0x40 MLOAD PUSH3 0x461BCD PUSH1 0xE5 SHL DUP2 MSTORE PUSH1 0x4 ADD PUSH2 0x394 SWAP1 PUSH2 0x1E73 JUMP JUMPDEST PUSH1 0x2 PUSH1 0xD DUP3 ADD SLOAD PUSH1 0xFF AND PUSH1 0x5 DUP2 GT ISZERO PUSH2 0x17A7 JUMPI PUSH2 0x17A7 PUSH2 0x1BBF JUMP JUMPDEST EQ PUSH2 0x17E6 JUMPI PUSH1 0x40 MLOAD PUSH3 0x461BCD PUSH1 0xE5 SHL DUP2 MSTORE PUSH1 0x20 PUSH1 0x4 DUP3 ADD MSTORE PUSH1 0xF PUSH1 0x24 DUP3 ADD MSTORE PUSH15 0x4C6F616E206E6F7420616374697665 PUSH1 0x88 SHL PUSH1 0x44 DUP3 ADD MSTORE PUSH1 0x64 ADD PUSH2 0x394 JUMP JUMPDEST DUP1 PUSH1 0xA ADD SLOAD TIMESTAMP GT PUSH2 0x182D JUMPI PUSH1 0x40 MLOAD PUSH3 0x461BCD PUSH1 0xE5 SHL DUP2 MSTORE PUSH1 0x20 PUSH1 0x4 DUP3 ADD MSTORE PUSH1 0x11 PUSH1 0x24 DUP3 ADD MSTORE PUSH17 0x4C6F616E206E6F74207061737420647565 PUSH1 0x78 SHL PUSH1 0x44 DUP3 ADD MSTORE PUSH1 0x64 ADD PUSH2 0x394 JUMP JUMPDEST DUP1 PUSH1 0xB ADD SLOAD DUP2 PUSH1 0xC ADD SLOAD LT PUSH2 0x187A JUMPI PUSH1 0x40 MLOAD PUSH3 0x461BCD PUSH1 0xE5 SHL DUP2 MSTORE PUSH1 0x20 PUSH1 0x4 DUP3 ADD MSTORE PUSH1 0x13 PUSH1 0x24 DUP3 ADD MSTORE PUSH19 0x131BD85B88185B1C9958591E481C995C185A59 PUSH1 0x6A SHL PUSH1 0x44 DUP3 ADD MSTORE PUSH1 0x64 ADD PUSH2 0x394 JUMP JUMPDEST PUSH1 0xD DUP2 ADD DUP1 SLOAD PUSH1 0xFF NOT AND PUSH1 0x4 OR SWAP1 SSTORE PUSH1 0x1 DUP2 ADD SLOAD PUSH1 0x40 MLOAD PUSH1 0x1 PUSH1 0x1 PUSH1 0xA0 SHL SUB SWAP1 SWAP2 AND SWAP1 DUP4 SWAP1 PUSH32 0x36CB5AE03FEFFAE0EC99449F0264E31B98F44C687C34916193267F2073ED23C5 SWAP1 PUSH1 0x0 SWAP1 LOG3 POP POP JUMP JUMPDEST PUSH1 0x1 SLOAD PUSH1 0x1 PUSH1 0x1 PUSH1 0xA0 SHL SUB AND PUSH2 0x18F2 JUMPI PUSH1 0x40 MLOAD PUSH4 0x769E5F31 PUSH1 0xE1 SHL DUP2 MSTORE PUSH1 0x4 ADD PUSH1 0x40 MLOAD DUP1 SWAP2 SUB SWAP1 REVERT JUMPDEST PUSH1 0x1 SLOAD PUSH1 0x40 MLOAD PUSH4 0x66E305FD PUSH1 0xE0 SHL DUP2 MSTORE PUSH1 0x1 PUSH1 0x1 PUSH1 0xA0 SHL SUB DUP4 DUP2 AND PUSH1 0x4 DUP4 ADD MSTORE SWAP1 SWAP2 AND SWAP1 PUSH4 0x66E305FD SWAP1 PUSH1 0x24 ADD PUSH1 0x20 PUSH1 0x40 MLOAD DUP1 DUP4 SUB DUP2 DUP7 GAS STATICCALL ISZERO DUP1 ISZERO PUSH2 0x193C JUMPI RETURNDATASIZE PUSH1 0x0 DUP1 RETURNDATACOPY RETURNDATASIZE PUSH1 0x0 REVERT JUMPDEST POP POP POP POP PUSH1 0x40 MLOAD RETURNDATASIZE PUSH1 0x1F NOT PUSH1 0x1F DUP3 ADD AND DUP3 ADD DUP1 PUSH1 0x40 MSTORE POP DUP2 ADD SWAP1 PUSH2 0x1960 SWAP2 SWAP1 PUSH2 0x1EA0 JUMP JUMPDEST PUSH2 0x197D JUMPI PUSH1 0x40 MLOAD PUSH4 0x8CEDFD5B PUSH1 0xE0 SHL DUP2 MSTORE PUSH1 0x4 ADD PUSH1 0x40 MLOAD DUP1 SWAP2 SUB SWAP1 REVERT JUMPDEST PUSH1 0x1 SLOAD PUSH1 0x40 MLOAD PUSH4 0x5BFC8DFD PUSH1 0xE0 SHL DUP2 MSTORE PUSH1 0x1 PUSH1 0x1 PUSH1 0xA0 SHL SUB DUP4 DUP2 AND PUSH1 0x4 DUP4 ADD MSTORE SWAP1 SWAP2 AND SWAP1 PUSH4 0x5BFC8DFD SWAP1 PUSH1 0x24 ADD PUSH1 0x20 PUSH1 0x40 MLOAD DUP1 DUP4 SUB DUP2 DUP7 GAS STATICCALL ISZERO DUP1 ISZERO PUSH2 0x19C7 JUMPI RETURNDATASIZE PUSH1 0x0 DUP1 RETURNDATACOPY RETURNDATASIZE PUSH1 0x0 REVERT JUMPDEST POP POP POP POP PUSH1 0x40 MLOAD RETURNDATASIZE PUSH1 0x1F NOT PUSH1 0x1F DUP3 ADD AND DUP3 ADD DUP1 PUSH1 0x40 MSTORE POP DUP2 ADD SWAP1 PUSH2 0x19EB SWAP2 SWAP1 PUSH2 0x1EA0 JUMP JUMPDEST PUSH2 0x1A08 JUMPI PUSH1 0x40 MLOAD PUSH4 0x284BFA71 PUSH1 0xE2 SHL DUP2 MSTORE PUSH1 0x4 ADD PUSH1 0x40 MLOAD DUP1 SWAP2 SUB SWAP1 REVERT JUMPDEST PUSH1 0x1 SLOAD PUSH1 0x2 SLOAD PUSH1 0x40 MLOAD PUSH3 0xFA198B PUSH1 0xE7 SHL DUP2 MSTORE PUSH1 0x1 PUSH1 0x1 PUSH1 0xA0 SHL SUB DUP5 DUP2 AND PUSH1 0x4 DUP4 ADD MSTORE PUSH1 0x24 DUP3 ADD SWAP3 SWAP1 SWAP3 MSTORE SWAP2 AND SWAP1 PUSH4 0x7D0CC580 SWAP1 PUSH1 0x44 ADD PUSH1 0x20 PUSH1 0x40 MLOAD DUP1 DUP4 SUB DUP2 DUP7 GAS STATICCALL ISZERO DUP1 ISZERO PUSH2 0x1A5B JUMPI RETURNDATASIZE PUSH1 0x0 DUP1 RETURNDATACOPY RETURNDATASIZE PUSH1 0x0 REVERT JUMPDEST POP POP POP POP PUSH1 0x40 MLOAD RETURNDATASIZE PUSH1 0x1F NOT PUSH1 0x1F DUP3 ADD AND DUP3 ADD DUP1 PUSH1 0x40 MSTORE POP DUP2 ADD SWAP1 PUSH2 0x1A7F SWAP2 SWAP1 PUSH2 0x1EA0 JUMP JUMPDEST PUSH2 0x1A9C JUMPI PUSH1 0x40 MLOAD PUSH4 0xA3D61D5D PUSH1 0xE0 SHL DUP2 MSTORE PUSH1 0x4 ADD PUSH1 0x40 MLOAD DUP1 SWAP2 SUB SWAP1 REVERT JUMPDEST POP JUMP JUMPDEST PUSH1 0x40 MLOAD DUP1 PUSH2 0x1C0 ADD PUSH1 0x40 MSTORE DUP1 PUSH1 0x0 DUP1 NOT AND DUP2 MSTORE PUSH1 0x20 ADD PUSH1 0x0 PUSH1 0x1 PUSH1 0x1 PUSH1 0xA0 SHL SUB AND DUP2 MSTORE PUSH1 0x20 ADD PUSH1 0x0 PUSH1 0x1 PUSH1 0x1 PUSH1 0xA0 SHL SUB AND DUP2 MSTORE PUSH1 0x20 ADD PUSH1 0x0 PUSH1 0x1 PUSH1 0x1 PUSH1 0xA0 SHL SUB AND DUP2 MSTORE PUSH1 0x20 ADD PUSH1 0x0 PUSH1 0x1 PUSH1 0x1 PUSH1 0xA0 SHL SUB AND DUP2 MSTORE PUSH1 0x20 ADD PUSH1 0x0 DUP2 MSTORE PUSH1 0x20 ADD PUSH1 0x0 DUP2 MSTORE PUSH1 0x20 ADD PUSH1 0x0 DUP2 MSTORE PUSH1 0x20 ADD PUSH1 0x0 DUP2 MSTORE PUSH1 0x20 ADD PUSH1 0x0 DUP2 MSTORE PUSH1 0x20 ADD PUSH1 0x0 DUP2 MSTORE PUSH1 0x20 ADD PUSH1 0x0 DUP2 MSTORE PUSH1 0x20 ADD PUSH1 0x0 DUP2 MSTORE PUSH1 0x20 ADD PUSH1 0x0 PUSH1 0x5 DUP2 GT ISZERO PUSH2 0x1B40 JUMPI PUSH2 0x1B40 PUSH2 0x1BBF JUMP JUMPDEST SWAP1 MSTORE SWAP1 JUMP JUMPDEST PUSH1 0x0 PUSH1 0x20 DUP3 DUP5 SUB SLT ISZERO PUSH2 0x1B57 JUMPI PUSH1 0x0 DUP1 REVERT JUMPDEST POP CALLDATALOAD SWAP2 SWAP1 POP JUMP JUMPDEST DUP1 CALLDATALOAD PUSH1 0x1 PUSH1 0x1 PUSH1 0xA0 SHL SUB DUP2 AND DUP2 EQ PUSH2 0x1B75 JUMPI PUSH1 0x0 DUP1 REVERT JUMPDEST SWAP2 SWAP1 POP JUMP JUMPDEST PUSH1 0x0 DUP1 PUSH1 0x40 DUP4 DUP6 SUB SLT ISZERO PUSH2 0x1B8D JUMPI PUSH1 0x0 DUP1 REVERT JUMPDEST PUSH2 0x1B96 DUP4 PUSH2 0x1B5E JUMP JUMPDEST SWAP5 PUSH1 0x20 SWAP4 SWAP1 SWAP4 ADD CALLDATALOAD SWAP4 POP POP POP JUMP JUMPDEST PUSH1 0x0 PUSH1 0x20 DUP3 DUP5 SUB SLT ISZERO PUSH2 0x1BB6 JUMPI PUSH1 0x0 DUP1 REVERT JUMPDEST PUSH2 0x691 DUP3 PUSH2 0x1B5E JUMP JUMPDEST PUSH4 0x4E487B71 PUSH1 0xE0 SHL PUSH1 0x0 MSTORE PUSH1 0x21 PUSH1 0x4 MSTORE PUSH1 0x24 PUSH1 0x0 REVERT JUMPDEST PUSH1 0x6 DUP2 LT PUSH2 0x1BF3 JUMPI PUSH4 0x4E487B71 PUSH1 0xE0 SHL PUSH1 0x0 MSTORE PUSH1 0x21 PUSH1 0x4 MSTORE PUSH1 0x24 PUSH1 0x0 REVERT JUMPDEST SWAP1 MSTORE JUMP JUMPDEST DUP2 MLOAD DUP2 MSTORE PUSH1 0x20 DUP1 DUP4 ADD MLOAD PUSH2 0x1C0 DUP4 ADD SWAP2 PUSH2 0x1C1B SWAP1 DUP5 ADD DUP3 PUSH1 0x1 PUSH1 0x1 PUSH1 0xA0 SHL SUB AND SWAP1 MSTORE JUMP JUMPDEST POP PUSH1 0x40 DUP4 ADD MLOAD PUSH2 0x1C36 PUSH1 0x40 DUP5 ADD DUP3 PUSH1 0x1 PUSH1 0x1 PUSH1 0xA0 SHL SUB AND SWAP1 MSTORE JUMP JUMPDEST POP PUSH1 0x60 DUP4 ADD MLOAD PUSH2 0x1C51 PUSH1 0x60 DUP5 ADD DUP3 PUSH1 0x1 PUSH1 0x1 PUSH1 0xA0 SHL SUB AND SWAP1 MSTORE JUMP JUMPDEST POP PUSH1 0x80 DUP4 ADD MLOAD PUSH2 0x1C6C PUSH1 0x80 DUP5 ADD DUP3 PUSH1 0x1 PUSH1 0x1 PUSH1 0xA0 SHL SUB AND SWAP1 MSTORE JUMP JUMPDEST POP PUSH1 0xA0 DUP4 DUP2 ADD MLOAD SWAP1 DUP4 ADD MSTORE PUSH1 0xC0 DUP1 DUP5 ADD MLOAD SWAP1 DUP4 ADD MSTORE PUSH1 0xE0 DUP1 DUP5 ADD MLOAD SWAP1 DUP4 ADD MSTORE PUSH2 0x100 DUP1 DUP5 ADD MLOAD SWAP1 DUP4 ADD MSTORE PUSH2 0x120 DUP1 DUP5 ADD MLOAD SWAP1 DUP4 ADD MSTORE PUSH2 0x140 DUP1 DUP5 ADD MLOAD SWAP1 DUP4 ADD MSTORE PUSH2 0x160 DUP1 DUP5 ADD MLOAD SWAP1 DUP4 ADD MSTORE PUSH2 0x180 DUP1 DUP5 ADD MLOAD SWAP1 DUP4 ADD MSTORE PUSH2 0x1A0 DUP1 DUP5 ADD MLOAD PUSH2 0x1CD5 DUP3 DUP6 ADD DUP3 PUSH2 0x1BD5 JUMP JUMPDEST POP POP SWAP3 SWAP2 POP POP JUMP JUMPDEST PUSH1 0x0 DUP1 PUSH1 0x40 DUP4 DUP6 SUB SLT ISZERO PUSH2 0x1CF0 JUMPI PUSH1 0x0 DUP1 REVERT JUMPDEST POP POP DUP1 CALLDATALOAD SWAP3 PUSH1 0x20 SWAP1 SWAP2 ADD CALLDATALOAD SWAP2 POP JUMP JUMPDEST DUP15 DUP2 MSTORE PUSH1 0x1 PUSH1 0x1 PUSH1 0xA0 SHL SUB DUP15 DUP2 AND PUSH1 0x20 DUP4 ADD MSTORE DUP14 DUP2 AND PUSH1 0x40 DUP4 ADD MSTORE DUP13 DUP2 AND PUSH1 0x60 DUP4 ADD MSTORE DUP12 AND PUSH1 0x80 DUP3 ADD MSTORE PUSH2 0x1C0 DUP2 ADD DUP11 PUSH1 0xA0 DUP4 ADD MSTORE DUP10 PUSH1 0xC0 DUP4 ADD MSTORE DUP9 PUSH1 0xE0 DUP4 ADD MSTORE DUP8 PUSH2 0x100 DUP4 ADD MSTORE DUP7 PUSH2 0x120 DUP4 ADD MSTORE DUP6 PUSH2 0x140 DUP4 ADD MSTORE DUP5 PUSH2 0x160 DUP4 ADD MSTORE DUP4 PUSH2 0x180 DUP4 ADD MSTORE PUSH2 0x1D71 PUSH2 0x1A0 DUP4 ADD DUP5 PUSH2 0x1BD5 JUMP JUMPDEST SWAP16 SWAP15 POP POP POP POP POP POP POP POP POP POP POP POP POP POP POP JUMP JUMPDEST PUSH1 0x0 DUP1 PUSH1 0x0 DUP1 PUSH1 0x0 DUP1 PUSH1 0x0 DUP1 PUSH1 0x0 PUSH2 0x120 DUP11 DUP13 SUB SLT ISZERO PUSH2 0x1DA3 JUMPI PUSH1 0x0 DUP1 REVERT JUMPDEST DUP10 CALLDATALOAD SWAP9 POP PUSH2 0x1DB3 PUSH1 0x20 DUP12 ADD PUSH2 0x1B5E JUMP JUMPDEST SWAP8 POP PUSH2 0x1DC1 PUSH1 0x40 DUP12 ADD PUSH2 0x1B5E JUMP JUMPDEST SWAP7 POP PUSH2 0x1DCF PUSH1 0x60 DUP12 ADD PUSH2 0x1B5E JUMP JUMPDEST SWAP6 POP PUSH2 0x1DDD PUSH1 0x80 DUP12 ADD PUSH2 0x1B5E JUMP JUMPDEST SWAP9 SWAP12 SWAP8 SWAP11 POP SWAP6 SWAP9 SWAP5 SWAP8 SWAP7 PUSH1 0xA0 DUP7 ADD CALLDATALOAD SWAP7 POP PUSH1 0xC0 DUP7 ADD CALLDATALOAD SWAP6 PUSH1 0xE0 DUP2 ADD CALLDATALOAD SWAP6 POP PUSH2 0x100 ADD CALLDATALOAD SWAP4 POP SWAP2 POP POP JUMP JUMPDEST PUSH1 0x20 DUP1 DUP3 MSTORE DUP3 MLOAD DUP3 DUP3 ADD DUP2 SWAP1 MSTORE PUSH1 0x0 SWAP2 SWAP1 DUP5 DUP3 ADD SWAP1 PUSH1 0x40 DUP6 ADD SWAP1 DUP5 JUMPDEST DUP2 DUP2 LT ISZERO PUSH2 0x1E3F JUMPI DUP4 MLOAD DUP4 MSTORE SWAP3 DUP5 ADD SWAP3 SWAP2 DUP5 ADD SWAP2 PUSH1 0x1 ADD PUSH2 0x1E23 JUMP JUMPDEST POP SWAP1 SWAP7 SWAP6 POP POP POP POP POP POP JUMP JUMPDEST PUSH1 0x20 DUP1 DUP3 MSTORE PUSH1 0xE SWAP1 DUP3 ADD MSTORE PUSH14 0x1499595B9D1C985B9D0818D85B1B PUSH1 0x92 SHL PUSH1 0x40 DUP3 ADD MSTORE PUSH1 0x60 ADD SWAP1 JUMP JUMPDEST PUSH1 0x20 DUP1 DUP3 MSTORE PUSH1 0x13 SWAP1 DUP3 ADD MSTORE PUSH19 0x131BD85B88191BD95CC81B9BDD08195E1A5CDD PUSH1 0x6A SHL PUSH1 0x40 DUP3 ADD MSTORE PUSH1 0x60 ADD SWAP1 JUMP JUMPDEST PUSH1 0x0 PUSH1 0x20 DUP3 DUP5 SUB SLT ISZERO PUSH2 0x1EB2 JUMPI PUSH1 0x0 DUP1 REVERT JUMPDEST DUP2 MLOAD DUP1 ISZERO ISZERO DUP2 EQ PUSH2 0x691 JUMPI PUSH1 0x0 DUP1 REVERT JUMPDEST PUSH1 0x20 DUP1 DUP3 MSTORE PUSH1 0x9 SWAP1 DUP3 ADD MSTORE PUSH9 0x2737BA1037BBB732B9 PUSH1 0xB9 SHL PUSH1 0x40 DUP3 ADD MSTORE PUSH1 0x60 ADD SWAP1 JUMP JUMPDEST PUSH4 0x4E487B71 PUSH1 0xE0 SHL PUSH1 0x0 MSTORE PUSH1 0x11 PUSH1 0x4 MSTORE PUSH1 0x24 PUSH1 0x0 REVERT JUMPDEST DUP2 DUP2 SUB DUP2 DUP2 GT ISZERO PUSH2 0xBE4 JUMPI PUSH2 0xBE4 PUSH2 0x1EE5 JUMP JUMPDEST DUP1 DUP3 ADD DUP1 DUP3 GT ISZERO PUSH2 0xBE4 JUMPI PUSH2 0xBE4 PUSH2 0x1EE5 JUMP JUMPDEST DUP1 DUP3 MUL DUP2 ISZERO DUP3 DUP3 DIV DUP5 EQ OR PUSH2 0xBE4 JUMPI PUSH2 0xBE4 PUSH2 0x1EE5 JUMP JUMPDEST PUSH1 0x0 DUP3 PUSH2 0x1F55 JUMPI PUSH4 0x4E487B71 PUSH1 0xE0 SHL PUSH1 0x0 MSTORE PUSH1 0x12 PUSH1 0x4 MSTORE PUSH1 0x24 PUSH1 0x0 REVERT JUMPDEST POP DIV SWAP1 JUMP INVALID LOG2 PUSH5 0x6970667358 0x22 SLT KECCAK256 0xAF SWAP1 0x5E SMOD 0x4F 0x5C 0x2B SWAP11 PUSH4 0x2A2C116C SSTORE 0xF8 CALL 0xBB MULMOD 0xEF EXP 0xDD 0xEB PUSH3 0xFFAE3D DUP7 MULMOD 0x5D 0xD9 MSTORE 0xE7 PUSH5 0x736F6C6343 STOP ADDMOD EQ STOP CALLER "},"methodIdentifiers":{"borrowerLoans(address,uint256)":"e3ed1902","createLoan(bytes32,address,address,address,address,uint256,uint256,uint256,uint256)":"d38754cd","defaultThreshold()":"53f10a4b","depositCollateral(bytes32)":"63783af9","fundLoan(bytes32)":"d017fa94","getBorrowerLoans(address)":"eee8b7ff","getLenderLoans(address)":"eeeb0c17","getLoan(bytes32)":"8932f5f7","isBorrowerEligible(address)":"8fd78cd4","isLoanOverdue(bytes32)":"34dab390","lenderLoans(address,uint256)":"3cdb72f1","liquidateCollateral(bytes32)":"009cb25d","loans(bytes32)":"c4a90815","makeRepayment(bytes32,uint256)":"92e4c552","markAsDefaulted(bytes32)":"f9bccab1","owner()":"8da5cb5b","scoreRegistry()":"3eb8104a","setDefaultThreshold(uint256)":"c5246bf5","setScoreRegistry(address)":"5eb6ee8e"}}}}}