{"contracts/SecurityGuard.sol":{"SecurityGuard":{"abi":[{"inputs":[],"stateMutability":"nonpayable","type":"constructor"},{"inputs":[],"name":"AlreadyRevealed","type":"error"},{"inputs":[],"name":"Blacklisted","type":"error"},{"inputs":[],"name":"CommitExpired","type":"error"},{"inputs":[],"name":"CommitNotFound","type":"error"},{"inputs":[],"name":"InvalidCommit","type":"error"},{"inputs":[],"name":"NullifierReused","type":"error"},{"inputs":[],"name":"ProofTooFrequent","type":"error"},{"inputs":[],"name":"RateLimitExceeded","type":"error"},{"inputs":[],"name":"SystemPaused","type":"error"},{"inputs":[],"name":"Unauthorized","type":"error"},{"anonymous":false,"inputs":[{"indexed":true,"internalType":"address","name":"user","type":"address"}],"name":"AddressBlacklisted","type":"event"},{"anonymous":false,"inputs":[{"indexed":true,"internalType":"address","name":"user","type":"address"}],"name":"AddressWhitelisted","type":"event"},{"anonymous":false,"inputs":[{"indexed":true,"internalType":"address","name":"user","type":"address"},{"indexed":false,"internalType":"string","name":"reason","type":"string"}],"name":"AnomalyDetected","type":"event"},{"anonymous":false,"inputs":[{"indexed":false,"internalType":"bool","name":"paused","type":"bool"}],"name":"PauseToggled","type":"event"},{"anonymous":false,"inputs":[{"indexed":true,"internalType":"address","name":"user","type":"address"},{"indexed":false,"internalType":"bytes32","name":"commitHash","type":"bytes32"}],"name":"ProofCommitted","type":"event"},{"anonymous":false,"inputs":[{"indexed":true,"internalType":"address","name":"user","type":"address"},{"indexed":false,"internalType":"bytes32","name":"nullifier","type":"bytes32"}],"name":"ProofRevealed","type":"event"},{"anonymous":false,"inputs":[{"indexed":true,"internalType":"address","name":"user","type":"address"},{"indexed":false,"internalType":"uint256","name":"attempts","type":"uint256"}],"name":"RateLimitHit","type":"event"},{"anonymous":false,"inputs":[{"indexed":false,"internalType":"uint256","name":"newLimit","type":"uint256"}],"name":"RateLimitUpdated","type":"event"},{"inputs":[],"name":"COMMIT_TIMEOUT","outputs":[{"internalType":"uint256","name":"","type":"uint256"}],"stateMutability":"view","type":"function"},{"inputs":[],"name":"MIN_PROOF_INTERVAL","outputs":[{"internalType":"uint256","name":"","type":"uint256"}],"stateMutability":"view","type":"function"},{"inputs":[],"name":"RATE_LIMIT_WINDOW","outputs":[{"internalType":"uint256","name":"","type":"uint256"}],"stateMutability":"view","type":"function"},{"inputs":[{"internalType":"address","name":"_user","type":"address"}],"name":"addToWhitelist","outputs":[],"stateMutability":"nonpayable","type":"function"},{"inputs":[{"internalType":"address","name":"","type":"address"}],"name":"anomalyScores","outputs":[{"internalType":"uint256","name":"suspiciousAttempts","type":"uint256"},{"internalType":"uint256","name":"lastFlagTime","type":"uint256"},{"internalType":"bool","name":"blacklisted","type":"bool"}],"stateMutability":"view","type":"function"},{"inputs":[{"internalType":"address","name":"_user","type":"address"}],"name":"blacklistAddress","outputs":[],"stateMutability":"nonpayable","type":"function"},{"inputs":[{"internalType":"address","name":"_user","type":"address"}],"name":"canSubmitProof","outputs":[{"internalType":"bool","name":"","type":"bool"}],"stateMutability":"view","type":"function"},{"inputs":[{"internalType":"bytes32","name":"_commitHash","type":"bytes32"}],"name":"commitProof","outputs":[],"stateMutability":"nonpayable","type":"function"},{"inputs":[{"internalType":"address","name":"","type":"address"}],"name":"commits","outputs":[{"internalType":"bytes32","name":"commitHash","type":"bytes32"},{"internalType":"uint256","name":"timestamp","type":"uint256"},{"internalType":"bool","name":"revealed","type":"bool"}],"stateMutability":"view","type":"function"},{"inputs":[{"internalType":"address","name":"_user","type":"address"}],"name":"getAnomalyScore","outputs":[{"internalType":"uint256","name":"suspiciousAttempts","type":"uint256"},{"internalType":"uint256","name":"lastFlagTime","type":"uint256"},{"internalType":"bool","name":"blacklisted","type":"bool"}],"stateMutability":"view","type":"function"},{"inputs":[{"internalType":"address","name":"_user","type":"address"}],"name":"getRateLimitStatus","outputs":[{"internalType":"uint256","name":"proofCount","type":"uint256"},{"internalType":"uint256","name":"windowStart","type":"uint256"},{"internalType":"uint256","name":"lastProofTime","type":"uint256"},{"internalType":"uint256","name":"remainingProofs","type":"uint256"}],"stateMutability":"view","type":"function"},{"inputs":[{"internalType":"bytes32","name":"_nullifier","type":"bytes32"},{"internalType":"uint256","name":"_blockRange","type":"uint256"}],"name":"isNullifierRecent","outputs":[{"internalType":"bool","name":"","type":"bool"}],"stateMutability":"view","type":"function"},{"inputs":[{"internalType":"uint256","name":"_timestamp","type":"uint256"},{"internalType":"uint256","name":"_maxAge","type":"uint256"}],"name":"isProofFresh","outputs":[{"internalType":"bool","name":"","type":"bool"}],"stateMutability":"view","type":"function"},{"inputs":[],"name":"maxProofsPerDay","outputs":[{"internalType":"uint256","name":"","type":"uint256"}],"stateMutability":"view","type":"function"},{"inputs":[{"internalType":"bytes32","name":"","type":"bytes32"}],"name":"nullifierBlocks","outputs":[{"internalType":"uint256","name":"","type":"uint256"}],"stateMutability":"view","type":"function"},{"inputs":[],"name":"owner","outputs":[{"internalType":"address","name":"","type":"address"}],"stateMutability":"view","type":"function"},{"inputs":[],"name":"paused","outputs":[{"internalType":"bool","name":"","type":"bool"}],"stateMutability":"view","type":"function"},{"inputs":[{"internalType":"address","name":"","type":"address"}],"name":"rateLimits","outputs":[{"internalType":"uint256","name":"proofCount","type":"uint256"},{"internalType":"uint256","name":"windowStart","type":"uint256"},{"internalType":"uint256","name":"lastProofTime","type":"uint256"}],"stateMutability":"view","type":"function"},{"inputs":[{"internalType":"address","name":"_user","type":"address"}],"name":"removeFromBlacklist","outputs":[],"stateMutability":"nonpayable","type":"function"},{"inputs":[{"internalType":"address","name":"_user","type":"address"}],"name":"removeFromWhitelist","outputs":[],"stateMutability":"nonpayable","type":"function"},{"inputs":[{"internalType":"bytes","name":"_proof","type":"bytes"},{"internalType":"uint256[]","name":"_publicSignals","type":"uint256[]"},{"internalType":"bytes32","name":"_salt","type":"bytes32"}],"name":"revealProof","outputs":[{"internalType":"bool","name":"","type":"bool"}],"stateMutability":"nonpayable","type":"function"},{"inputs":[{"internalType":"uint256","name":"_newLimit","type":"uint256"}],"name":"setRateLimit","outputs":[],"stateMutability":"nonpayable","type":"function"},{"inputs":[],"name":"togglePause","outputs":[],"stateMutability":"nonpayable","type":"function"},{"inputs":[{"internalType":"address","name":"_newOwner","type":"address"}],"name":"transferOwnership","outputs":[],"stateMutability":"nonpayable","type":"function"},{"inputs":[{"internalType":"address","name":"","type":"address"}],"name":"whitelist","outputs":[{"internalType":"bool","name":"","type":"bool"}],"stateMutability":"view","type":"function"}],"evm":{"bytecode":{"linkReferences":{},"object":"6080604052600560015534801561001557600080fd5b50600080546001600160a01b031916331790556111dc806100376000396000f3fe608060405234801561001057600080fd5b50600436106101735760003560e01c80638ab1d681116100de578063c4ae316811610097578063e72edadc11610071578063e72edadc146103cb578063eab8e2b8146103fd578063f2fde38b14610430578063f3290d751461044357600080fd5b8063c4ae31681461039d578063df2a1be3146103a5578063e43252d7146103b857600080fd5b80638ab1d681146102f65780638da5cb5b1461030957806390ce91ea146103345780639b19251a14610354578063b6cffa1414610377578063c287184e1461038a57600080fd5b80637130dfc9116101305780637130dfc914610242578063770d96ce1461024c5780637a14c7d21461025f5780637b43a8e6146102a95780637bcee2a8146102da5780638030665c146102ed57600080fd5b80631d4211fd14610178578063223f4b66146101a0578063372cddd6146101b7578063537df3b6146102105780635c975abb14610225578063633ec40214610239575b600080fd5b61018b610186366004610ea5565b610456565b60405190151581526020015b60405180910390f35b6101a960015481565b604051908152602001610197565b6101f36101c5366004610ec7565b6001600160a01b0316600090815260046020526040902080546001820154600290920154909260ff90911690565b604080519384526020840192909252151590820152606001610197565b61022361021e366004610ec7565b61048d565b005b60005461018b90600160a01b900460ff1681565b6101a961012c81565b6101a96201518081565b61018b61025a366004610fbe565b6104dd565b61028e61026d366004610ec7565b60036020526000908152604090208054600182015460029092015490919083565b60408051938452602084019290925290820152606001610197565b6101f36102b7366004610ec7565b600260208190526000918252604090912080546001820154919092015460ff1683565b61018b6102e8366004610ea5565b610727565b6101a9610e1081565b610223610304366004610ec7565b61073d565b60005461031c906001600160a01b031681565b6040516001600160a01b039091168152602001610197565b6101a961034236600461107f565b60056020526000908152604090205481565b61018b610362366004610ec7565b60066020526000908152604090205460ff1681565b61018b610385366004610ec7565b610788565b61022361039836600461107f565b61085f565b610223610911565b6102236103b336600461107f565b6109a1565b6102236103c6366004610ec7565b610ac7565b6101f36103d9366004610ec7565b60046020526000908152604090208054600182015460029092015490919060ff1683565b61041061040b366004610ec7565b610b3d565b604080519485526020850193909352918301526060820152608001610197565b61022361043e366004610ec7565b610bba565b610223610451366004610ec7565b610c4e565b600082815260056020526040812054808203610476576000915050610487565b61048083826110ae565b4311159150505b92915050565b6000546001600160a01b031633146104b7576040516282b42960e81b815260040160405180910390fd5b6001600160a01b0316600090815260046020526040812060028101805460ff1916905555565b60008054600160a01b900460ff1615610509576040516301ca793160e61b815260040160405180910390fd5b3360009081526004602052604090206002015460ff161561053d576040516309550c7760e01b815260040160405180910390fd5b336000908152600260205260409020805461056b5760405163345512df60e21b815260040160405180910390fd5b600281015460ff16156105915760405163a89ac15160e01b815260040160405180910390fd5b61012c81600101546105a391906110ae565b4211156105c357604051631426c89760e31b815260040160405180910390fd5b60008585856040516020016105da939291906110e5565b604051602081830303815290604052805190602001209050816000015481146106165760405163b7b3378760e01b815260040160405180910390fd5b600a855110156106665760405162461bcd60e51b8152602060048201526016602482015275496e76616c6964207075626c6963207369676e616c7360501b60448201526064015b60405180910390fd5b60008560098151811061067b5761067b611131565b602002602001015160001b905060056000828152602001908152602001600020546000146106bc57604051635ad67c2560e11b815260040160405180910390fd5b60028301805460ff1916600117905560008181526005602052604090204390556106e533610cc7565b60405181815233907f74985aca296b907702c7323b3c754ba9577c7655d51b7525cd735ecf1a75e98e9060200160405180910390a25060019695505050505050565b600061073382846110ae565b4211159392505050565b6000546001600160a01b03163314610767576040516282b42960e81b815260040160405180910390fd5b6001600160a01b03166000908152600660205260409020805460ff19169055565b6001600160a01b03811660009081526004602052604081206002015460ff16156107b457506000919050565b600054600160a01b900460ff16156107ce57506000919050565b6001600160a01b03821660009081526006602052604090205460ff16610857576001600160a01b038216600090815260036020526040902060018101546108199062015180906110ae565b421015610833576001548154106108335750600092915050565b610e10816002015461084591906110ae565b4210156108555750600092915050565b505b506001919050565b6000546001600160a01b03163314610889576040516282b42960e81b815260040160405180910390fd5b60008111801561089a575060648111155b6108d65760405162461bcd60e51b815260206004820152600d60248201526c125b9d985b1a59081b1a5b5a5d609a1b604482015260640161065d565b60018190556040518181527f1939de75d13c836ba62103f23c7a2622e9cbc2113aa33a8c74eb28e409313db29060200160405180910390a150565b6000546001600160a01b0316331461093b576040516282b42960e81b815260040160405180910390fd5b6000805460ff600160a01b808304821615810260ff60a01b1990931692909217928390556040517f9077d36bc00859b5c3f320310707208543dd35092cb0a0fe117d0c6a558b148b936109979390049091161515815260200190565b60405180910390a1565b600054600160a01b900460ff16156109cc576040516301ca793160e61b815260040160405180910390fd5b3360009081526004602052604090206002015460ff1615610a00576040516309550c7760e01b815260040160405180910390fd5b610a0933610d65565b3360009081526003602052604090206002810154610a2a90610e10906110ae565b421015610a4a57604051638592bc9160e01b815260040160405180910390fd5b604080516060810182528381524260208083019182526000838501818152338083526002808552928790209551865593516001860155519301805460ff19169315159390931790925591518481527f64a56e8dfa0c13ba23b585269dc5f6f3d5d04237a0c3610da127589cfc2f13fc910160405180910390a25050565b6000546001600160a01b03163314610af1576040516282b42960e81b815260040160405180910390fd5b6001600160a01b038116600081815260066020526040808220805460ff19166001179055517f4f783c179409b4127238bc9c990bc99b9a651666a0d20b51d6c42849eb88466d9190a250565b6001600160a01b03811660009081526003602052604081206001810154829182918291908290610b719062015180906110ae565b421015610b9a5760015482541015610b95578154600154610b929190611147565b90505b610b9f565b506001545b81546001830154600290930154909892975095509350915050565b6000546001600160a01b03163314610be4576040516282b42960e81b815260040160405180910390fd5b6001600160a01b038116610c2c5760405162461bcd60e51b815260206004820152600f60248201526e496e76616c6964206164647265737360881b604482015260640161065d565b600080546001600160a01b0319166001600160a01b0392909216919091179055565b6000546001600160a01b03163314610c78576040516282b42960e81b815260040160405180910390fd5b6001600160a01b038116600081815260046020526040808220600201805460ff19166001179055517fdaf49ab9345b6cb75bcb5a7f726bff9183c34dcf5c098c385730f9fd893765f69190a250565b6001600160a01b03811660009081526003602052604090206001810154610cf29062015180906110ae565b4210610d0957426001808301919091558155610d1d565b8054816000610d178361115a565b91905055505b426002820155600154815410610d6157610d61826040518060400160405280601281526020017114985d19481b1a5b5a5d081c995858da195960721b815250610dde565b5050565b6001600160a01b03811660009081526006602052604090205460ff1615610d895750565b6001600160a01b03811660009081526003602052604090206001810154610db49062015180906110ae565b421015610d6157600154815410610d615760405163a74c1c5f60e01b815260040160405180910390fd5b6001600160a01b0382166000908152600460205260408120805490918290610e058361115a565b90915550504260018201556040516001600160a01b038416907f7cc735de8c926c9e76ecc49dc139e249ad8bf284bf93dc0e357a892d118fed6890610e4b908590611173565b60405180910390a28054600a11610ea05760028101805460ff191660011790556040516001600160a01b038416907fdaf49ab9345b6cb75bcb5a7f726bff9183c34dcf5c098c385730f9fd893765f690600090a25b505050565b60008060408385031215610eb857600080fd5b50508035926020909101359150565b600060208284031215610ed957600080fd5b81356001600160a01b0381168114610ef057600080fd5b9392505050565b634e487b7160e01b600052604160045260246000fd5b604051601f8201601f1916810167ffffffffffffffff81118282101715610f3657610f36610ef7565b604052919050565b600082601f830112610f4f57600080fd5b8135602067ffffffffffffffff821115610f6b57610f6b610ef7565b8160051b610f7a828201610f0d565b9283528481018201928281019087851115610f9457600080fd5b83870192505b84831015610fb357823582529183019190830190610f9a565b979650505050505050565b600080600060608486031215610fd357600080fd5b833567ffffffffffffffff80821115610feb57600080fd5b818601915086601f830112610fff57600080fd5b813560208282111561101357611013610ef7565b611025601f8301601f19168201610f0d565b828152898284870101111561103957600080fd5b8282860183830137600092810182019290925290955086013591508082111561106157600080fd5b5061106e86828701610f3e565b925050604084013590509250925092565b60006020828403121561109157600080fd5b5035919050565b634e487b7160e01b600052601160045260246000fd5b8082018082111561048757610487611098565b60005b838110156110dc5781810151838201526020016110c4565b50506000910152565b6000845160206110f88285838a016110c1565b85519184019181870160005b8281101561112057815185529383019390830190600101611104565b505050938152909201949350505050565b634e487b7160e01b600052603260045260246000fd5b8181038181111561048757610487611098565b60006001820161116c5761116c611098565b5060010190565b60208152600082518060208401526111928160408501602087016110c1565b601f01601f1916919091016040019291505056fea2646970667358221220d8460a9d38bbd0e8037336d3c76c33d2da05458eb9d994e51587117c9857d89f64736f6c63430008140033","opcodes":"PUSH1 0x80 PUSH1 0x40 MSTORE PUSH1 0x5 PUSH1 0x1 SSTORE CALLVALUE DUP1 ISZERO PUSH2 0x15 JUMPI PUSH1 0x0 DUP1 REVERT JUMPDEST POP PUSH1 0x0 DUP1 SLOAD PUSH1 0x1 PUSH1 0x1 PUSH1 0xA0 SHL SUB NOT AND CALLER OR SWAP1 SSTORE PUSH2 0x11DC DUP1 PUSH2 0x37 PUSH1 0x0 CODECOPY PUSH1 0x0 RETURN INVALID PUSH1 0x80 PUSH1 0x40 MSTORE CALLVALUE DUP1 ISZERO PUSH2 0x10 JUMPI PUSH1 0x0 DUP1 REVERT JUMPDEST POP PUSH1 0x4 CALLDATASIZE LT PUSH2 0x173 JUMPI PUSH1 0x0 CALLDATALOAD PUSH1 0xE0 SHR DUP1 PUSH4 0x8AB1D681 GT PUSH2 0xDE JUMPI DUP1 PUSH4 0xC4AE3168 GT PUSH2 0x97 JUMPI DUP1 PUSH4 0xE72EDADC GT PUSH2 0x71 JUMPI DUP1 PUSH4 0xE72EDADC EQ PUSH2 0x3CB JUMPI DUP1 PUSH4 0xEAB8E2B8 EQ PUSH2 0x3FD JUMPI DUP1 PUSH4 0xF2FDE38B EQ PUSH2 0x430 JUMPI DUP1 PUSH4 0xF3290D75 EQ PUSH2 0x443 JUMPI PUSH1 0x0 DUP1 REVERT JUMPDEST DUP1 PUSH4 0xC4AE3168 EQ PUSH2 0x39D JUMPI DUP1 PUSH4 0xDF2A1BE3 EQ PUSH2 0x3A5 JUMPI DUP1 PUSH4 0xE43252D7 EQ PUSH2 0x3B8 JUMPI PUSH1 0x0 DUP1 REVERT JUMPDEST DUP1 PUSH4 0x8AB1D681 EQ PUSH2 0x2F6 JUMPI DUP1 PUSH4 0x8DA5CB5B EQ PUSH2 0x309 JUMPI DUP1 PUSH4 0x90CE91EA EQ PUSH2 0x334 JUMPI DUP1 PUSH4 0x9B19251A EQ PUSH2 0x354 JUMPI DUP1 PUSH4 0xB6CFFA14 EQ PUSH2 0x377 JUMPI DUP1 PUSH4 0xC287184E EQ PUSH2 0x38A JUMPI PUSH1 0x0 DUP1 REVERT JUMPDEST DUP1 PUSH4 0x7130DFC9 GT PUSH2 0x130 JUMPI DUP1 PUSH4 0x7130DFC9 EQ PUSH2 0x242 JUMPI DUP1 PUSH4 0x770D96CE EQ PUSH2 0x24C JUMPI DUP1 PUSH4 0x7A14C7D2 EQ PUSH2 0x25F JUMPI DUP1 PUSH4 0x7B43A8E6 EQ PUSH2 0x2A9 JUMPI DUP1 PUSH4 0x7BCEE2A8 EQ PUSH2 0x2DA JUMPI DUP1 PUSH4 0x8030665C EQ PUSH2 0x2ED JUMPI PUSH1 0x0 DUP1 REVERT JUMPDEST DUP1 PUSH4 0x1D4211FD EQ PUSH2 0x178 JUMPI DUP1 PUSH4 0x223F4B66 EQ PUSH2 0x1A0 JUMPI DUP1 PUSH4 0x372CDDD6 EQ PUSH2 0x1B7 JUMPI DUP1 PUSH4 0x537DF3B6 EQ PUSH2 0x210 JUMPI DUP1 PUSH4 0x5C975ABB EQ PUSH2 0x225 JUMPI DUP1 PUSH4 0x633EC402 EQ PUSH2 0x239 JUMPI JUMPDEST PUSH1 0x0 DUP1 REVERT JUMPDEST PUSH2 0x18B PUSH2 0x186 CALLDATASIZE PUSH1 0x4 PUSH2 0xEA5 JUMP JUMPDEST PUSH2 0x456 JUMP JUMPDEST PUSH1 0x40 MLOAD SWAP1 ISZERO ISZERO DUP2 MSTORE PUSH1 0x20 ADD JUMPDEST PUSH1 0x40 MLOAD DUP1 SWAP2 SUB SWAP1 RETURN JUMPDEST PUSH2 0x1A9 PUSH1 0x1 SLOAD DUP2 JUMP JUMPDEST PUSH1 0x40 MLOAD SWAP1 DUP2 MSTORE PUSH1 0x20 ADD PUSH2 0x197 JUMP JUMPDEST PUSH2 0x1F3 PUSH2 0x1C5 CALLDATASIZE PUSH1 0x4 PUSH2 0xEC7 JUMP JUMPDEST PUSH1 0x1 PUSH1 0x1 PUSH1 0xA0 SHL SUB AND PUSH1 0x0 SWAP1 DUP2 MSTORE PUSH1 0x4 PUSH1 0x20 MSTORE PUSH1 0x40 SWAP1 KECCAK256 DUP1 SLOAD PUSH1 0x1 DUP3 ADD SLOAD PUSH1 0x2 SWAP1 SWAP3 ADD SLOAD SWAP1 SWAP3 PUSH1 0xFF SWAP1 SWAP2 AND SWAP1 JUMP JUMPDEST PUSH1 0x40 DUP1 MLOAD SWAP4 DUP5 MSTORE PUSH1 0x20 DUP5 ADD SWAP3 SWAP1 SWAP3 MSTORE ISZERO ISZERO SWAP1 DUP3 ADD MSTORE PUSH1 0x60 ADD PUSH2 0x197 JUMP JUMPDEST PUSH2 0x223 PUSH2 0x21E CALLDATASIZE PUSH1 0x4 PUSH2 0xEC7 JUMP JUMPDEST PUSH2 0x48D JUMP JUMPDEST STOP JUMPDEST PUSH1 0x0 SLOAD PUSH2 0x18B SWAP1 PUSH1 0x1 PUSH1 0xA0 SHL SWAP1 DIV PUSH1 0xFF AND DUP2 JUMP JUMPDEST PUSH2 0x1A9 PUSH2 0x12C DUP2 JUMP JUMPDEST PUSH2 0x1A9 PUSH3 0x15180 DUP2 JUMP JUMPDEST PUSH2 0x18B PUSH2 0x25A CALLDATASIZE PUSH1 0x4 PUSH2 0xFBE JUMP JUMPDEST PUSH2 0x4DD JUMP JUMPDEST PUSH2 0x28E PUSH2 0x26D CALLDATASIZE PUSH1 0x4 PUSH2 0xEC7 JUMP JUMPDEST PUSH1 0x3 PUSH1 0x20 MSTORE PUSH1 0x0 SWAP1 DUP2 MSTORE PUSH1 0x40 SWAP1 KECCAK256 DUP1 SLOAD PUSH1 0x1 DUP3 ADD SLOAD PUSH1 0x2 SWAP1 SWAP3 ADD SLOAD SWAP1 SWAP2 SWAP1 DUP4 JUMP JUMPDEST PUSH1 0x40 DUP1 MLOAD SWAP4 DUP5 MSTORE PUSH1 0x20 DUP5 ADD SWAP3 SWAP1 SWAP3 MSTORE SWAP1 DUP3 ADD MSTORE PUSH1 0x60 ADD PUSH2 0x197 JUMP JUMPDEST PUSH2 0x1F3 PUSH2 0x2B7 CALLDATASIZE PUSH1 0x4 PUSH2 0xEC7 JUMP JUMPDEST PUSH1 0x2 PUSH1 0x20 DUP2 SWAP1 MSTORE PUSH1 0x0 SWAP2 DUP3 MSTORE PUSH1 0x40 SWAP1 SWAP2 KECCAK256 DUP1 SLOAD PUSH1 0x1 DUP3 ADD SLOAD SWAP2 SWAP1 SWAP3 ADD SLOAD PUSH1 0xFF AND DUP4 JUMP JUMPDEST PUSH2 0x18B PUSH2 0x2E8 CALLDATASIZE PUSH1 0x4 PUSH2 0xEA5 JUMP JUMPDEST PUSH2 0x727 JUMP JUMPDEST PUSH2 0x1A9 PUSH2 0xE10 DUP2 JUMP JUMPDEST PUSH2 0x223 PUSH2 0x304 CALLDATASIZE PUSH1 0x4 PUSH2 0xEC7 JUMP JUMPDEST PUSH2 0x73D JUMP JUMPDEST PUSH1 0x0 SLOAD PUSH2 0x31C SWAP1 PUSH1 0x1 PUSH1 0x1 PUSH1 0xA0 SHL SUB AND DUP2 JUMP JUMPDEST PUSH1 0x40 MLOAD PUSH1 0x1 PUSH1 0x1 PUSH1 0xA0 SHL SUB SWAP1 SWAP2 AND DUP2 MSTORE PUSH1 0x20 ADD PUSH2 0x197 JUMP JUMPDEST PUSH2 0x1A9 PUSH2 0x342 CALLDATASIZE PUSH1 0x4 PUSH2 0x107F JUMP JUMPDEST PUSH1 0x5 PUSH1 0x20 MSTORE PUSH1 0x0 SWAP1 DUP2 MSTORE PUSH1 0x40 SWAP1 KECCAK256 SLOAD DUP2 JUMP JUMPDEST PUSH2 0x18B PUSH2 0x362 CALLDATASIZE PUSH1 0x4 PUSH2 0xEC7 JUMP JUMPDEST PUSH1 0x6 PUSH1 0x20 MSTORE PUSH1 0x0 SWAP1 DUP2 MSTORE PUSH1 0x40 SWAP1 KECCAK256 SLOAD PUSH1 0xFF AND DUP2 JUMP JUMPDEST PUSH2 0x18B PUSH2 0x385 CALLDATASIZE PUSH1 0x4 PUSH2 0xEC7 JUMP JUMPDEST PUSH2 0x788 JUMP JUMPDEST PUSH2 0x223 PUSH2 0x398 CALLDATASIZE PUSH1 0x4 PUSH2 0x107F JUMP JUMPDEST PUSH2 0x85F JUMP JUMPDEST PUSH2 0x223 PUSH2 0x911 JUMP JUMPDEST PUSH2 0x223 PUSH2 0x3B3 CALLDATASIZE PUSH1 0x4 PUSH2 0x107F JUMP JUMPDEST PUSH2 0x9A1 JUMP JUMPDEST PUSH2 0x223 PUSH2 0x3C6 CALLDATASIZE PUSH1 0x4 PUSH2 0xEC7 JUMP JUMPDEST PUSH2 0xAC7 JUMP JUMPDEST PUSH2 0x1F3 PUSH2 0x3D9 CALLDATASIZE PUSH1 0x4 PUSH2 0xEC7 JUMP JUMPDEST PUSH1 0x4 PUSH1 0x20 MSTORE PUSH1 0x0 SWAP1 DUP2 MSTORE PUSH1 0x40 SWAP1 KECCAK256 DUP1 SLOAD PUSH1 0x1 DUP3 ADD SLOAD PUSH1 0x2 SWAP1 SWAP3 ADD SLOAD SWAP1 SWAP2 SWAP1 PUSH1 0xFF AND DUP4 JUMP JUMPDEST PUSH2 0x410 PUSH2 0x40B CALLDATASIZE PUSH1 0x4 PUSH2 0xEC7 JUMP JUMPDEST PUSH2 0xB3D JUMP JUMPDEST PUSH1 0x40 DUP1 MLOAD SWAP5 DUP6 MSTORE PUSH1 0x20 DUP6 ADD SWAP4 SWAP1 SWAP4 MSTORE SWAP2 DUP4 ADD MSTORE PUSH1 0x60 DUP3 ADD MSTORE PUSH1 0x80 ADD PUSH2 0x197 JUMP JUMPDEST PUSH2 0x223 PUSH2 0x43E CALLDATASIZE PUSH1 0x4 PUSH2 0xEC7 JUMP JUMPDEST PUSH2 0xBBA JUMP JUMPDEST PUSH2 0x223 PUSH2 0x451 CALLDATASIZE PUSH1 0x4 PUSH2 0xEC7 JUMP JUMPDEST PUSH2 0xC4E JUMP JUMPDEST PUSH1 0x0 DUP3 DUP2 MSTORE PUSH1 0x5 PUSH1 0x20 MSTORE PUSH1 0x40 DUP2 KECCAK256 SLOAD DUP1 DUP3 SUB PUSH2 0x476 JUMPI PUSH1 0x0 SWAP2 POP POP PUSH2 0x487 JUMP JUMPDEST PUSH2 0x480 DUP4 DUP3 PUSH2 0x10AE JUMP JUMPDEST NUMBER GT ISZERO SWAP2 POP POP JUMPDEST SWAP3 SWAP2 POP POP JUMP JUMPDEST PUSH1 0x0 SLOAD PUSH1 0x1 PUSH1 0x1 PUSH1 0xA0 SHL SUB AND CALLER EQ PUSH2 0x4B7 JUMPI PUSH1 0x40 MLOAD PUSH3 0x82B429 PUSH1 0xE8 SHL DUP2 MSTORE PUSH1 0x4 ADD PUSH1 0x40 MLOAD DUP1 SWAP2 SUB SWAP1 REVERT JUMPDEST PUSH1 0x1 PUSH1 0x1 PUSH1 0xA0 SHL SUB AND PUSH1 0x0 SWAP1 DUP2 MSTORE PUSH1 0x4 PUSH1 0x20 MSTORE PUSH1 0x40 DUP2 KECCAK256 PUSH1 0x2 DUP2 ADD DUP1 SLOAD PUSH1 0xFF NOT AND SWAP1 SSTORE SSTORE JUMP JUMPDEST PUSH1 0x0 DUP1 SLOAD PUSH1 0x1 PUSH1 0xA0 SHL SWAP1 DIV PUSH1 0xFF AND ISZERO PUSH2 0x509 JUMPI PUSH1 0x40 MLOAD PUSH4 0x1CA7931 PUSH1 0xE6 SHL DUP2 MSTORE PUSH1 0x4 ADD PUSH1 0x40 MLOAD DUP1 SWAP2 SUB SWAP1 REVERT JUMPDEST CALLER PUSH1 0x0 SWAP1 DUP2 MSTORE PUSH1 0x4 PUSH1 0x20 MSTORE PUSH1 0x40 SWAP1 KECCAK256 PUSH1 0x2 ADD SLOAD PUSH1 0xFF AND ISZERO PUSH2 0x53D JUMPI PUSH1 0x40 MLOAD PUSH4 0x9550C77 PUSH1 0xE0 SHL DUP2 MSTORE PUSH1 0x4 ADD PUSH1 0x40 MLOAD DUP1 SWAP2 SUB SWAP1 REVERT JUMPDEST CALLER PUSH1 0x0 SWAP1 DUP2 MSTORE PUSH1 0x2 PUSH1 0x20 MSTORE PUSH1 0x40 SWAP1 KECCAK256 DUP1 SLOAD PUSH2 0x56B JUMPI PUSH1 0x40 MLOAD PUSH4 0x345512DF PUSH1 0xE2 SHL DUP2 MSTORE PUSH1 0x4 ADD PUSH1 0x40 MLOAD DUP1 SWAP2 SUB SWAP1 REVERT JUMPDEST PUSH1 0x2 DUP2 ADD SLOAD PUSH1 0xFF AND ISZERO PUSH2 0x591 JUMPI PUSH1 0x40 MLOAD PUSH4 0xA89AC151 PUSH1 0xE0 SHL DUP2 MSTORE PUSH1 0x4 ADD PUSH1 0x40 MLOAD DUP1 SWAP2 SUB SWAP1 REVERT JUMPDEST PUSH2 0x12C DUP2 PUSH1 0x1 ADD SLOAD PUSH2 0x5A3 SWAP2 SWAP1 PUSH2 0x10AE JUMP JUMPDEST TIMESTAMP GT ISZERO PUSH2 0x5C3 JUMPI PUSH1 0x40 MLOAD PUSH4 0x1426C897 PUSH1 0xE3 SHL DUP2 MSTORE PUSH1 0x4 ADD PUSH1 0x40 MLOAD DUP1 SWAP2 SUB SWAP1 REVERT JUMPDEST PUSH1 0x0 DUP6 DUP6 DUP6 PUSH1 0x40 MLOAD PUSH1 0x20 ADD PUSH2 0x5DA SWAP4 SWAP3 SWAP2 SWAP1 PUSH2 0x10E5 JUMP JUMPDEST PUSH1 0x40 MLOAD PUSH1 0x20 DUP2 DUP4 SUB SUB DUP2 MSTORE SWAP1 PUSH1 0x40 MSTORE DUP1 MLOAD SWAP1 PUSH1 0x20 ADD KECCAK256 SWAP1 POP DUP2 PUSH1 0x0 ADD SLOAD DUP2 EQ PUSH2 0x616 JUMPI PUSH1 0x40 MLOAD PUSH4 0xB7B33787 PUSH1 0xE0 SHL DUP2 MSTORE PUSH1 0x4 ADD PUSH1 0x40 MLOAD DUP1 SWAP2 SUB SWAP1 REVERT JUMPDEST PUSH1 0xA DUP6 MLOAD LT ISZERO PUSH2 0x666 JUMPI PUSH1 0x40 MLOAD PUSH3 0x461BCD PUSH1 0xE5 SHL DUP2 MSTORE PUSH1 0x20 PUSH1 0x4 DUP3 ADD MSTORE PUSH1 0x16 PUSH1 0x24 DUP3 ADD MSTORE PUSH22 0x496E76616C6964207075626C6963207369676E616C73 PUSH1 0x50 SHL PUSH1 0x44 DUP3 ADD MSTORE PUSH1 0x64 ADD JUMPDEST PUSH1 0x40 MLOAD DUP1 SWAP2 SUB SWAP1 REVERT JUMPDEST PUSH1 0x0 DUP6 PUSH1 0x9 DUP2 MLOAD DUP2 LT PUSH2 0x67B JUMPI PUSH2 0x67B PUSH2 0x1131 JUMP JUMPDEST PUSH1 0x20 MUL PUSH1 0x20 ADD ADD MLOAD PUSH1 0x0 SHL SWAP1 POP PUSH1 0x5 PUSH1 0x0 DUP3 DUP2 MSTORE PUSH1 0x20 ADD SWAP1 DUP2 MSTORE PUSH1 0x20 ADD PUSH1 0x0 KECCAK256 SLOAD PUSH1 0x0 EQ PUSH2 0x6BC JUMPI PUSH1 0x40 MLOAD PUSH4 0x5AD67C25 PUSH1 0xE1 SHL DUP2 MSTORE PUSH1 0x4 ADD PUSH1 0x40 MLOAD DUP1 SWAP2 SUB SWAP1 REVERT JUMPDEST PUSH1 0x2 DUP4 ADD DUP1 SLOAD PUSH1 0xFF NOT AND PUSH1 0x1 OR SWAP1 SSTORE PUSH1 0x0 DUP2 DUP2 MSTORE PUSH1 0x5 PUSH1 0x20 MSTORE PUSH1 0x40 SWAP1 KECCAK256 NUMBER SWAP1 SSTORE PUSH2 0x6E5 CALLER PUSH2 0xCC7 JUMP JUMPDEST PUSH1 0x40 MLOAD DUP2 DUP2 MSTORE CALLER SWAP1 PUSH32 0x74985ACA296B907702C7323B3C754BA9577C7655D51B7525CD735ECF1A75E98E SWAP1 PUSH1 0x20 ADD PUSH1 0x40 MLOAD DUP1 SWAP2 SUB SWAP1 LOG2 POP PUSH1 0x1 SWAP7 SWAP6 POP POP POP POP POP POP JUMP JUMPDEST PUSH1 0x0 PUSH2 0x733 DUP3 DUP5 PUSH2 0x10AE JUMP JUMPDEST TIMESTAMP GT ISZERO SWAP4 SWAP3 POP POP POP JUMP JUMPDEST PUSH1 0x0 SLOAD PUSH1 0x1 PUSH1 0x1 PUSH1 0xA0 SHL SUB AND CALLER EQ PUSH2 0x767 JUMPI PUSH1 0x40 MLOAD PUSH3 0x82B429 PUSH1 0xE8 SHL DUP2 MSTORE PUSH1 0x4 ADD PUSH1 0x40 MLOAD DUP1 SWAP2 SUB SWAP1 REVERT JUMPDEST PUSH1 0x1 PUSH1 0x1 PUSH1 0xA0 SHL SUB AND PUSH1 0x0 SWAP1 DUP2 MSTORE PUSH1 0x6 PUSH1 0x20 MSTORE PUSH1 0x40 SWAP1 KECCAK256 DUP1 SLOAD PUSH1 0xFF NOT AND SWAP1 SSTORE JUMP JUMPDEST PUSH1 0x1 PUSH1 0x1 PUSH1 0xA0 SHL SUB DUP2 AND PUSH1 0x0 SWAP1 DUP2 MSTORE PUSH1 0x4 PUSH1 0x20 MSTORE PUSH1 0x40 DUP2 KECCAK256 PUSH1 0x2 ADD SLOAD PUSH1 0xFF AND ISZERO PUSH2 0x7B4 JUMPI POP PUSH1 0x0 SWAP2 SWAP1 POP JUMP JUMPDEST PUSH1 0x0 SLOAD PUSH1 0x1 PUSH1 0xA0 SHL SWAP1 DIV PUSH1 0xFF AND ISZERO PUSH2 0x7CE JUMPI POP PUSH1 0x0 SWAP2 SWAP1 POP JUMP JUMPDEST PUSH1 0x1 PUSH1 0x1 PUSH1 0xA0 SHL SUB DUP3 AND PUSH1 0x0 SWAP1 DUP2 MSTORE PUSH1 0x6 PUSH1 0x20 MSTORE PUSH1 0x40 SWAP1 KECCAK256 SLOAD PUSH1 0xFF AND PUSH2 0x857 JUMPI PUSH1 0x1 PUSH1 0x1 PUSH1 0xA0 SHL SUB DUP3 AND PUSH1 0x0 SWAP1 DUP2 MSTORE PUSH1 0x3 PUSH1 0x20 MSTORE PUSH1 0x40 SWAP1 KECCAK256 PUSH1 0x1 DUP2 ADD SLOAD PUSH2 0x819 SWAP1 PUSH3 0x15180 SWAP1 PUSH2 0x10AE JUMP JUMPDEST TIMESTAMP LT ISZERO PUSH2 0x833 JUMPI PUSH1 0x1 SLOAD DUP2 SLOAD LT PUSH2 0x833 JUMPI POP PUSH1 0x0 SWAP3 SWAP2 POP POP JUMP JUMPDEST PUSH2 0xE10 DUP2 PUSH1 0x2 ADD SLOAD PUSH2 0x845 SWAP2 SWAP1 PUSH2 0x10AE JUMP JUMPDEST TIMESTAMP LT ISZERO PUSH2 0x855 JUMPI POP PUSH1 0x0 SWAP3 SWAP2 POP POP JUMP JUMPDEST POP JUMPDEST POP PUSH1 0x1 SWAP2 SWAP1 POP JUMP JUMPDEST PUSH1 0x0 SLOAD PUSH1 0x1 PUSH1 0x1 PUSH1 0xA0 SHL SUB AND CALLER EQ PUSH2 0x889 JUMPI PUSH1 0x40 MLOAD PUSH3 0x82B429 PUSH1 0xE8 SHL DUP2 MSTORE PUSH1 0x4 ADD PUSH1 0x40 MLOAD DUP1 SWAP2 SUB SWAP1 REVERT JUMPDEST PUSH1 0x0 DUP2 GT DUP1 ISZERO PUSH2 0x89A JUMPI POP PUSH1 0x64 DUP2 GT ISZERO JUMPDEST PUSH2 0x8D6 JUMPI PUSH1 0x40 MLOAD PUSH3 0x461BCD PUSH1 0xE5 SHL DUP2 MSTORE PUSH1 0x20 PUSH1 0x4 DUP3 ADD MSTORE PUSH1 0xD PUSH1 0x24 DUP3 ADD MSTORE PUSH13 0x125B9D985B1A59081B1A5B5A5D PUSH1 0x9A SHL PUSH1 0x44 DUP3 ADD MSTORE PUSH1 0x64 ADD PUSH2 0x65D JUMP JUMPDEST PUSH1 0x1 DUP2 SWAP1 SSTORE PUSH1 0x40 MLOAD DUP2 DUP2 MSTORE PUSH32 0x1939DE75D13C836BA62103F23C7A2622E9CBC2113AA33A8C74EB28E409313DB2 SWAP1 PUSH1 0x20 ADD PUSH1 0x40 MLOAD DUP1 SWAP2 SUB SWAP1 LOG1 POP JUMP JUMPDEST PUSH1 0x0 SLOAD PUSH1 0x1 PUSH1 0x1 PUSH1 0xA0 SHL SUB AND CALLER EQ PUSH2 0x93B JUMPI PUSH1 0x40 MLOAD PUSH3 0x82B429 PUSH1 0xE8 SHL DUP2 MSTORE PUSH1 0x4 ADD PUSH1 0x40 MLOAD DUP1 SWAP2 SUB SWAP1 REVERT JUMPDEST PUSH1 0x0 DUP1 SLOAD PUSH1 0xFF PUSH1 0x1 PUSH1 0xA0 SHL DUP1 DUP4 DIV DUP3 AND ISZERO DUP2 MUL PUSH1 0xFF PUSH1 0xA0 SHL NOT SWAP1 SWAP4 AND SWAP3 SWAP1 SWAP3 OR SWAP3 DUP4 SWAP1 SSTORE PUSH1 0x40 MLOAD PUSH32 0x9077D36BC00859B5C3F320310707208543DD35092CB0A0FE117D0C6A558B148B SWAP4 PUSH2 0x997 SWAP4 SWAP1 DIV SWAP1 SWAP2 AND ISZERO ISZERO DUP2 MSTORE PUSH1 0x20 ADD SWAP1 JUMP JUMPDEST PUSH1 0x40 MLOAD DUP1 SWAP2 SUB SWAP1 LOG1 JUMP JUMPDEST PUSH1 0x0 SLOAD PUSH1 0x1 PUSH1 0xA0 SHL SWAP1 DIV PUSH1 0xFF AND ISZERO PUSH2 0x9CC JUMPI PUSH1 0x40 MLOAD PUSH4 0x1CA7931 PUSH1 0xE6 SHL DUP2 MSTORE PUSH1 0x4 ADD PUSH1 0x40 MLOAD DUP1 SWAP2 SUB SWAP1 REVERT JUMPDEST CALLER PUSH1 0x0 SWAP1 DUP2 MSTORE PUSH1 0x4 PUSH1 0x20 MSTORE PUSH1 0x40 SWAP1 KECCAK256 PUSH1 0x2 ADD SLOAD PUSH1 0xFF AND ISZERO PUSH2 0xA00 JUMPI PUSH1 0x40 MLOAD PUSH4 0x9550C77 PUSH1 0xE0 SHL DUP2 MSTORE PUSH1 0x4 ADD PUSH1 0x40 MLOAD DUP1 SWAP2 SUB SWAP1 REVERT JUMPDEST PUSH2 0xA09 CALLER PUSH2 0xD65 JUMP JUMPDEST CALLER PUSH1 0x0 SWAP1 DUP2 MSTORE PUSH1 0x3 PUSH1 0x20 MSTORE PUSH1 0x40 SWAP1 KECCAK256 PUSH1 0x2 DUP2 ADD SLOAD PUSH2 0xA2A SWAP1 PUSH2 0xE10 SWAP1 PUSH2 0x10AE JUMP JUMPDEST TIMESTAMP LT ISZERO PUSH2 0xA4A JUMPI PUSH1 0x40 MLOAD PUSH4 0x8592BC91 PUSH1 0xE0 SHL DUP2 MSTORE PUSH1 0x4 ADD PUSH1 0x40 MLOAD DUP1 SWAP2 SUB SWAP1 REVERT JUMPDEST PUSH1 0x40 DUP1 MLOAD PUSH1 0x60 DUP2 ADD DUP3 MSTORE DUP4 DUP2 MSTORE TIMESTAMP PUSH1 0x20 DUP1 DUP4 ADD SWAP2 DUP3 MSTORE PUSH1 0x0 DUP4 DUP6 ADD DUP2 DUP2 MSTORE CALLER DUP1 DUP4 MSTORE PUSH1 0x2 DUP1 DUP6 MSTORE SWAP3 DUP8 SWAP1 KECCAK256 SWAP6 MLOAD DUP7 SSTORE SWAP4 MLOAD PUSH1 0x1 DUP7 ADD SSTORE MLOAD SWAP4 ADD DUP1 SLOAD PUSH1 0xFF NOT AND SWAP4 ISZERO ISZERO SWAP4 SWAP1 SWAP4 OR SWAP1 SWAP3 SSTORE SWAP2 MLOAD DUP5 DUP2 MSTORE PUSH32 0x64A56E8DFA0C13BA23B585269DC5F6F3D5D04237A0C3610DA127589CFC2F13FC SWAP2 ADD PUSH1 0x40 MLOAD DUP1 SWAP2 SUB SWAP1 LOG2 POP POP JUMP JUMPDEST PUSH1 0x0 SLOAD PUSH1 0x1 PUSH1 0x1 PUSH1 0xA0 SHL SUB AND CALLER EQ PUSH2 0xAF1 JUMPI PUSH1 0x40 MLOAD PUSH3 0x82B429 PUSH1 0xE8 SHL DUP2 MSTORE PUSH1 0x4 ADD PUSH1 0x40 MLOAD DUP1 SWAP2 SUB SWAP1 REVERT JUMPDEST PUSH1 0x1 PUSH1 0x1 PUSH1 0xA0 SHL SUB DUP2 AND PUSH1 0x0 DUP2 DUP2 MSTORE PUSH1 0x6 PUSH1 0x20 MSTORE PUSH1 0x40 DUP1 DUP3 KECCAK256 DUP1 SLOAD PUSH1 0xFF NOT AND PUSH1 0x1 OR SWAP1 SSTORE MLOAD PUSH32 0x4F783C179409B4127238BC9C990BC99B9A651666A0D20B51D6C42849EB88466D SWAP2 SWAP1 LOG2 POP JUMP JUMPDEST PUSH1 0x1 PUSH1 0x1 PUSH1 0xA0 SHL SUB DUP2 AND PUSH1 0x0 SWAP1 DUP2 MSTORE PUSH1 0x3 PUSH1 0x20 MSTORE PUSH1 0x40 DUP2 KECCAK256 PUSH1 0x1 DUP2 ADD SLOAD DUP3 SWAP2 DUP3 SWAP2 DUP3 SWAP2 SWAP1 DUP3 SWAP1 PUSH2 0xB71 SWAP1 PUSH3 0x15180 SWAP1 PUSH2 0x10AE JUMP JUMPDEST TIMESTAMP LT ISZERO PUSH2 0xB9A JUMPI PUSH1 0x1 SLOAD DUP3 SLOAD LT ISZERO PUSH2 0xB95 JUMPI DUP2 SLOAD PUSH1 0x1 SLOAD PUSH2 0xB92 SWAP2 SWAP1 PUSH2 0x1147 JUMP JUMPDEST SWAP1 POP JUMPDEST PUSH2 0xB9F JUMP JUMPDEST POP PUSH1 0x1 SLOAD JUMPDEST DUP2 SLOAD PUSH1 0x1 DUP4 ADD SLOAD PUSH1 0x2 SWAP1 SWAP4 ADD SLOAD SWAP1 SWAP9 SWAP3 SWAP8 POP SWAP6 POP SWAP4 POP SWAP2 POP POP JUMP JUMPDEST PUSH1 0x0 SLOAD PUSH1 0x1 PUSH1 0x1 PUSH1 0xA0 SHL SUB AND CALLER EQ PUSH2 0xBE4 JUMPI PUSH1 0x40 MLOAD PUSH3 0x82B429 PUSH1 0xE8 SHL DUP2 MSTORE PUSH1 0x4 ADD PUSH1 0x40 MLOAD DUP1 SWAP2 SUB SWAP1 REVERT JUMPDEST PUSH1 0x1 PUSH1 0x1 PUSH1 0xA0 SHL SUB DUP2 AND PUSH2 0xC2C JUMPI PUSH1 0x40 MLOAD PUSH3 0x461BCD PUSH1 0xE5 SHL DUP2 MSTORE PUSH1 0x20 PUSH1 0x4 DUP3 ADD MSTORE PUSH1 0xF PUSH1 0x24 DUP3 ADD MSTORE PUSH15 0x496E76616C69642061646472657373 PUSH1 0x88 SHL PUSH1 0x44 DUP3 ADD MSTORE PUSH1 0x64 ADD PUSH2 0x65D JUMP JUMPDEST PUSH1 0x0 DUP1 SLOAD PUSH1 0x1 PUSH1 0x1 PUSH1 0xA0 SHL SUB NOT AND PUSH1 0x1 PUSH1 0x1 PUSH1 0xA0 SHL SUB SWAP3 SWAP1 SWAP3 AND SWAP2 SWAP1 SWAP2 OR SWAP1 SSTORE JUMP JUMPDEST PUSH1 0x0 SLOAD PUSH1 0x1 PUSH1 0x1 PUSH1 0xA0 SHL SUB AND CALLER EQ PUSH2 0xC78 JUMPI PUSH1 0x40 MLOAD PUSH3 0x82B429 PUSH1 0xE8 SHL DUP2 MSTORE PUSH1 0x4 ADD PUSH1 0x40 MLOAD DUP1 SWAP2 SUB SWAP1 REVERT JUMPDEST PUSH1 0x1 PUSH1 0x1 PUSH1 0xA0 SHL SUB DUP2 AND PUSH1 0x0 DUP2 DUP2 MSTORE PUSH1 0x4 PUSH1 0x20 MSTORE PUSH1 0x40 DUP1 DUP3 KECCAK256 PUSH1 0x2 ADD DUP1 SLOAD PUSH1 0xFF NOT AND PUSH1 0x1 OR SWAP1 SSTORE MLOAD PUSH32 0xDAF49AB9345B6CB75BCB5A7F726BFF9183C34DCF5C098C385730F9FD893765F6 SWAP2 SWAP1 LOG2 POP JUMP JUMPDEST PUSH1 0x1 PUSH1 0x1 PUSH1 0xA0 SHL SUB DUP2 AND PUSH1 0x0 SWAP1 DUP2 MSTORE PUSH1 0x3 PUSH1 0x20 MSTORE PUSH1 0x40 SWAP1 KECCAK256 PUSH1 0x1 DUP2 ADD SLOAD PUSH2 0xCF2 SWAP1 PUSH3 0x15180 SWAP1 PUSH2 0x10AE JUMP JUMPDEST TIMESTAMP LT PUSH2 0xD09 JUMPI TIMESTAMP PUSH1 0x1 DUP1 DUP4 ADD SWAP2 SWAP1 SWAP2 SSTORE DUP2 SSTORE PUSH2 0xD1D JUMP JUMPDEST DUP1 SLOAD DUP2 PUSH1 0x0 PUSH2 0xD17 DUP4 PUSH2 0x115A JUMP JUMPDEST SWAP2 SWAP1 POP SSTORE POP JUMPDEST TIMESTAMP PUSH1 0x2 DUP3 ADD SSTORE PUSH1 0x1 SLOAD DUP2 SLOAD LT PUSH2 0xD61 JUMPI PUSH2 0xD61 DUP3 PUSH1 0x40 MLOAD DUP1 PUSH1 0x40 ADD PUSH1 0x40 MSTORE DUP1 PUSH1 0x12 DUP2 MSTORE PUSH1 0x20 ADD PUSH18 0x14985D19481B1A5B5A5D081C995858DA1959 PUSH1 0x72 SHL DUP2 MSTORE POP PUSH2 0xDDE JUMP JUMPDEST POP POP JUMP JUMPDEST PUSH1 0x1 PUSH1 0x1 PUSH1 0xA0 SHL SUB DUP2 AND PUSH1 0x0 SWAP1 DUP2 MSTORE PUSH1 0x6 PUSH1 0x20 MSTORE PUSH1 0x40 SWAP1 KECCAK256 SLOAD PUSH1 0xFF AND ISZERO PUSH2 0xD89 JUMPI POP JUMP JUMPDEST PUSH1 0x1 PUSH1 0x1 PUSH1 0xA0 SHL SUB DUP2 AND PUSH1 0x0 SWAP1 DUP2 MSTORE PUSH1 0x3 PUSH1 0x20 MSTORE PUSH1 0x40 SWAP1 KECCAK256 PUSH1 0x1 DUP2 ADD SLOAD PUSH2 0xDB4 SWAP1 PUSH3 0x15180 SWAP1 PUSH2 0x10AE JUMP JUMPDEST TIMESTAMP LT ISZERO PUSH2 0xD61 JUMPI PUSH1 0x1 SLOAD DUP2 SLOAD LT PUSH2 0xD61 JUMPI PUSH1 0x40 MLOAD PUSH4 0xA74C1C5F PUSH1 0xE0 SHL DUP2 MSTORE PUSH1 0x4 ADD PUSH1 0x40 MLOAD DUP1 SWAP2 SUB SWAP1 REVERT JUMPDEST PUSH1 0x1 PUSH1 0x1 PUSH1 0xA0 SHL SUB DUP3 AND PUSH1 0x0 SWAP1 DUP2 MSTORE PUSH1 0x4 PUSH1 0x20 MSTORE PUSH1 0x40 DUP2 KECCAK256 DUP1 SLOAD SWAP1 SWAP2 DUP3 SWAP1 PUSH2 0xE05 DUP4 PUSH2 0x115A JUMP JUMPDEST SWAP1 SWAP2 SSTORE POP POP TIMESTAMP PUSH1 0x1 DUP3 ADD SSTORE PUSH1 0x40 MLOAD PUSH1 0x1 PUSH1 0x1 PUSH1 0xA0 SHL SUB DUP5 AND SWAP1 PUSH32 0x7CC735DE8C926C9E76ECC49DC139E249AD8BF284BF93DC0E357A892D118FED68 SWAP1 PUSH2 0xE4B SWAP1 DUP6 SWAP1 PUSH2 0x1173 JUMP JUMPDEST PUSH1 0x40 MLOAD DUP1 SWAP2 SUB SWAP1 LOG2 DUP1 SLOAD PUSH1 0xA GT PUSH2 0xEA0 JUMPI PUSH1 0x2 DUP2 ADD DUP1 SLOAD PUSH1 0xFF NOT AND PUSH1 0x1 OR SWAP1 SSTORE PUSH1 0x40 MLOAD PUSH1 0x1 PUSH1 0x1 PUSH1 0xA0 SHL SUB DUP5 AND SWAP1 PUSH32 0xDAF49AB9345B6CB75BCB5A7F726BFF9183C34DCF5C098C385730F9FD893765F6 SWAP1 PUSH1 0x0 SWAP1 LOG2 JUMPDEST POP POP POP JUMP JUMPDEST PUSH1 0x0 DUP1 PUSH1 0x40 DUP4 DUP6 SUB SLT ISZERO PUSH2 0xEB8 JUMPI PUSH1 0x0 DUP1 REVERT JUMPDEST POP POP DUP1 CALLDATALOAD SWAP3 PUSH1 0x20 SWAP1 SWAP2 ADD CALLDATALOAD SWAP2 POP JUMP JUMPDEST PUSH1 0x0 PUSH1 0x20 DUP3 DUP5 SUB SLT ISZERO PUSH2 0xED9 JUMPI PUSH1 0x0 DUP1 REVERT JUMPDEST DUP2 CALLDATALOAD PUSH1 0x1 PUSH1 0x1 PUSH1 0xA0 SHL SUB DUP2 AND DUP2 EQ PUSH2 0xEF0 JUMPI PUSH1 0x0 DUP1 REVERT JUMPDEST SWAP4 SWAP3 POP POP POP JUMP JUMPDEST PUSH4 0x4E487B71 PUSH1 0xE0 SHL PUSH1 0x0 MSTORE PUSH1 0x41 PUSH1 0x4 MSTORE PUSH1 0x24 PUSH1 0x0 REVERT JUMPDEST PUSH1 0x40 MLOAD PUSH1 0x1F DUP3 ADD PUSH1 0x1F NOT AND DUP2 ADD PUSH8 0xFFFFFFFFFFFFFFFF DUP2 GT DUP3 DUP3 LT OR ISZERO PUSH2 0xF36 JUMPI PUSH2 0xF36 PUSH2 0xEF7 JUMP JUMPDEST PUSH1 0x40 MSTORE SWAP2 SWAP1 POP JUMP JUMPDEST PUSH1 0x0 DUP3 PUSH1 0x1F DUP4 ADD SLT PUSH2 0xF4F JUMPI PUSH1 0x0 DUP1 REVERT JUMPDEST DUP2 CALLDATALOAD PUSH1 0x20 PUSH8 0xFFFFFFFFFFFFFFFF DUP3 GT ISZERO PUSH2 0xF6B JUMPI PUSH2 0xF6B PUSH2 0xEF7 JUMP JUMPDEST DUP2 PUSH1 0x5 SHL PUSH2 0xF7A DUP3 DUP3 ADD PUSH2 0xF0D JUMP JUMPDEST SWAP3 DUP4 MSTORE DUP5 DUP2 ADD DUP3 ADD SWAP3 DUP3 DUP2 ADD SWAP1 DUP8 DUP6 GT ISZERO PUSH2 0xF94 JUMPI PUSH1 0x0 DUP1 REVERT JUMPDEST DUP4 DUP8 ADD SWAP3 POP JUMPDEST DUP5 DUP4 LT ISZERO PUSH2 0xFB3 JUMPI DUP3 CALLDATALOAD DUP3 MSTORE SWAP2 DUP4 ADD SWAP2 SWAP1 DUP4 ADD SWAP1 PUSH2 0xF9A JUMP JUMPDEST SWAP8 SWAP7 POP POP POP POP POP POP POP JUMP JUMPDEST PUSH1 0x0 DUP1 PUSH1 0x0 PUSH1 0x60 DUP5 DUP7 SUB SLT ISZERO PUSH2 0xFD3 JUMPI PUSH1 0x0 DUP1 REVERT JUMPDEST DUP4 CALLDATALOAD PUSH8 0xFFFFFFFFFFFFFFFF DUP1 DUP3 GT ISZERO PUSH2 0xFEB JUMPI PUSH1 0x0 DUP1 REVERT JUMPDEST DUP2 DUP7 ADD SWAP2 POP DUP7 PUSH1 0x1F DUP4 ADD SLT PUSH2 0xFFF JUMPI PUSH1 0x0 DUP1 REVERT JUMPDEST DUP2 CALLDATALOAD PUSH1 0x20 DUP3 DUP3 GT ISZERO PUSH2 0x1013 JUMPI PUSH2 0x1013 PUSH2 0xEF7 JUMP JUMPDEST PUSH2 0x1025 PUSH1 0x1F DUP4 ADD PUSH1 0x1F NOT AND DUP3 ADD PUSH2 0xF0D JUMP JUMPDEST DUP3 DUP2 MSTORE DUP10 DUP3 DUP5 DUP8 ADD ADD GT ISZERO PUSH2 0x1039 JUMPI PUSH1 0x0 DUP1 REVERT JUMPDEST DUP3 DUP3 DUP7 ADD DUP4 DUP4 ADD CALLDATACOPY PUSH1 0x0 SWAP3 DUP2 ADD DUP3 ADD SWAP3 SWAP1 SWAP3 MSTORE SWAP1 SWAP6 POP DUP7 ADD CALLDATALOAD SWAP2 POP DUP1 DUP3 GT ISZERO PUSH2 0x1061 JUMPI PUSH1 0x0 DUP1 REVERT JUMPDEST POP PUSH2 0x106E DUP7 DUP3 DUP8 ADD PUSH2 0xF3E JUMP JUMPDEST SWAP3 POP POP PUSH1 0x40 DUP5 ADD CALLDATALOAD SWAP1 POP SWAP3 POP SWAP3 POP SWAP3 JUMP JUMPDEST PUSH1 0x0 PUSH1 0x20 DUP3 DUP5 SUB SLT ISZERO PUSH2 0x1091 JUMPI PUSH1 0x0 DUP1 REVERT JUMPDEST POP CALLDATALOAD SWAP2 SWAP1 POP JUMP JUMPDEST PUSH4 0x4E487B71 PUSH1 0xE0 SHL PUSH1 0x0 MSTORE PUSH1 0x11 PUSH1 0x4 MSTORE PUSH1 0x24 PUSH1 0x0 REVERT JUMPDEST DUP1 DUP3 ADD DUP1 DUP3 GT ISZERO PUSH2 0x487 JUMPI PUSH2 0x487 PUSH2 0x1098 JUMP JUMPDEST PUSH1 0x0 JUMPDEST DUP4 DUP2 LT ISZERO PUSH2 0x10DC JUMPI DUP2 DUP2 ADD MLOAD DUP4 DUP3 ADD MSTORE PUSH1 0x20 ADD PUSH2 0x10C4 JUMP JUMPDEST POP POP PUSH1 0x0 SWAP2 ADD MSTORE JUMP JUMPDEST PUSH1 0x0 DUP5 MLOAD PUSH1 0x20 PUSH2 0x10F8 DUP3 DUP6 DUP4 DUP11 ADD PUSH2 0x10C1 JUMP JUMPDEST DUP6 MLOAD SWAP2 DUP5 ADD SWAP2 DUP2 DUP8 ADD PUSH1 0x0 JUMPDEST DUP3 DUP2 LT ISZERO PUSH2 0x1120 JUMPI DUP2 MLOAD DUP6 MSTORE SWAP4 DUP4 ADD SWAP4 SWAP1 DUP4 ADD SWAP1 PUSH1 0x1 ADD PUSH2 0x1104 JUMP JUMPDEST POP POP POP SWAP4 DUP2 MSTORE SWAP1 SWAP3 ADD SWAP5 SWAP4 POP POP POP POP JUMP JUMPDEST PUSH4 0x4E487B71 PUSH1 0xE0 SHL PUSH1 0x0 MSTORE PUSH1 0x32 PUSH1 0x4 MSTORE PUSH1 0x24 PUSH1 0x0 REVERT JUMPDEST DUP2 DUP2 SUB DUP2 DUP2 GT ISZERO PUSH2 0x487 JUMPI PUSH2 0x487 PUSH2 0x1098 JUMP JUMPDEST PUSH1 0x0 PUSH1 0x1 DUP3 ADD PUSH2 0x116C JUMPI PUSH2 0x116C PUSH2 0x1098 JUMP JUMPDEST POP PUSH1 0x1 ADD SWAP1 JUMP JUMPDEST PUSH1 0x20 DUP2 MSTORE PUSH1 0x0 DUP3 MLOAD DUP1 PUSH1 0x20 DUP5 ADD MSTORE PUSH2 0x1192 DUP2 PUSH1 0x40 DUP6 ADD PUSH1 0x20 DUP8 ADD PUSH2 0x10C1 JUMP JUMPDEST PUSH1 0x1F ADD PUSH1 0x1F NOT AND SWAP2 SWAP1 SWAP2 ADD PUSH1 0x40 ADD SWAP3 SWAP2 POP POP JUMP INVALID LOG2 PUSH5 0x6970667358 0x22 SLT KECCAK256 0xD8 CHAINID EXP SWAP14 CODESIZE 0xBB 0xD0 0xE8 SUB PUSH20 0x36D3C76C33D2DA05458EB9D994E51587117C9857 0xD8 SWAP16 PUSH5 0x736F6C6343 STOP ADDMOD EQ STOP CALLER "},"methodIdentifiers":{"COMMIT_TIMEOUT()":"633ec402","MIN_PROOF_INTERVAL()":"8030665c","RATE_LIMIT_WINDOW()":"7130dfc9","addToWhitelist(address)":"e43252d7","anomalyScores(address)":"e72edadc","blacklistAddress(address)":"f3290d75","canSubmitProof(address)":"b6cffa14","commitProof(bytes32)":"df2a1be3","commits(address)":"7b43a8e6","getAnomalyScore(address)":"372cddd6","getRateLimitStatus(address)":"eab8e2b8","isNullifierRecent(bytes32,uint256)":"1d4211fd","isProofFresh(uint256,uint256)":"7bcee2a8","maxProofsPerDay()":"223f4b66","nullifierBlocks(bytes32)":"90ce91ea","owner()":"8da5cb5b","paused()":"5c975abb","rateLimits(address)":"7a14c7d2","removeFromBlacklist(address)":"537df3b6","removeFromWhitelist(address)":"8ab1d681","revealProof(bytes,uint256[],bytes32)":"770d96ce","setRateLimit(uint256)":"c287184e","togglePause()":"c4ae3168","transferOwnership(address)":"f2fde38b","whitelist(address)":"9b19251a"}}}}}