{"contracts/LenderIntegration.sol":{"LenderIntegration":{"abi":[{"inputs":[{"internalType":"address","name":"_scoreRegistry","type":"address"},{"internalType":"uint256","name":"_initialThreshold","type":"uint256"}],"stateMutability":"nonpayable","type":"constructor"},{"inputs":[],"name":"CreditScoreExpired","type":"error"},{"inputs":[],"name":"ExceedsBorrowLimit","type":"error"},{"inputs":[{"internalType":"uint256","name":"required","type":"uint256"},{"internalType":"uint256","name":"actual","type":"uint256"}],"name":"InsufficientCreditScore","type":"error"},{"inputs":[],"name":"NoCreditScore","type":"error"},{"inputs":[],"name":"NothingToBorrow","type":"error"},{"inputs":[],"name":"NothingToRepay","type":"error"},{"inputs":[],"name":"Unauthorized","type":"error"},{"anonymous":false,"inputs":[{"indexed":true,"internalType":"address","name":"user","type":"address"},{"indexed":false,"internalType":"uint256","name":"limit","type":"uint256"}],"name":"BorrowLimitSet","type":"event"},{"anonymous":false,"inputs":[{"indexed":true,"internalType":"address","name":"user","type":"address"},{"indexed":false,"internalType":"uint256","name":"amount","type":"uint256"}],"name":"Borrowed","type":"event"},{"anonymous":false,"inputs":[{"indexed":true,"internalType":"address","name":"user","type":"address"},{"indexed":false,"internalType":"uint256","name":"amount","type":"uint256"}],"name":"Repaid","type":"event"},{"anonymous":false,"inputs":[{"indexed":false,"internalType":"uint256","name":"oldThreshold","type":"uint256"},{"indexed":false,"internalType":"uint256","name":"newThreshold","type":"uint256"}],"name":"ThresholdUpdated","type":"event"},{"inputs":[{"internalType":"uint256","name":"amount","type":"uint256"}],"name":"borrow","outputs":[],"stateMutability":"nonpayable","type":"function"},{"inputs":[{"internalType":"address","name":"","type":"address"}],"name":"borrowLimits","outputs":[{"internalType":"uint256","name":"","type":"uint256"}],"stateMutability":"view","type":"function"},{"inputs":[],"name":"borrowThreshold","outputs":[{"internalType":"uint256","name":"","type":"uint256"}],"stateMutability":"view","type":"function"},{"inputs":[{"internalType":"address","name":"","type":"address"}],"name":"borrowed","outputs":[{"internalType":"uint256","name":"","type":"uint256"}],"stateMutability":"view","type":"function"},{"inputs":[{"internalType":"address","name":"user","type":"address"}],"name":"checkEligibility","outputs":[{"internalType":"bool","name":"eligible","type":"bool"},{"internalType":"uint256","name":"score","type":"uint256"},{"internalType":"uint256","name":"availableLimit","type":"uint256"}],"stateMutability":"view","type":"function"},{"inputs":[{"internalType":"address","name":"user","type":"address"}],"name":"getTimeUntilExpiry","outputs":[{"internalType":"uint256","name":"","type":"uint256"}],"stateMutability":"view","type":"function"},{"inputs":[{"internalType":"address","name":"user","type":"address"}],"name":"isProofFresh","outputs":[{"internalType":"bool","name":"","type":"bool"}],"stateMutability":"view","type":"function"},{"inputs":[],"name":"owner","outputs":[{"internalType":"address","name":"","type":"address"}],"stateMutability":"view","type":"function"},{"inputs":[],"name":"repay","outputs":[],"stateMutability":"payable","type":"function"},{"inputs":[],"name":"scoreRegistry","outputs":[{"internalType":"contract DeFiScoreRegistry","name":"","type":"address"}],"stateMutability":"view","type":"function"},{"inputs":[{"internalType":"address","name":"user","type":"address"},{"internalType":"uint256","name":"limit","type":"uint256"}],"name":"setBorrowLimit","outputs":[],"stateMutability":"nonpayable","type":"function"},{"inputs":[{"internalType":"address[]","name":"users","type":"address[]"},{"internalType":"uint256[]","name":"limits","type":"uint256[]"}],"name":"setBorrowLimitsBatch","outputs":[],"stateMutability":"nonpayable","type":"function"},{"inputs":[{"internalType":"uint256","name":"newThreshold","type":"uint256"}],"name":"setThreshold","outputs":[],"stateMutability":"nonpayable","type":"function"},{"inputs":[],"name":"withdraw","outputs":[],"stateMutability":"nonpayable","type":"function"},{"stateMutability":"payable","type":"receive"}],"evm":{"bytecode":{"linkReferences":{},"object":"60a060405234801561001057600080fd5b5060405161118138038061118183398101604081905261002f91610057565b6001600160a01b03909116608052600055600180546001600160a01b03191633179055610091565b6000806040838503121561006a57600080fd5b82516001600160a01b038116811461008157600080fd5b6020939093015192949293505050565b6080516110966100eb6000396000818161018301528181610514015281816105a901528181610644015281816106d80152818161077901528181610a4001528181610bfd01528181610c930152610d4301526110966000f3fe6080604052600436106100e15760003560e01c80635ae547e31161007f5780638da5cb5b116100595780638da5cb5b14610288578063924c8490146102a8578063960bfe04146102c8578063c5ebeaec146102e857600080fd5b80635ae547e3146102055780635bfc8dfd1461021b5780637723bafb1461024b57600080fd5b80633eb8104a116100bb5780633eb8104a14610171578063402d8883146101bd5780634722b16a146101c557806358e891a2146101e557600080fd5b80630941cb3d146100ed578063274014e81461012d5780633ccfd60b1461015a57600080fd5b366100e857005b600080fd5b3480156100f957600080fd5b5061011a610108366004610e12565b60036020526000908152604090205481565b6040519081526020015b60405180910390f35b34801561013957600080fd5b5061011a610148366004610e12565b60026020526000908152604090205481565b34801561016657600080fd5b5061016f610308565b005b34801561017d57600080fd5b506101a57f000000000000000000000000000000000000000000000000000000000000000081565b6040516001600160a01b039091168152602001610124565b61016f61036e565b3480156101d157600080fd5b5061016f6101e0366004610e34565b61046f565b3480156101f157600080fd5b5061011a610200366004610e12565b6104f2565b34801561021157600080fd5b5061011a60005481565b34801561022757600080fd5b5061023b610236366004610e12565b610587565b6040519015158152602001610124565b34801561025757600080fd5b5061026b610266366004610e12565b610616565b604080519315158452602084019290925290820152606001610124565b34801561029457600080fd5b506001546101a5906001600160a01b031681565b3480156102b457600080fd5b5061016f6102c3366004610eaa565b61083e565b3480156102d457600080fd5b5061016f6102e3366004610f16565b6109b1565b3480156102f457600080fd5b5061016f610303366004610f16565b610ae2565b6001546001600160a01b03163314610332576040516282b42960e81b815260040160405180910390fd5b6001546040516001600160a01b03909116904780156108fc02916000818181858888f1935050505015801561036b573d6000803e3d6000fd5b50565b3460000361038f576040516369973fe360e11b815260040160405180910390fd5b33600090815260036020526040812054908190036103c0576040516369973fe360e11b815260040160405180910390fd5b80341061041c57336000908152600360205260408120553481101561041757336108fc6103ed8334610f45565b6040518115909202916000818181858888f19350505050158015610415573d6000803e3d6000fd5b505b610437565b6104263482610f45565b336000908152600360205260409020555b60405134815233907f0516911bcc3a0a7412a44601057c0a0a1ec628bde049a84284bc4288665344889060200160405180910390a250565b6001546001600160a01b03163314610499576040516282b42960e81b815260040160405180910390fd5b6001600160a01b03821660008181526002602052604090819020839055517f4e65bc780542c4acda0e928b0765b9c4373523442b3226d20067683fa56bb653906104e69084815260200190565b60405180910390a25050565b604051632c7448d160e11b81526001600160a01b0382811660048301526000917f0000000000000000000000000000000000000000000000000000000000000000909116906358e891a290602401602060405180830381865afa15801561055d573d6000803e3d6000fd5b505050506040513d601f19601f820116820180604052508101906105819190610f58565b92915050565b604051635bfc8dfd60e01b81526001600160a01b0382811660048301526000917f000000000000000000000000000000000000000000000000000000000000000090911690635bfc8dfd90602401602060405180830381865afa1580156105f2573d6000803e3d6000fd5b505050506040513d601f19601f820116820180604052508101906105819190610f81565b60405163fb8cfd0160e01b81526001600160a01b0382811660048301523060248301526000918291829182917f0000000000000000000000000000000000000000000000000000000000000000169063fb8cfd0190604401602060405180830381865afa15801561068b573d6000803e3d6000fd5b505050506040513d601f19601f820116820180604052508101906106af9190610f81565b90508061075757604051633b17629d60e21b81526001600160a01b0386811660048301526000917f00000000000000000000000000000000000000000000000000000000000000009091169063ec5d8a749060240160a060405180830381865afa158015610721573d6000803e3d6000fd5b505050506040513d601f19601f820116820180604052508101906107459190610f9c565b51600095509350849250610837915050565b604051633b17629d60e21b81526001600160a01b0386811660048301526000917f00000000000000000000000000000000000000000000000000000000000000009091169063ec5d8a749060240160a060405180830381865afa1580156107c2573d6000803e3d6000fd5b505050506040513d601f19601f820116820180604052508101906107e69190610f9c565b6001600160a01b0387166000908152600260209081526040808320546003909252822054929350919081831161081d576000610827565b6108278284610f45565b9351600198509650929450505050505b9193909250565b6001546001600160a01b03163314610868576040516282b42960e81b815260040160405180910390fd5b8281146108ae5760405162461bcd60e51b815260206004820152600f60248201526e098cadccee8d040dad2e6dac2e8c6d608b1b60448201526064015b60405180910390fd5b60005b838110156109aa578282828181106108cb576108cb61101e565b90506020020135600260008787858181106108e8576108e861101e565b90506020020160208101906108fd9190610e12565b6001600160a01b031681526020810191909152604001600020558484828181106109295761092961101e565b905060200201602081019061093e9190610e12565b6001600160a01b03167f4e65bc780542c4acda0e928b0765b9c4373523442b3226d20067683fa56bb65384848481811061097a5761097a61101e565b9050602002013560405161099091815260200190565b60405180910390a2806109a281611034565b9150506108b1565b5050505050565b6001546001600160a01b031633146109db576040516282b42960e81b815260040160405180910390fd5b620dbba0811115610a225760405162461bcd60e51b8152602060048201526011602482015270125b9d985b1a59081d1a1c995cda1bdb19607a1b60448201526064016108a5565b6000805490829055604051632582ff8160e21b8152600481018390527f00000000000000000000000000000000000000000000000000000000000000006001600160a01b03169063960bfe0490602401600060405180830381600087803b158015610a8c57600080fd5b505af1158015610aa0573d6000803e3d6000fd5b505060408051848152602081018690527fb06a54caabe58475c86c2bf9df3f2f06dd1213e9e10659c293117fe4893b274b935001905060405180910390a15050565b80600003610b0357604051631797905760e01b815260040160405180910390fd5b610b0c33610bd5565b3360009081526002602090815260408083205460039092529091205481610b33848361104d565b1115610b52576040516397ba4de360e01b815260040160405180910390fd5b610b5c838261104d565b33600081815260036020526040808220939093559151909185156108fc02918691818181858888f19350505050158015610b9a573d6000803e3d6000fd5b5060405183815233907fac59582e5396aca512fa873a2047e7f4c80f8f55d4a06cb34a78a0187f62719f9060200160405180910390a2505050565b60405163fb8cfd0160e01b81526001600160a01b0382811660048301523060248301526000917f00000000000000000000000000000000000000000000000000000000000000009091169063fb8cfd0190604401602060405180830381865afa158015610c46573d6000803e3d6000fd5b505050506040513d601f19601f82011682018060405250810190610c6a9190610f81565b905080610df257604051633b17629d60e21b81526001600160a01b0383811660048301526000917f00000000000000000000000000000000000000000000000000000000000000009091169063ec5d8a749060240160a060405180830381865afa158015610cdc573d6000803e3d6000fd5b505050506040513d601f19601f82011682018060405250810190610d009190610f9c565b90508060800151610d2457604051631c2816eb60e11b815260040160405180910390fd5b604051635bfc8dfd60e01b81526001600160a01b0384811660048301527f00000000000000000000000000000000000000000000000000000000000000001690635bfc8dfd90602401602060405180830381865afa158015610d8a573d6000803e3d6000fd5b505050506040513d601f19601f82011682018060405250810190610dae9190610f81565b610dcb5760405163284bfa7160e21b815260040160405180910390fd5b600054815160405163461c464160e11b8152600481019290925260248201526044016108a5565b5050565b80356001600160a01b0381168114610e0d57600080fd5b919050565b600060208284031215610e2457600080fd5b610e2d82610df6565b9392505050565b60008060408385031215610e4757600080fd5b610e5083610df6565b946020939093013593505050565b60008083601f840112610e7057600080fd5b50813567ffffffffffffffff811115610e8857600080fd5b6020830191508360208260051b8501011115610ea357600080fd5b9250929050565b60008060008060408587031215610ec057600080fd5b843567ffffffffffffffff80821115610ed857600080fd5b610ee488838901610e5e565b90965094506020870135915080821115610efd57600080fd5b50610f0a87828801610e5e565b95989497509550505050565b600060208284031215610f2857600080fd5b5035919050565b634e487b7160e01b600052601160045260246000fd5b8181038181111561058157610581610f2f565b600060208284031215610f6a57600080fd5b5051919050565b80518015158114610e0d57600080fd5b600060208284031215610f9357600080fd5b610e2d82610f71565b600060a08284031215610fae57600080fd5b60405160a0810181811067ffffffffffffffff82111715610fdf57634e487b7160e01b600052604160045260246000fd5b80604052508251815260208301516020820152604083015160408201526060830151606082015261101260808401610f71565b60808201529392505050565b634e487b7160e01b600052603260045260246000fd5b60006001820161104657611046610f2f565b5060010190565b8082018082111561058157610581610f2f56fea264697066735822122025a7c2d3935bdd03eb989608723bf511bfe1bfa4c8eeaea2b7fb33927e3cd13b64736f6c63430008140033","opcodes":"PUSH1 0xA0 PUSH1 0x40 MSTORE CALLVALUE DUP1 ISZERO PUSH2 0x10 JUMPI PUSH1 0x0 DUP1 REVERT JUMPDEST POP PUSH1 0x40 MLOAD PUSH2 0x1181 CODESIZE SUB DUP1 PUSH2 0x1181 DUP4 CODECOPY DUP2 ADD PUSH1 0x40 DUP2 SWAP1 MSTORE PUSH2 0x2F SWAP2 PUSH2 0x57 JUMP JUMPDEST PUSH1 0x1 PUSH1 0x1 PUSH1 0xA0 SHL SUB SWAP1 SWAP2 AND PUSH1 0x80 MSTORE PUSH1 0x0 SSTORE PUSH1 0x1 DUP1 SLOAD PUSH1 0x1 PUSH1 0x1 PUSH1 0xA0 SHL SUB NOT AND CALLER OR SWAP1 SSTORE PUSH2 0x91 JUMP JUMPDEST PUSH1 0x0 DUP1 PUSH1 0x40 DUP4 DUP6 SUB SLT ISZERO PUSH2 0x6A JUMPI PUSH1 0x0 DUP1 REVERT JUMPDEST DUP3 MLOAD PUSH1 0x1 PUSH1 0x1 PUSH1 0xA0 SHL SUB DUP2 AND DUP2 EQ PUSH2 0x81 JUMPI PUSH1 0x0 DUP1 REVERT JUMPDEST PUSH1 0x20 SWAP4 SWAP1 SWAP4 ADD MLOAD SWAP3 SWAP5 SWAP3 SWAP4 POP POP POP JUMP JUMPDEST PUSH1 0x80 MLOAD PUSH2 0x1096 PUSH2 0xEB PUSH1 0x0 CODECOPY PUSH1 0x0 DUP2 DUP2 PUSH2 0x183 ADD MSTORE DUP2 DUP2 PUSH2 0x514 ADD MSTORE DUP2 DUP2 PUSH2 0x5A9 ADD MSTORE DUP2 DUP2 PUSH2 0x644 ADD MSTORE DUP2 DUP2 PUSH2 0x6D8 ADD MSTORE DUP2 DUP2 PUSH2 0x779 ADD MSTORE DUP2 DUP2 PUSH2 0xA40 ADD MSTORE DUP2 DUP2 PUSH2 0xBFD ADD MSTORE DUP2 DUP2 PUSH2 0xC93 ADD MSTORE PUSH2 0xD43 ADD MSTORE PUSH2 0x1096 PUSH1 0x0 RETURN INVALID PUSH1 0x80 PUSH1 0x40 MSTORE PUSH1 0x4 CALLDATASIZE LT PUSH2 0xE1 JUMPI PUSH1 0x0 CALLDATALOAD PUSH1 0xE0 SHR DUP1 PUSH4 0x5AE547E3 GT PUSH2 0x7F JUMPI DUP1 PUSH4 0x8DA5CB5B GT PUSH2 0x59 JUMPI DUP1 PUSH4 0x8DA5CB5B EQ PUSH2 0x288 JUMPI DUP1 PUSH4 0x924C8490 EQ PUSH2 0x2A8 JUMPI DUP1 PUSH4 0x960BFE04 EQ PUSH2 0x2C8 JUMPI DUP1 PUSH4 0xC5EBEAEC EQ PUSH2 0x2E8 JUMPI PUSH1 0x0 DUP1 REVERT JUMPDEST DUP1 PUSH4 0x5AE547E3 EQ PUSH2 0x205 JUMPI DUP1 PUSH4 0x5BFC8DFD EQ PUSH2 0x21B JUMPI DUP1 PUSH4 0x7723BAFB EQ PUSH2 0x24B JUMPI PUSH1 0x0 DUP1 REVERT JUMPDEST DUP1 PUSH4 0x3EB8104A GT PUSH2 0xBB JUMPI DUP1 PUSH4 0x3EB8104A EQ PUSH2 0x171 JUMPI DUP1 PUSH4 0x402D8883 EQ PUSH2 0x1BD JUMPI DUP1 PUSH4 0x4722B16A EQ PUSH2 0x1C5 JUMPI DUP1 PUSH4 0x58E891A2 EQ PUSH2 0x1E5 JUMPI PUSH1 0x0 DUP1 REVERT JUMPDEST DUP1 PUSH4 0x941CB3D EQ PUSH2 0xED JUMPI DUP1 PUSH4 0x274014E8 EQ PUSH2 0x12D JUMPI DUP1 PUSH4 0x3CCFD60B EQ PUSH2 0x15A JUMPI PUSH1 0x0 DUP1 REVERT JUMPDEST CALLDATASIZE PUSH2 0xE8 JUMPI STOP JUMPDEST PUSH1 0x0 DUP1 REVERT JUMPDEST CALLVALUE DUP1 ISZERO PUSH2 0xF9 JUMPI PUSH1 0x0 DUP1 REVERT JUMPDEST POP PUSH2 0x11A PUSH2 0x108 CALLDATASIZE PUSH1 0x4 PUSH2 0xE12 JUMP JUMPDEST PUSH1 0x3 PUSH1 0x20 MSTORE PUSH1 0x0 SWAP1 DUP2 MSTORE PUSH1 0x40 SWAP1 KECCAK256 SLOAD DUP2 JUMP JUMPDEST PUSH1 0x40 MLOAD SWAP1 DUP2 MSTORE PUSH1 0x20 ADD JUMPDEST PUSH1 0x40 MLOAD DUP1 SWAP2 SUB SWAP1 RETURN JUMPDEST CALLVALUE DUP1 ISZERO PUSH2 0x139 JUMPI PUSH1 0x0 DUP1 REVERT JUMPDEST POP PUSH2 0x11A PUSH2 0x148 CALLDATASIZE PUSH1 0x4 PUSH2 0xE12 JUMP JUMPDEST PUSH1 0x2 PUSH1 0x20 MSTORE PUSH1 0x0 SWAP1 DUP2 MSTORE PUSH1 0x40 SWAP1 KECCAK256 SLOAD DUP2 JUMP JUMPDEST CALLVALUE DUP1 ISZERO PUSH2 0x166 JUMPI PUSH1 0x0 DUP1 REVERT JUMPDEST POP PUSH2 0x16F PUSH2 0x308 JUMP JUMPDEST STOP JUMPDEST CALLVALUE DUP1 ISZERO PUSH2 0x17D JUMPI PUSH1 0x0 DUP1 REVERT JUMPDEST POP PUSH2 0x1A5 PUSH32 0x0 DUP2 JUMP JUMPDEST PUSH1 0x40 MLOAD PUSH1 0x1 PUSH1 0x1 PUSH1 0xA0 SHL SUB SWAP1 SWAP2 AND DUP2 MSTORE PUSH1 0x20 ADD PUSH2 0x124 JUMP JUMPDEST PUSH2 0x16F PUSH2 0x36E JUMP JUMPDEST CALLVALUE DUP1 ISZERO PUSH2 0x1D1 JUMPI PUSH1 0x0 DUP1 REVERT JUMPDEST POP PUSH2 0x16F PUSH2 0x1E0 CALLDATASIZE PUSH1 0x4 PUSH2 0xE34 JUMP JUMPDEST PUSH2 0x46F JUMP JUMPDEST CALLVALUE DUP1 ISZERO PUSH2 0x1F1 JUMPI PUSH1 0x0 DUP1 REVERT JUMPDEST POP PUSH2 0x11A PUSH2 0x200 CALLDATASIZE PUSH1 0x4 PUSH2 0xE12 JUMP JUMPDEST PUSH2 0x4F2 JUMP JUMPDEST CALLVALUE DUP1 ISZERO PUSH2 0x211 JUMPI PUSH1 0x0 DUP1 REVERT JUMPDEST POP PUSH2 0x11A PUSH1 0x0 SLOAD DUP2 JUMP JUMPDEST CALLVALUE DUP1 ISZERO PUSH2 0x227 JUMPI PUSH1 0x0 DUP1 REVERT JUMPDEST POP PUSH2 0x23B PUSH2 0x236 CALLDATASIZE PUSH1 0x4 PUSH2 0xE12 JUMP JUMPDEST PUSH2 0x587 JUMP JUMPDEST PUSH1 0x40 MLOAD SWAP1 ISZERO ISZERO DUP2 MSTORE PUSH1 0x20 ADD PUSH2 0x124 JUMP JUMPDEST CALLVALUE DUP1 ISZERO PUSH2 0x257 JUMPI PUSH1 0x0 DUP1 REVERT JUMPDEST POP PUSH2 0x26B PUSH2 0x266 CALLDATASIZE PUSH1 0x4 PUSH2 0xE12 JUMP JUMPDEST PUSH2 0x616 JUMP JUMPDEST PUSH1 0x40 DUP1 MLOAD SWAP4 ISZERO ISZERO DUP5 MSTORE PUSH1 0x20 DUP5 ADD SWAP3 SWAP1 SWAP3 MSTORE SWAP1 DUP3 ADD MSTORE PUSH1 0x60 ADD PUSH2 0x124 JUMP JUMPDEST CALLVALUE DUP1 ISZERO PUSH2 0x294 JUMPI PUSH1 0x0 DUP1 REVERT JUMPDEST POP PUSH1 0x1 SLOAD PUSH2 0x1A5 SWAP1 PUSH1 0x1 PUSH1 0x1 PUSH1 0xA0 SHL SUB AND DUP2 JUMP JUMPDEST CALLVALUE DUP1 ISZERO PUSH2 0x2B4 JUMPI PUSH1 0x0 DUP1 REVERT JUMPDEST POP PUSH2 0x16F PUSH2 0x2C3 CALLDATASIZE PUSH1 0x4 PUSH2 0xEAA JUMP JUMPDEST PUSH2 0x83E JUMP JUMPDEST CALLVALUE DUP1 ISZERO PUSH2 0x2D4 JUMPI PUSH1 0x0 DUP1 REVERT JUMPDEST POP PUSH2 0x16F PUSH2 0x2E3 CALLDATASIZE PUSH1 0x4 PUSH2 0xF16 JUMP JUMPDEST PUSH2 0x9B1 JUMP JUMPDEST CALLVALUE DUP1 ISZERO PUSH2 0x2F4 JUMPI PUSH1 0x0 DUP1 REVERT JUMPDEST POP PUSH2 0x16F PUSH2 0x303 CALLDATASIZE PUSH1 0x4 PUSH2 0xF16 JUMP JUMPDEST PUSH2 0xAE2 JUMP JUMPDEST PUSH1 0x1 SLOAD PUSH1 0x1 PUSH1 0x1 PUSH1 0xA0 SHL SUB AND CALLER EQ PUSH2 0x332 JUMPI PUSH1 0x40 MLOAD PUSH3 0x82B429 PUSH1 0xE8 SHL DUP2 MSTORE PUSH1 0x4 ADD PUSH1 0x40 MLOAD DUP1 SWAP2 SUB SWAP1 REVERT JUMPDEST PUSH1 0x1 SLOAD PUSH1 0x40 MLOAD PUSH1 0x1 PUSH1 0x1 PUSH1 0xA0 SHL SUB SWAP1 SWAP2 AND SWAP1 SELFBALANCE DUP1 ISZERO PUSH2 0x8FC MUL SWAP2 PUSH1 0x0 DUP2 DUP2 DUP2 DUP6 DUP9 DUP9 CALL SWAP4 POP POP POP POP ISZERO DUP1 ISZERO PUSH2 0x36B JUMPI RETURNDATASIZE PUSH1 0x0 DUP1 RETURNDATACOPY RETURNDATASIZE PUSH1 0x0 REVERT JUMPDEST POP JUMP JUMPDEST CALLVALUE PUSH1 0x0 SUB PUSH2 0x38F JUMPI PUSH1 0x40 MLOAD PUSH4 0x69973FE3 PUSH1 0xE1 SHL DUP2 MSTORE PUSH1 0x4 ADD PUSH1 0x40 MLOAD DUP1 SWAP2 SUB SWAP1 REVERT JUMPDEST CALLER PUSH1 0x0 SWAP1 DUP2 MSTORE PUSH1 0x3 PUSH1 0x20 MSTORE PUSH1 0x40 DUP2 KECCAK256 SLOAD SWAP1 DUP2 SWAP1 SUB PUSH2 0x3C0 JUMPI PUSH1 0x40 MLOAD PUSH4 0x69973FE3 PUSH1 0xE1 SHL DUP2 MSTORE PUSH1 0x4 ADD PUSH1 0x40 MLOAD DUP1 SWAP2 SUB SWAP1 REVERT JUMPDEST DUP1 CALLVALUE LT PUSH2 0x41C JUMPI CALLER PUSH1 0x0 SWAP1 DUP2 MSTORE PUSH1 0x3 PUSH1 0x20 MSTORE PUSH1 0x40 DUP2 KECCAK256 SSTORE CALLVALUE DUP2 LT ISZERO PUSH2 0x417 JUMPI CALLER PUSH2 0x8FC PUSH2 0x3ED DUP4 CALLVALUE PUSH2 0xF45 JUMP JUMPDEST PUSH1 0x40 MLOAD DUP2 ISZERO SWAP1 SWAP3 MUL SWAP2 PUSH1 0x0 DUP2 DUP2 DUP2 DUP6 DUP9 DUP9 CALL SWAP4 POP POP POP POP ISZERO DUP1 ISZERO PUSH2 0x415 JUMPI RETURNDATASIZE PUSH1 0x0 DUP1 RETURNDATACOPY RETURNDATASIZE PUSH1 0x0 REVERT JUMPDEST POP JUMPDEST PUSH2 0x437 JUMP JUMPDEST PUSH2 0x426 CALLVALUE DUP3 PUSH2 0xF45 JUMP JUMPDEST CALLER PUSH1 0x0 SWAP1 DUP2 MSTORE PUSH1 0x3 PUSH1 0x20 MSTORE PUSH1 0x40 SWAP1 KECCAK256 SSTORE JUMPDEST PUSH1 0x40 MLOAD CALLVALUE DUP2 MSTORE CALLER SWAP1 PUSH32 0x516911BCC3A0A7412A44601057C0A0A1EC628BDE049A84284BC428866534488 SWAP1 PUSH1 0x20 ADD PUSH1 0x40 MLOAD DUP1 SWAP2 SUB SWAP1 LOG2 POP JUMP JUMPDEST PUSH1 0x1 SLOAD PUSH1 0x1 PUSH1 0x1 PUSH1 0xA0 SHL SUB AND CALLER EQ PUSH2 0x499 JUMPI PUSH1 0x40 MLOAD PUSH3 0x82B429 PUSH1 0xE8 SHL DUP2 MSTORE PUSH1 0x4 ADD PUSH1 0x40 MLOAD DUP1 SWAP2 SUB SWAP1 REVERT JUMPDEST PUSH1 0x1 PUSH1 0x1 PUSH1 0xA0 SHL SUB DUP3 AND PUSH1 0x0 DUP2 DUP2 MSTORE PUSH1 0x2 PUSH1 0x20 MSTORE PUSH1 0x40 SWAP1 DUP2 SWAP1 KECCAK256 DUP4 SWAP1 SSTORE MLOAD PUSH32 0x4E65BC780542C4ACDA0E928B0765B9C4373523442B3226D20067683FA56BB653 SWAP1 PUSH2 0x4E6 SWAP1 DUP5 DUP2 MSTORE PUSH1 0x20 ADD SWAP1 JUMP JUMPDEST PUSH1 0x40 MLOAD DUP1 SWAP2 SUB SWAP1 LOG2 POP POP JUMP JUMPDEST PUSH1 0x40 MLOAD PUSH4 0x2C7448D1 PUSH1 0xE1 SHL DUP2 MSTORE PUSH1 0x1 PUSH1 0x1 PUSH1 0xA0 SHL SUB DUP3 DUP2 AND PUSH1 0x4 DUP4 ADD MSTORE PUSH1 0x0 SWAP2 PUSH32 0x0 SWAP1 SWAP2 AND SWAP1 PUSH4 0x58E891A2 SWAP1 PUSH1 0x24 ADD PUSH1 0x20 PUSH1 0x40 MLOAD DUP1 DUP4 SUB DUP2 DUP7 GAS STATICCALL ISZERO DUP1 ISZERO PUSH2 0x55D JUMPI RETURNDATASIZE PUSH1 0x0 DUP1 RETURNDATACOPY RETURNDATASIZE PUSH1 0x0 REVERT JUMPDEST POP POP POP POP PUSH1 0x40 MLOAD RETURNDATASIZE PUSH1 0x1F NOT PUSH1 0x1F DUP3 ADD AND DUP3 ADD DUP1 PUSH1 0x40 MSTORE POP DUP2 ADD SWAP1 PUSH2 0x581 SWAP2 SWAP1 PUSH2 0xF58 JUMP JUMPDEST SWAP3 SWAP2 POP POP JUMP JUMPDEST PUSH1 0x40 MLOAD PUSH4 0x5BFC8DFD PUSH1 0xE0 SHL DUP2 MSTORE PUSH1 0x1 PUSH1 0x1 PUSH1 0xA0 SHL SUB DUP3 DUP2 AND PUSH1 0x4 DUP4 ADD MSTORE PUSH1 0x0 SWAP2 PUSH32 0x0 SWAP1 SWAP2 AND SWAP1 PUSH4 0x5BFC8DFD SWAP1 PUSH1 0x24 ADD PUSH1 0x20 PUSH1 0x40 MLOAD DUP1 DUP4 SUB DUP2 DUP7 GAS STATICCALL ISZERO DUP1 ISZERO PUSH2 0x5F2 JUMPI RETURNDATASIZE PUSH1 0x0 DUP1 RETURNDATACOPY RETURNDATASIZE PUSH1 0x0 REVERT JUMPDEST POP POP POP POP PUSH1 0x40 MLOAD RETURNDATASIZE PUSH1 0x1F NOT PUSH1 0x1F DUP3 ADD AND DUP3 ADD DUP1 PUSH1 0x40 MSTORE POP DUP2 ADD SWAP1 PUSH2 0x581 SWAP2 SWAP1 PUSH2 0xF81 JUMP JUMPDEST PUSH1 0x40 MLOAD PUSH4 0xFB8CFD01 PUSH1 0xE0 SHL DUP2 MSTORE PUSH1 0x1 PUSH1 0x1 PUSH1 0xA0 SHL SUB DUP3 DUP2 AND PUSH1 0x4 DUP4 ADD MSTORE ADDRESS PUSH1 0x24 DUP4 ADD MSTORE PUSH1 0x0 SWAP2 DUP3 SWAP2 DUP3 SWAP2 DUP3 SWAP2 PUSH32 0x0 AND SWAP1 PUSH4 0xFB8CFD01 SWAP1 PUSH1 0x44 ADD PUSH1 0x20 PUSH1 0x40 MLOAD DUP1 DUP4 SUB DUP2 DUP7 GAS STATICCALL ISZERO DUP1 ISZERO PUSH2 0x68B JUMPI RETURNDATASIZE PUSH1 0x0 DUP1 RETURNDATACOPY RETURNDATASIZE PUSH1 0x0 REVERT JUMPDEST POP POP POP POP PUSH1 0x40 MLOAD RETURNDATASIZE PUSH1 0x1F NOT PUSH1 0x1F DUP3 ADD AND DUP3 ADD DUP1 PUSH1 0x40 MSTORE POP DUP2 ADD SWAP1 PUSH2 0x6AF SWAP2 SWAP1 PUSH2 0xF81 JUMP JUMPDEST SWAP1 POP DUP1 PUSH2 0x757 JUMPI PUSH1 0x40 MLOAD PUSH4 0x3B17629D PUSH1 0xE2 SHL DUP2 MSTORE PUSH1 0x1 PUSH1 0x1 PUSH1 0xA0 SHL SUB DUP7 DUP2 AND PUSH1 0x4 DUP4 ADD MSTORE PUSH1 0x0 SWAP2 PUSH32 0x0 SWAP1 SWAP2 AND SWAP1 PUSH4 0xEC5D8A74 SWAP1 PUSH1 0x24 ADD PUSH1 0xA0 PUSH1 0x40 MLOAD DUP1 DUP4 SUB DUP2 DUP7 GAS STATICCALL ISZERO DUP1 ISZERO PUSH2 0x721 JUMPI RETURNDATASIZE PUSH1 0x0 DUP1 RETURNDATACOPY RETURNDATASIZE PUSH1 0x0 REVERT JUMPDEST POP POP POP POP PUSH1 0x40 MLOAD RETURNDATASIZE PUSH1 0x1F NOT PUSH1 0x1F DUP3 ADD AND DUP3 ADD DUP1 PUSH1 0x40 MSTORE POP DUP2 ADD SWAP1 PUSH2 0x745 SWAP2 SWAP1 PUSH2 0xF9C JUMP JUMPDEST MLOAD PUSH1 0x0 SWAP6 POP SWAP4 POP DUP5 SWAP3 POP PUSH2 0x837 SWAP2 POP POP JUMP JUMPDEST PUSH1 0x40 MLOAD PUSH4 0x3B17629D PUSH1 0xE2 SHL DUP2 MSTORE PUSH1 0x1 PUSH1 0x1 PUSH1 0xA0 SHL SUB DUP7 DUP2 AND PUSH1 0x4 DUP4 ADD MSTORE PUSH1 0x0 SWAP2 PUSH32 0x0 SWAP1 SWAP2 AND SWAP1 PUSH4 0xEC5D8A74 SWAP1 PUSH1 0x24 ADD PUSH1 0xA0 PUSH1 0x40 MLOAD DUP1 DUP4 SUB DUP2 DUP7 GAS STATICCALL ISZERO DUP1 ISZERO PUSH2 0x7C2 JUMPI RETURNDATASIZE PUSH1 0x0 DUP1 RETURNDATACOPY RETURNDATASIZE PUSH1 0x0 REVERT JUMPDEST POP POP POP POP PUSH1 0x40 MLOAD RETURNDATASIZE PUSH1 0x1F NOT PUSH1 0x1F DUP3 ADD AND DUP3 ADD DUP1 PUSH1 0x40 MSTORE POP DUP2 ADD SWAP1 PUSH2 0x7E6 SWAP2 SWAP1 PUSH2 0xF9C JUMP JUMPDEST PUSH1 0x1 PUSH1 0x1 PUSH1 0xA0 SHL SUB DUP8 AND PUSH1 0x0 SWAP1 DUP2 MSTORE PUSH1 0x2 PUSH1 0x20 SWAP1 DUP2 MSTORE PUSH1 0x40 DUP1 DUP4 KECCAK256 SLOAD PUSH1 0x3 SWAP1 SWAP3 MSTORE DUP3 KECCAK256 SLOAD SWAP3 SWAP4 POP SWAP2 SWAP1 DUP2 DUP4 GT PUSH2 0x81D JUMPI PUSH1 0x0 PUSH2 0x827 JUMP JUMPDEST PUSH2 0x827 DUP3 DUP5 PUSH2 0xF45 JUMP JUMPDEST SWAP4 MLOAD PUSH1 0x1 SWAP9 POP SWAP7 POP SWAP3 SWAP5 POP POP POP POP POP JUMPDEST SWAP2 SWAP4 SWAP1 SWAP3 POP JUMP JUMPDEST PUSH1 0x1 SLOAD PUSH1 0x1 PUSH1 0x1 PUSH1 0xA0 SHL SUB AND CALLER EQ PUSH2 0x868 JUMPI PUSH1 0x40 MLOAD PUSH3 0x82B429 PUSH1 0xE8 SHL DUP2 MSTORE PUSH1 0x4 ADD PUSH1 0x40 MLOAD DUP1 SWAP2 SUB SWAP1 REVERT JUMPDEST DUP3 DUP2 EQ PUSH2 0x8AE JUMPI PUSH1 0x40 MLOAD PUSH3 0x461BCD PUSH1 0xE5 SHL DUP2 MSTORE PUSH1 0x20 PUSH1 0x4 DUP3 ADD MSTORE PUSH1 0xF PUSH1 0x24 DUP3 ADD MSTORE PUSH15 0x98CADCCEE8D040DAD2E6DAC2E8C6D PUSH1 0x8B SHL PUSH1 0x44 DUP3 ADD MSTORE PUSH1 0x64 ADD JUMPDEST PUSH1 0x40 MLOAD DUP1 SWAP2 SUB SWAP1 REVERT JUMPDEST PUSH1 0x0 JUMPDEST DUP4 DUP2 LT ISZERO PUSH2 0x9AA JUMPI DUP3 DUP3 DUP3 DUP2 DUP2 LT PUSH2 0x8CB JUMPI PUSH2 0x8CB PUSH2 0x101E JUMP JUMPDEST SWAP1 POP PUSH1 0x20 MUL ADD CALLDATALOAD PUSH1 0x2 PUSH1 0x0 DUP8 DUP8 DUP6 DUP2 DUP2 LT PUSH2 0x8E8 JUMPI PUSH2 0x8E8 PUSH2 0x101E JUMP JUMPDEST SWAP1 POP PUSH1 0x20 MUL ADD PUSH1 0x20 DUP2 ADD SWAP1 PUSH2 0x8FD SWAP2 SWAP1 PUSH2 0xE12 JUMP JUMPDEST PUSH1 0x1 PUSH1 0x1 PUSH1 0xA0 SHL SUB AND DUP2 MSTORE PUSH1 0x20 DUP2 ADD SWAP2 SWAP1 SWAP2 MSTORE PUSH1 0x40 ADD PUSH1 0x0 KECCAK256 SSTORE DUP5 DUP5 DUP3 DUP2 DUP2 LT PUSH2 0x929 JUMPI PUSH2 0x929 PUSH2 0x101E JUMP JUMPDEST SWAP1 POP PUSH1 0x20 MUL ADD PUSH1 0x20 DUP2 ADD SWAP1 PUSH2 0x93E SWAP2 SWAP1 PUSH2 0xE12 JUMP JUMPDEST PUSH1 0x1 PUSH1 0x1 PUSH1 0xA0 SHL SUB AND PUSH32 0x4E65BC780542C4ACDA0E928B0765B9C4373523442B3226D20067683FA56BB653 DUP5 DUP5 DUP5 DUP2 DUP2 LT PUSH2 0x97A JUMPI PUSH2 0x97A PUSH2 0x101E JUMP JUMPDEST SWAP1 POP PUSH1 0x20 MUL ADD CALLDATALOAD PUSH1 0x40 MLOAD PUSH2 0x990 SWAP2 DUP2 MSTORE PUSH1 0x20 ADD SWAP1 JUMP JUMPDEST PUSH1 0x40 MLOAD DUP1 SWAP2 SUB SWAP1 LOG2 DUP1 PUSH2 0x9A2 DUP2 PUSH2 0x1034 JUMP JUMPDEST SWAP2 POP POP PUSH2 0x8B1 JUMP JUMPDEST POP POP POP POP POP JUMP JUMPDEST PUSH1 0x1 SLOAD PUSH1 0x1 PUSH1 0x1 PUSH1 0xA0 SHL SUB AND CALLER EQ PUSH2 0x9DB JUMPI PUSH1 0x40 MLOAD PUSH3 0x82B429 PUSH1 0xE8 SHL DUP2 MSTORE PUSH1 0x4 ADD PUSH1 0x40 MLOAD DUP1 SWAP2 SUB SWAP1 REVERT JUMPDEST PUSH3 0xDBBA0 DUP2 GT ISZERO PUSH2 0xA22 JUMPI PUSH1 0x40 MLOAD PUSH3 0x461BCD PUSH1 0xE5 SHL DUP2 MSTORE PUSH1 0x20 PUSH1 0x4 DUP3 ADD MSTORE PUSH1 0x11 PUSH1 0x24 DUP3 ADD MSTORE PUSH17 0x125B9D985B1A59081D1A1C995CDA1BDB19 PUSH1 0x7A SHL PUSH1 0x44 DUP3 ADD MSTORE PUSH1 0x64 ADD PUSH2 0x8A5 JUMP JUMPDEST PUSH1 0x0 DUP1 SLOAD SWAP1 DUP3 SWAP1 SSTORE PUSH1 0x40 MLOAD PUSH4 0x2582FF81 PUSH1 0xE2 SHL DUP2 MSTORE PUSH1 0x4 DUP2 ADD DUP4 SWAP1 MSTORE PUSH32 0x0 PUSH1 0x1 PUSH1 0x1 PUSH1 0xA0 SHL SUB AND SWAP1 PUSH4 0x960BFE04 SWAP1 PUSH1 0x24 ADD PUSH1 0x0 PUSH1 0x40 MLOAD DUP1 DUP4 SUB DUP2 PUSH1 0x0 DUP8 DUP1 EXTCODESIZE ISZERO DUP1 ISZERO PUSH2 0xA8C JUMPI PUSH1 0x0 DUP1 REVERT JUMPDEST POP GAS CALL ISZERO DUP1 ISZERO PUSH2 0xAA0 JUMPI RETURNDATASIZE PUSH1 0x0 DUP1 RETURNDATACOPY RETURNDATASIZE PUSH1 0x0 REVERT JUMPDEST POP POP PUSH1 0x40 DUP1 MLOAD DUP5 DUP2 MSTORE PUSH1 0x20 DUP2 ADD DUP7 SWAP1 MSTORE PUSH32 0xB06A54CAABE58475C86C2BF9DF3F2F06DD1213E9E10659C293117FE4893B274B SWAP4 POP ADD SWAP1 POP PUSH1 0x40 MLOAD DUP1 SWAP2 SUB SWAP1 LOG1 POP POP JUMP JUMPDEST DUP1 PUSH1 0x0 SUB PUSH2 0xB03 JUMPI PUSH1 0x40 MLOAD PUSH4 0x17979057 PUSH1 0xE0 SHL DUP2 MSTORE PUSH1 0x4 ADD PUSH1 0x40 MLOAD DUP1 SWAP2 SUB SWAP1 REVERT JUMPDEST PUSH2 0xB0C CALLER PUSH2 0xBD5 JUMP JUMPDEST CALLER PUSH1 0x0 SWAP1 DUP2 MSTORE PUSH1 0x2 PUSH1 0x20 SWAP1 DUP2 MSTORE PUSH1 0x40 DUP1 DUP4 KECCAK256 SLOAD PUSH1 0x3 SWAP1 SWAP3 MSTORE SWAP1 SWAP2 KECCAK256 SLOAD DUP2 PUSH2 0xB33 DUP5 DUP4 PUSH2 0x104D JUMP JUMPDEST GT ISZERO PUSH2 0xB52 JUMPI PUSH1 0x40 MLOAD PUSH4 0x97BA4DE3 PUSH1 0xE0 SHL DUP2 MSTORE PUSH1 0x4 ADD PUSH1 0x40 MLOAD DUP1 SWAP2 SUB SWAP1 REVERT JUMPDEST PUSH2 0xB5C DUP4 DUP3 PUSH2 0x104D JUMP JUMPDEST CALLER PUSH1 0x0 DUP2 DUP2 MSTORE PUSH1 0x3 PUSH1 0x20 MSTORE PUSH1 0x40 DUP1 DUP3 KECCAK256 SWAP4 SWAP1 SWAP4 SSTORE SWAP2 MLOAD SWAP1 SWAP2 DUP6 ISZERO PUSH2 0x8FC MUL SWAP2 DUP7 SWAP2 DUP2 DUP2 DUP2 DUP6 DUP9 DUP9 CALL SWAP4 POP POP POP POP ISZERO DUP1 ISZERO PUSH2 0xB9A JUMPI RETURNDATASIZE PUSH1 0x0 DUP1 RETURNDATACOPY RETURNDATASIZE PUSH1 0x0 REVERT JUMPDEST POP PUSH1 0x40 MLOAD DUP4 DUP2 MSTORE CALLER SWAP1 PUSH32 0xAC59582E5396ACA512FA873A2047E7F4C80F8F55D4A06CB34A78A0187F62719F SWAP1 PUSH1 0x20 ADD PUSH1 0x40 MLOAD DUP1 SWAP2 SUB SWAP1 LOG2 POP POP POP JUMP JUMPDEST PUSH1 0x40 MLOAD PUSH4 0xFB8CFD01 PUSH1 0xE0 SHL DUP2 MSTORE PUSH1 0x1 PUSH1 0x1 PUSH1 0xA0 SHL SUB DUP3 DUP2 AND PUSH1 0x4 DUP4 ADD MSTORE ADDRESS PUSH1 0x24 DUP4 ADD MSTORE PUSH1 0x0 SWAP2 PUSH32 0x0 SWAP1 SWAP2 AND SWAP1 PUSH4 0xFB8CFD01 SWAP1 PUSH1 0x44 ADD PUSH1 0x20 PUSH1 0x40 MLOAD DUP1 DUP4 SUB DUP2 DUP7 GAS STATICCALL ISZERO DUP1 ISZERO PUSH2 0xC46 JUMPI RETURNDATASIZE PUSH1 0x0 DUP1 RETURNDATACOPY RETURNDATASIZE PUSH1 0x0 REVERT JUMPDEST POP POP POP POP PUSH1 0x40 MLOAD RETURNDATASIZE PUSH1 0x1F NOT PUSH1 0x1F DUP3 ADD AND DUP3 ADD DUP1 PUSH1 0x40 MSTORE POP DUP2 ADD SWAP1 PUSH2 0xC6A SWAP2 SWAP1 PUSH2 0xF81 JUMP JUMPDEST SWAP1 POP DUP1 PUSH2 0xDF2 JUMPI PUSH1 0x40 MLOAD PUSH4 0x3B17629D PUSH1 0xE2 SHL DUP2 MSTORE PUSH1 0x1 PUSH1 0x1 PUSH1 0xA0 SHL SUB DUP4 DUP2 AND PUSH1 0x4 DUP4 ADD MSTORE PUSH1 0x0 SWAP2 PUSH32 0x0 SWAP1 SWAP2 AND SWAP1 PUSH4 0xEC5D8A74 SWAP1 PUSH1 0x24 ADD PUSH1 0xA0 PUSH1 0x40 MLOAD DUP1 DUP4 SUB DUP2 DUP7 GAS STATICCALL ISZERO DUP1 ISZERO PUSH2 0xCDC JUMPI RETURNDATASIZE PUSH1 0x0 DUP1 RETURNDATACOPY RETURNDATASIZE PUSH1 0x0 REVERT JUMPDEST POP POP POP POP PUSH1 0x40 MLOAD RETURNDATASIZE PUSH1 0x1F NOT PUSH1 0x1F DUP3 ADD AND DUP3 ADD DUP1 PUSH1 0x40 MSTORE POP DUP2 ADD SWAP1 PUSH2 0xD00 SWAP2 SWAP1 PUSH2 0xF9C JUMP JUMPDEST SWAP1 POP DUP1 PUSH1 0x80 ADD MLOAD PUSH2 0xD24 JUMPI PUSH1 0x40 MLOAD PUSH4 0x1C2816EB PUSH1 0xE1 SHL DUP2 MSTORE PUSH1 0x4 ADD PUSH1 0x40 MLOAD DUP1 SWAP2 SUB SWAP1 REVERT JUMPDEST PUSH1 0x40 MLOAD PUSH4 0x5BFC8DFD PUSH1 0xE0 SHL DUP2 MSTORE PUSH1 0x1 PUSH1 0x1 PUSH1 0xA0 SHL SUB DUP5 DUP2 AND PUSH1 0x4 DUP4 ADD MSTORE PUSH32 0x0 AND SWAP1 PUSH4 0x5BFC8DFD SWAP1 PUSH1 0x24 ADD PUSH1 0x20 PUSH1 0x40 MLOAD DUP1 DUP4 SUB DUP2 DUP7 GAS STATICCALL ISZERO DUP1 ISZERO PUSH2 0xD8A JUMPI RETURNDATASIZE PUSH1 0x0 DUP1 RETURNDATACOPY RETURNDATASIZE PUSH1 0x0 REVERT JUMPDEST POP POP POP POP PUSH1 0x40 MLOAD RETURNDATASIZE PUSH1 0x1F NOT PUSH1 0x1F DUP3 ADD AND DUP3 ADD DUP1 PUSH1 0x40 MSTORE POP DUP2 ADD SWAP1 PUSH2 0xDAE SWAP2 SWAP1 PUSH2 0xF81 JUMP JUMPDEST PUSH2 0xDCB JUMPI PUSH1 0x40 MLOAD PUSH4 0x284BFA71 PUSH1 0xE2 SHL DUP2 MSTORE PUSH1 0x4 ADD PUSH1 0x40 MLOAD DUP1 SWAP2 SUB SWAP1 REVERT JUMPDEST PUSH1 0x0 SLOAD DUP2 MLOAD PUSH1 0x40 MLOAD PUSH4 0x461C4641 PUSH1 0xE1 SHL DUP2 MSTORE PUSH1 0x4 DUP2 ADD SWAP3 SWAP1 SWAP3 MSTORE PUSH1 0x24 DUP3 ADD MSTORE PUSH1 0x44 ADD PUSH2 0x8A5 JUMP JUMPDEST POP POP JUMP JUMPDEST DUP1 CALLDATALOAD PUSH1 0x1 PUSH1 0x1 PUSH1 0xA0 SHL SUB DUP2 AND DUP2 EQ PUSH2 0xE0D JUMPI PUSH1 0x0 DUP1 REVERT JUMPDEST SWAP2 SWAP1 POP JUMP JUMPDEST PUSH1 0x0 PUSH1 0x20 DUP3 DUP5 SUB SLT ISZERO PUSH2 0xE24 JUMPI PUSH1 0x0 DUP1 REVERT JUMPDEST PUSH2 0xE2D DUP3 PUSH2 0xDF6 JUMP JUMPDEST SWAP4 SWAP3 POP POP POP JUMP JUMPDEST PUSH1 0x0 DUP1 PUSH1 0x40 DUP4 DUP6 SUB SLT ISZERO PUSH2 0xE47 JUMPI PUSH1 0x0 DUP1 REVERT JUMPDEST PUSH2 0xE50 DUP4 PUSH2 0xDF6 JUMP JUMPDEST SWAP5 PUSH1 0x20 SWAP4 SWAP1 SWAP4 ADD CALLDATALOAD SWAP4 POP POP POP JUMP JUMPDEST PUSH1 0x0 DUP1 DUP4 PUSH1 0x1F DUP5 ADD SLT PUSH2 0xE70 JUMPI PUSH1 0x0 DUP1 REVERT JUMPDEST POP DUP2 CALLDATALOAD PUSH8 0xFFFFFFFFFFFFFFFF DUP2 GT ISZERO PUSH2 0xE88 JUMPI PUSH1 0x0 DUP1 REVERT JUMPDEST PUSH1 0x20 DUP4 ADD SWAP2 POP DUP4 PUSH1 0x20 DUP3 PUSH1 0x5 SHL DUP6 ADD ADD GT ISZERO PUSH2 0xEA3 JUMPI PUSH1 0x0 DUP1 REVERT JUMPDEST SWAP3 POP SWAP3 SWAP1 POP JUMP JUMPDEST PUSH1 0x0 DUP1 PUSH1 0x0 DUP1 PUSH1 0x40 DUP6 DUP8 SUB SLT ISZERO PUSH2 0xEC0 JUMPI PUSH1 0x0 DUP1 REVERT JUMPDEST DUP5 CALLDATALOAD PUSH8 0xFFFFFFFFFFFFFFFF DUP1 DUP3 GT ISZERO PUSH2 0xED8 JUMPI PUSH1 0x0 DUP1 REVERT JUMPDEST PUSH2 0xEE4 DUP9 DUP4 DUP10 ADD PUSH2 0xE5E JUMP JUMPDEST SWAP1 SWAP7 POP SWAP5 POP PUSH1 0x20 DUP8 ADD CALLDATALOAD SWAP2 POP DUP1 DUP3 GT ISZERO PUSH2 0xEFD JUMPI PUSH1 0x0 DUP1 REVERT JUMPDEST POP PUSH2 0xF0A DUP8 DUP3 DUP9 ADD PUSH2 0xE5E JUMP JUMPDEST SWAP6 SWAP9 SWAP5 SWAP8 POP SWAP6 POP POP POP POP JUMP JUMPDEST PUSH1 0x0 PUSH1 0x20 DUP3 DUP5 SUB SLT ISZERO PUSH2 0xF28 JUMPI PUSH1 0x0 DUP1 REVERT JUMPDEST POP CALLDATALOAD SWAP2 SWAP1 POP JUMP JUMPDEST PUSH4 0x4E487B71 PUSH1 0xE0 SHL PUSH1 0x0 MSTORE PUSH1 0x11 PUSH1 0x4 MSTORE PUSH1 0x24 PUSH1 0x0 REVERT JUMPDEST DUP2 DUP2 SUB DUP2 DUP2 GT ISZERO PUSH2 0x581 JUMPI PUSH2 0x581 PUSH2 0xF2F JUMP JUMPDEST PUSH1 0x0 PUSH1 0x20 DUP3 DUP5 SUB SLT ISZERO PUSH2 0xF6A JUMPI PUSH1 0x0 DUP1 REVERT JUMPDEST POP MLOAD SWAP2 SWAP1 POP JUMP JUMPDEST DUP1 MLOAD DUP1 ISZERO ISZERO DUP2 EQ PUSH2 0xE0D JUMPI PUSH1 0x0 DUP1 REVERT JUMPDEST PUSH1 0x0 PUSH1 0x20 DUP3 DUP5 SUB SLT ISZERO PUSH2 0xF93 JUMPI PUSH1 0x0 DUP1 REVERT JUMPDEST PUSH2 0xE2D DUP3 PUSH2 0xF71 JUMP JUMPDEST PUSH1 0x0 PUSH1 0xA0 DUP3 DUP5 SUB SLT ISZERO PUSH2 0xFAE JUMPI PUSH1 0x0 DUP1 REVERT JUMPDEST PUSH1 0x40 MLOAD PUSH1 0xA0 DUP2 ADD DUP2 DUP2 LT PUSH8 0xFFFFFFFFFFFFFFFF DUP3 GT OR ISZERO PUSH2 0xFDF JUMPI PUSH4 0x4E487B71 PUSH1 0xE0 SHL PUSH1 0x0 MSTORE PUSH1 0x41 PUSH1 0x4 MSTORE PUSH1 0x24 PUSH1 0x0 REVERT JUMPDEST DUP1 PUSH1 0x40 MSTORE POP DUP3 MLOAD DUP2 MSTORE PUSH1 0x20 DUP4 ADD MLOAD PUSH1 0x20 DUP3 ADD MSTORE PUSH1 0x40 DUP4 ADD MLOAD PUSH1 0x40 DUP3 ADD MSTORE PUSH1 0x60 DUP4 ADD MLOAD PUSH1 0x60 DUP3 ADD MSTORE PUSH2 0x1012 PUSH1 0x80 DUP5 ADD PUSH2 0xF71 JUMP JUMPDEST PUSH1 0x80 DUP3 ADD MSTORE SWAP4 SWAP3 POP POP POP JUMP JUMPDEST PUSH4 0x4E487B71 PUSH1 0xE0 SHL PUSH1 0x0 MSTORE PUSH1 0x32 PUSH1 0x4 MSTORE PUSH1 0x24 PUSH1 0x0 REVERT JUMPDEST PUSH1 0x0 PUSH1 0x1 DUP3 ADD PUSH2 0x1046 JUMPI PUSH2 0x1046 PUSH2 0xF2F JUMP JUMPDEST POP PUSH1 0x1 ADD SWAP1 JUMP JUMPDEST DUP1 DUP3 ADD DUP1 DUP3 GT ISZERO PUSH2 0x581 JUMPI PUSH2 0x581 PUSH2 0xF2F JUMP INVALID LOG2 PUSH5 0x6970667358 0x22 SLT KECCAK256 0x25 0xA7 0xC2 0xD3 SWAP4 JUMPDEST 0xDD SUB 0xEB SWAP9 SWAP7 ADDMOD PUSH19 0x3BF511BFE1BFA4C8EEAEA2B7FB33927E3CD13B PUSH5 0x736F6C6343 STOP ADDMOD EQ STOP CALLER "},"methodIdentifiers":{"borrow(uint256)":"c5ebeaec","borrowLimits(address)":"274014e8","borrowThreshold()":"5ae547e3","borrowed(address)":"0941cb3d","checkEligibility(address)":"7723bafb","getTimeUntilExpiry(address)":"58e891a2","isProofFresh(address)":"5bfc8dfd","owner()":"8da5cb5b","repay()":"402d8883","scoreRegistry()":"3eb8104a","setBorrowLimit(address,uint256)":"4722b16a","setBorrowLimitsBatch(address[],uint256[])":"924c8490","setThreshold(uint256)":"960bfe04","withdraw()":"3ccfd60b"}}}}}