{"contracts/DeployVerifier.sol":{"DeployVerifier":{"abi":[{"inputs":[],"stateMutability":"nonpayable","type":"constructor"},{"anonymous":false,"inputs":[{"indexed":true,"internalType":"address","name":"verifier","type":"address"},{"indexed":false,"internalType":"uint256","name":"timestamp","type":"uint256"}],"name":"VerifierDeployed","type":"event"},{"inputs":[],"name":"getVerifierAddress","outputs":[{"internalType":"address","name":"","type":"address"}],"stateMutability":"view","type":"function"},{"inputs":[],"name":"verifier","outputs":[{"internalType":"contract Groth16Verifier","name":"","type":"address"}],"stateMutability":"view","type":"function"}],"evm":{"bytecode":{"linkReferences":{},"object":"608060405234801561001057600080fd5b5060405161001d90610091565b604051809103906000f080158015610039573d6000803e3d6000fd5b50600080546001600160a01b0319166001600160a01b039290921691821790556040514281527f369bc5621381dcd405fff64e8e314d758807d949292a6287a05c20dfe12cffbd9060200160405180910390a261009e565b6109258061015783390190565b60ab806100ac6000396000f3fe6080604052348015600f57600080fd5b506004361060325760003560e01c80632b7ac3f314603757806353ae8717146065575b600080fd5b6000546049906001600160a01b031681565b6040516001600160a01b03909116815260200160405180910390f35b6000546001600160a01b0316604956fea264697066735822122023dde00199cf7ebb2139311239d237f475c7e078b76f1cc73c2d88dd31a19c9b64736f6c63430008140033608060405234801561001057600080fd5b50610905806100206000396000f3fe608060405234801561001057600080fd5b506004361061002b5760003560e01c8063b9c6ea8714610030575b600080fd5b61004361003e366004610869565b610057565b604051901515815260200160405180910390f35b600061079c565b7f30644e72e131a029b85045b68181585d2833e84879b9709143e1f593f0000001811061008f576000805260206000f35b50565b600060405183815284602082015285604082015260408160608360076107d05a03fa9150816100c5576000805260206000f35b825160408201526020830151606082015260408360808360066107d05a03fa915050806100f6576000805260206000f35b5050505050565b7f2ef05c508938bce73ff7d985664967f58142027c48aefbe5797027163b6c86bf85527f07487a40c01979208aab98fcf90f31a46bd05b0912b8207dc2920f8d35906c4b60208601526000608086018661019a87357f219a14664fc2b6e157a780d6bdb23178be675dc1d52db9b2541d10d92129866b7f09ded6d7c12c11bc0dc3b2872e1302ab3cc179150677b108eefa0acb45854d3384610092565b6101ea60208801357f10f923b611cb57aa8ab2b1fa107993f2c1220f0b555ee5bb9c6fc3a85fcb28c67f1ad43944967feecc2606b857d0605df890477b74318a1beb0b89183279685c6e84610092565b61023a60408801357f2aa05704ad39d2fdd5ea310430ece22d0b0e9e63869c30c8162bf62605a666447f0b593a0daf0ab22d2d23882ad6ffca34ecc794509fe0baeab75cc5770d14fb7084610092565b61028a60608801357f0ddd3eb470b723b1205ffd6ca72645fc0ddd17f62e88849f7d05b77f160261fb7f09a7d6a1a9b22869c5eb710ba18234963ec54fe9d4b9c09bb623b4ff40a1978784610092565b6102da60808801357f01de0d4dfc806dbb86a61e0ad06595fc8d751f341659b33102d7341e68af0c187f2e42c936abde07dad36bd9201f1a6fc85f17621c647c1bd65f7b6c8401cee63584610092565b61032a60a08801357f01373643a864b759c11a58b0825d5aa9d04cd64754ac0ac08bd7b16e0425aa807f02441639fd9fc7d656cc876dc21ad0e9993da73aa711deccc45f5ef2fd6cbaad84610092565b61037a60c08801357f22643e11e7bf5a8856fbdb342ea2c420dc374bf48c78e3ce4d278397bdeb21477f1beff4983e5d4585a78431dd0b6811446e827b93df707b7b909fa8a70499998284610092565b6103ca60e08801357f2758e8b1b38bbb06bece3c1965d330a32ba69488c7dc846ec46521ef44f916817f0f1857618d1a4fb11bf3dd3b73d8ee396c47133c7f6f088ace4edb2336f6794884610092565b61041a6101008801357e169404966f59036cbf5e2223c9a25461cd0a57fd45cd0655eb1c28d808c4e27f2d47ae7c82315c30e68ca77c6172e331842b7241bfc89169444e95a445ba00fb84610092565b61046b6101208801357f2b1ec85433b307c886790162cf9f78b844adb42c9d8fa684983dd93f69e1a9547f26e8ad09bce851417f605b6fc3d8235e8e3d0fda950b92163638a8af00bfa2e784610092565b6104bc6101408801357f0a140ae16a0e5b2aea47497960aec10ee8c16946ceb7832746862f1c0c29950e7f1d82278f6475b768b04cebf0b01fbd9d344e706609ea3315814e6fc10501583c84610092565b50823581527f30644e72e131a029b85045b68181585d97816a916871ca8d3c208c16d87cfd4760208401357f30644e72e131a029b85045b68181585d97816a916871ca8d3c208c16d87cfd4703066020820152833560408201526020840135606082015260408401356080820152606084013560a08201527f2d4d9aa7e302d9df41749d5507949d05dbea33fbb16c643b22f599a2be6df2e260c08201527f14bedd503c37ceb061d8ec60209fe345ce89830a19230301f076caff004d192660e08201527f0967032fcbf776d1afc985f88877f182d38480a653f2decaa9794cbc3bf3060c6101008201527f0e187847ad4c798374d0d6732bf501847dd68bc0e071241e0213bc7fc13db7ab6101208201527f304cfbd1e08a704a99f5e847d93f8c3caafddec46b7a0d379da69a4d112346a76101408201527f1739c1b1a457a8c7313123d24d2f9192f896b7c63eea05a9d57f06547ad0cec8610160820152600087015161018082015260206000018701516101a08201527f198e9393920d483a7260bfb731fb5d25f1aa493335a9e71297e485b7aef312c26101c08201527f1800deef121f1e76426a00665e5c4479674322d4f75edadd46debd5cd992f6ed6101e08201527f090689d0585ff075ec9e99ad690c3395bc4b313370b38ef355acdadcd122975b6102008201527f12c85ea5db8c6deb4aab71808dcb408fe3d1e7690c43d37b4ce6cc0166fa7daa610220820152843561024082015260208501356102608201527f17691b37538c65b27218a4bd892127538b5f284d622ae344bbaadb2b9c6a2d256102808201527f1e4e6476fe01db0c78ff287b824cef6ca22ab6dcd7fab4c74eee3f6f65dc52306102a08201527f1dc8eab5169f1a70cf59f9375f59c11701a52bddae09d30ec264b00865f8f9b46102c08201527f0bc64882f6aa7f43b2ec67330472818c85d95d60b5d5fe0270212a485269891e6102e08201526020816103008360086107d05a03fa9051169695505050505050565b60405161038081016040526107b4600084013561005e565b6107c1602084013561005e565b6107ce604084013561005e565b6107db606084013561005e565b6107e8608084013561005e565b6107f560a084013561005e565b61080260c084013561005e565b61080f60e084013561005e565b61081d61010084013561005e565b61082b61012084013561005e565b61083961014084013561005e565b610846818486888a6100fd565b90508060005260206000f35b806040810183101561086357600080fd5b92915050565b60008060008061026080868803121561088157600080fd5b61088b8787610852565b945060c086018781111561089e57600080fd5b6040870194506108ae8882610852565b9350508681870111156108c057600080fd5b5092959194509261010001915056fea2646970667358221220d04733ddd81b17e74b4d55894c05cf642a6fd17a9680c19472ff7b37eed4498464736f6c63430008140033","opcodes":"PUSH1 0x80 PUSH1 0x40 MSTORE CALLVALUE DUP1 ISZERO PUSH2 0x10 JUMPI PUSH1 0x0 DUP1 REVERT JUMPDEST POP PUSH1 0x40 MLOAD PUSH2 0x1D SWAP1 PUSH2 0x91 JUMP JUMPDEST PUSH1 0x40 MLOAD DUP1 SWAP2 SUB SWAP1 PUSH1 0x0 CREATE DUP1 ISZERO DUP1 ISZERO PUSH2 0x39 JUMPI RETURNDATASIZE PUSH1 0x0 DUP1 RETURNDATACOPY RETURNDATASIZE PUSH1 0x0 REVERT JUMPDEST POP PUSH1 0x0 DUP1 SLOAD PUSH1 0x1 PUSH1 0x1 PUSH1 0xA0 SHL SUB NOT AND PUSH1 0x1 PUSH1 0x1 PUSH1 0xA0 SHL SUB SWAP3 SWAP1 SWAP3 AND SWAP2 DUP3 OR SWAP1 SSTORE PUSH1 0x40 MLOAD TIMESTAMP DUP2 MSTORE PUSH32 0x369BC5621381DCD405FFF64E8E314D758807D949292A6287A05C20DFE12CFFBD SWAP1 PUSH1 0x20 ADD PUSH1 0x40 MLOAD DUP1 SWAP2 SUB SWAP1 LOG2 PUSH2 0x9E JUMP JUMPDEST PUSH2 0x925 DUP1 PUSH2 0x157 DUP4 CODECOPY ADD SWAP1 JUMP JUMPDEST PUSH1 0xAB DUP1 PUSH2 0xAC PUSH1 0x0 CODECOPY PUSH1 0x0 RETURN INVALID PUSH1 0x80 PUSH1 0x40 MSTORE CALLVALUE DUP1 ISZERO PUSH1 0xF JUMPI PUSH1 0x0 DUP1 REVERT JUMPDEST POP PUSH1 0x4 CALLDATASIZE LT PUSH1 0x32 JUMPI PUSH1 0x0 CALLDATALOAD PUSH1 0xE0 SHR DUP1 PUSH4 0x2B7AC3F3 EQ PUSH1 0x37 JUMPI DUP1 PUSH4 0x53AE8717 EQ PUSH1 0x65 JUMPI JUMPDEST PUSH1 0x0 DUP1 REVERT JUMPDEST PUSH1 0x0 SLOAD PUSH1 0x49 SWAP1 PUSH1 0x1 PUSH1 0x1 PUSH1 0xA0 SHL SUB AND DUP2 JUMP JUMPDEST PUSH1 0x40 MLOAD PUSH1 0x1 PUSH1 0x1 PUSH1 0xA0 SHL SUB SWAP1 SWAP2 AND DUP2 MSTORE PUSH1 0x20 ADD PUSH1 0x40 MLOAD DUP1 SWAP2 SUB SWAP1 RETURN JUMPDEST PUSH1 0x0 SLOAD PUSH1 0x1 PUSH1 0x1 PUSH1 0xA0 SHL SUB AND PUSH1 0x49 JUMP INVALID LOG2 PUSH5 0x6970667358 0x22 SLT KECCAK256 0x23 0xDD 0xE0 ADD SWAP10 0xCF PUSH31 0xBB2139311239D237F475C7E078B76F1CC73C2D88DD31A19C9B64736F6C6343 STOP ADDMOD EQ STOP CALLER PUSH1 0x80 PUSH1 0x40 MSTORE CALLVALUE DUP1 ISZERO PUSH2 0x10 JUMPI PUSH1 0x0 DUP1 REVERT JUMPDEST POP PUSH2 0x905 DUP1 PUSH2 0x20 PUSH1 0x0 CODECOPY PUSH1 0x0 RETURN INVALID PUSH1 0x80 PUSH1 0x40 MSTORE CALLVALUE DUP1 ISZERO PUSH2 0x10 JUMPI PUSH1 0x0 DUP1 REVERT JUMPDEST POP PUSH1 0x4 CALLDATASIZE LT PUSH2 0x2B JUMPI PUSH1 0x0 CALLDATALOAD PUSH1 0xE0 SHR DUP1 PUSH4 0xB9C6EA87 EQ PUSH2 0x30 JUMPI JUMPDEST PUSH1 0x0 DUP1 REVERT JUMPDEST PUSH2 0x43 PUSH2 0x3E CALLDATASIZE PUSH1 0x4 PUSH2 0x869 JUMP JUMPDEST PUSH2 0x57 JUMP JUMPDEST PUSH1 0x40 MLOAD SWAP1 ISZERO ISZERO DUP2 MSTORE PUSH1 0x20 ADD PUSH1 0x40 MLOAD DUP1 SWAP2 SUB SWAP1 RETURN JUMPDEST PUSH1 0x0 PUSH2 0x79C JUMP JUMPDEST PUSH32 0x30644E72E131A029B85045B68181585D2833E84879B9709143E1F593F0000001 DUP2 LT PUSH2 0x8F JUMPI PUSH1 0x0 DUP1 MSTORE PUSH1 0x20 PUSH1 0x0 RETURN JUMPDEST POP JUMP JUMPDEST PUSH1 0x0 PUSH1 0x40 MLOAD DUP4 DUP2 MSTORE DUP5 PUSH1 0x20 DUP3 ADD MSTORE DUP6 PUSH1 0x40 DUP3 ADD MSTORE PUSH1 0x40 DUP2 PUSH1 0x60 DUP4 PUSH1 0x7 PUSH2 0x7D0 GAS SUB STATICCALL SWAP2 POP DUP2 PUSH2 0xC5 JUMPI PUSH1 0x0 DUP1 MSTORE PUSH1 0x20 PUSH1 0x0 RETURN JUMPDEST DUP3 MLOAD PUSH1 0x40 DUP3 ADD MSTORE PUSH1 0x20 DUP4 ADD MLOAD PUSH1 0x60 DUP3 ADD MSTORE PUSH1 0x40 DUP4 PUSH1 0x80 DUP4 PUSH1 0x6 PUSH2 0x7D0 GAS SUB STATICCALL SWAP2 POP POP DUP1 PUSH2 0xF6 JUMPI PUSH1 0x0 DUP1 MSTORE PUSH1 0x20 PUSH1 0x0 RETURN JUMPDEST POP POP POP POP POP JUMP JUMPDEST PUSH32 0x2EF05C508938BCE73FF7D985664967F58142027C48AEFBE5797027163B6C86BF DUP6 MSTORE PUSH32 0x7487A40C01979208AAB98FCF90F31A46BD05B0912B8207DC2920F8D35906C4B PUSH1 0x20 DUP7 ADD MSTORE PUSH1 0x0 PUSH1 0x80 DUP7 ADD DUP7 PUSH2 0x19A DUP8 CALLDATALOAD PUSH32 0x219A14664FC2B6E157A780D6BDB23178BE675DC1D52DB9B2541D10D92129866B PUSH32 0x9DED6D7C12C11BC0DC3B2872E1302AB3CC179150677B108EEFA0ACB45854D33 DUP5 PUSH2 0x92 JUMP JUMPDEST PUSH2 0x1EA PUSH1 0x20 DUP9 ADD CALLDATALOAD PUSH32 0x10F923B611CB57AA8AB2B1FA107993F2C1220F0B555EE5BB9C6FC3A85FCB28C6 PUSH32 0x1AD43944967FEECC2606B857D0605DF890477B74318A1BEB0B89183279685C6E DUP5 PUSH2 0x92 JUMP JUMPDEST PUSH2 0x23A PUSH1 0x40 DUP9 ADD CALLDATALOAD PUSH32 0x2AA05704AD39D2FDD5EA310430ECE22D0B0E9E63869C30C8162BF62605A66644 PUSH32 0xB593A0DAF0AB22D2D23882AD6FFCA34ECC794509FE0BAEAB75CC5770D14FB70 DUP5 PUSH2 0x92 JUMP JUMPDEST PUSH2 0x28A PUSH1 0x60 DUP9 ADD CALLDATALOAD PUSH32 0xDDD3EB470B723B1205FFD6CA72645FC0DDD17F62E88849F7D05B77F160261FB PUSH32 0x9A7D6A1A9B22869C5EB710BA18234963EC54FE9D4B9C09BB623B4FF40A19787 DUP5 PUSH2 0x92 JUMP JUMPDEST PUSH2 0x2DA PUSH1 0x80 DUP9 ADD CALLDATALOAD PUSH32 0x1DE0D4DFC806DBB86A61E0AD06595FC8D751F341659B33102D7341E68AF0C18 PUSH32 0x2E42C936ABDE07DAD36BD9201F1A6FC85F17621C647C1BD65F7B6C8401CEE635 DUP5 PUSH2 0x92 JUMP JUMPDEST PUSH2 0x32A PUSH1 0xA0 DUP9 ADD CALLDATALOAD PUSH32 0x1373643A864B759C11A58B0825D5AA9D04CD64754AC0AC08BD7B16E0425AA80 PUSH32 0x2441639FD9FC7D656CC876DC21AD0E9993DA73AA711DECCC45F5EF2FD6CBAAD DUP5 PUSH2 0x92 JUMP JUMPDEST PUSH2 0x37A PUSH1 0xC0 DUP9 ADD CALLDATALOAD PUSH32 0x22643E11E7BF5A8856FBDB342EA2C420DC374BF48C78E3CE4D278397BDEB2147 PUSH32 0x1BEFF4983E5D4585A78431DD0B6811446E827B93DF707B7B909FA8A704999982 DUP5 PUSH2 0x92 JUMP JUMPDEST PUSH2 0x3CA PUSH1 0xE0 DUP9 ADD CALLDATALOAD PUSH32 0x2758E8B1B38BBB06BECE3C1965D330A32BA69488C7DC846EC46521EF44F91681 PUSH32 0xF1857618D1A4FB11BF3DD3B73D8EE396C47133C7F6F088ACE4EDB2336F67948 DUP5 PUSH2 0x92 JUMP JUMPDEST PUSH2 0x41A PUSH2 0x100 DUP9 ADD CALLDATALOAD PUSH31 0x169404966F59036CBF5E2223C9A25461CD0A57FD45CD0655EB1C28D808C4E2 PUSH32 0x2D47AE7C82315C30E68CA77C6172E331842B7241BFC89169444E95A445BA00FB DUP5 PUSH2 0x92 JUMP JUMPDEST PUSH2 0x46B PUSH2 0x120 DUP9 ADD CALLDATALOAD PUSH32 0x2B1EC85433B307C886790162CF9F78B844ADB42C9D8FA684983DD93F69E1A954 PUSH32 0x26E8AD09BCE851417F605B6FC3D8235E8E3D0FDA950B92163638A8AF00BFA2E7 DUP5 PUSH2 0x92 JUMP JUMPDEST PUSH2 0x4BC PUSH2 0x140 DUP9 ADD CALLDATALOAD PUSH32 0xA140AE16A0E5B2AEA47497960AEC10EE8C16946CEB7832746862F1C0C29950E PUSH32 0x1D82278F6475B768B04CEBF0B01FBD9D344E706609EA3315814E6FC10501583C DUP5 PUSH2 0x92 JUMP JUMPDEST POP DUP3 CALLDATALOAD DUP2 MSTORE PUSH32 0x30644E72E131A029B85045B68181585D97816A916871CA8D3C208C16D87CFD47 PUSH1 0x20 DUP5 ADD CALLDATALOAD PUSH32 0x30644E72E131A029B85045B68181585D97816A916871CA8D3C208C16D87CFD47 SUB MOD PUSH1 0x20 DUP3 ADD MSTORE DUP4 CALLDATALOAD PUSH1 0x40 DUP3 ADD MSTORE PUSH1 0x20 DUP5 ADD CALLDATALOAD PUSH1 0x60 DUP3 ADD MSTORE PUSH1 0x40 DUP5 ADD CALLDATALOAD PUSH1 0x80 DUP3 ADD MSTORE PUSH1 0x60 DUP5 ADD CALLDATALOAD PUSH1 0xA0 DUP3 ADD MSTORE PUSH32 0x2D4D9AA7E302D9DF41749D5507949D05DBEA33FBB16C643B22F599A2BE6DF2E2 PUSH1 0xC0 DUP3 ADD MSTORE PUSH32 0x14BEDD503C37CEB061D8EC60209FE345CE89830A19230301F076CAFF004D1926 PUSH1 0xE0 DUP3 ADD MSTORE PUSH32 0x967032FCBF776D1AFC985F88877F182D38480A653F2DECAA9794CBC3BF3060C PUSH2 0x100 DUP3 ADD MSTORE PUSH32 0xE187847AD4C798374D0D6732BF501847DD68BC0E071241E0213BC7FC13DB7AB PUSH2 0x120 DUP3 ADD MSTORE PUSH32 0x304CFBD1E08A704A99F5E847D93F8C3CAAFDDEC46B7A0D379DA69A4D112346A7 PUSH2 0x140 DUP3 ADD MSTORE PUSH32 0x1739C1B1A457A8C7313123D24D2F9192F896B7C63EEA05A9D57F06547AD0CEC8 PUSH2 0x160 DUP3 ADD MSTORE PUSH1 0x0 DUP8 ADD MLOAD PUSH2 0x180 DUP3 ADD MSTORE PUSH1 0x20 PUSH1 0x0 ADD DUP8 ADD MLOAD PUSH2 0x1A0 DUP3 ADD MSTORE PUSH32 0x198E9393920D483A7260BFB731FB5D25F1AA493335A9E71297E485B7AEF312C2 PUSH2 0x1C0 DUP3 ADD MSTORE PUSH32 0x1800DEEF121F1E76426A00665E5C4479674322D4F75EDADD46DEBD5CD992F6ED PUSH2 0x1E0 DUP3 ADD MSTORE PUSH32 0x90689D0585FF075EC9E99AD690C3395BC4B313370B38EF355ACDADCD122975B PUSH2 0x200 DUP3 ADD MSTORE PUSH32 0x12C85EA5DB8C6DEB4AAB71808DCB408FE3D1E7690C43D37B4CE6CC0166FA7DAA PUSH2 0x220 DUP3 ADD MSTORE DUP5 CALLDATALOAD PUSH2 0x240 DUP3 ADD MSTORE PUSH1 0x20 DUP6 ADD CALLDATALOAD PUSH2 0x260 DUP3 ADD MSTORE PUSH32 0x17691B37538C65B27218A4BD892127538B5F284D622AE344BBAADB2B9C6A2D25 PUSH2 0x280 DUP3 ADD MSTORE PUSH32 0x1E4E6476FE01DB0C78FF287B824CEF6CA22AB6DCD7FAB4C74EEE3F6F65DC5230 PUSH2 0x2A0 DUP3 ADD MSTORE PUSH32 0x1DC8EAB5169F1A70CF59F9375F59C11701A52BDDAE09D30EC264B00865F8F9B4 PUSH2 0x2C0 DUP3 ADD MSTORE PUSH32 0xBC64882F6AA7F43B2EC67330472818C85D95D60B5D5FE0270212A485269891E PUSH2 0x2E0 DUP3 ADD MSTORE PUSH1 0x20 DUP2 PUSH2 0x300 DUP4 PUSH1 0x8 PUSH2 0x7D0 GAS SUB STATICCALL SWAP1 MLOAD AND SWAP7 SWAP6 POP POP POP POP POP POP JUMP JUMPDEST PUSH1 0x40 MLOAD PUSH2 0x380 DUP2 ADD PUSH1 0x40 MSTORE PUSH2 0x7B4 PUSH1 0x0 DUP5 ADD CALLDATALOAD PUSH2 0x5E JUMP JUMPDEST PUSH2 0x7C1 PUSH1 0x20 DUP5 ADD CALLDATALOAD PUSH2 0x5E JUMP JUMPDEST PUSH2 0x7CE PUSH1 0x40 DUP5 ADD CALLDATALOAD PUSH2 0x5E JUMP JUMPDEST PUSH2 0x7DB PUSH1 0x60 DUP5 ADD CALLDATALOAD PUSH2 0x5E JUMP JUMPDEST PUSH2 0x7E8 PUSH1 0x80 DUP5 ADD CALLDATALOAD PUSH2 0x5E JUMP JUMPDEST PUSH2 0x7F5 PUSH1 0xA0 DUP5 ADD CALLDATALOAD PUSH2 0x5E JUMP JUMPDEST PUSH2 0x802 PUSH1 0xC0 DUP5 ADD CALLDATALOAD PUSH2 0x5E JUMP JUMPDEST PUSH2 0x80F PUSH1 0xE0 DUP5 ADD CALLDATALOAD PUSH2 0x5E JUMP JUMPDEST PUSH2 0x81D PUSH2 0x100 DUP5 ADD CALLDATALOAD PUSH2 0x5E JUMP JUMPDEST PUSH2 0x82B PUSH2 0x120 DUP5 ADD CALLDATALOAD PUSH2 0x5E JUMP JUMPDEST PUSH2 0x839 PUSH2 0x140 DUP5 ADD CALLDATALOAD PUSH2 0x5E JUMP JUMPDEST PUSH2 0x846 DUP2 DUP5 DUP7 DUP9 DUP11 PUSH2 0xFD JUMP JUMPDEST SWAP1 POP DUP1 PUSH1 0x0 MSTORE PUSH1 0x20 PUSH1 0x0 RETURN JUMPDEST DUP1 PUSH1 0x40 DUP2 ADD DUP4 LT ISZERO PUSH2 0x863 JUMPI PUSH1 0x0 DUP1 REVERT JUMPDEST SWAP3 SWAP2 POP POP JUMP JUMPDEST PUSH1 0x0 DUP1 PUSH1 0x0 DUP1 PUSH2 0x260 DUP1 DUP7 DUP9 SUB SLT ISZERO PUSH2 0x881 JUMPI PUSH1 0x0 DUP1 REVERT JUMPDEST PUSH2 0x88B DUP8 DUP8 PUSH2 0x852 JUMP JUMPDEST SWAP5 POP PUSH1 0xC0 DUP7 ADD DUP8 DUP2 GT ISZERO PUSH2 0x89E JUMPI PUSH1 0x0 DUP1 REVERT JUMPDEST PUSH1 0x40 DUP8 ADD SWAP5 POP PUSH2 0x8AE DUP9 DUP3 PUSH2 0x852 JUMP JUMPDEST SWAP4 POP POP DUP7 DUP2 DUP8 ADD GT ISZERO PUSH2 0x8C0 JUMPI PUSH1 0x0 DUP1 REVERT JUMPDEST POP SWAP3 SWAP6 SWAP2 SWAP5 POP SWAP3 PUSH2 0x100 ADD SWAP2 POP JUMP INVALID LOG2 PUSH5 0x6970667358 0x22 SLT KECCAK256 0xD0 SELFBALANCE CALLER 0xDD 0xD8 SHL OR 0xE7 0x4B 0x4D SSTORE DUP10 0x4C SDIV 0xCF PUSH5 0x2A6FD17A96 DUP1 0xC1 SWAP5 PUSH19 0xFF7B37EED4498464736F6C6343000814003300 "},"methodIdentifiers":{"getVerifierAddress()":"53ae8717","verifier()":"2b7ac3f3"}}}}}