{
  "_format": "hh-sol-artifact-1",
  "contractName": "DeFiScoreRegistry",
  "sourceName": "contracts/DeFiScoreRegistry.sol",
  "abi": [
    {
      "inputs": [
        {
          "internalType": "address",
          "name": "_initialVerifier",
          "type": "address"
        }
      ],
      "stateMutability": "nonpayable",
      "type": "constructor"
    },
    {
      "inputs": [],
      "name": "InvalidProof",
      "type": "error"
    },
    {
      "inputs": [],
      "name": "InvalidThreshold",
      "type": "error"
    },
    {
      "inputs": [],
      "name": "InvalidTimestamp",
      "type": "error"
    },
    {
      "inputs": [],
      "name": "InvalidVerifier",
      "type": "error"
    },
    {
      "inputs": [],
      "name": "InvalidVersion",
      "type": "error"
    },
    {
      "inputs": [],
      "name": "NullifierAlreadyUsed",
      "type": "error"
    },
    {
      "inputs": [],
      "name": "ProofExpired",
      "type": "error"
    },
    {
      "inputs": [],
      "name": "Unauthorized",
      "type": "error"
    },
    {
      "anonymous": false,
      "inputs": [
        {
          "indexed": true,
          "internalType": "address",
          "name": "previousOwner",
          "type": "address"
        },
        {
          "indexed": true,
          "internalType": "address",
          "name": "newOwner",
          "type": "address"
        }
      ],
      "name": "OwnershipTransferred",
      "type": "event"
    },
    {
      "anonymous": false,
      "inputs": [
        {
          "indexed": true,
          "internalType": "address",
          "name": "user",
          "type": "address"
        },
        {
          "indexed": false,
          "internalType": "uint256",
          "name": "score",
          "type": "uint256"
        },
        {
          "indexed": false,
          "internalType": "uint256",
          "name": "timestamp",
          "type": "uint256"
        },
        {
          "indexed": false,
          "internalType": "bytes32",
          "name": "nullifier",
          "type": "bytes32"
        },
        {
          "indexed": false,
          "internalType": "uint256",
          "name": "version",
          "type": "uint256"
        }
      ],
      "name": "ProofSubmitted",
      "type": "event"
    },
    {
      "anonymous": false,
      "inputs": [
        {
          "indexed": true,
          "internalType": "address",
          "name": "lender",
          "type": "address"
        },
        {
          "indexed": false,
          "internalType": "uint256",
          "name": "threshold",
          "type": "uint256"
        }
      ],
      "name": "ThresholdUpdated",
      "type": "event"
    },
    {
      "anonymous": false,
      "inputs": [
        {
          "indexed": true,
          "internalType": "uint256",
          "name": "version",
          "type": "uint256"
        },
        {
          "indexed": true,
          "internalType": "address",
          "name": "verifier",
          "type": "address"
        }
      ],
      "name": "VerifierUpdated",
      "type": "event"
    },
    {
      "inputs": [],
      "name": "MAX_TIMESTAMP_DRIFT",
      "outputs": [
        {
          "internalType": "uint256",
          "name": "",
          "type": "uint256"
        }
      ],
      "stateMutability": "view",
      "type": "function"
    },
    {
      "inputs": [],
      "name": "PROOF_VALIDITY_DURATION",
      "outputs": [
        {
          "internalType": "uint256",
          "name": "",
          "type": "uint256"
        }
      ],
      "stateMutability": "view",
      "type": "function"
    },
    {
      "inputs": [
        {
          "internalType": "uint256",
          "name": "_version",
          "type": "uint256"
        },
        {
          "internalType": "address",
          "name": "_verifier",
          "type": "address"
        }
      ],
      "name": "addVerifier",
      "outputs": [],
      "stateMutability": "nonpayable",
      "type": "function"
    },
    {
      "inputs": [],
      "name": "currentVersion",
      "outputs": [
        {
          "internalType": "uint256",
          "name": "",
          "type": "uint256"
        }
      ],
      "stateMutability": "view",
      "type": "function"
    },
    {
      "inputs": [
        {
          "internalType": "address",
          "name": "",
          "type": "address"
        }
      ],
      "name": "eligibility",
      "outputs": [
        {
          "internalType": "uint256",
          "name": "score",
          "type": "uint256"
        },
        {
          "internalType": "uint256",
          "name": "timestamp",
          "type": "uint256"
        },
        {
          "internalType": "bytes32",
          "name": "nullifier",
          "type": "bytes32"
        },
        {
          "internalType": "uint256",
          "name": "version",
          "type": "uint256"
        },
        {
          "internalType": "bool",
          "name": "isEligible",
          "type": "bool"
        }
      ],
      "stateMutability": "view",
      "type": "function"
    },
    {
      "inputs": [
        {
          "internalType": "address",
          "name": "_user",
          "type": "address"
        }
      ],
      "name": "getEligibilityData",
      "outputs": [
        {
          "components": [
            {
              "internalType": "uint256",
              "name": "score",
              "type": "uint256"
            },
            {
              "internalType": "uint256",
              "name": "timestamp",
              "type": "uint256"
            },
            {
              "internalType": "bytes32",
              "name": "nullifier",
              "type": "bytes32"
            },
            {
              "internalType": "uint256",
              "name": "version",
              "type": "uint256"
            },
            {
              "internalType": "bool",
              "name": "isEligible",
              "type": "bool"
            }
          ],
          "internalType": "struct DeFiScoreRegistry.EligibilityData",
          "name": "",
          "type": "tuple"
        }
      ],
      "stateMutability": "view",
      "type": "function"
    },
    {
      "inputs": [
        {
          "internalType": "address",
          "name": "_lender",
          "type": "address"
        }
      ],
      "name": "getLenderThreshold",
      "outputs": [
        {
          "internalType": "uint256",
          "name": "",
          "type": "uint256"
        }
      ],
      "stateMutability": "view",
      "type": "function"
    },
    {
      "inputs": [
        {
          "internalType": "address",
          "name": "_user",
          "type": "address"
        }
      ],
      "name": "getTimeUntilExpiry",
      "outputs": [
        {
          "internalType": "uint256",
          "name": "",
          "type": "uint256"
        }
      ],
      "stateMutability": "view",
      "type": "function"
    },
    {
      "inputs": [
        {
          "internalType": "uint256",
          "name": "_version",
          "type": "uint256"
        }
      ],
      "name": "getVerifier",
      "outputs": [
        {
          "internalType": "address",
          "name": "",
          "type": "address"
        }
      ],
      "stateMutability": "view",
      "type": "function"
    },
    {
      "inputs": [
        {
          "internalType": "address",
          "name": "_user",
          "type": "address"
        }
      ],
      "name": "isEligible",
      "outputs": [
        {
          "internalType": "bool",
          "name": "",
          "type": "bool"
        }
      ],
      "stateMutability": "view",
      "type": "function"
    },
    {
      "inputs": [
        {
          "internalType": "bytes32",
          "name": "_nullifier",
          "type": "bytes32"
        }
      ],
      "name": "isNullifierUsed",
      "outputs": [
        {
          "internalType": "bool",
          "name": "",
          "type": "bool"
        }
      ],
      "stateMutability": "view",
      "type": "function"
    },
    {
      "inputs": [
        {
          "internalType": "address",
          "name": "_user",
          "type": "address"
        }
      ],
      "name": "isProofFresh",
      "outputs": [
        {
          "internalType": "bool",
          "name": "",
          "type": "bool"
        }
      ],
      "stateMutability": "view",
      "type": "function"
    },
    {
      "inputs": [
        {
          "internalType": "address",
          "name": "",
          "type": "address"
        }
      ],
      "name": "lenderThresholds",
      "outputs": [
        {
          "internalType": "uint256",
          "name": "",
          "type": "uint256"
        }
      ],
      "stateMutability": "view",
      "type": "function"
    },
    {
      "inputs": [
        {
          "internalType": "address",
          "name": "_user",
          "type": "address"
        },
        {
          "internalType": "address",
          "name": "_lender",
          "type": "address"
        }
      ],
      "name": "meetsLenderThreshold",
      "outputs": [
        {
          "internalType": "bool",
          "name": "",
          "type": "bool"
        }
      ],
      "stateMutability": "view",
      "type": "function"
    },
    {
      "inputs": [
        {
          "internalType": "address",
          "name": "_user",
          "type": "address"
        },
        {
          "internalType": "uint256",
          "name": "_threshold",
          "type": "uint256"
        }
      ],
      "name": "meetsThreshold",
      "outputs": [
        {
          "internalType": "bool",
          "name": "",
          "type": "bool"
        }
      ],
      "stateMutability": "view",
      "type": "function"
    },
    {
      "inputs": [],
      "name": "owner",
      "outputs": [
        {
          "internalType": "address",
          "name": "",
          "type": "address"
        }
      ],
      "stateMutability": "view",
      "type": "function"
    },
    {
      "inputs": [
        {
          "internalType": "uint256",
          "name": "_version",
          "type": "uint256"
        }
      ],
      "name": "setCurrentVersion",
      "outputs": [],
      "stateMutability": "nonpayable",
      "type": "function"
    },
    {
      "inputs": [
        {
          "internalType": "uint256",
          "name": "_threshold",
          "type": "uint256"
        }
      ],
      "name": "setThreshold",
      "outputs": [],
      "stateMutability": "nonpayable",
      "type": "function"
    },
    {
      "inputs": [
        {
          "internalType": "uint256[8]",
          "name": "_proof",
          "type": "uint256[8]"
        },
        {
          "internalType": "uint256[11]",
          "name": "_pubSignals",
          "type": "uint256[11]"
        }
      ],
      "name": "submitProof",
      "outputs": [],
      "stateMutability": "nonpayable",
      "type": "function"
    },
    {
      "inputs": [
        {
          "internalType": "address",
          "name": "_newOwner",
          "type": "address"
        }
      ],
      "name": "transferOwnership",
      "outputs": [],
      "stateMutability": "nonpayable",
      "type": "function"
    },
    {
      "inputs": [
        {
          "internalType": "bytes32",
          "name": "",
          "type": "bytes32"
        }
      ],
      "name": "usedNullifiers",
      "outputs": [
        {
          "internalType": "bool",
          "name": "",
          "type": "bool"
        }
      ],
      "stateMutability": "view",
      "type": "function"
    },
    {
      "inputs": [
        {
          "internalType": "uint256",
          "name": "",
          "type": "uint256"
        }
      ],
      "name": "verifiers",
      "outputs": [
        {
          "internalType": "address",
          "name": "",
          "type": "address"
        }
      ],
      "stateMutability": "view",
      "type": "function"
    }
  ],
  "bytecode": "0x608060405234801561001057600080fd5b506040516110cf3803806110cf83398101604081905261002f916100b4565b600080546001600160a01b031990811633178255600180805580835260026020527fe90b7bceb6e7df5418fb78d8ee546e97c83a08bbccc01a0644d599ccd2a7c2e080546001600160a01b038616931683179055604051919290917f197d482b7082dbe6167ac52dcf20413abd865843fefc136969f1cee25288df6c9190a3506100e4565b6000602082840312156100c657600080fd5b81516001600160a01b03811681146100dd57600080fd5b9392505050565b610fdc806100f36000396000f3fe608060405234801561001057600080fd5b50600436106101415760003560e01c8063960bfe04116100b8578063ceda59231161007c578063ceda59231461033a578063ec5d8a7414610363578063f2fde38b1461043a578063f3a0ce411461044d578063fb8cfd0114610460578063fea912f11461047357600080fd5b8063960bfe04146102cd5780639d888e86146102e2578063ac1eff68146102eb578063b283209614610314578063ba9d02f01461032757600080fd5b806358e891a21161010a57806358e891a2146102035780635bfc8dfd1461021657806363c36dec1461022957806366e305fd146102945780637d0cc580146102a75780638da5cb5b146102ba57600080fd5b80622f13e1146101465780630a778da814610162578063206137aa1461016c57806322dc7b4c1461019f5780633561bc27146101c2575b600080fd5b61014f61012c81565b6040519081526020015b60405180910390f35b61014f6201518081565b61018f61017a366004610d66565b60036020526000908152604090205460ff1681565b6040519015158152602001610159565b61018f6101ad366004610d66565b60009081526003602052604090205460ff1690565b6101eb6101d0366004610d66565b6000908152600260205260409020546001600160a01b031690565b6040516001600160a01b039091168152602001610159565b61014f610211366004610d9b565b610493565b61018f610224366004610d9b565b610533565b61026a610237366004610d9b565b60046020819052600091825260409091208054600182015460028301546003840154939094015491939092909160ff1685565b6040805195865260208601949094529284019190915260608301521515608082015260a001610159565b61018f6102a2366004610d9b565b6105b6565b61018f6102b5366004610dbd565b610648565b6000546101eb906001600160a01b031681565b6102e06102db366004610d66565b6106e0565b005b61014f60015481565b6101eb6102f9366004610d66565b6002602052600090815260409020546001600160a01b031681565b6102e0610322366004610de7565b610753565b6102e0610335366004610e13565b6107fd565b61014f610348366004610d9b565b6001600160a01b031660009081526005602052604090205490565b6103f6610371366004610d9b565b6040805160a081018252600080825260208201819052918101829052606081018290526080810191909152506001600160a01b0316600090815260046020818152604092839020835160a081018552815481526001820154928101929092526002810154938201939093526003830154606082015291015460ff161515608082015290565b6040516101599190600060a0820190508251825260208301516020830152604083015160408301526060830151606083015260808301511515608083015292915050565b6102e0610448366004610d9b565b610ba1565b6102e061045b366004610d66565b610c41565b61018f61046e366004610e58565b610ca5565b61014f610481366004610d9b565b60056020526000908152604090205481565b6001600160a01b0381166000908152600460208181526040808420815160a08101835281548152600182015493810193909352600281015491830191909152600381015460608301529091015460ff161515608082018190526104f95750600092915050565b600062015180826020015161050e9190610e98565b9050804210610521575060009392505050565b61052b4282610eab565b949350505050565b6001600160a01b0381166000908152600460208181526040808420815160a08101835281548152600182015493810193909352600281015491830191909152600381015460608301529091015460ff161515608082018190526105995750600092915050565b6201518081602001516105ac9190610e98565b4211159392505050565b6001600160a01b0381166000908152600460208181526040808420815160a08101835281548152600182015493810193909352600281015491830191909152600381015460608301529091015460ff1615156080820181905261061c5750600092915050565b62015180816020015161062f9190610e98565b42111561063f5750600092915050565b50600192915050565b6001600160a01b0382166000908152600460208181526040808420815160a08101835281548152600182015493810193909352600281015491830191909152600381015460608301529091015460ff161515608082018190526106af5760009150506106da565b6201518081602001516106c29190610e98565b4211156106d35760009150506106da565b5182111590505b92915050565b620dbba08111156107045760405163aabd5a0960e01b815260040160405180910390fd5b3360008181526005602052604090819020839055517fbb0549e0aedb1fcc6a27d802df340bb4bd5dc53b1f97f3736a879345232e6def906107489084815260200190565b60405180910390a250565b6000546001600160a01b0316331461077d576040516282b42960e81b815260040160405180910390fd5b6001600160a01b0381166107a45760405163baa3de5f60e01b815260040160405180910390fd5b60008281526002602052604080822080546001600160a01b0319166001600160a01b0385169081179091559051909184917f197d482b7082dbe6167ac52dcf20413abd865843fefc136969f1cee25288df6c9190a35050565b80356020820135610100830135610120840135610140850135336001600160a01b0386161461083e576040516282b42960e81b815260040160405180910390fd5b60008281526003602052604090205460ff161561086e57604051636569570160e11b815260040160405180910390fd5b61087a61012c42610e98565b83111561089a5760405163b7d0949760e01b815260040160405180910390fd5b6108a76201518084610e98565b4211156108c75760405163b67a771360e01b815260040160405180910390fd5b6000818152600260205260409020546001600160a01b0316806108fd5760405163a9146eeb60e01b815260040160405180910390fd5b6000816001600160a01b031663b9c6ea8760405180604001604052808c60006008811061092c5761092c610ebe565b602002013581526020018c60016008811061094957610949610ebe565b60200201359052604080516080810182528d820135918101918252908190606082018f60036020020135815250815260200160405180604001604052808f60046008811061099957610999610ebe565b602002013581526020018f6005600881106109b6576109b6610ebe565b60200201359052905260408051808201909152808e6006602002013581526020018e6007600881106109ea576109ea610ebe565b60200201358152508c6040518563ffffffff1660e01b8152600401610a129493929190610efd565b602060405180830381865afa158015610a2f573d6000803e3d6000fd5b505050506040513d601f19601f82011682018060405250810190610a539190610f84565b905080610a73576040516309bde33960e01b815260040160405180910390fd5b60016003600086815260200190815260200160002060006101000a81548160ff0219169083151502179055506040518060a001604052808781526020018681526020018581526020018481526020016001151581525060046000896001600160a01b03166001600160a01b031681526020019081526020016000206000820151816000015560208201518160010155604082015181600201556060820151816003015560808201518160040160006101000a81548160ff021916908315150217905550905050866001600160a01b03167f41d58e9d533ef98cf6cbf7aa45e1c203183d92d14c1dcd981e6f233ab204222387878787604051610b8e949392919093845260208401929092526040830152606082015260800190565b60405180910390a2505050505050505050565b6000546001600160a01b03163314610bcb576040516282b42960e81b815260040160405180910390fd5b6001600160a01b038116610bf1576040516282b42960e81b815260040160405180910390fd5b600080546001600160a01b038381166001600160a01b0319831681178455604051919092169283917f8be0079c531659141344cd1fd0a4f28419497f9722a3daafe3b4186f6b6457e09190a35050565b6000546001600160a01b03163314610c6b576040516282b42960e81b815260040160405180910390fd5b6000818152600260205260409020546001600160a01b0316610ca05760405163a9146eeb60e01b815260040160405180910390fd5b600155565b6001600160a01b038116600090815260056020526040812054808203610ccf5760009150506106da565b6001600160a01b038416600090815260046020818152604092839020835160a081018552815481526001820154928101929092526002810154938201939093526003830154606082015291015460ff16151560808201819052610d37576000925050506106da565b620151808160200151610d4a9190610e98565b421115610d5c576000925050506106da565b5110159392505050565b600060208284031215610d7857600080fd5b5035919050565b80356001600160a01b0381168114610d9657600080fd5b919050565b600060208284031215610dad57600080fd5b610db682610d7f565b9392505050565b60008060408385031215610dd057600080fd5b610dd983610d7f565b946020939093013593505050565b60008060408385031215610dfa57600080fd5b82359150610e0a60208401610d7f565b90509250929050565b600080610260808486031215610e2857600080fd5b610100840185811115610e3a57600080fd5b849350858286011115610e4c57600080fd5b80925050509250929050565b60008060408385031215610e6b57600080fd5b610e7483610d7f565b9150610e0a60208401610d7f565b634e487b7160e01b600052601160045260246000fd5b808201808211156106da576106da610e82565b818103818111156106da576106da610e82565b634e487b7160e01b600052603260045260246000fd5b8060005b6002811015610ef7578151845260209384019390910190600101610ed8565b50505050565b6102608101610f0c8287610ed4565b6040808301866000805b6002808210610f255750610f5f565b835185845b83811015610f48578251825260209283019290910190600101610f2a565b505050938501935060209290920191600101610f16565b5050505050610f7160c0830185610ed4565b6101608361010084013795945050505050565b600060208284031215610f9657600080fd5b81518015158114610db657600080fdfea264697066735822122042963c8db7aa16ca7f7a1659de5718d1501c489bc0b037aab21051e7950fb62064736f6c63430008140033",
  "linkReferences": {},
  "deployedLinkReferences": {}
}