{
  "_format": "hh-sol-artifact-1",
  "contractName": "LendingEscrow",
  "sourceName": "contracts/LendingEscrow.sol",
  "abi": [
    {
      "inputs": [],
      "stateMutability": "nonpayable",
      "type": "constructor"
    },
    {
      "inputs": [],
      "name": "CreditScoreExpired",
      "type": "error"
    },
    {
      "inputs": [],
      "name": "InsufficientCreditScore",
      "type": "error"
    },
    {
      "inputs": [],
      "name": "NoCreditScoreProof",
      "type": "error"
    },
    {
      "inputs": [],
      "name": "ScoreRegistryNotSet",
      "type": "error"
    },
    {
      "anonymous": false,
      "inputs": [
        {
          "indexed": true,
          "internalType": "bytes32",
          "name": "loanId",
          "type": "bytes32"
        },
        {
          "indexed": true,
          "internalType": "address",
          "name": "borrower",
          "type": "address"
        },
        {
          "indexed": false,
          "internalType": "uint256",
          "name": "collateralAmount",
          "type": "uint256"
        }
      ],
      "name": "CollateralDeposited",
      "type": "event"
    },
    {
      "anonymous": false,
      "inputs": [
        {
          "indexed": true,
          "internalType": "bytes32",
          "name": "loanId",
          "type": "bytes32"
        },
        {
          "indexed": true,
          "internalType": "address",
          "name": "lender",
          "type": "address"
        },
        {
          "indexed": false,
          "internalType": "uint256",
          "name": "collateralAmount",
          "type": "uint256"
        }
      ],
      "name": "CollateralLiquidated",
      "type": "event"
    },
    {
      "anonymous": false,
      "inputs": [
        {
          "indexed": true,
          "internalType": "bytes32",
          "name": "loanId",
          "type": "bytes32"
        },
        {
          "indexed": true,
          "internalType": "address",
          "name": "borrower",
          "type": "address"
        },
        {
          "indexed": false,
          "internalType": "uint256",
          "name": "collateralAmount",
          "type": "uint256"
        }
      ],
      "name": "CollateralReturned",
      "type": "event"
    },
    {
      "anonymous": false,
      "inputs": [
        {
          "indexed": false,
          "internalType": "uint256",
          "name": "newThreshold",
          "type": "uint256"
        }
      ],
      "name": "DefaultThresholdUpdated",
      "type": "event"
    },
    {
      "anonymous": false,
      "inputs": [
        {
          "indexed": true,
          "internalType": "bytes32",
          "name": "loanId",
          "type": "bytes32"
        },
        {
          "indexed": true,
          "internalType": "address",
          "name": "borrower",
          "type": "address"
        },
        {
          "indexed": true,
          "internalType": "address",
          "name": "lender",
          "type": "address"
        },
        {
          "indexed": false,
          "internalType": "uint256",
          "name": "loanAmount",
          "type": "uint256"
        }
      ],
      "name": "LoanCreated",
      "type": "event"
    },
    {
      "anonymous": false,
      "inputs": [
        {
          "indexed": true,
          "internalType": "bytes32",
          "name": "loanId",
          "type": "bytes32"
        },
        {
          "indexed": true,
          "internalType": "address",
          "name": "borrower",
          "type": "address"
        }
      ],
      "name": "LoanDefaulted",
      "type": "event"
    },
    {
      "anonymous": false,
      "inputs": [
        {
          "indexed": true,
          "internalType": "bytes32",
          "name": "loanId",
          "type": "bytes32"
        },
        {
          "indexed": true,
          "internalType": "address",
          "name": "lender",
          "type": "address"
        },
        {
          "indexed": false,
          "internalType": "uint256",
          "name": "loanAmount",
          "type": "uint256"
        }
      ],
      "name": "LoanFunded",
      "type": "event"
    },
    {
      "anonymous": false,
      "inputs": [
        {
          "indexed": true,
          "internalType": "bytes32",
          "name": "loanId",
          "type": "bytes32"
        },
        {
          "indexed": true,
          "internalType": "address",
          "name": "borrower",
          "type": "address"
        }
      ],
      "name": "LoanRepaid",
      "type": "event"
    },
    {
      "anonymous": false,
      "inputs": [
        {
          "indexed": true,
          "internalType": "bytes32",
          "name": "loanId",
          "type": "bytes32"
        },
        {
          "indexed": true,
          "internalType": "address",
          "name": "borrower",
          "type": "address"
        },
        {
          "indexed": false,
          "internalType": "uint256",
          "name": "amount",
          "type": "uint256"
        },
        {
          "indexed": false,
          "internalType": "uint256",
          "name": "remaining",
          "type": "uint256"
        }
      ],
      "name": "RepaymentMade",
      "type": "event"
    },
    {
      "anonymous": false,
      "inputs": [
        {
          "indexed": true,
          "internalType": "address",
          "name": "newRegistry",
          "type": "address"
        }
      ],
      "name": "ScoreRegistryUpdated",
      "type": "event"
    },
    {
      "inputs": [
        {
          "internalType": "address",
          "name": "",
          "type": "address"
        },
        {
          "internalType": "uint256",
          "name": "",
          "type": "uint256"
        }
      ],
      "name": "borrowerLoans",
      "outputs": [
        {
          "internalType": "bytes32",
          "name": "",
          "type": "bytes32"
        }
      ],
      "stateMutability": "view",
      "type": "function"
    },
    {
      "inputs": [
        {
          "internalType": "bytes32",
          "name": "_loanId",
          "type": "bytes32"
        },
        {
          "internalType": "address",
          "name": "_borrower",
          "type": "address"
        },
        {
          "internalType": "address",
          "name": "_lender",
          "type": "address"
        },
        {
          "internalType": "address",
          "name": "_loanToken",
          "type": "address"
        },
        {
          "internalType": "address",
          "name": "_collateralToken",
          "type": "address"
        },
        {
          "internalType": "uint256",
          "name": "_loanAmount",
          "type": "uint256"
        },
        {
          "internalType": "uint256",
          "name": "_collateralAmount",
          "type": "uint256"
        },
        {
          "internalType": "uint256",
          "name": "_interestRate",
          "type": "uint256"
        },
        {
          "internalType": "uint256",
          "name": "_durationDays",
          "type": "uint256"
        }
      ],
      "name": "createLoan",
      "outputs": [],
      "stateMutability": "nonpayable",
      "type": "function"
    },
    {
      "inputs": [],
      "name": "defaultThreshold",
      "outputs": [
        {
          "internalType": "uint256",
          "name": "",
          "type": "uint256"
        }
      ],
      "stateMutability": "view",
      "type": "function"
    },
    {
      "inputs": [
        {
          "internalType": "bytes32",
          "name": "_loanId",
          "type": "bytes32"
        }
      ],
      "name": "depositCollateral",
      "outputs": [],
      "stateMutability": "nonpayable",
      "type": "function"
    },
    {
      "inputs": [
        {
          "internalType": "bytes32",
          "name": "_loanId",
          "type": "bytes32"
        }
      ],
      "name": "fundLoan",
      "outputs": [],
      "stateMutability": "nonpayable",
      "type": "function"
    },
    {
      "inputs": [
        {
          "internalType": "address",
          "name": "_borrower",
          "type": "address"
        }
      ],
      "name": "getBorrowerLoans",
      "outputs": [
        {
          "internalType": "bytes32[]",
          "name": "",
          "type": "bytes32[]"
        }
      ],
      "stateMutability": "view",
      "type": "function"
    },
    {
      "inputs": [
        {
          "internalType": "address",
          "name": "_lender",
          "type": "address"
        }
      ],
      "name": "getLenderLoans",
      "outputs": [
        {
          "internalType": "bytes32[]",
          "name": "",
          "type": "bytes32[]"
        }
      ],
      "stateMutability": "view",
      "type": "function"
    },
    {
      "inputs": [
        {
          "internalType": "bytes32",
          "name": "_loanId",
          "type": "bytes32"
        }
      ],
      "name": "getLoan",
      "outputs": [
        {
          "components": [
            {
              "internalType": "bytes32",
              "name": "loanId",
              "type": "bytes32"
            },
            {
              "internalType": "address",
              "name": "borrower",
              "type": "address"
            },
            {
              "internalType": "address",
              "name": "lender",
              "type": "address"
            },
            {
              "internalType": "address",
              "name": "loanToken",
              "type": "address"
            },
            {
              "internalType": "address",
              "name": "collateralToken",
              "type": "address"
            },
            {
              "internalType": "uint256",
              "name": "loanAmount",
              "type": "uint256"
            },
            {
              "internalType": "uint256",
              "name": "collateralAmount",
              "type": "uint256"
            },
            {
              "internalType": "uint256",
              "name": "interestRate",
              "type": "uint256"
            },
            {
              "internalType": "uint256",
              "name": "durationDays",
              "type": "uint256"
            },
            {
              "internalType": "uint256",
              "name": "startTime",
              "type": "uint256"
            },
            {
              "internalType": "uint256",
              "name": "dueDate",
              "type": "uint256"
            },
            {
              "internalType": "uint256",
              "name": "totalRepayment",
              "type": "uint256"
            },
            {
              "internalType": "uint256",
              "name": "amountRepaid",
              "type": "uint256"
            },
            {
              "internalType": "enum LendingEscrow.LoanStatus",
              "name": "status",
              "type": "uint8"
            }
          ],
          "internalType": "struct LendingEscrow.Loan",
          "name": "",
          "type": "tuple"
        }
      ],
      "stateMutability": "view",
      "type": "function"
    },
    {
      "inputs": [
        {
          "internalType": "address",
          "name": "_borrower",
          "type": "address"
        }
      ],
      "name": "isBorrowerEligible",
      "outputs": [
        {
          "internalType": "bool",
          "name": "",
          "type": "bool"
        }
      ],
      "stateMutability": "view",
      "type": "function"
    },
    {
      "inputs": [
        {
          "internalType": "bytes32",
          "name": "_loanId",
          "type": "bytes32"
        }
      ],
      "name": "isLoanOverdue",
      "outputs": [
        {
          "internalType": "bool",
          "name": "",
          "type": "bool"
        }
      ],
      "stateMutability": "view",
      "type": "function"
    },
    {
      "inputs": [
        {
          "internalType": "address",
          "name": "",
          "type": "address"
        },
        {
          "internalType": "uint256",
          "name": "",
          "type": "uint256"
        }
      ],
      "name": "lenderLoans",
      "outputs": [
        {
          "internalType": "bytes32",
          "name": "",
          "type": "bytes32"
        }
      ],
      "stateMutability": "view",
      "type": "function"
    },
    {
      "inputs": [
        {
          "internalType": "bytes32",
          "name": "_loanId",
          "type": "bytes32"
        }
      ],
      "name": "liquidateCollateral",
      "outputs": [],
      "stateMutability": "nonpayable",
      "type": "function"
    },
    {
      "inputs": [
        {
          "internalType": "bytes32",
          "name": "",
          "type": "bytes32"
        }
      ],
      "name": "loans",
      "outputs": [
        {
          "internalType": "bytes32",
          "name": "loanId",
          "type": "bytes32"
        },
        {
          "internalType": "address",
          "name": "borrower",
          "type": "address"
        },
        {
          "internalType": "address",
          "name": "lender",
          "type": "address"
        },
        {
          "internalType": "address",
          "name": "loanToken",
          "type": "address"
        },
        {
          "internalType": "address",
          "name": "collateralToken",
          "type": "address"
        },
        {
          "internalType": "uint256",
          "name": "loanAmount",
          "type": "uint256"
        },
        {
          "internalType": "uint256",
          "name": "collateralAmount",
          "type": "uint256"
        },
        {
          "internalType": "uint256",
          "name": "interestRate",
          "type": "uint256"
        },
        {
          "internalType": "uint256",
          "name": "durationDays",
          "type": "uint256"
        },
        {
          "internalType": "uint256",
          "name": "startTime",
          "type": "uint256"
        },
        {
          "internalType": "uint256",
          "name": "dueDate",
          "type": "uint256"
        },
        {
          "internalType": "uint256",
          "name": "totalRepayment",
          "type": "uint256"
        },
        {
          "internalType": "uint256",
          "name": "amountRepaid",
          "type": "uint256"
        },
        {
          "internalType": "enum LendingEscrow.LoanStatus",
          "name": "status",
          "type": "uint8"
        }
      ],
      "stateMutability": "view",
      "type": "function"
    },
    {
      "inputs": [
        {
          "internalType": "bytes32",
          "name": "_loanId",
          "type": "bytes32"
        },
        {
          "internalType": "uint256",
          "name": "_amount",
          "type": "uint256"
        }
      ],
      "name": "makeRepayment",
      "outputs": [],
      "stateMutability": "nonpayable",
      "type": "function"
    },
    {
      "inputs": [
        {
          "internalType": "bytes32",
          "name": "_loanId",
          "type": "bytes32"
        }
      ],
      "name": "markAsDefaulted",
      "outputs": [],
      "stateMutability": "nonpayable",
      "type": "function"
    },
    {
      "inputs": [],
      "name": "owner",
      "outputs": [
        {
          "internalType": "address",
          "name": "",
          "type": "address"
        }
      ],
      "stateMutability": "view",
      "type": "function"
    },
    {
      "inputs": [],
      "name": "scoreRegistry",
      "outputs": [
        {
          "internalType": "contract IDeFiScoreRegistry",
          "name": "",
          "type": "address"
        }
      ],
      "stateMutability": "view",
      "type": "function"
    },
    {
      "inputs": [
        {
          "internalType": "uint256",
          "name": "_threshold",
          "type": "uint256"
        }
      ],
      "name": "setDefaultThreshold",
      "outputs": [],
      "stateMutability": "nonpayable",
      "type": "function"
    },
    {
      "inputs": [
        {
          "internalType": "address",
          "name": "_registry",
          "type": "address"
        }
      ],
      "name": "setScoreRegistry",
      "outputs": [],
      "stateMutability": "nonpayable",
      "type": "function"
    }
  ],
  "bytecode": "0x60806040526207a120600255600160035534801561001c57600080fd5b50600080546001600160a01b03191633179055611f908061003e6000396000f3fe608060405234801561001057600080fd5b50600436106101205760003560e01c80638fd78cd4116100ad578063d38754cd11610071578063d38754cd14610306578063e3ed190214610319578063eee8b7ff1461032c578063eeeb0c171461034c578063f9bccab11461035f57600080fd5b80638fd78cd41461021057806392e4c55214610223578063c4a9081514610236578063c5246bf5146102e0578063d017fa94146102f357600080fd5b806353f10a4b116100f457806353f10a4b146101ae5780635eb6ee8e146101b757806363783af9146101ca5780638932f5f7146101dd5780638da5cb5b146101fd57600080fd5b80629cb25d1461012557806334dab3901461013a5780633cdb72f1146101625780633eb8104a14610183575b600080fd5b610138610133366004611b45565b610372565b005b61014d610148366004611b45565b61056a565b60405190151581526020015b60405180910390f35b610175610170366004611b7a565b610698565b604051908152602001610159565b600154610196906001600160a01b031681565b6040516001600160a01b039091168152602001610159565b61017560025481565b6101386101c5366004611ba4565b6106c9565b6101386101d8366004611b45565b610793565b6101f06101eb366004611b45565b610976565b6040516101599190611bf7565b600054610196906001600160a01b031681565b61014d61021e366004611ba4565b610a68565b610138610231366004611cdd565b610bea565b6102c6610244366004611b45565b600460208190526000918252604090912080546001820154600283015460038401549484015460058501546006860154600787015460088801546009890154600a8a0154600b8b0154600c8c0154600d909c01549a9c6001600160a01b039a8b169c998b169b908b169a90981698969795969495939492939192909160ff168e565b6040516101599e9d9c9b9a99989796959493929190611cff565b6101386102ee366004611b45565b610fb1565b610138610301366004611b45565b61105d565b610138610314366004611d84565b61126d565b610175610327366004611b7a565b61166e565b61033f61033a366004611ba4565b61168a565b6040516101599190611e07565b61033f61035a366004611ba4565b6116f6565b61013861036d366004611b45565b611760565b60035460011461039d5760405162461bcd60e51b815260040161039490611e4b565b60405180910390fd5b6002600355600081815260046020526040902080546103ce5760405162461bcd60e51b815260040161039490611e73565b60028101546001600160a01b0316331461042a5760405162461bcd60e51b815260206004820152601960248201527f4f6e6c79206c656e6465722063616e206c6971756964617465000000000000006044820152606401610394565b6004600d82015460ff16600581111561044557610445611bbf565b146104875760405162461bcd60e51b8152602060048201526012602482015271131bd85b881b9bdd08191959985d5b1d195960721b6044820152606401610394565b600d8101805460ff191660051790556004808201546002830154600684015460405163a9059cbb60e01b81526001600160a01b03928316948101949094526024840152169063a9059cbb906044016020604051808303816000875af11580156104f4573d6000803e3d6000fd5b505050506040513d601f19601f820116820180604052508101906105189190611ea0565b50336001600160a01b0316827f79a79f29d7efed5c9a590b6ed4b7b94ec1b2fb232427a3f416eb15dace2f6ca5836006015460405161055991815260200190565b60405180910390a350506001600355565b600081815260046020818152604080842081516101c0810183528154815260018201546001600160a01b0390811694820194909452600282015484169281019290925260038101548316606083015292830154909116608082015260058083015460a0830152600683015460c0830152600783015460e083015260088301546101008301526009830154610120830152600a830154610140830152600b830154610160830152600c830154610180830152600d8301548493916101a084019160ff169081111561063c5761063c611bbf565b600581111561064d5761064d611bbf565b90525090506002816101a00151600581111561066b5761066b611bbf565b14801561067c575080610140015142115b80156106915750806101600151816101800151105b9392505050565b600660205281600052604060002081815481106106b457600080fd5b90600052602060002001600091509150505481565b6000546001600160a01b031633146106f35760405162461bcd60e51b815260040161039490611ec2565b6001600160a01b0381166107495760405162461bcd60e51b815260206004820152601860248201527f496e76616c6964207265676973747279206164647265737300000000000000006044820152606401610394565b600180546001600160a01b0319166001600160a01b0383169081179091556040517f2b50883ee31518c38d6d92a16b179b66bc27eaea32c0245b96e829408a8c265290600090a250565b6003546001146107b55760405162461bcd60e51b815260040161039490611e4b565b6002600355600081815260046020526040902080546107e65760405162461bcd60e51b815260040161039490611e73565b60018101546001600160a01b0316331461084e5760405162461bcd60e51b8152602060048201526024808201527f4f6e6c7920626f72726f7765722063616e206465706f73697420636f6c6c6174604482015263195c985b60e21b6064820152608401610394565b6000600d82015460ff16600581111561086957610869611bbf565b146108ac5760405162461bcd60e51b8152602060048201526013602482015272496e76616c6964206c6f616e2073746174757360681b6044820152606401610394565b60048181015460068301546040516323b872dd60e01b8152339381019390935230602484015260448301526001600160a01b0316906323b872dd906064016020604051808303816000875af1158015610909573d6000803e3d6000fd5b505050506040513d601f19601f8201168201806040525081019061092d9190611ea0565b50600d8101805460ff191660011790556006810154604051908152339083907f1eaa3c7e4504a558b82af8aad514e144b09bc2eca413ceef6d6ba6260f772f1690602001610559565b61097e611a9f565b60008281526004602081815260409283902083516101c0810185528154815260018201546001600160a01b039081169382019390935260028201548316948101949094526003810154821660608501529182015416608083015260058082015460a0840152600682015460c0840152600782015460e084015260088201546101008401526009820154610120840152600a820154610140840152600b820154610160840152600c820154610180840152600d8201546101a084019160ff90911690811115610a4e57610a4e611bbf565b6005811115610a5f57610a5f611bbf565b90525092915050565b6001546000906001600160a01b0316610a8357506000919050565b6001546040516366e305fd60e01b81526001600160a01b038481166004830152909116906366e305fd90602401602060405180830381865afa158015610acd573d6000803e3d6000fd5b505050506040513d601f19601f82011682018060405250810190610af19190611ea0565b8015610b665750600154604051635bfc8dfd60e01b81526001600160a01b03848116600483015290911690635bfc8dfd90602401602060405180830381865afa158015610b42573d6000803e3d6000fd5b505050506040513d601f19601f82011682018060405250810190610b669190611ea0565b8015610be4575060015460025460405162fa198b60e71b81526001600160a01b0385811660048301526024820192909252911690637d0cc58090604401602060405180830381865afa158015610bc0573d6000803e3d6000fd5b505050506040513d601f19601f82011682018060405250810190610be49190611ea0565b92915050565b600354600114610c0c5760405162461bcd60e51b815260040161039490611e4b565b600260035560008281526004602052604090208054610c3d5760405162461bcd60e51b815260040161039490611e73565b60018101546001600160a01b03163314610c995760405162461bcd60e51b815260206004820152601760248201527f4f6e6c7920626f72726f7765722063616e2072657061790000000000000000006044820152606401610394565b6002600d82015460ff166005811115610cb457610cb4611bbf565b14610cf35760405162461bcd60e51b815260206004820152600f60248201526e4c6f616e206e6f742061637469766560881b6044820152606401610394565b60008211610d435760405162461bcd60e51b815260206004820152601d60248201527f416d6f756e74206d7573742062652067726561746572207468616e20300000006044820152606401610394565b600081600c015482600b0154610d599190611efb565b905080831115610dab5760405162461bcd60e51b815260206004820181905260248201527f416d6f756e7420657863656564732072656d61696e696e672062616c616e63656044820152606401610394565b600382015460028301546040516323b872dd60e01b81523360048201526001600160a01b039182166024820152604481018690529116906323b872dd906064016020604051808303816000875af1158015610e0a573d6000803e3d6000fd5b505050506040513d601f19601f82011682018060405250810190610e2e9190611ea0565b508282600c016000828254610e439190611f0e565b90915550339050847f06d28b1f9b589fc95c0277785794893a75cdc6eaf29ee49fa91cd3be9d31115e85610e778186611efb565b6040805192835260208301919091520160405180910390a381600b015482600c015410610fa657600d8201805460ff191660031790556004808301546001840154600685015460405163a9059cbb60e01b81526001600160a01b03928316948101949094526024840152169063a9059cbb906044016020604051808303816000875af1158015610f0b573d6000803e3d6000fd5b505050506040513d601f19601f82011682018060405250810190610f2f9190611ea0565b50604051339085907f8daf861cd83df9ee5bdd1881cc2e0ac722103d7b2a952fc76573658ca88c450390600090a3336001600160a01b0316847f8606a781efe7af9d45a62d3d0079e36c36c437261504883e026cc407d73cfd178460060154604051610f9d91815260200190565b60405180910390a35b505060016003555050565b6000546001600160a01b03163314610fdb5760405162461bcd60e51b815260040161039490611ec2565b620dbba08111156110225760405162461bcd60e51b8152602060048201526011602482015270125b9d985b1a59081d1a1c995cda1bdb19607a1b6044820152606401610394565b60028190556040518181527f74e220540b8f832845e1e89b5dfdb8b632923018ac953836880d68efcf2160f59060200160405180910390a150565b60035460011461107f5760405162461bcd60e51b815260040161039490611e4b565b6002600355600081815260046020526040902080546110b05760405162461bcd60e51b815260040161039490611e73565b60028101546001600160a01b0316331461110c5760405162461bcd60e51b815260206004820152601960248201527f4f6e6c79206c656e6465722063616e2066756e64206c6f616e000000000000006044820152606401610394565b6001600d82015460ff16600581111561112757611127611bbf565b146111745760405162461bcd60e51b815260206004820152601860248201527f436f6c6c61746572616c206e6f74206465706f736974656400000000000000006044820152606401610394565b6003810154600182015460058301546040516323b872dd60e01b81523360048201526001600160a01b03928316602482015260448101919091529116906323b872dd906064016020604051808303816000875af11580156111d9573d6000803e3d6000fd5b505050506040513d601f19601f820116820180604052508101906111fd9190611ea0565b50600d8101805460ff1916600217905542600982015560088101546112259062015180611f21565b61122f9042611f0e565b600a8201556005810154604051908152339083907fc9ec7789962b9f329b37b7c2abcaa16a718d7203dc72064e1fde1b34a552b05a90602001610559565b6000546001600160a01b031633146112975760405162461bcd60e51b815260040161039490611ec2565b600089815260046020526040902054156112e95760405162461bcd60e51b81526020600482015260136024820152724c6f616e20616c72656164792065786973747360681b6044820152606401610394565b6001600160a01b0388161580159061130957506001600160a01b03871615155b6113495760405162461bcd60e51b8152602060048201526011602482015270496e76616c69642061646472657373657360781b6044820152606401610394565b6000841180156113595750600083115b6113975760405162461bcd60e51b815260206004820152600f60248201526e496e76616c696420616d6f756e747360881b6044820152606401610394565b6113a0886118c9565b60006237b1d0826113b18588611f21565b6113bb9190611f21565b6113c59190611f38565b905060006113d38287611f0e565b90506000604051806101c001604052808d81526020018c6001600160a01b031681526020018b6001600160a01b031681526020018a6001600160a01b03168152602001896001600160a01b031681526020018881526020018781526020018681526020018581526020016000815260200160008152602001838152602001600081526020016000600581111561146b5761146b611bbf565b905260008d8152600460208181526040928390208451815590840151600180830180546001600160a01b03199081166001600160a01b03948516179091559486015160028401805487169184169190911790556060860151600384018054871691841691909117905560808601519383018054909516939091169290921790925560a083015160058084019190915560c0840151600684015560e0840151600784015561010084015160088401556101208401516009840155610140840151600a840155610160840151600b840155610180840151600c8401556101a0840151600d8401805495965086959193909260ff1990921691849081111561157257611572611bbf565b0217905550905050600560008c6001600160a01b03166001600160a01b031681526020019081526020016000208c9080600181540180825580915050600190039060005260206000200160009091909190915055600660008b6001600160a01b03166001600160a01b031681526020019081526020016000208c9080600181540180825580915050600190039060005260206000200160009091909190915055896001600160a01b03168b6001600160a01b03168d7fa0755887a25eb0a7fadc1b4e3982db5663d49089fc2de7b2f2ab1f9168ad71c68a60405161165891815260200190565b60405180910390a4505050505050505050505050565b600560205281600052604060002081815481106106b457600080fd5b6001600160a01b0381166000908152600560209081526040918290208054835181840281018401909452808452606093928301828280156116ea57602002820191906000526020600020905b8154815260200190600101908083116116d6575b50505050509050919050565b6001600160a01b0381166000908152600660209081526040918290208054835181840281018401909452808452606093928301828280156116ea57602002820191906000526020600020908154815260200190600101908083116116d65750505050509050919050565b6000818152600460205260409020805461178c5760405162461bcd60e51b815260040161039490611e73565b6002600d82015460ff1660058111156117a7576117a7611bbf565b146117e65760405162461bcd60e51b815260206004820152600f60248201526e4c6f616e206e6f742061637469766560881b6044820152606401610394565b80600a0154421161182d5760405162461bcd60e51b81526020600482015260116024820152704c6f616e206e6f7420706173742064756560781b6044820152606401610394565b80600b015481600c01541061187a5760405162461bcd60e51b8152602060048201526013602482015272131bd85b88185b1c9958591e481c995c185a59606a1b6044820152606401610394565b600d8101805460ff1916600417905560018101546040516001600160a01b039091169083907f36cb5ae03feffae0ec99449f0264e31b98f44c687c34916193267f2073ed23c590600090a35050565b6001546001600160a01b03166118f25760405163769e5f3160e11b815260040160405180910390fd5b6001546040516366e305fd60e01b81526001600160a01b038381166004830152909116906366e305fd90602401602060405180830381865afa15801561193c573d6000803e3d6000fd5b505050506040513d601f19601f820116820180604052508101906119609190611ea0565b61197d57604051638cedfd5b60e01b815260040160405180910390fd5b600154604051635bfc8dfd60e01b81526001600160a01b03838116600483015290911690635bfc8dfd90602401602060405180830381865afa1580156119c7573d6000803e3d6000fd5b505050506040513d601f19601f820116820180604052508101906119eb9190611ea0565b611a085760405163284bfa7160e21b815260040160405180910390fd5b60015460025460405162fa198b60e71b81526001600160a01b0384811660048301526024820192909252911690637d0cc58090604401602060405180830381865afa158015611a5b573d6000803e3d6000fd5b505050506040513d601f19601f82011682018060405250810190611a7f9190611ea0565b611a9c5760405163a3d61d5d60e01b815260040160405180910390fd5b50565b604051806101c001604052806000801916815260200160006001600160a01b0316815260200160006001600160a01b0316815260200160006001600160a01b0316815260200160006001600160a01b03168152602001600081526020016000815260200160008152602001600081526020016000815260200160008152602001600081526020016000815260200160006005811115611b4057611b40611bbf565b905290565b600060208284031215611b5757600080fd5b5035919050565b80356001600160a01b0381168114611b7557600080fd5b919050565b60008060408385031215611b8d57600080fd5b611b9683611b5e565b946020939093013593505050565b600060208284031215611bb657600080fd5b61069182611b5e565b634e487b7160e01b600052602160045260246000fd5b60068110611bf357634e487b7160e01b600052602160045260246000fd5b9052565b815181526020808301516101c0830191611c1b908401826001600160a01b03169052565b506040830151611c3660408401826001600160a01b03169052565b506060830151611c5160608401826001600160a01b03169052565b506080830151611c6c60808401826001600160a01b03169052565b5060a0838101519083015260c0808401519083015260e08084015190830152610100808401519083015261012080840151908301526101408084015190830152610160808401519083015261018080840151908301526101a080840151611cd582850182611bd5565b505092915050565b60008060408385031215611cf057600080fd5b50508035926020909101359150565b8e81526001600160a01b038e811660208301528d811660408301528c811660608301528b1660808201526101c081018a60a08301528960c08301528860e08301528761010083015286610120830152856101408301528461016083015283610180830152611d716101a0830184611bd5565b9f9e505050505050505050505050505050565b60008060008060008060008060006101208a8c031215611da357600080fd5b89359850611db360208b01611b5e565b9750611dc160408b01611b5e565b9650611dcf60608b01611b5e565b9550611ddd60808b01611b5e565b989b979a50959894979660a0860135965060c08601359560e0810135955061010001359350915050565b6020808252825182820181905260009190848201906040850190845b81811015611e3f57835183529284019291840191600101611e23565b50909695505050505050565b6020808252600e908201526d1499595b9d1c985b9d0818d85b1b60921b604082015260600190565b602080825260139082015272131bd85b88191bd95cc81b9bdd08195e1a5cdd606a1b604082015260600190565b600060208284031215611eb257600080fd5b8151801515811461069157600080fd5b6020808252600990820152682737ba1037bbb732b960b91b604082015260600190565b634e487b7160e01b600052601160045260246000fd5b81810381811115610be457610be4611ee5565b80820180821115610be457610be4611ee5565b8082028115828204841417610be457610be4611ee5565b600082611f5557634e487b7160e01b600052601260045260246000fd5b50049056fea2646970667358221220af905e074f5c2b9a632a2c116c55f8f1bb09ef0addeb62ffae3d86095dd952e764736f6c63430008140033",
  "linkReferences": {},
  "deployedLinkReferences": {}
}