{
  "_format": "hh-sol-artifact-1",
  "contractName": "Groth16Verifier",
  "sourceName": "contracts/Verifier.sol",
  "abi": [
    {
      "inputs": [
        {
          "internalType": "uint256[2]",
          "name": "_pA",
          "type": "uint256[2]"
        },
        {
          "internalType": "uint256[2][2]",
          "name": "_pB",
          "type": "uint256[2][2]"
        },
        {
          "internalType": "uint256[2]",
          "name": "_pC",
          "type": "uint256[2]"
        },
        {
          "internalType": "uint256[11]",
          "name": "_pubSignals",
          "type": "uint256[11]"
        }
      ],
      "name": "verifyProof",
      "outputs": [
        {
          "internalType": "bool",
          "name": "",
          "type": "bool"
        }
      ],
      "stateMutability": "view",
      "type": "function"
    }
  ],
  "bytecode": "0x608060405234801561001057600080fd5b50610906806100206000396000f3fe608060405234801561001057600080fd5b506004361061002b5760003560e01c8063b9c6ea8714610030575b600080fd5b61004361003e36600461086a565b610057565b604051901515815260200160405180910390f35b600061079d565b7f30644e72e131a029b85045b68181585d2833e84879b9709143e1f593f0000001811061008f576000805260206000f35b50565b600060405183815284602082015285604082015260408160608360076107d05a03fa9150816100c5576000805260206000f35b825160408201526020830151606082015260408360808360066107d05a03fa915050806100f6576000805260206000f35b5050505050565b7f0a70d73e97383003a028169d2984e7a83628eae01d8194c251d0adcd230008c285527f0d8e7a9a9f0050ffeef18f85572ce3365b84c129a2c4fb3f96e0e9aff6dbc55960208601526000608086018661019a87357f06da095e5bdb6e09383129ba1efb1e6734ce61d890604c94feb91e08b0be356d7f082b2af1b25809e958b11ac9a2efa7da434ffd7121692bf76068afa25a36af9d84610092565b6101ea60208801357f272d748eab2bb0ae06f14858e5628cf9fe73e3f3b827cdab5582735da137975e7f07a1d67efc470319d57ae74e0c0db7a38d959615b95fce578f9b0e80f22d632484610092565b61023a60408801357f2b8241f3091880fa2e83456ec86295c267ad2a883f08e80bf571a5959f5eda887f03a2e5c71d78dab1d70c68a20a110cfcbb64226dee870d79718f8b474403961b84610092565b61028a60608801357f24d19ffbee91331c2102271fd5343b36f30f11c07c6c4ef1c32d3b19f36dae777f292fc4a67dd6855d5dd65b1d46e803cabb48dc1a18cbb912194bad586c5cb54584610092565b6102da60808801357f110b0f032e0399f9b4614f50ff7e2786cbc8424796c1d105a447359046169b7b7f01cbb2fd778448a29229c4ec5fb5941fa7e69a6e8b40def5151582956f2fc91884610092565b61032a60a08801357f08cdc7acbbb8ad188a561a296b7c11b77d4e19ed280c66d0e42347a02fcbdd557f2776baba4b8ce98f053624d314e67a49267ab2eb4b020252862f8781afbc911f84610092565b61037a60c08801357f0923028516a11f393fb410c5366ab6de9e19e1e697b2489459b78f77bc8205a77f2a625c43d639c5d5040c4202a9768feafaedf106ca0caa90e4fc481c802117ea84610092565b6103ca60e08801357f04d20abcb32350dd9faa1a72e6daeeface22be01f32c0f1c40604a9f127b3b5e7f0592a7265c74dea0c550cb6de571e635c426660445dc36bf0795f40ae34e633884610092565b61041b6101008801357f2e326b51125ab7b5333b98cc964b0cf0484ac7b2fc87ed1d536c7afab95e56df7f04a6648c69ff8090850ed56a3062bdc2fddef3fb52f314368d40adb90dd6f3df84610092565b61046c6101208801357f2e25dba601f0c1a5d5ab9be256bfba77e2b9e0e1adb88e103dd5af3aae92f2fa7f01cf9f4859363757653469947fc95717cd8834523b30b099079f70d19b17f05b84610092565b6104bd6101408801357f251dcbe667db4c123f9a9c786b3fc0bc75e2c23edf1e259d2179846ac20c40637f225a7ce2e04d2cc877bea9a73842d46b18ad142d4823a07620eb4d538ba9433b84610092565b50823581527f30644e72e131a029b85045b68181585d97816a916871ca8d3c208c16d87cfd4760208401357f30644e72e131a029b85045b68181585d97816a916871ca8d3c208c16d87cfd4703066020820152833560408201526020840135606082015260408401356080820152606084013560a08201527f2d4d9aa7e302d9df41749d5507949d05dbea33fbb16c643b22f599a2be6df2e260c08201527f14bedd503c37ceb061d8ec60209fe345ce89830a19230301f076caff004d192660e08201527f0967032fcbf776d1afc985f88877f182d38480a653f2decaa9794cbc3bf3060c6101008201527f0e187847ad4c798374d0d6732bf501847dd68bc0e071241e0213bc7fc13db7ab6101208201527f304cfbd1e08a704a99f5e847d93f8c3caafddec46b7a0d379da69a4d112346a76101408201527f1739c1b1a457a8c7313123d24d2f9192f896b7c63eea05a9d57f06547ad0cec8610160820152600087015161018082015260206000018701516101a08201527f198e9393920d483a7260bfb731fb5d25f1aa493335a9e71297e485b7aef312c26101c08201527f1800deef121f1e76426a00665e5c4479674322d4f75edadd46debd5cd992f6ed6101e08201527f090689d0585ff075ec9e99ad690c3395bc4b313370b38ef355acdadcd122975b6102008201527f12c85ea5db8c6deb4aab71808dcb408fe3d1e7690c43d37b4ce6cc0166fa7daa610220820152843561024082015260208501356102608201527f1aa74b45ca45cc021034ac1a78dd7c7b08664409d86ad6d03e7d3b5d87b176d46102808201527f16c274acbd1f85bdc9ffcd4a28947d6c7bff185418c3c7f1a366ecb4dbcec1056102a08201527f11986592aec53506d7856c565fb336266d5dcb91c9e8a10cf960648c26f7fa6c6102c08201527f057d03f16ce7d8b8551d5652aee2b69ec0a785a027d813963ab2daa57099fa9e6102e08201526020816103008360086107d05a03fa9051169695505050505050565b60405161038081016040526107b5600084013561005e565b6107c2602084013561005e565b6107cf604084013561005e565b6107dc606084013561005e565b6107e9608084013561005e565b6107f660a084013561005e565b61080360c084013561005e565b61081060e084013561005e565b61081e61010084013561005e565b61082c61012084013561005e565b61083a61014084013561005e565b610847818486888a6100fd565b90508060005260206000f35b806040810183101561086457600080fd5b92915050565b60008060008061026080868803121561088257600080fd5b61088c8787610853565b945060c086018781111561089f57600080fd5b6040870194506108af8882610853565b9350508681870111156108c157600080fd5b5092959194509261010001915056fea264697066735822122043960b6e7cfe795f7d58c0e76685f32aad74c8938fcb56e20ecd1308a8d4740664736f6c63430008140033",
  "linkReferences": {},
  "deployedLinkReferences": {}
}