{
  "_format": "hh-sol-artifact-1",
  "contractName": "LenderIntegration",
  "sourceName": "contracts/LenderIntegration.sol",
  "abi": [
    {
      "inputs": [
        {
          "internalType": "address",
          "name": "_scoreRegistry",
          "type": "address"
        },
        {
          "internalType": "uint256",
          "name": "_initialThreshold",
          "type": "uint256"
        }
      ],
      "stateMutability": "nonpayable",
      "type": "constructor"
    },
    {
      "inputs": [],
      "name": "CreditScoreExpired",
      "type": "error"
    },
    {
      "inputs": [],
      "name": "ExceedsBorrowLimit",
      "type": "error"
    },
    {
      "inputs": [
        {
          "internalType": "uint256",
          "name": "required",
          "type": "uint256"
        },
        {
          "internalType": "uint256",
          "name": "actual",
          "type": "uint256"
        }
      ],
      "name": "InsufficientCreditScore",
      "type": "error"
    },
    {
      "inputs": [],
      "name": "NoCreditScore",
      "type": "error"
    },
    {
      "inputs": [],
      "name": "NothingToBorrow",
      "type": "error"
    },
    {
      "inputs": [],
      "name": "NothingToRepay",
      "type": "error"
    },
    {
      "inputs": [],
      "name": "Unauthorized",
      "type": "error"
    },
    {
      "anonymous": false,
      "inputs": [
        {
          "indexed": true,
          "internalType": "address",
          "name": "user",
          "type": "address"
        },
        {
          "indexed": false,
          "internalType": "uint256",
          "name": "limit",
          "type": "uint256"
        }
      ],
      "name": "BorrowLimitSet",
      "type": "event"
    },
    {
      "anonymous": false,
      "inputs": [
        {
          "indexed": true,
          "internalType": "address",
          "name": "user",
          "type": "address"
        },
        {
          "indexed": false,
          "internalType": "uint256",
          "name": "amount",
          "type": "uint256"
        }
      ],
      "name": "Borrowed",
      "type": "event"
    },
    {
      "anonymous": false,
      "inputs": [
        {
          "indexed": true,
          "internalType": "address",
          "name": "user",
          "type": "address"
        },
        {
          "indexed": false,
          "internalType": "uint256",
          "name": "amount",
          "type": "uint256"
        }
      ],
      "name": "Repaid",
      "type": "event"
    },
    {
      "anonymous": false,
      "inputs": [
        {
          "indexed": false,
          "internalType": "uint256",
          "name": "oldThreshold",
          "type": "uint256"
        },
        {
          "indexed": false,
          "internalType": "uint256",
          "name": "newThreshold",
          "type": "uint256"
        }
      ],
      "name": "ThresholdUpdated",
      "type": "event"
    },
    {
      "inputs": [
        {
          "internalType": "uint256",
          "name": "amount",
          "type": "uint256"
        }
      ],
      "name": "borrow",
      "outputs": [],
      "stateMutability": "nonpayable",
      "type": "function"
    },
    {
      "inputs": [
        {
          "internalType": "address",
          "name": "",
          "type": "address"
        }
      ],
      "name": "borrowLimits",
      "outputs": [
        {
          "internalType": "uint256",
          "name": "",
          "type": "uint256"
        }
      ],
      "stateMutability": "view",
      "type": "function"
    },
    {
      "inputs": [],
      "name": "borrowThreshold",
      "outputs": [
        {
          "internalType": "uint256",
          "name": "",
          "type": "uint256"
        }
      ],
      "stateMutability": "view",
      "type": "function"
    },
    {
      "inputs": [
        {
          "internalType": "address",
          "name": "",
          "type": "address"
        }
      ],
      "name": "borrowed",
      "outputs": [
        {
          "internalType": "uint256",
          "name": "",
          "type": "uint256"
        }
      ],
      "stateMutability": "view",
      "type": "function"
    },
    {
      "inputs": [
        {
          "internalType": "address",
          "name": "user",
          "type": "address"
        }
      ],
      "name": "checkEligibility",
      "outputs": [
        {
          "internalType": "bool",
          "name": "eligible",
          "type": "bool"
        },
        {
          "internalType": "uint256",
          "name": "score",
          "type": "uint256"
        },
        {
          "internalType": "uint256",
          "name": "availableLimit",
          "type": "uint256"
        }
      ],
      "stateMutability": "view",
      "type": "function"
    },
    {
      "inputs": [
        {
          "internalType": "address",
          "name": "user",
          "type": "address"
        }
      ],
      "name": "getTimeUntilExpiry",
      "outputs": [
        {
          "internalType": "uint256",
          "name": "",
          "type": "uint256"
        }
      ],
      "stateMutability": "view",
      "type": "function"
    },
    {
      "inputs": [
        {
          "internalType": "address",
          "name": "user",
          "type": "address"
        }
      ],
      "name": "isProofFresh",
      "outputs": [
        {
          "internalType": "bool",
          "name": "",
          "type": "bool"
        }
      ],
      "stateMutability": "view",
      "type": "function"
    },
    {
      "inputs": [],
      "name": "owner",
      "outputs": [
        {
          "internalType": "address",
          "name": "",
          "type": "address"
        }
      ],
      "stateMutability": "view",
      "type": "function"
    },
    {
      "inputs": [],
      "name": "repay",
      "outputs": [],
      "stateMutability": "payable",
      "type": "function"
    },
    {
      "inputs": [],
      "name": "scoreRegistry",
      "outputs": [
        {
          "internalType": "contract DeFiScoreRegistry",
          "name": "",
          "type": "address"
        }
      ],
      "stateMutability": "view",
      "type": "function"
    },
    {
      "inputs": [
        {
          "internalType": "address",
          "name": "user",
          "type": "address"
        },
        {
          "internalType": "uint256",
          "name": "limit",
          "type": "uint256"
        }
      ],
      "name": "setBorrowLimit",
      "outputs": [],
      "stateMutability": "nonpayable",
      "type": "function"
    },
    {
      "inputs": [
        {
          "internalType": "address[]",
          "name": "users",
          "type": "address[]"
        },
        {
          "internalType": "uint256[]",
          "name": "limits",
          "type": "uint256[]"
        }
      ],
      "name": "setBorrowLimitsBatch",
      "outputs": [],
      "stateMutability": "nonpayable",
      "type": "function"
    },
    {
      "inputs": [
        {
          "internalType": "uint256",
          "name": "newThreshold",
          "type": "uint256"
        }
      ],
      "name": "setThreshold",
      "outputs": [],
      "stateMutability": "nonpayable",
      "type": "function"
    },
    {
      "inputs": [],
      "name": "withdraw",
      "outputs": [],
      "stateMutability": "nonpayable",
      "type": "function"
    },
    {
      "stateMutability": "payable",
      "type": "receive"
    }
  ],
  "bytecode": "0x60a060405234801561001057600080fd5b5060405161118138038061118183398101604081905261002f91610057565b6001600160a01b03909116608052600055600180546001600160a01b03191633179055610091565b6000806040838503121561006a57600080fd5b82516001600160a01b038116811461008157600080fd5b6020939093015192949293505050565b6080516110966100eb6000396000818161018301528181610514015281816105a901528181610644015281816106d80152818161077901528181610a4001528181610bfd01528181610c930152610d4301526110966000f3fe6080604052600436106100e15760003560e01c80635ae547e31161007f5780638da5cb5b116100595780638da5cb5b14610288578063924c8490146102a8578063960bfe04146102c8578063c5ebeaec146102e857600080fd5b80635ae547e3146102055780635bfc8dfd1461021b5780637723bafb1461024b57600080fd5b80633eb8104a116100bb5780633eb8104a14610171578063402d8883146101bd5780634722b16a146101c557806358e891a2146101e557600080fd5b80630941cb3d146100ed578063274014e81461012d5780633ccfd60b1461015a57600080fd5b366100e857005b600080fd5b3480156100f957600080fd5b5061011a610108366004610e12565b60036020526000908152604090205481565b6040519081526020015b60405180910390f35b34801561013957600080fd5b5061011a610148366004610e12565b60026020526000908152604090205481565b34801561016657600080fd5b5061016f610308565b005b34801561017d57600080fd5b506101a57f000000000000000000000000000000000000000000000000000000000000000081565b6040516001600160a01b039091168152602001610124565b61016f61036e565b3480156101d157600080fd5b5061016f6101e0366004610e34565b61046f565b3480156101f157600080fd5b5061011a610200366004610e12565b6104f2565b34801561021157600080fd5b5061011a60005481565b34801561022757600080fd5b5061023b610236366004610e12565b610587565b6040519015158152602001610124565b34801561025757600080fd5b5061026b610266366004610e12565b610616565b604080519315158452602084019290925290820152606001610124565b34801561029457600080fd5b506001546101a5906001600160a01b031681565b3480156102b457600080fd5b5061016f6102c3366004610eaa565b61083e565b3480156102d457600080fd5b5061016f6102e3366004610f16565b6109b1565b3480156102f457600080fd5b5061016f610303366004610f16565b610ae2565b6001546001600160a01b03163314610332576040516282b42960e81b815260040160405180910390fd5b6001546040516001600160a01b03909116904780156108fc02916000818181858888f1935050505015801561036b573d6000803e3d6000fd5b50565b3460000361038f576040516369973fe360e11b815260040160405180910390fd5b33600090815260036020526040812054908190036103c0576040516369973fe360e11b815260040160405180910390fd5b80341061041c57336000908152600360205260408120553481101561041757336108fc6103ed8334610f45565b6040518115909202916000818181858888f19350505050158015610415573d6000803e3d6000fd5b505b610437565b6104263482610f45565b336000908152600360205260409020555b60405134815233907f0516911bcc3a0a7412a44601057c0a0a1ec628bde049a84284bc4288665344889060200160405180910390a250565b6001546001600160a01b03163314610499576040516282b42960e81b815260040160405180910390fd5b6001600160a01b03821660008181526002602052604090819020839055517f4e65bc780542c4acda0e928b0765b9c4373523442b3226d20067683fa56bb653906104e69084815260200190565b60405180910390a25050565b604051632c7448d160e11b81526001600160a01b0382811660048301526000917f0000000000000000000000000000000000000000000000000000000000000000909116906358e891a290602401602060405180830381865afa15801561055d573d6000803e3d6000fd5b505050506040513d601f19601f820116820180604052508101906105819190610f58565b92915050565b604051635bfc8dfd60e01b81526001600160a01b0382811660048301526000917f000000000000000000000000000000000000000000000000000000000000000090911690635bfc8dfd90602401602060405180830381865afa1580156105f2573d6000803e3d6000fd5b505050506040513d601f19601f820116820180604052508101906105819190610f81565b60405163fb8cfd0160e01b81526001600160a01b0382811660048301523060248301526000918291829182917f0000000000000000000000000000000000000000000000000000000000000000169063fb8cfd0190604401602060405180830381865afa15801561068b573d6000803e3d6000fd5b505050506040513d601f19601f820116820180604052508101906106af9190610f81565b90508061075757604051633b17629d60e21b81526001600160a01b0386811660048301526000917f00000000000000000000000000000000000000000000000000000000000000009091169063ec5d8a749060240160a060405180830381865afa158015610721573d6000803e3d6000fd5b505050506040513d601f19601f820116820180604052508101906107459190610f9c565b51600095509350849250610837915050565b604051633b17629d60e21b81526001600160a01b0386811660048301526000917f00000000000000000000000000000000000000000000000000000000000000009091169063ec5d8a749060240160a060405180830381865afa1580156107c2573d6000803e3d6000fd5b505050506040513d601f19601f820116820180604052508101906107e69190610f9c565b6001600160a01b0387166000908152600260209081526040808320546003909252822054929350919081831161081d576000610827565b6108278284610f45565b9351600198509650929450505050505b9193909250565b6001546001600160a01b03163314610868576040516282b42960e81b815260040160405180910390fd5b8281146108ae5760405162461bcd60e51b815260206004820152600f60248201526e098cadccee8d040dad2e6dac2e8c6d608b1b60448201526064015b60405180910390fd5b60005b838110156109aa578282828181106108cb576108cb61101e565b90506020020135600260008787858181106108e8576108e861101e565b90506020020160208101906108fd9190610e12565b6001600160a01b031681526020810191909152604001600020558484828181106109295761092961101e565b905060200201602081019061093e9190610e12565b6001600160a01b03167f4e65bc780542c4acda0e928b0765b9c4373523442b3226d20067683fa56bb65384848481811061097a5761097a61101e565b9050602002013560405161099091815260200190565b60405180910390a2806109a281611034565b9150506108b1565b5050505050565b6001546001600160a01b031633146109db576040516282b42960e81b815260040160405180910390fd5b620dbba0811115610a225760405162461bcd60e51b8152602060048201526011602482015270125b9d985b1a59081d1a1c995cda1bdb19607a1b60448201526064016108a5565b6000805490829055604051632582ff8160e21b8152600481018390527f00000000000000000000000000000000000000000000000000000000000000006001600160a01b03169063960bfe0490602401600060405180830381600087803b158015610a8c57600080fd5b505af1158015610aa0573d6000803e3d6000fd5b505060408051848152602081018690527fb06a54caabe58475c86c2bf9df3f2f06dd1213e9e10659c293117fe4893b274b935001905060405180910390a15050565b80600003610b0357604051631797905760e01b815260040160405180910390fd5b610b0c33610bd5565b3360009081526002602090815260408083205460039092529091205481610b33848361104d565b1115610b52576040516397ba4de360e01b815260040160405180910390fd5b610b5c838261104d565b33600081815260036020526040808220939093559151909185156108fc02918691818181858888f19350505050158015610b9a573d6000803e3d6000fd5b5060405183815233907fac59582e5396aca512fa873a2047e7f4c80f8f55d4a06cb34a78a0187f62719f9060200160405180910390a2505050565b60405163fb8cfd0160e01b81526001600160a01b0382811660048301523060248301526000917f00000000000000000000000000000000000000000000000000000000000000009091169063fb8cfd0190604401602060405180830381865afa158015610c46573d6000803e3d6000fd5b505050506040513d601f19601f82011682018060405250810190610c6a9190610f81565b905080610df257604051633b17629d60e21b81526001600160a01b0383811660048301526000917f00000000000000000000000000000000000000000000000000000000000000009091169063ec5d8a749060240160a060405180830381865afa158015610cdc573d6000803e3d6000fd5b505050506040513d601f19601f82011682018060405250810190610d009190610f9c565b90508060800151610d2457604051631c2816eb60e11b815260040160405180910390fd5b604051635bfc8dfd60e01b81526001600160a01b0384811660048301527f00000000000000000000000000000000000000000000000000000000000000001690635bfc8dfd90602401602060405180830381865afa158015610d8a573d6000803e3d6000fd5b505050506040513d601f19601f82011682018060405250810190610dae9190610f81565b610dcb5760405163284bfa7160e21b815260040160405180910390fd5b600054815160405163461c464160e11b8152600481019290925260248201526044016108a5565b5050565b80356001600160a01b0381168114610e0d57600080fd5b919050565b600060208284031215610e2457600080fd5b610e2d82610df6565b9392505050565b60008060408385031215610e4757600080fd5b610e5083610df6565b946020939093013593505050565b60008083601f840112610e7057600080fd5b50813567ffffffffffffffff811115610e8857600080fd5b6020830191508360208260051b8501011115610ea357600080fd5b9250929050565b60008060008060408587031215610ec057600080fd5b843567ffffffffffffffff80821115610ed857600080fd5b610ee488838901610e5e565b90965094506020870135915080821115610efd57600080fd5b50610f0a87828801610e5e565b95989497509550505050565b600060208284031215610f2857600080fd5b5035919050565b634e487b7160e01b600052601160045260246000fd5b8181038181111561058157610581610f2f565b600060208284031215610f6a57600080fd5b5051919050565b80518015158114610e0d57600080fd5b600060208284031215610f9357600080fd5b610e2d82610f71565b600060a08284031215610fae57600080fd5b60405160a0810181811067ffffffffffffffff82111715610fdf57634e487b7160e01b600052604160045260246000fd5b80604052508251815260208301516020820152604083015160408201526060830151606082015261101260808401610f71565b60808201529392505050565b634e487b7160e01b600052603260045260246000fd5b60006001820161104657611046610f2f565b5060010190565b8082018082111561058157610581610f2f56fea264697066735822122025a7c2d3935bdd03eb989608723bf511bfe1bfa4c8eeaea2b7fb33927e3cd13b64736f6c63430008140033",
  "linkReferences": {},
  "deployedLinkReferences": {}
}