{
  "_format": "hh-sol-artifact-1",
  "contractName": "SecurityGuard",
  "sourceName": "contracts/SecurityGuard.sol",
  "abi": [
    {
      "inputs": [],
      "stateMutability": "nonpayable",
      "type": "constructor"
    },
    {
      "inputs": [],
      "name": "AlreadyRevealed",
      "type": "error"
    },
    {
      "inputs": [],
      "name": "Blacklisted",
      "type": "error"
    },
    {
      "inputs": [],
      "name": "CommitExpired",
      "type": "error"
    },
    {
      "inputs": [],
      "name": "CommitNotFound",
      "type": "error"
    },
    {
      "inputs": [],
      "name": "InvalidCommit",
      "type": "error"
    },
    {
      "inputs": [],
      "name": "NullifierReused",
      "type": "error"
    },
    {
      "inputs": [],
      "name": "ProofTooFrequent",
      "type": "error"
    },
    {
      "inputs": [],
      "name": "RateLimitExceeded",
      "type": "error"
    },
    {
      "inputs": [],
      "name": "SystemPaused",
      "type": "error"
    },
    {
      "inputs": [],
      "name": "Unauthorized",
      "type": "error"
    },
    {
      "anonymous": false,
      "inputs": [
        {
          "indexed": true,
          "internalType": "address",
          "name": "user",
          "type": "address"
        }
      ],
      "name": "AddressBlacklisted",
      "type": "event"
    },
    {
      "anonymous": false,
      "inputs": [
        {
          "indexed": true,
          "internalType": "address",
          "name": "user",
          "type": "address"
        }
      ],
      "name": "AddressWhitelisted",
      "type": "event"
    },
    {
      "anonymous": false,
      "inputs": [
        {
          "indexed": true,
          "internalType": "address",
          "name": "user",
          "type": "address"
        },
        {
          "indexed": false,
          "internalType": "string",
          "name": "reason",
          "type": "string"
        }
      ],
      "name": "AnomalyDetected",
      "type": "event"
    },
    {
      "anonymous": false,
      "inputs": [
        {
          "indexed": false,
          "internalType": "bool",
          "name": "paused",
          "type": "bool"
        }
      ],
      "name": "PauseToggled",
      "type": "event"
    },
    {
      "anonymous": false,
      "inputs": [
        {
          "indexed": true,
          "internalType": "address",
          "name": "user",
          "type": "address"
        },
        {
          "indexed": false,
          "internalType": "bytes32",
          "name": "commitHash",
          "type": "bytes32"
        }
      ],
      "name": "ProofCommitted",
      "type": "event"
    },
    {
      "anonymous": false,
      "inputs": [
        {
          "indexed": true,
          "internalType": "address",
          "name": "user",
          "type": "address"
        },
        {
          "indexed": false,
          "internalType": "bytes32",
          "name": "nullifier",
          "type": "bytes32"
        }
      ],
      "name": "ProofRevealed",
      "type": "event"
    },
    {
      "anonymous": false,
      "inputs": [
        {
          "indexed": true,
          "internalType": "address",
          "name": "user",
          "type": "address"
        },
        {
          "indexed": false,
          "internalType": "uint256",
          "name": "attempts",
          "type": "uint256"
        }
      ],
      "name": "RateLimitHit",
      "type": "event"
    },
    {
      "anonymous": false,
      "inputs": [
        {
          "indexed": false,
          "internalType": "uint256",
          "name": "newLimit",
          "type": "uint256"
        }
      ],
      "name": "RateLimitUpdated",
      "type": "event"
    },
    {
      "inputs": [],
      "name": "COMMIT_TIMEOUT",
      "outputs": [
        {
          "internalType": "uint256",
          "name": "",
          "type": "uint256"
        }
      ],
      "stateMutability": "view",
      "type": "function"
    },
    {
      "inputs": [],
      "name": "MIN_PROOF_INTERVAL",
      "outputs": [
        {
          "internalType": "uint256",
          "name": "",
          "type": "uint256"
        }
      ],
      "stateMutability": "view",
      "type": "function"
    },
    {
      "inputs": [],
      "name": "RATE_LIMIT_WINDOW",
      "outputs": [
        {
          "internalType": "uint256",
          "name": "",
          "type": "uint256"
        }
      ],
      "stateMutability": "view",
      "type": "function"
    },
    {
      "inputs": [
        {
          "internalType": "address",
          "name": "_user",
          "type": "address"
        }
      ],
      "name": "addToWhitelist",
      "outputs": [],
      "stateMutability": "nonpayable",
      "type": "function"
    },
    {
      "inputs": [
        {
          "internalType": "address",
          "name": "",
          "type": "address"
        }
      ],
      "name": "anomalyScores",
      "outputs": [
        {
          "internalType": "uint256",
          "name": "suspiciousAttempts",
          "type": "uint256"
        },
        {
          "internalType": "uint256",
          "name": "lastFlagTime",
          "type": "uint256"
        },
        {
          "internalType": "bool",
          "name": "blacklisted",
          "type": "bool"
        }
      ],
      "stateMutability": "view",
      "type": "function"
    },
    {
      "inputs": [
        {
          "internalType": "address",
          "name": "_user",
          "type": "address"
        }
      ],
      "name": "blacklistAddress",
      "outputs": [],
      "stateMutability": "nonpayable",
      "type": "function"
    },
    {
      "inputs": [
        {
          "internalType": "address",
          "name": "_user",
          "type": "address"
        }
      ],
      "name": "canSubmitProof",
      "outputs": [
        {
          "internalType": "bool",
          "name": "",
          "type": "bool"
        }
      ],
      "stateMutability": "view",
      "type": "function"
    },
    {
      "inputs": [
        {
          "internalType": "bytes32",
          "name": "_commitHash",
          "type": "bytes32"
        }
      ],
      "name": "commitProof",
      "outputs": [],
      "stateMutability": "nonpayable",
      "type": "function"
    },
    {
      "inputs": [
        {
          "internalType": "address",
          "name": "",
          "type": "address"
        }
      ],
      "name": "commits",
      "outputs": [
        {
          "internalType": "bytes32",
          "name": "commitHash",
          "type": "bytes32"
        },
        {
          "internalType": "uint256",
          "name": "timestamp",
          "type": "uint256"
        },
        {
          "internalType": "bool",
          "name": "revealed",
          "type": "bool"
        }
      ],
      "stateMutability": "view",
      "type": "function"
    },
    {
      "inputs": [
        {
          "internalType": "address",
          "name": "_user",
          "type": "address"
        }
      ],
      "name": "getAnomalyScore",
      "outputs": [
        {
          "internalType": "uint256",
          "name": "suspiciousAttempts",
          "type": "uint256"
        },
        {
          "internalType": "uint256",
          "name": "lastFlagTime",
          "type": "uint256"
        },
        {
          "internalType": "bool",
          "name": "blacklisted",
          "type": "bool"
        }
      ],
      "stateMutability": "view",
      "type": "function"
    },
    {
      "inputs": [
        {
          "internalType": "address",
          "name": "_user",
          "type": "address"
        }
      ],
      "name": "getRateLimitStatus",
      "outputs": [
        {
          "internalType": "uint256",
          "name": "proofCount",
          "type": "uint256"
        },
        {
          "internalType": "uint256",
          "name": "windowStart",
          "type": "uint256"
        },
        {
          "internalType": "uint256",
          "name": "lastProofTime",
          "type": "uint256"
        },
        {
          "internalType": "uint256",
          "name": "remainingProofs",
          "type": "uint256"
        }
      ],
      "stateMutability": "view",
      "type": "function"
    },
    {
      "inputs": [
        {
          "internalType": "bytes32",
          "name": "_nullifier",
          "type": "bytes32"
        },
        {
          "internalType": "uint256",
          "name": "_blockRange",
          "type": "uint256"
        }
      ],
      "name": "isNullifierRecent",
      "outputs": [
        {
          "internalType": "bool",
          "name": "",
          "type": "bool"
        }
      ],
      "stateMutability": "view",
      "type": "function"
    },
    {
      "inputs": [
        {
          "internalType": "uint256",
          "name": "_timestamp",
          "type": "uint256"
        },
        {
          "internalType": "uint256",
          "name": "_maxAge",
          "type": "uint256"
        }
      ],
      "name": "isProofFresh",
      "outputs": [
        {
          "internalType": "bool",
          "name": "",
          "type": "bool"
        }
      ],
      "stateMutability": "view",
      "type": "function"
    },
    {
      "inputs": [],
      "name": "maxProofsPerDay",
      "outputs": [
        {
          "internalType": "uint256",
          "name": "",
          "type": "uint256"
        }
      ],
      "stateMutability": "view",
      "type": "function"
    },
    {
      "inputs": [
        {
          "internalType": "bytes32",
          "name": "",
          "type": "bytes32"
        }
      ],
      "name": "nullifierBlocks",
      "outputs": [
        {
          "internalType": "uint256",
          "name": "",
          "type": "uint256"
        }
      ],
      "stateMutability": "view",
      "type": "function"
    },
    {
      "inputs": [],
      "name": "owner",
      "outputs": [
        {
          "internalType": "address",
          "name": "",
          "type": "address"
        }
      ],
      "stateMutability": "view",
      "type": "function"
    },
    {
      "inputs": [],
      "name": "paused",
      "outputs": [
        {
          "internalType": "bool",
          "name": "",
          "type": "bool"
        }
      ],
      "stateMutability": "view",
      "type": "function"
    },
    {
      "inputs": [
        {
          "internalType": "address",
          "name": "",
          "type": "address"
        }
      ],
      "name": "rateLimits",
      "outputs": [
        {
          "internalType": "uint256",
          "name": "proofCount",
          "type": "uint256"
        },
        {
          "internalType": "uint256",
          "name": "windowStart",
          "type": "uint256"
        },
        {
          "internalType": "uint256",
          "name": "lastProofTime",
          "type": "uint256"
        }
      ],
      "stateMutability": "view",
      "type": "function"
    },
    {
      "inputs": [
        {
          "internalType": "address",
          "name": "_user",
          "type": "address"
        }
      ],
      "name": "removeFromBlacklist",
      "outputs": [],
      "stateMutability": "nonpayable",
      "type": "function"
    },
    {
      "inputs": [
        {
          "internalType": "address",
          "name": "_user",
          "type": "address"
        }
      ],
      "name": "removeFromWhitelist",
      "outputs": [],
      "stateMutability": "nonpayable",
      "type": "function"
    },
    {
      "inputs": [
        {
          "internalType": "bytes",
          "name": "_proof",
          "type": "bytes"
        },
        {
          "internalType": "uint256[]",
          "name": "_publicSignals",
          "type": "uint256[]"
        },
        {
          "internalType": "bytes32",
          "name": "_salt",
          "type": "bytes32"
        }
      ],
      "name": "revealProof",
      "outputs": [
        {
          "internalType": "bool",
          "name": "",
          "type": "bool"
        }
      ],
      "stateMutability": "nonpayable",
      "type": "function"
    },
    {
      "inputs": [
        {
          "internalType": "uint256",
          "name": "_newLimit",
          "type": "uint256"
        }
      ],
      "name": "setRateLimit",
      "outputs": [],
      "stateMutability": "nonpayable",
      "type": "function"
    },
    {
      "inputs": [],
      "name": "togglePause",
      "outputs": [],
      "stateMutability": "nonpayable",
      "type": "function"
    },
    {
      "inputs": [
        {
          "internalType": "address",
          "name": "_newOwner",
          "type": "address"
        }
      ],
      "name": "transferOwnership",
      "outputs": [],
      "stateMutability": "nonpayable",
      "type": "function"
    },
    {
      "inputs": [
        {
          "internalType": "address",
          "name": "",
          "type": "address"
        }
      ],
      "name": "whitelist",
      "outputs": [
        {
          "internalType": "bool",
          "name": "",
          "type": "bool"
        }
      ],
      "stateMutability": "view",
      "type": "function"
    }
  ],
  "bytecode": "0x6080604052600560015534801561001557600080fd5b50600080546001600160a01b031916331790556111dc806100376000396000f3fe608060405234801561001057600080fd5b50600436106101735760003560e01c80638ab1d681116100de578063c4ae316811610097578063e72edadc11610071578063e72edadc146103cb578063eab8e2b8146103fd578063f2fde38b14610430578063f3290d751461044357600080fd5b8063c4ae31681461039d578063df2a1be3146103a5578063e43252d7146103b857600080fd5b80638ab1d681146102f65780638da5cb5b1461030957806390ce91ea146103345780639b19251a14610354578063b6cffa1414610377578063c287184e1461038a57600080fd5b80637130dfc9116101305780637130dfc914610242578063770d96ce1461024c5780637a14c7d21461025f5780637b43a8e6146102a95780637bcee2a8146102da5780638030665c146102ed57600080fd5b80631d4211fd14610178578063223f4b66146101a0578063372cddd6146101b7578063537df3b6146102105780635c975abb14610225578063633ec40214610239575b600080fd5b61018b610186366004610ea5565b610456565b60405190151581526020015b60405180910390f35b6101a960015481565b604051908152602001610197565b6101f36101c5366004610ec7565b6001600160a01b0316600090815260046020526040902080546001820154600290920154909260ff90911690565b604080519384526020840192909252151590820152606001610197565b61022361021e366004610ec7565b61048d565b005b60005461018b90600160a01b900460ff1681565b6101a961012c81565b6101a96201518081565b61018b61025a366004610fbe565b6104dd565b61028e61026d366004610ec7565b60036020526000908152604090208054600182015460029092015490919083565b60408051938452602084019290925290820152606001610197565b6101f36102b7366004610ec7565b600260208190526000918252604090912080546001820154919092015460ff1683565b61018b6102e8366004610ea5565b610727565b6101a9610e1081565b610223610304366004610ec7565b61073d565b60005461031c906001600160a01b031681565b6040516001600160a01b039091168152602001610197565b6101a961034236600461107f565b60056020526000908152604090205481565b61018b610362366004610ec7565b60066020526000908152604090205460ff1681565b61018b610385366004610ec7565b610788565b61022361039836600461107f565b61085f565b610223610911565b6102236103b336600461107f565b6109a1565b6102236103c6366004610ec7565b610ac7565b6101f36103d9366004610ec7565b60046020526000908152604090208054600182015460029092015490919060ff1683565b61041061040b366004610ec7565b610b3d565b604080519485526020850193909352918301526060820152608001610197565b61022361043e366004610ec7565b610bba565b610223610451366004610ec7565b610c4e565b600082815260056020526040812054808203610476576000915050610487565b61048083826110ae565b4311159150505b92915050565b6000546001600160a01b031633146104b7576040516282b42960e81b815260040160405180910390fd5b6001600160a01b0316600090815260046020526040812060028101805460ff1916905555565b60008054600160a01b900460ff1615610509576040516301ca793160e61b815260040160405180910390fd5b3360009081526004602052604090206002015460ff161561053d576040516309550c7760e01b815260040160405180910390fd5b336000908152600260205260409020805461056b5760405163345512df60e21b815260040160405180910390fd5b600281015460ff16156105915760405163a89ac15160e01b815260040160405180910390fd5b61012c81600101546105a391906110ae565b4211156105c357604051631426c89760e31b815260040160405180910390fd5b60008585856040516020016105da939291906110e5565b604051602081830303815290604052805190602001209050816000015481146106165760405163b7b3378760e01b815260040160405180910390fd5b600a855110156106665760405162461bcd60e51b8152602060048201526016602482015275496e76616c6964207075626c6963207369676e616c7360501b60448201526064015b60405180910390fd5b60008560098151811061067b5761067b611131565b602002602001015160001b905060056000828152602001908152602001600020546000146106bc57604051635ad67c2560e11b815260040160405180910390fd5b60028301805460ff1916600117905560008181526005602052604090204390556106e533610cc7565b60405181815233907f74985aca296b907702c7323b3c754ba9577c7655d51b7525cd735ecf1a75e98e9060200160405180910390a25060019695505050505050565b600061073382846110ae565b4211159392505050565b6000546001600160a01b03163314610767576040516282b42960e81b815260040160405180910390fd5b6001600160a01b03166000908152600660205260409020805460ff19169055565b6001600160a01b03811660009081526004602052604081206002015460ff16156107b457506000919050565b600054600160a01b900460ff16156107ce57506000919050565b6001600160a01b03821660009081526006602052604090205460ff16610857576001600160a01b038216600090815260036020526040902060018101546108199062015180906110ae565b421015610833576001548154106108335750600092915050565b610e10816002015461084591906110ae565b4210156108555750600092915050565b505b506001919050565b6000546001600160a01b03163314610889576040516282b42960e81b815260040160405180910390fd5b60008111801561089a575060648111155b6108d65760405162461bcd60e51b815260206004820152600d60248201526c125b9d985b1a59081b1a5b5a5d609a1b604482015260640161065d565b60018190556040518181527f1939de75d13c836ba62103f23c7a2622e9cbc2113aa33a8c74eb28e409313db29060200160405180910390a150565b6000546001600160a01b0316331461093b576040516282b42960e81b815260040160405180910390fd5b6000805460ff600160a01b808304821615810260ff60a01b1990931692909217928390556040517f9077d36bc00859b5c3f320310707208543dd35092cb0a0fe117d0c6a558b148b936109979390049091161515815260200190565b60405180910390a1565b600054600160a01b900460ff16156109cc576040516301ca793160e61b815260040160405180910390fd5b3360009081526004602052604090206002015460ff1615610a00576040516309550c7760e01b815260040160405180910390fd5b610a0933610d65565b3360009081526003602052604090206002810154610a2a90610e10906110ae565b421015610a4a57604051638592bc9160e01b815260040160405180910390fd5b604080516060810182528381524260208083019182526000838501818152338083526002808552928790209551865593516001860155519301805460ff19169315159390931790925591518481527f64a56e8dfa0c13ba23b585269dc5f6f3d5d04237a0c3610da127589cfc2f13fc910160405180910390a25050565b6000546001600160a01b03163314610af1576040516282b42960e81b815260040160405180910390fd5b6001600160a01b038116600081815260066020526040808220805460ff19166001179055517f4f783c179409b4127238bc9c990bc99b9a651666a0d20b51d6c42849eb88466d9190a250565b6001600160a01b03811660009081526003602052604081206001810154829182918291908290610b719062015180906110ae565b421015610b9a5760015482541015610b95578154600154610b929190611147565b90505b610b9f565b506001545b81546001830154600290930154909892975095509350915050565b6000546001600160a01b03163314610be4576040516282b42960e81b815260040160405180910390fd5b6001600160a01b038116610c2c5760405162461bcd60e51b815260206004820152600f60248201526e496e76616c6964206164647265737360881b604482015260640161065d565b600080546001600160a01b0319166001600160a01b0392909216919091179055565b6000546001600160a01b03163314610c78576040516282b42960e81b815260040160405180910390fd5b6001600160a01b038116600081815260046020526040808220600201805460ff19166001179055517fdaf49ab9345b6cb75bcb5a7f726bff9183c34dcf5c098c385730f9fd893765f69190a250565b6001600160a01b03811660009081526003602052604090206001810154610cf29062015180906110ae565b4210610d0957426001808301919091558155610d1d565b8054816000610d178361115a565b91905055505b426002820155600154815410610d6157610d61826040518060400160405280601281526020017114985d19481b1a5b5a5d081c995858da195960721b815250610dde565b5050565b6001600160a01b03811660009081526006602052604090205460ff1615610d895750565b6001600160a01b03811660009081526003602052604090206001810154610db49062015180906110ae565b421015610d6157600154815410610d615760405163a74c1c5f60e01b815260040160405180910390fd5b6001600160a01b0382166000908152600460205260408120805490918290610e058361115a565b90915550504260018201556040516001600160a01b038416907f7cc735de8c926c9e76ecc49dc139e249ad8bf284bf93dc0e357a892d118fed6890610e4b908590611173565b60405180910390a28054600a11610ea05760028101805460ff191660011790556040516001600160a01b038416907fdaf49ab9345b6cb75bcb5a7f726bff9183c34dcf5c098c385730f9fd893765f690600090a25b505050565b60008060408385031215610eb857600080fd5b50508035926020909101359150565b600060208284031215610ed957600080fd5b81356001600160a01b0381168114610ef057600080fd5b9392505050565b634e487b7160e01b600052604160045260246000fd5b604051601f8201601f1916810167ffffffffffffffff81118282101715610f3657610f36610ef7565b604052919050565b600082601f830112610f4f57600080fd5b8135602067ffffffffffffffff821115610f6b57610f6b610ef7565b8160051b610f7a828201610f0d565b9283528481018201928281019087851115610f9457600080fd5b83870192505b84831015610fb357823582529183019190830190610f9a565b979650505050505050565b600080600060608486031215610fd357600080fd5b833567ffffffffffffffff80821115610feb57600080fd5b818601915086601f830112610fff57600080fd5b813560208282111561101357611013610ef7565b611025601f8301601f19168201610f0d565b828152898284870101111561103957600080fd5b8282860183830137600092810182019290925290955086013591508082111561106157600080fd5b5061106e86828701610f3e565b925050604084013590509250925092565b60006020828403121561109157600080fd5b5035919050565b634e487b7160e01b600052601160045260246000fd5b8082018082111561048757610487611098565b60005b838110156110dc5781810151838201526020016110c4565b50506000910152565b6000845160206110f88285838a016110c1565b85519184019181870160005b8281101561112057815185529383019390830190600101611104565b505050938152909201949350505050565b634e487b7160e01b600052603260045260246000fd5b8181038181111561048757610487611098565b60006001820161116c5761116c611098565b5060010190565b60208152600082518060208401526111928160408501602087016110c1565b601f01601f1916919091016040019291505056fea2646970667358221220d8460a9d38bbd0e8037336d3c76c33d2da05458eb9d994e51587117c9857d89f64736f6c63430008140033",
  "linkReferences": {},
  "deployedLinkReferences": {}
}